:04000005080000C12E
:020000040800F2
:10000000800E00204D01000855010008570100082E
:10001000888800FF425A0100010000000000000033
:100020000000000000000000000000009D1100081A
:1000300000000000000000000B0100081112000881
:100040009D050008910700085F0100085F01000896
:100050005F0100085F0100085F0100085F01000800
:100060005F0100085F0100085F0100085F010008F0
:100070005F01000839120008190E00085F0100082E
:100080005F0100085F0100085F010008CD1B000848
:100090005F0100085F010008451D00085F010008BE
:1000A0005F010008290600080000000000000000B1
:1000B0000000000000000000000000000000000040
:1000C0000348854600F034F900480047C13C000869
:1000D000800E0020084B19680868203080F30988DA
:1000E000022080F31488BFF36F8F3FBCAE4608BC7C
:1000F00004BC62B61847000004020020EFF3108031
:1001000072B6704780F310887047EFF309800E4B8A
:100110001A6820381060F0C044464D4656465F4687
:10012000F0C008B572B605F01DFA62B60CBC1168D5
:1001300008681030F0C8A046A946B246BB4680F316
:1001400009882038F0C81847040200200448804776
:1001500004480047FEE7FEE7FEE7FEE7FEE7FEE7AE
:1001600037120008C100000830B50B4601460020D8
:100170002022012409E00D46D5409D4205D31D46AD
:100180009540491B2546954040191546521E002DA5
:10019000F1DC30BD70B500242546002801DA0124C9
:1001A0004042002901DA01254942FFF7DDFFAC4258
:1001B00000D04042002C00D0494270BD03460B43A2
:1001C0009B0703D009E008C9121F08C0042AFAD20D
:1001D00003E00B780370401C491C521EF9D2704793
:1001E000D2B201E00270401C491EFBD270470022CF
:1001F000F6E710B513460A4604461946FFF7F0FF26
:10020000204610BD30B504460020034600E05B1CCC
:10021000934203D2E05CCD5C401BF8D030BD0000BF
:100220000EB5C217C10F5040CA0740180021054B38
:100230000293019200910A460B4600F026F803B0A3
:1002400000BD00003304000010B5002904DB0124C8
:10025000E40740428C412146002B04DB1C4601236D
:10026000DB075242A341994200D1904210BD0000E9
:1002700010B5002B08DA0024401C614192185B4144
:100280001A4301D14008400010BDF0B51FB482B040
:1002900005460C0003D0084601F0B6FD02E001F06F
:1002A000B3FD2030024600902146284600F052F867
:1002B000049B059A04460F4618431143084314D083
:1002C000184610431BD0009840210A1A1846059979
:1002D00000F050F805460E46009A0599049800F083
:1002E00039F8084305D0012004E02046394607B01C
:1002F000F0BD0020C11705430E432C43374300993E
:100300000E986305401A7905E40A00220C43FD0AA1
:100310000A3002D500200146E9E7010510196941BC
:100320000C9C0D9D00196941FFF7A2FFDFE700005B
:10033000064C0125064E05E0E36807CC2B430C3C38
:1003400098471034B442F7D3FFF7BEFEE0660008CA
:100350000067000810B5202A04DB0146203A9140CE
:10036000002010BD914020239C1A0346E34019430E
:10037000904010BD10B5202A04DB0846203AD0403A
:10038000002110BD0B46D340D0402024A21A91403A
:100390000843194610BD70B58C180578401C6B07D2
:1003A0005B0F01D10378401C2A1106D10278401C52
:1003B00003E006780E70401C491C5B1EF9D12B0728
:1003C00005D40023521E0DD40B70491CFAE70378A4
:1003D000401CCB1A921C03E01D780D70491C5B1C5D
:1003E000521EF9D5A142D8D3002070BD0026374C4B
:1003F000374D86B0F643FF23F53302AA314600207D
:1004000005F070FC0128F6D10298C007F3D0314FF7
:10041000002203A9386805F0DDF90128EBD169460F
:10042000C87B4006400E4870087C8870887BC007F7
:10043000C00F0870888902F00DFE69468880019A15
:10044000009903F0F4FE002804D0019A00991046A8
:1004500001F0A4FDA07C032835D13146286805F0C1
:1004600031FAA07C03281ED1607C00281BD072B614
:1004700001F062FE1848407804210843164948708C
:1004800016487D21C9000068FFF76EFE0A21484327
:1004900000F0A2FE10484078FB2108400E49487049
:1004A00000F0F8FE62B600231A461946286805F0E7
:1004B0000EF90A487D21C9000068FFF755FE0A21A0
:1004C000484300F089FE04F099FAA1E738050020BE
:1004D000100000200C000020008000200000002000
:1004E00010B5024902F0B0F810BD00005105000837
:1004F00010B5024902F034F810BD000001050008F3
:1005000070B504461D46104601F0F0FD410040184C
:10051000611B081AC0B2214604F07FFB70BD0000C9
:1005200010B5024902F050F810BD00003105000876
:1005300070B504461D461046049E01F0D7FD6119B2
:10054000891B081AC0B2214604F067FB70BD000089
:10055000F8B5114E07464D00306D1446405DE4215C
:1005600004F05BFB001B1C300028306D405D05DD96
:10057000E42104F052FB001B1C3004E0E42104F0F1
:100580004CFB201A1C38C000381A00D50020C0B21D
:10059000394604F042FBF8BD1C04002010B50648A3
:1005A000416941610548006801F05AFF044800684C
:1005B00001F044FF10BD0000000401407401002060
:1005C00080010020F1B51748154E47788078002447
:1005D000C1081448357F0C38008A80B204F01AFB39
:1005E000C0B204F0B9FB803840B201F0D1FC400643
:1005F000000E394604F011FB07460BE0706D0099C0
:10060000005D4978084203D03946204603F014F8CB
:10061000641CE4B2AC42F1D3284602F0CFFEF8BD30
:100620001C0400207401002070B5204900208A6855
:100630001F4C53070246002B02DA0423CB60626092
:100640008B689B0702D50223CB6062608B68DB0757
:1006500026D00125CD6063685B1C6360154B1B6B66
:100660005B1C1DD16368032B1AD362600968890380
:100670008A0D11494B68114EB34212D10B884E8836
:10068000F643B6B2B34201D10888101AFFF7C8FD8D
:100690004900490800220A4BFFF7D6FD00D2256029
:1006A00070BD0848C0688005800DEEE7006C004012
:1006B000AC010020C0FAFF1F00F7FF1F69E5B5A3DA
:1006C0000000244000F8FF1F10B5024901F0BCFFF4
:1006D00010BD0000D90600080B46014610B50448BD
:1006E0005B00006DC05C801AC0B204F096FA10BDC9
:1006F0001C04002010B5024901F066FF10BD000087
:100700000507000810B501465A009A1802985208C9
:100710001018C0B204F081FA10BD000010B50249F3
:1007200001F092FF10BD00002D0700080B460146A6
:1007300010B50548046D5800401C205C801AC0B2FA
:1007400004F06BFA10BD00001C04002010B5024933
:1007500002F046F810BD00005D07000870B50C46B9
:100760000A490D6D59004B1CEB5C695C203B7039EC
:10077000534361435918CA17520E511849040A0EBF
:100780000146104604F049FA70BD00001C04002028
:1007900010B504484169890703D50221416102F07F
:1007A000DBFB10BD000401400149486170470000B7
:1007B0000004014001494861704700000004014005
:1007C00010B5837918490268002B26D00B68934333
:1007D0000B604A6803689A434A60027952181368AA
:1007E0000468234313608A6803689A438A60CA686E
:1007F00003689A43CA604279102A05D051180A68E2
:10080000006802430A6010BD8A6803681A438A6060
:10081000CA6800680243CA6010BD007940180168C8
:100820009143016010BD00000004014000210160FF
:1008300001710C22427181717047000070B5EFF3B5
:10084000108272B6002317490C68E5061024002DAB
:1008500003DA0D680123A5430D604D690626354373
:100860004D6102258D60C860886804263043886029
:100870004869C007FCD188688008800088604869A2
:1008800028434861002B02D0086820430860002AF2
:1008900000D162B64869400701D5012070BD002033
:1008A00070BD00000020024010B504461F20C006A5
:1008B00001212018C90388421BD200F0A5F80E4977
:1008C000486906221043486102208860CC608A682B
:1008D00004231A438A604A69D207FCD18A689208C5
:1008E00092008A604A6902434A6100F007F80120D9
:1008F00010BD002010BD00000020024002488168A9
:10090000082211438160704700200240F0B5EFF3E8
:10091000108372B60024184A1568EE061025002EC2
:1009200003DA16680124AE431660566906273E4373
:10093000566101269660D0601161906804210843D9
:1009400090605069C007FCD190688008800090607A
:100950005069022108435061002C02D010682843DE
:100960001060002B00D162B65069400701D501200C
:10097000F0BD0020F0BD00000020024038B5830724
:100980009B0F1F25C21AED0601244019E503A8425A
:1009900008D2106800906846C1541046009900F0D3
:1009A00003F80446204638BD70B504461F200D46A6
:1009B0000126C0062018F10388421BD200F024F85B
:1009C0000D4A506906210843506101209060D460AF
:1009D000156190680421084390605069C007FCD1FC
:1009E000906880088000906050690221084350613F
:1009F000FFF784FF304670BD00200240007870474A
:100A00000088704700687047034802494160034905
:100A1000416070472301674500200240AB89EFCD5C
:100A2000F0B500231D469C461C460126A6400E42FA
:100A300011D067000326BE403343082C04D2A70020
:100A40000F26BE40354306E0A7000F26203FBE40DC
:100A500067463E43B446641C102CE6D38468D60235
:100A6000F6178C430E40344384604468D601F61771
:100A70008C430E4034434460016894000F4EA40F31
:100A8000744399431C4021430160C1689403A40F3F
:100A9000744399431C402143C1601107084A090F60
:100AA0005143026A0B46AA432B401A430262426A30
:100AB00063469A4319400A434262F0BD5555555565
:100AC0001111111170B5064615460C46000701D5E7
:100AD00001F03CF8B00701D500F0DCFB700704D54D
:100AE00016490020087000F0C3FBE00701D000F0B9
:100AF000EBFBA00701D500F0CBFE600701D500F0AD
:100B0000CFFE200701D500F0D3FEE00601D500F0AE
:100B1000E3FEA80701D500F0C1FE680701D500F08B
:100B2000C5FE280701D500F0C9FEE80601D500F092
:100B3000D4FEF00701D000F0B9FB70BD0202002026
:100B40000249014808607047CCCC000000300040EA
:100B5000034A0146D26800200A4200D001207047B3
:100B6000003000400348C168890701D40249016090
:100B70007047000000300040AAAA00000149486008
:100B80007047000000300040014988607047000055
:100B9000003000400149086070470000003000400C
:100BA00000B5A838030001F046F91C0F1113151702
:100BB0001D21231F26292C2F3134373A3D44191B80
:100BC00040424F4F474A4D4FE22000BDE92000BD53
:100BD000EA2000BDB52000BDB62000BDB32000BD99
:100BE000B42000BDB72000BDCC2000BDCD2000BD8D
:100BF000FF20843000BDFF208B3000BDFF209330EC
:100C000000BDFF20953000BD104800BD0F48801C7E
:100C100000BD8920800000BD0C48001D00BD0B48B0
:100C2000401D00BD0948801D00BD6F2000BD702023
:100C300000BD0648093000BD04487E3000BD1520C7
:100C4000400100BDCF2000BD002000BD21020000FA
:100C5000F8B54E4881684E4A1143816004F09CF813
:100C6000002701264B4C6CE0A06ABD004059411C96
:100C700066D003F0B7F903F0A9F9216F00284851B5
:100C8000A06A40590BD00107090F32468A4091B241
:100C9000000982020920C00610183F4A0BE0020733
:100CA000120F31469140000982020920C006101837
:100CB000012289B25204FFF7B3FEA06A405901092C
:100CC0008A020921C90651180A6B03071B0F304617
:100CD000984082430A63216F26204959090A090274
:100CE0004860216F02204959090A09020861216FF1
:100CF000FF20495981434861216F00204959090A61
:100D000009028861216F4959090A09020866216FA1
:100D10004959090A09024866216F4959090A090215
:100D20008866216F4959090A0902C866216F495925
:100D3000090A09020867216F4959090A0902486727
:100D40007F1CE088B8428FDC26200121890748609B
:100D500002200861FF204861002088610F4A10626C
:100D600050629062D06210635063486830434860BC
:100D70000B490868FF22120490430122D205104358
:100D80000860084851120160F8BD000040100240A0
:100D900000E203001C04002001000220400000408B
:100DA0000CE400E000E100E001208007016840223F
:100DB000114301607047000010B5054900200C7F09
:100DC000214602F067FE204602F0F8FA10BD00004E
:100DD0001C04002001F06AFF01F0E0FA04F086FA3A
:100DE00002F0BAFB02F0F2FFFFF7DEFF01F044FE73
:100DF00001F050FDFFF7B6FE01F004FE03F052F8DB
:100E000002F0A8FC01F030FE04F062FA04F038FAB7
:100E100001F074FDEEE70000F8B50126B607306872
:100E200000064ED530688021884330605D4CA06854
:100E30005D4F5E4D002845D00020A060E86A216823
:100E400089004158491C04D021688900405803F0AA
:100E5000A3F8564881882068401CFFF785F9216077
:100E600053480025056245628562C5620563456396
:100E70005048056245628562C562056345633D620F
:100E80007D62BD62FD623D637D634B4805624562E4
:100E90008562C5624948056245628562434861686A
:100EA000406A89004158491C04D061688900405853
:100EB00003F072F809207061B56130684021084381
:100EC0003060F8BD6068C1B2A86D02F0ADFF686A1D
:100ED000616889004158491C04D061688900405804
:100EE00003F042F8A9886068401CFFF73DF9616093
:100EF000FF2070610020B06110E0AB6A82009B5857
:100F000094465B1C08D0EB6E2268514359182A6F37
:100F10006346D258415C1160401CC0B2E9888142EE
:100F2000EBD82349C220086248628862C86208631D
:100F3000486338627862B862F862386378631D4942
:100F4000086248628862C862086348631A49086296
:100F500048628862C8621949086248628862E86A21
:100F6000216889004158491C04D0216889004058F3
:100F700002F0FAFF0C4940390A68402002430A6037
:100F80000C4940390A6802430A600B4940390A6833
:100F900002430A60094940390A6802430A60012095
:100FA000A0608AE7F4010020400400401C040020F7
:100FB000400000404014004040200040402C0040D1
:100FC00070B509480024057F0848467805E0314699
:100FD000204602F031FB641CE4B2AC42F7D3284651
:100FE00002F0ECF970BD00001C0400207401002028
:100FF00010B50146024A002001F096FB10BD00002A
:101000008111000810B5024901F04AFB10BD000033
:101010004D11000810B5044604480121007803F082
:10102000EBFB034A214601F07FFB10BDF2030020D9
:101030003510000810B5029CE3189BB2002900DAB5
:10104000494209B2002A00DA5242090114B2FF29CA
:1010500000DDFF210AB22101FF2900DDFF2109B2D5
:101060008A4200DC1146C91889B2FF2900D9FF2144
:10107000FF22511AC9B203F0B9FBC0B210BD000083
:1010800010B50146024A002001F04EFB10BD0000E1
:101090003510000810B50146024A002001F044FB5B
:1010A00010BD0000DD10000810B50146024A002006
:1010B00001F03AFB10BD00002D11000810B50446E8
:1010C00004480121007803F097FB034A214601F010
:1010D0002BFB10BDF2030020DD10000810B5029CB0
:1010E000E41AA4B2FF2C00D9FF24482B00D9FF2416
:1010F0000831112903D30832112A00D3FF24FF211C
:10110000091BC9B203F072FBC0B210BD10B5044692
:1011100004480121007803F06FFB034A214601F0E7
:1011200003FB10BDF20300202D11000810B59A003A
:1011300002999A18511889B2FF2900D9FF21FF227C
:10114000511AC9B203F052FBC0B210BDFF20401AC1
:10115000C2B210B5C8B2114603F05FFD10BD000069
:1011600010B5044604480121007803F045FB034A0A
:10117000214601F0D9FA10BDF203002081110008C8
:1011800010B50299C91A89B2FF2900D9FF21FF229F
:10119000511AC9B203F02AFBC0B210BD704700005B
:1011A0000A4910B5401E884201D9012010BD0849E6
:1011B000486108480722C3691B021B0A4C042343E9
:1011C000C361002088610A6110BD0000FFFFFF00BD
:1011D00000E000E004ED00E0F8B50C4CA76966699A
:1011E000216960618DB20020A06105202061FFF7B8
:1011F000B9FC2069C10701D0C003F8D520694008B7
:10120000400020616661A7612561F8BD00E000E053
:1012100010B5FEF773FF044604F006FD002803D066
:1012200001200349000748602046FEF76BFF10BD10
:1012300000ED00E07047704708480169C9070BD00E
:101240000121C943016106494878421C4A70B72808
:1012500002D9044901208860704700000010004056
:10126000900100209804002010B500F0EBFA10BDAA
:1012700010B506480121C1710021417214210448B2
:10128000FEF7B5FF00F042FC10BD0000008000201A
:101290003805002010B5044CA07C032803D100F0D1
:1012A0004FFCE07CA07410BD3805002010B5054847
:1012B000817C032905D0817CC1740321817400F0F5
:1012C0007FFC10BD38050020F8B5584E0025B573D9
:1012D000777C574C780701D575742570F80602D5D0
:1012E000802070742570207800282BD1F80729D031
:1012F00008225049002000F08FF94E488560C188CF
:101300008181C58100784006800F03D100F0F6F896
:10131000002801D100F0F8FAB5734021012807D068
:10132000022808D003280AD060207074032004E04B
:101330007174012001E071740220207002E04820E5
:10134000707425703A480078012835D1B80733D435
:10135000707CC107C90F49420140C8062CD4354CE6
:101360000227A1893448027891420DD2A289A1684E
:10137000802000F08FF9E089A1894018E081A581E3
:101380002B480A2705700EE0A168802000F082F942
:10139000A168294800780918A160A189091AA181CA
:1013A000E1890818E081E089E188884203D10820BA
:1013B00007431F48057077741D480078022834D110
:1013C000707CC00731D01B4C4027A1891A48027895
:1013D00091420AD2A289A168002000F01DF9E0899B
:1013E000A1894018E081A5810EE0A168002000F0ED
:1013F00013F9A168104800780918A160A189091A99
:10140000A181E1890818E081A08900280CD1482732
:1014100000F064FA032804D0682705490320087007
:1014200001E003480570B5737774F8BD00800020B3
:1014300002020020380500209B66000810B506480F
:101440004078092806D1012000F012FB002801D0C5
:10145000032010BD002010BD3805002038B5264CF3
:1014600020784006800F012804D020784006800FA5
:101470002CD03FE06078030000F0DDFC0C3C070A54
:10148000123C3C3C3C3C181F223C00F0BBFA04E000
:10149000E08801282ED100F0A1FA002828D129E007
:1014A000E088012826D100F0A3FAF6E7002000F03A
:1014B000DFFA00281ED0022038BD00F0C5FA01E096
:1014C00000F0CCFA002815D0032038BD607806283B
:1014D00010D1E17820796A4600F03CFAA060A0685B
:1014E000002807D0A18968460088814200D9A081E0
:1014F000012038BD002038BD3805002010B529482E
:10150000417800220B0000F096FC0A060C480E48B9
:10151000142748304548C08802283ED100F0FCF826
:101520001FE0002000E0012000F020F9002811D188
:1015300033E00178002930D18178837C4906490E57
:10154000022B2AD0184B19700123002901D0837473
:1015500000E08274032010BD007880281DD100F0C7
:10156000B5F8002819D0012010BD0178802914D1C8
:10157000C188012911D1817C002904D0012902D020
:1015800002290AD102E009490A8001E00549103127
:101590008160E8E70078002801D0002010BD00F04D
:1015A0000DF9C3E73805002000800020000200206C
:1015B0000207120F05D005498A73000602D54020A4
:1015C0004874704780200875704700000080002034
:1015D0000207120F08D0000606D404498A73C87D9A
:1015E000897D00020843704700207047008000207A
:1015F0000207120F0CD007498A73000602D5487CF7
:10160000C00601E0087D8006002801DA012070474D
:1016100000207047008000200007064B800EC01895
:1016200004E00378521E0B7092B2491C002AF8D1D4
:1016300070470000208000200107090F07D0000636
:1016400005D403488173017D49084900017570473D
:10165000008000200207120F05D005498A7300069A
:1016600002D510204874704720200875704700008C
:101670000080002010B5044600F00CF82007000F91
:1016800005D0210603D5024988730120487410BD96
:10169000008000200007064B800EC01804E00B7885
:1016A0000370521E92B2491C002AF8D17047000004
:1016B0002080002010B514210248FEF798FD00F0AC
:1016C000FBF910BD380500207047000038B5114CFB
:1016D000E078012805D0022807D003280AD000208E
:1016E00038BD684600F030F908E0A078694600F09F
:1016F00021F903E0A078694600F062F9A060A068D3
:101700000028EDD0A18968460088814200D9A081D7
:10171000012038BD3805002038B5124C002020804B
:10172000114D2878C006C00E05D0012817D0022818
:1017300011D0002038BD287C694600F0FBF8C07944
:10174000400601D501202080687C002807D0208831
:101750000221084302E02879FFF74AFF2080AC60AD
:10176000012038BD000200203805002010B51249C4
:101770000A78D206D20E02D0022A1BD107E04A888C
:10178000012A17D1002800D00120487410E04A88AF
:10179000002A0FD10C7921070CD00028204602D056
:1017A000FFF758FF04E0FFF703FF2046FFF78CFF29
:1017B000012010BD002010BD3805002070B5164C6A
:1017C000A578A07C012802D0022823D10AE0002DB0
:1017D00016D0284600F0BCF900281BD02574022042
:1017E000A0740DE0002D0DD0207CA84208D0207CF4
:1017F00000F014F8284600F0ABF900280AD0257450
:10180000012070BD002020740120A074002000F091
:1018100005F8F5E7002070BD380500200848C179BB
:10182000FD221140C171C179FB221140C171C27901
:10183000F7210A40C271427A0A40427270470000A2
:101840000080002010B50D48816842151143816069
:101850000C4C0B4A06212046FFF7E2F8206B0621CC
:10186000884320630848C169084A1143C1610121C6
:10187000401041700721C17210BD000040100240AD
:1018800001000020000C0048000001400000A48975
:101890000149002008607047CC010020704700001B
:1018A0000149002008607047D00100207047000007
:1018B0000149002008607047D4010020044803213A
:1018C0008173007DC00702D0024901200860704783
:1018D00000800020D80100207047704710B50949EA
:1018E00000200A785206520E212A0AD10A79002ACB
:1018F00005D00A79012A02D00979022901D1FFF71E
:101900009DFD10BD3805002010B5094900200A785A
:10191000D206D20E012A0AD10A79002A05D00A7904
:10192000012A02D00979022901D1FFF797FD10BDE4
:1019300038050020002801D0002070475B20088077
:10194000004870479F6500081221018000487047D9
:10195000505F00080923002804D001280ED0022877
:101960001AD01DE0212902D0222919D102E01380CA
:10197000114870474120108010487047212902D03B
:1019800022290DD103E00C48138019307047D8206C
:1019900010800A4841307047212903D0222905D000
:1019A0000020704704481380323070472220108096
:1019B0000148343870470000B165000864640008CD
:1019C000032806D28200044883581B780B80805875
:1019D0007047002070470000B8010020034902480A
:1019E0008860012070470000DD01002038050020DC
:1019F000034902488860012070470000DE01002092
:101A0000380500200E480179012905D1C178012946
:101A100002D1C188082903D00179002902D007E04A
:101A2000084909E0C178012902D1C188082901D0FB
:101A30000020704703490831816001207047000091
:101A400038050020DF0100200248C07802494870B4
:101A50000120704738050020DC0100200248807812
:101A6000024988700120704738050020DC01002001
:101A700010B50F490A79002A05D1CA78022A02D185
:101A8000CA88012A03D0087902280AD00DE0094A41
:101A9000002804D0107801F0A1FE012010BD8A605A
:101AA000FBE7C878032800D1C888002010BD0000DB
:101AB00038050020DC01002010488268012109055A
:101AC0000A43826002690A43026102698A43026131
:101AD0000A49012040390863C86209490020C872D8
:101AE000C871487207490868FF22120490430860D1
:101AF0000120054980050860704700004010024041
:101B00000080002014E400E000E100E0074901202B
:101B10004870C8710020487205490860054908608E
:101B200005490860054908607047000000800020F2
:101B3000CC010020D0010020D4010020D8010020D9
:101B40000149012008707047B5010020704700006E
:101B500030B5012801D0002030BD18480121817323
:101B6000002282740821017440234374417441743B
:101B7000C57902242543C57184738274017443744A
:101B800041744174C47904252C43C47103248473C3
:101B900082740174437441744174C3790B43C371FB
:101BA00084734275C1748022027510220275027519
:101BB000427A0A434272012030BD000000800020BA
:101BC0000149012048707047B5010020F8B5012097
:101BD0000005FEF7EFFD114C114D20780126114F45
:101BE000002802D0012804D00CE0686900070CD559
:101BF0002670686940070FD502202070132000F07E
:101C000027F93E702078002806D16869C00703D004
:101C1000132000F01DF93E70F8BD0000B401002053
:101C200080000240B501002008B5FFF743FDFFF733
:101C30001BFB394C394D01270026F643314633460C
:101C40006A46002004F04EF80098C007F4D03146F0
:101C5000334E306803F036FE60680002020E6068A2
:101C60000004010E6068C0B2FEF72CFF01202D4970
:101C7000800508602C48016800291CD072B62A48EB
:101C80000068002816D00320FFF7A2FC02460020BF
:101C9000208021490320FFF7BFFC62B61E490020C7
:101CA0004880891C881E03F07FFA72B628680028D5
:101CB00005D00BE062B6286800280ED024E0164953
:101CC0000222891C8320FFF7D5FC2F6016490020D3
:101CD00008600320FFF7B0FCECE7144800681449E3
:101CE000884211D1642000F042FB13491148486238
:101CF0000E4900200860BFF34F8F11490F48C8609C
:101D0000BFF34F8F00BFFDE700231A461946306826
:101D100003F0DDFC90E7000004000020D401002067
:101D20001000002000E100E0D8010020F0010020B8
:101D3000A5A5A55AEB9C374A401002400400FA05BD
:101D400000ED00E01CB51248017982780904120206
:101D50008079114301430F48416001200E498005FD
:101D60000860BFF34F8FBFF36F8F0020019001A871
:101D700000900A48012200231146006803F0E8FEA3
:101D80000198002803D001200549000748601CBDC8
:101D9000008000200400002080E100E01C00002002
:101DA00000ED00E010B5024900F04EFC10BD00004F
:101DB000B51D000810B5044605484900006D405C9B
:101DC000801AC0B202F0C8FF214602F026FF10BD03
:101DD0001C04002010B5024900F036FC10BD0000C4
:101DE000E51D000810B504460648036D4800401C78
:101DF000185C801AC0B202F0AFFF214602F00DFF5E
:101E000010BD00001C0400202021020C01D0102174
:101E10001046020A01D010460839020901D01046C6
:101E2000091F820801D01046891E420801D0881E71
:101E30007047081A704730B47446641E2578641CD5
:101E4000AB4200D21D46635D5B00E31830BC18470F
:101E5000002809DBC106C90E01208840034908603B
:101E6000BFF34F8FBFF36F8F7047000080E100E03A
:101E7000002805DBC106C90E012088400149086021
:101E80007047000000E100E08307FF22DB0E9A406C
:101E90008907090E9940002808DB830809489B0040
:101EA0001B18186890430843186070470007000F1C
:101EB0000838830804489B001B18D86990430843DE
:101EC000D861704700E400E000ED00E002E008C8DF
:101ED000121F08C1002AFAD170477047002001E0A4
:101EE00001C1121F002AFBD170470000F0B500238A
:101EF0001D469C461C460126A6400E4211D0670096
:101F00000326BE403343082C04D2A7000F26BE4050
:101F1000354306E0A7000F26203FBE4067463E43FC
:101F2000B446641C102CE6D38468D602F6178C43A2
:101F30000E40344384604468D601F6178C430E404B
:101F400034434460016894000F4EA40F74439943D6
:101F50001C4021430160C1689403A40F744399435A
:101F60001C402143C1601107084A090F5143026A0E
:101F70000B46AA432B401A430262426A63469A43C5
:101F800019400A434262F0BD5555555511111111C2
:101F9000002801DA404240B27047000037B5694678
:101FA0000C880D79201FA02808D82946009802F037
:101FB0007DF82A4621461CA000F052FF2046E0385A
:101FC000072808D82946009802F0F0F82A4621464A
:101FD00021A000F045FF2046A538022808D8294650
:101FE000009802F083F92A46214627A000F038FF26
:101FF0002046A8381B2808D82946009802F03EF849
:102000002A4621462CA000F02BFF2046ED3812284E
:1020100008D82946009802F0DFF82A46214626A073
:1020200000F01EFF3EBD00005B70726F636573734E
:102030005F6B65795D206B6579636F6465203D201A
:10204000307825583A2070726573736564203D209E
:1020500025640D0A000000005B70726F6365737386
:102060005F6D6F645D206B6579636F6465203D20F3
:10207000307825583A2070726573736564203D206E
:1020800025640D0A000000005B70726F6365737356
:102090005F73797374656D5D206B6579636F6465DB
:1020A000203D20307825583A20707265737365643E
:1020B000203D2025640D0A005B70726F63657373A9
:1020C0005F637573746F6D65725D206B6579636FA7
:1020D0006465203D20307825583A2070726573730E
:1020E0006564203D2025640D0A00000010B5040041
:1020F0000DD0002C00DC604200B200290DDB0A1874
:10210000081A40011146FEF745F820210CE000298D
:1021100001DB002010BD802010BD421A08184001CC
:102120001146FEF737F86021081A40B2002C00DA99
:102130004042C0B210BD000070B51320FFF788FE0A
:102140001B4B032018620C2058621A4900228A6136
:10215000184C0120403CE0630C69E407FCD0FF24EC
:10216000F5340221491CA142FCD313498C68012596
:102170002D052C438C601049403908631A625A625D
:102180000E4B1860CA6002234B6188618B69002B7B
:10219000FCD14A6208620922CA61486209490848BA
:1021A00008600948FEF7FCFF02F0F4FE70BD000075
:1021B00000700040800002404010024000200240B9
:1021C000006CDC020000002080BB0000FEB502F0C5
:1021D000D9FE224C032020620C2060622048816AD4
:1021E0000127394381620020FF21F531401C8842DC
:1021F000FCD30025256265621A4EF5607561B761F2
:102200001A49194808607D200001FEF7C9FF032024
:1022100020620C20606235631248403081680126DC
:102220003605B14381600E4A0D21803291612562ED
:10223000656281687410214381606846009605716B
:10224000082141718771FEF7BBFA094805703046D5
:10225000FEF7B0FA07480460FEBD000000700040C1
:10226000000002400010024080841E000000002098
:10227000B401002000E100E000B54030C0B202F03F
:102280006BFD00BD70B506460D480D464468002C38
:1022900015D00C48017C407CFDF766FF0849497861
:1022A000484308492039C98871434919CA08121995
:1022B0004C07835C640F0121A1404B40835470BDE7
:1022C000880100203C040020FFB5164C81B0002599
:1022D000A57020781E461746002812D002F073FE23
:1022E00021890125411A89B2A060FF2901D9FF2166
:1022F00001E0002905D0CBB23A460299019802F0DC
:10230000C7FE6078064309D0002D02D102F05BFEC3
:10231000A0603A460299019802F05EFEA07805B0EE
:10232000F0BD000040010020F8B50E4C0546E088E5
:10233000684301F015FD0C490023486019460EE082
:10234000002207E0C6183778521CFF07FF0F3770CE
:10235000D2B25B1CE6889642F4D8491CC9B2A942A5
:10236000EED3F8BD1C04002040010020704770B57A
:10237000054603F053FC044601E0FEF7F3FB20465C
:1023800002F01BFEA842F8D370BD0000014841696D
:1023900001480847FC650008007C000810B5194892
:1023A000032101620C224262174882680123DB0488
:1023B0001A438260154842690E239A434261416183
:1023C000134801684022090A0902114301601149BA
:1023D00001200860104900048860C860086000F0AF
:1023E0007FF80E48006800F03BF80D48006800F0E8
:1023F00025F800F03FF80446FFF7C8FF204600F03C
:1024000055F810BD0070004040100240000002402E
:1024100000E400E000E100E000040140740100205D
:102420008001002010B50348816803488847C043F5
:1024300010BD0000FC650008087C000802490A691C
:10244000C143024810470000FC650008087C0008F2
:102450000148816801480847FC650008047C0008C1
:1024600002490A690146024810470000FC6500085D
:10247000047C00080148816801480847FC650008A1
:102480000C7C0008084A0748D27F012192001143C2
:102490000170054920310A78427049788170FF2126
:1024A000C1707047740100201C04002070B50546FF
:1024B000FFF7CEFF0646FFF7B5FF0446FFF766FFBE
:1024C0003046FFF7CDFF2046FFF7B8FF0248294608
:1024D00002690248904770BDFC6500080C7C00084A
:1024E00010B50AA000F0BCFCFFF7B2FF0D49086070
:1024F00001460DA000F0B4FCFFF794FF11490860FD
:10250000014611A000F0ACFC10BD00005B656563E6
:102510006F6E6669675F757365725F6765745D206E
:102520000D0A0000740100206C65645F6D617472B7
:1025300069785F6565636F6E666967203D20256415
:102540000D0A0000800100206B65796D61705F638A
:102550006F6E666967203D2025640D0A000000004B
:10256000F3B518480F468078154D4108154881B0DD
:102570000C38008A00242E7F80B202F04BFBC0B2E0
:10258000009016E0686D0199005D497808420ED010
:102590002A6D6000115C401C125C0A48703940785A
:1025A000203A009BB8470146204601F045F8641CDC
:1025B000E4B2B442E6D3304600F000FFFEBD0000B6
:1025C0001C04002074010020F3B51E481C4D8078C7
:1025D00083B041081B4800240C38008A2F7F80B24A
:1025E00002F018FBC0B2029023E0686D0399005D11
:1025F000497808421BD02A6D6100505C491C703834
:102600000190565C4043203E31467143401880B2F1
:1026100002F0E4FB0346029800900A483246049E0A
:1026200040780199B0470146204601F005F8641C46
:10263000E4B2BC42D9D3384600F0C0FE05B0F0BDCC
:102640001C04002074010020F3B5144F124EB8781A
:1026500081B0810838460C38008A0024357F80B26A
:1026600002F0D8FAC0B2009010E0706D0199005DE0
:102670004978084208D0029B78782146009A98470A
:102680000146204600F0D8FF641CE4B2AC42ECD313
:10269000284600F093FEFEBD1C04002074010020BB
:1026A000F3B51D4F1D4D81B000243E7FA9781C4815
:1026B000FDF75AFD009029E0786D0199005D497899
:1026C000084221D01749009A08780CE00B185B7C6F
:1026D000A34208D143005B185B8B934203D24000B6
:1026E0004018428B03E0401E40B20028EEDAA97881
:1026F000104602F08FFA6A7801461046029A904717
:102700000146204600F098FF641CE4B2B442D3D3E3
:10271000304600F053FEFEBD1C0400207401002072
:10272000FFFF0000F2030020F7B52A488AB0007FBF
:102730000590294800240078039043E025480B9930
:10274000406D4978005D08423AD0002002900A9D11
:102750002AE020482049026D6000135C49194E7838
:10276000401C105C497A9F1B461A38463146784314
:102770007143401880B202F031FB089017480121E4
:10278000807802F033F8C1B213486A001018408B09
:1027900002F040FA324600900C9E3946089B02989F
:1027A000B0476D1CEDB2029003988542D1D30B481F
:1027B0004178029802F031FA0146204600F03CFFD1
:1027C000641CE4B205988442B8D300F0F7FD0DB064
:1027D000F0BD00001C040020F20300207401002062
:1027E000F3B51D481B4F807883B081081A48002438
:1027F0000C38008A3E7F80B202F00CFA0546C0B267
:10280000FFF73AFD803840B20290E8B202F0A4FA35
:10281000803840B2EDB2019014E00E480399406D4B
:102820004978005D08420BD00B480095049F407822
:102830002346019A0299B8470146204600F0FCFE63
:10284000641CE4B2B442E8D3304600F0B7FD05B0F2
:10285000F0BD00001C0400207401002010B50446E7
:102860000029024609D0FD21012002F033FB01209E
:1028700002F0DAFD2246FD2108E0FC21012002F0F1
:1028800029FB012002F0D0FD2246FC21002002F0AD
:1028900021FB10BDF8B5174C607A002828D0002520
:1028A00001273F040CE06069AE008059394601F011
:1028B0007EFBA0693946805901F079FB6D1CEDB2B1
:1028C000607AA842EFD800250FE06069AF00C059D8
:1028D00001F056FB0646A069C05901F051FB4000CB
:1028E0000643054846556D1CEDB2607AA842ECD807
:1028F000F8BD00001C04002085010020F8B5164832
:102900000025417A002924D000241EE01248A600A8
:102910004069805901F034FB07460F4880698059AF
:1029200001F02EFB400007430C48FAB2015D8B0713
:102930009B0F934207D08906090E1143015520468B
:1029400000F00EF80543641CE4B20348417AA1424A
:10295000DCD82846F8BD00001C04002085010020BA
:1029600070B5144C0A07144B0546120F605D9A5C53
:102970000026801840B26055042807DA021D05DDE4
:102980000E4A8907127C890F914210D1012804DB7D
:10299000012631462846FFF761FF6057002804DA18
:1029A000012600212846FFF759FF002060553046D8
:1029B00070BD000086010020546400081C04002043
:1029C0000B490020086048600A48006B401C0ED18B
:1029D0000948016807221143016008490868FF227D
:1029E00012029043086001200549400608607047C4
:1029F000AC010020C0FAFF1F006C004018E400E0AA
:102A000000E100E010B51248006B401C1FD11148D6
:102A1000016800291BD0EFF3108472B60021016019
:102A2000FDF7F2FF0C48FDF709FF0C480068800332
:102A3000800DC143090401430948FDF767FF0848B9
:102A40000849001DFDF762FF002C00D162B610BDE1
:102A5000C0FAFF1FAC01002000F6FF1F006C004011
:102A600000F7FF1F69E5B5A310B500F0F1F800F01D
:102A70001BF902F0A9F810BD10B500F005F8002808
:102A800000D0012010BD000010B5FFF7F3FC144C7E
:102A9000206000F0E1FF00F0CDFF002812D00422FA
:102AA0001049002001F072F80E490422091D01208E
:102AB00001F06CF80B4904220831022001F066F89D
:102AC00001F09AF800F0FCFC00F0DEFF002804D0D2
:102AD00020780007000F01F09BF8002010BD0000D7
:102AE000240100204864000870B50C46054600F03B
:102AF00045F8002807D0002C04D00348C54201D176
:102B000000F090F9012070BDFD83FFFFF7B50121B2
:102B100082B0194D002400913C22535DA96B26E040
:102B200022460C26724308328A5A82421DD16846D8
:102B3000007B002806D002F04BFA0C22A96B54430C
:102B4000085116E00C20444326460A36885D0027CB
:102B5000002807D0B01E085A0021FFF7C5FF0090DB
:102B6000A86B8755A86B075103E0641CE4B2A3422D
:102B7000D6D8009805B0F0BD1C04002070B5FF2524
:102B8000F53500262F4C29282ED02F4AD04256D179
:102B9000002954D0FF21084600F044FB03222946B7
:102BA000FF2000F05BFBFF2000F010FB00F02CFF8B
:102BB00000F040FF002812D004222449002000F039
:102BC000E5FF22490422091D012000F0DFFF1F4913
:102BD00004220831022000F0D9FF01F00DF8304640
:102BE0002660FFF763FC01E0002928D0FF2108469A
:102BF00000F018FB03222946FF2000F02FFBFF20E6
:102C000000F0E4FA00F000FF00F014FF002812D0FA
:102C100004220E49002000F0B9FF0C490422091DCE
:102C2000012000F0B3FF094904220831022000F01E
:102C3000ADFF00F0E1FF30462660FFF737FC0120D2
:102C400070BD000024010020FD83FFFF48640008E0
:102C5000F8B5144F00253E4620361EE02C460C20C9
:102C6000BA6B44431059002815D021460A3100910F
:102C7000515C00290FD102F0A0F9B96B221D8A58CE
:102C8000904208D3009A01208854B86B0834005B46
:102C90000121FFF729FF6D1CEDB2307FA842DDD87E
:102CA000F8BD00001C0400200120704710B500F0A2
:102CB00004F8002800D0012010BD0120704700005A
:102CC00037B50446029A019900F01EF8002815D085
:102CD00001A9204601F0F0FA00280FD0084820187A
:102CE00005D07F21C900401A00D001203EBD6846B2
:102CF00001790448002900D00121017000203EBD67
:102D0000F587FFFF4C01002037B5414B0546C21A3D
:102D10006846404C017920780007000F9D4228D07A
:102D20000FDC652D6ED03C4AAA1849D0012A56D036
:102D30003A48C24203D1002901D001F071FF0120BD
:102D40003EBD012A15D0022A13D0032AF7D100294B
:102D500056D000F0B5FB00F097FE0028F0D000F050
:102D60008BFE0028207823D00007000F00F032FEF1
:102D700046E0002944D000F0EDFE20780007000F67
:102D800000F028FE00F09CFB00F07EFE002803D13E
:102D900000F096FB401E60701D48404228182070CD
:102DA0000007000F00F034FF2068FFF77FFB27E0EB
:102DB0000007000F00F044FF002000F003FF1FE0B9
:102DC00000291DD000F0C6FE20780007000F00F09B
:102DD00001FE607800F0FEFB00F092FC0DE000299F
:102DE0000ED000F0B7FE20780007000F00F0F2FDD3
:102DF000607800F0EFFB00F097FC00F061FB607082
:102E000000203EBD064800780109012088433EBDF0
:102E1000047E000024010020FB87FFFF02FAFFFF71
:102E20008001002010B5FFF7B9FAFFF759FB00F059
:102E300093FB00F001F810BD0120704770B50D46FE
:102E40000646002404E0315D03A000F009F8641C8C
:102E5000AC42F8D370BD000025303258200000008D
:102E60007047000010B5134881684022114381600B
:102E7000114801688022114301601048FDF78AFE65
:102E80000320FDF77BFE0120FDF762FE0028FAD14A
:102E90003220FDF779FE0220FDF75AFE0028FAD114
:102EA0000220FDF755FE0028FAD1FDF75BFEFDF785
:102EB00047FE10BD4010024000580140555500002B
:102EC00070B584211D48FDF792F91C4E00200C3E80
:102ED000B06030601A4840688005800D7060FEF771
:102EE000A9F918490020401C8842FCD301F0F4FEE7
:102EF00015488168021511438160154C1348E06242
:102F00000125A5626561E81E2061E0682843E06054
:102F100000210D20FEF7B8FF0D20FEF7A9FF206865
:102F2000284320600B48032101620C214162B068F4
:102F30000028FCD001F08AFE70BD0000A40400202F
:102F4000800002401027000040100240FFFF0000F8
:102F5000001000400070004070B52B48416A2B48BB
:102F60004268002A23D0816081684268294B891A0F
:102F70008AB22749511899421AD881684160264C73
:102F80006168491C61600378014600260C31002B02
:102F900019D003789B005B18803BDB6F934203786A
:102FA00007D89B005B18803BDB6FD31A06E04160BB
:102FB00070BD9B005B18803BDB6F9B1A0A256B433F
:102FC000934200D9067003789D006D185B1C037056
:102FD0002A600278104D0C3D022A0FD30670A868B3
:102FE000002200280AD18300CB58401C9A18C0B296
:102FF0000228F8D35008286001F014FF60680A28FE
:10300000D6D90120A86070BD0010004090010020BA
:1030100070CCFFFF60540000A404002010B50948E4
:10302000416A094A91420BD10021416207490120BE
:1030300008600748016881F3088840688047FEE718
:1030400010BD000040100240EB9C374A00000140D8
:1030500000E0FF1F10B53049E0284A78097821D0F8
:1030600012DC352844D008DC292844D02A284CD04A
:10307000312816D148064CD449E0392801D082289D
:103080000FD1CB071FD108E00446E23C2300FEF736
:10309000D2FE0611141C08222508890713D4110733
:1030A00031D410BDC8072CD1D0070CD0C80610D41D
:1030B000E32010BD4807F9D401E0480701D5E2201C
:1030C00010BDD007F2D0E02010BD90070CD5C80687
:1030D0000CD5002010BD0807F9D401E0080701D580
:1030E000E62010BD9007F2D5E42010BDE72010BD0A
:1030F000880608D401E0880601D5352010BD1007E8
:1031000001D5392010BD292010BD480601D5312038
:1031100010BD2A2010BD0000800100200FB410B5A2
:103120007C2202A90348FDF749F810BC08BC04B092
:10313000184700001C04002030B5084B9D888D42C4
:103140000AD9DC88944207D945436818604380183F
:1031500019684000085A30BD002030BD1C04002012
:1031600001220349824008789043087070470000AC
:10317000840100200121814002480278114301703E
:103180007047000084010020F3B50E480F46067812
:103190000D48007A401E44B201250EE02846A040AA
:1031A000304208D0E0B23A460099FFF7C5FF012847
:1031B00001D0E0B2FCBD641E64B2002CEEDA002047
:1031C000FCBD0000840100201C04002030B514491F
:1031D00000224424645C0B6C1DE01C255543103513
:1031E0005D5D854215D11C204243104608301C58B5
:1031F000002C12D09D5865436D00141D6D1C1D518F
:10320000096C0858FF2802D18858401C0851012039
:1032100030BD521CD2B29442DFD8002030BD000035
:103220001C04002030B50C4B00221C6C40331D796F
:103230000DE01C2353431033E35C834205D11C2073
:1032400042431832A154012030BD521CD2B29542E3
:10325000EFD8002030BD00001C040020F0B5114C58
:1032600000234426365D256C18E01C275F43103789
:10327000EF5D874210D11C204343E9501846216C72
:1032800008300A501946226C00200C315050216C35
:103290001133C8540120F0BD5B1CDBB29E42E4D860
:1032A0000020F0BD1C040020FEB50025414F7BE04E
:1032B00040482C4640381C225443016C261D8A5934
:1032C000002A68D020460C3001900858002807D00A
:1032D00001F073FE37494039096C0959884228D3F7
:1032E0003448224640381132016C00928A5C002A30
:1032F00013D0002200980A5401F06AFE2D4940398B
:103300000A6C019950502B484038006C8159025981
:10331000914204D3891A81510BE00122EAE700218E
:10332000244A8151403A136C00981954126C019848
:10333000115020494039086C8259002A13D00E469A
:10334000001900F039F800282CD02046316C1130DB
:10335000085C002813D020461030085CFF280BD0F2
:103360001834095D10E0214614314158002919D064
:103370001034005D884715E01834085D08E010340B
:10338000085DFF2803D0002100F056F90AE0002074
:1033900000F064F906E0234600221133CA54006CA1
:1033A0000C3402516D1CEDB23879A84280D801204E
:1033B000FEBD00005C040020012070470349097F26
:1033C000814201D901207047002070471C04002071
:1033D00010B5012000F002F810BD000010B5044641
:1033E0000448817F0448807801F006FA214600F005
:1033F00047F910BD1C0400207401002010B5012005
:1034000000F002F810BD000010B504460448417FEA
:103410000448407801F0F0F9214600F057F910BD5A
:103420001C0400207401002010B500F001F810BD4C
:1034300010B5084801788A0703D0002203460C3BE8
:10344000DA708908890001708907890F02A0FFF7E7
:1034500007FD10BD740100205B6C65645F6D6174D5
:103460007269785F656E61626C655D2025640D0A26
:103470000000000010B500F001F810BD10B50848BC
:1034800001788A0702D103460C3BDA70890889006B
:10349000491C01708907890F02A0FFF7E1FC10BDEC
:1034A000740100205B6C65645F6D61747269785FA4
:1034B000656E61626C655D2025640D0A0000000088
:1034C0000148007880087047740100200148407866
:1034D000704700007401002010B5012000F002F8D0
:1034E00010BD000010B504460548817F054880786E
:1034F00001F07CF9C0B2214600F0C2F810BD000016
:103500001C0400207401002010B5012000F002F816
:1035100010BD000010B504460548417F05484078BD
:1035200001F064F9C0B2214600F0D0F810BD0000EF
:103530001C0400207401002070B50C460546FFF7FE
:10354000B3FE2146284600F004F8002800D00120F0
:1035500070BD01207047000010B5FDF779FB002316
:103560000E4A0F49137018464400A418401CC0B2FC
:1035700061830828F8D3094A2A3A137000204300CF
:103580009B18401CC0B259830828F8D3054800682E
:10359000401C01D1FEF776FF10BD0000F2030020B1
:1035A000FFFF00007401002070B514460D4606466A
:1035B00000F00EF80549CA6CC98871435118695C5E
:1035C000FF2902D02154401CC0B270BD1C04002051
:1035D0000020704710B5012100F002F810BD000076
:1035E00010B50E490A78920717D00A46127892074A
:1035F000920F002803D0162803D3543203E0121D83
:1036000001E0800002430A701006810E04A0FFF75B
:1036100027FC024900200C39C87010BD740100203D
:103620005B6C65645F6D61747269785F6D6F646512
:103630005D2025640D0A000030B5074A137F8342E0
:1036400009D94000936C441C1C5DD588185C6C4300
:10365000926E2018115430BD1C04002070B506462F
:103660000024064D05E031462046FFF7E5FF641CC7
:10367000E4B2287FA042F6D870BD00001C040020F0
:1036800010B503498870014602A0FFF7E9FB10BDA1
:10369000740100205B6C65645F6D61747269785FB2
:1036A00073706565645D2025640D0A0070B5064D74
:1036B00004462978884305D0002000F0B3F80020A4
:1036C00000F092F82C7070BD6801002010B505491B
:1036D0000A78920704D04870014603A0FFF7C0FBA8
:1036E00010BD0000740100205B6C65645F6D617447
:1036F0007269785F76616C5D2025640D0A000000B8
:1037000010B5012000F002F810BD0000014610B510
:10371000044800788008401C152800D30120FFF7DA
:103720005FFF10BD7401002010B5012000F002F809
:1037300010BD0000014610B5054800788008401E05
:103740000006000E00D11420FFF74AFF10BD000054
:103750007401002010B500F017F9154C20780028EE
:1037600011D120460C30007881070CD08008E27817
:103770000021002A09D0012A14D0022A15D0032AD8
:1037800000D1E17010BD0020F1E709482A22001D98
:103790000170A068074920618818FCF70FFD01201F
:1037A000E07010BD00F03EF810BD00F01DF810BD37
:1037B00068010020C803002000B5012000F002F8D5
:1037C00000BD000004480122017851400170024907
:1037D00000200C39C870704774010020014908703E
:1037E000704700006601002070B50C4D0C4C294656
:1037F000A8700C3109788907890F6970002803D0F7
:10380000217F0020FFF798FEA288E088A16E424346
:10381000E06EFCF7D3FC0320E87070BD6801002067
:103820001C04002010B5574CA178884207D12146CE
:103830000C31097862788907890F914201D0012102
:1038400000E000214F4A121D91700B285AD009DC6C
:103850000300FEF7F0FA0B1F252A2F34393E4348A8
:103860004D52940011286BD007DC0C380300FEF792
:10387000E2FA054E53585D628600142871D004DCCC
:10388000122862D013287AD164E015286ED0FF2860
:1038900075D110BD002972D00020FFF7DFFE6EE069
:1038A0003848001DFDF78CFB64E03648001DFCF72E
:1038B00089FE5FE03348001DFCF712FE5AE03148F4
:1038C000001DFCF715FE55E02E48001DFCF728FEF4
:1038D00050E02C48001DFCF7F7FE4BE02948001D86
:1038E000FCF71CFF46E02748001DFCF703FF41E002
:1038F0002448001DFCF72AFF3CE02248001DFDF78C
:1039000081FB37E01F48001DFDF700FC32E01D4839
:10391000001DFDF7C9FB2DE01A48001DFDF77AFBDD
:1039200028E01848001DFDF7ABFB23E01548001DFB
:10393000FDF7C4FB1EE01348001DFDF7ABFB19E0CB
:103940001048001DFDF70CFC14E00E48001DFDF7AB
:103950004FFB0FE00B48001DFEF724FA0AE000E0E1
:1039600004E00848001DFEF735FA03E00548001D95
:10397000FDF722FA002802D00020E07010BD0220DE
:10398000FBE700006801002070B50F4DA86801F04A
:1039900014FB044601F01CFBA8600C490C480022F3
:1039A0000B78001B0CE055006D186E8BB04203D2F3
:1039B0000D786D1E0D7001E036196E83521CD2B267
:1039C0009A42F0D370BD000068010020C8030020B7
:1039D000FFFF000010B50A49097C81420DD9094951
:1039E0000A78012A09D14A78824206D1002008705B
:1039F000104600F043F9012010BD002010BD00006A
:103A00003C0400208801002010B5064841690648A2
:103A100088470648FF22417C05484068FCF7E0FBE8
:103A200010BD0000FC650008007A00083C0400207E
:103A30008801002010B50548816805488847054978
:103A4000884201D0012010BD002010BDFC65000897
:103A5000007A000855AAAA5510B505480549406BDB
:103A6000486000200870487000F074F810BD000035
:103A70001C0400208801002002480078012800D0A2
:103A80000020704788010020152801D000207047D1
:103A900001207047F3B583B00446FF2069460870E3
:103AA0000871FFF713FD294988703EE001A80290D4
:103AB00027482346C06CEE46844625480021868868
:103AC000C2883DE0154600204D4367467F1933E02C
:103AD000C55DFF2D2ED09D422CD1724611700299EA
:103AE00008701A484568002D1DD019482030017C07
:103AF000407CFCF739FB024614486B4641781B7842
:103B00004A431349C98859436B461B79C918CB08E6
:103B10005B19D25C4907490FCA40D10713D0002175
:103B20002046FFF789FD641CE4B204988442BDD3AB
:103B300005B0F0BD401CC0B28242C9D8491CC9B210
:103B40008E42BFD8EFE78178EAE7000088010020C5
:103B50001C040020F8B50A4D297C81420FD90024AD
:103B60002E46203E074F07E007483968201888474F
:103B7000716B0855641CA4B2687CA042F4D8F8BDEF
:103B80003C040020FC650008047A0008F8B50B4DE1
:103B900014460F4668700A4E09E0641EE4B2385DB0
:103BA000B26C4000115C401C105CFEF76BFB002CFB
:103BB000F3D1687800F062F80020F8BD8801002099
:103BC0001C04002010B50024002800D1FF24084860
:103BD000017C407CFCF7C8FA064A01465278504303
:103BE000044A526880182246FCF7FAFA10BD000019
:103BF0003C04002088010020024803490269034870
:103C000010470000FC65000855AAAA55007A000874
:103C100010B50949097C814201D8002010BD07492F
:103C20004870FFF797FFFFF74BFC152802D01520CF
:103C3000FFF7D0FC012010BD3C04002088010020CB
:103C400010B50C49097C814203D90B490A78002A36
:103C500001D0002010BD01220A704870FFF77AFFE2
:103C6000FFF72EFC152802D01520FFF7B3FC01202A
:103C700010BD00003C04002088010020F8B50D4D67
:103C8000297C814215D90C4E0C48716988470B4F2D
:103C900000243F1D08E00748F2682038406B015DB2
:103CA000E0199047641CA4B2687CA042F3D8FFF7E7
:103CB000A3FFF8BD3C040020FC650008007A000862
:103CC0001CB5FFF7ABF900F09DFDFEF779FEFFF79D
:103CD000C9F8FEF74BFB002205211E2001F0A2FCD3
:103CE00013490860012001F08BFC12490860124959
:103CF0000120019100900023602210A1114801F0E1
:103D0000A7FE1149032001910090002340220FA13A
:103D10000F4801F09DFE0F490420019100900023FF
:103D200020220DA10D4801F093FE01F0EDFBFEE70E
:103D30000C00002010000020140000204D6174725F
:103D400069780000D50D000818000020415050008F
:103D5000ED0300081C00002055534200291C0008F8
:103D6000F0B50B30C108C900144F0026144A0FE00B
:103D700003688B420BD38B4205D95C1A4318456804
:103D800030C3083B00E04368136002C004E0021D3A
:103D900010680028ECD13046002803D1386800288C
:103DA00001D00020F0BD064A06481060064A121AEB
:103DB000D208D20044C001203860D7E7600200205A
:103DC0005C020020E40C0020800D0020F8B51448AF
:103DD00081684215114381600024124E87050DE071
:103DE000706AA1004558681C06D03946284600F084
:103DF000DEF8284600F0B8F8641CE4B2B088A042AF
:103E0000EED80004810B706EFCF7F1F9B0888100E8
:103E1000306EFCF7ECF93079FEF786FAF8BD000059
:103E2000401002401C040020F3B5002581B001279A
:103E30002C460D4E0DE0B06AA1004058411C03D045
:103E400000F09EF801280CD00020641C0543E4B269
:103E50007F00F088A042EED802988100019845507A
:103E6000FEBD3846F1E700001C04002070B50C4C84
:103E7000A088A16D8200206EFCF7C4F9002807D04D
:103E8000A08801258200A16D206EFCF797F900E063
:103E9000002522792B46616E206EFEF715FA70BD63
:103EA0001C040020F0B585B0FFF7E0FF2C4800248B
:103EB00021468588C76D466E0AE08B00FA58F35894
:103EC0005A40224301D0012400E00024491CC9B219
:103ED0008D4202D9002CF0D001E0002C01D0002549
:103EE00036E001F070F81F490A88821A1204120C99
:103EF00032D0088030E0A900426E039152580092FF
:103F0000C26D5158009A514002911FD001270026DE
:103F100013E0029838420DD00098384000D00120BC
:103F200032462946019000F0D5FF31462846019AD5
:103F300000F0EEF8761CF6B27F000948C088B04267
:103F4000E7D807490098CA6D039950506D1CEDB22F
:103F500003488188A942CED8204605B0F0BD0000B4
:103F60001C0400207C0100200207120F0121914057
:103F70000009092209048002D20680188161704775
:103F8000010909228902D206891809690007000F70
:103F9000C140C807C00F70470207120F01219140AE
:103FA000000909228002D206801881617047020749
:103FB000120F01239340000909228002D2068018C3
:103FC00000B50A461946FDF791FF00BD002801DB48
:103FD000642801D9002070470149800008587047C3
:103FE00014660008010909228902D2068918524282
:103FF0008A180107090F002A09D001208002824295
:10400000044803D10B2901D80348405670470248A1
:104010001038FAE7FFFFFFFF8866000807B569461A
:104020000979002927D00F21C902401A0300FDF7A2
:1040300002FF0A0609180C0F1B1E22121522FFF799
:1040400019FA16E0FFF7F0F913E0FFF7D7F910E0DF
:10405000FFF75AFA0DE0FFF73FFA0AE0FFF7B8F969
:1040600007E0FFF7A9FB04E0FFF74AFB01E0FFF7D9
:104070005BFB00200EBD01200EBD000073B50220C9
:10408000094C002920700AD0684605782846FCF7BC
:1040900087FD60702846FCF783FD000A01E00020E0
:1040A0006070A0707CBD000050010020F3B5684630
:1040B000037801255807400F8540134ADC08042780
:1040C0001248A418002910D00221465C9E4204D058
:1040D000002E08D0491C0829F7DB082913D11770D6
:1040E000A07828430EE04354F7E70221465C9E4245
:1040F00002D10023435402E0491C0829F6DB177063
:10410000A078A843A070FCBDB70300205601002092
:10411000FEB50025002A03D06A46FFF745FA05469A
:10412000204C2078401908281ED90820461B671902
:10413000791C3246601CFCF741F83946204632466D
:1041400009310930FCF73AF868000119204672007D
:104150001A301A31FCF732F839462046324611310E
:104160001130FCF72BF82670002017E00E4922785A
:104170000F6D69460B5CA1189C465B00FE5C4E709F
:104180005B1CFB5C4B7263464B745200002112199E
:1041900051832178491C401C2170C0B2A842E5D34C
:1041A000FEBD0000C80300201C04002013B56846B3
:1041B0000378084A0124E03B9C401078002903D092
:1041C000072B05D8204302E0072B01D8A04310702D
:1041D0001CBD00005601002003B50B4801210170F1
:1041E00069460B8800210A22ED2B09D0EE2B04D062
:1041F0005242EF2B04D0F02B01D1418082800CBDC4
:10420000428081800CBD00005E01002070B50C462C
:1042100015460646FEF77AFC002807D02A462146B6
:104220003046FEF74DFD002800D0012070BD70B56E
:104230000C461546064600F015F800280ED02A4612
:1042400021463046FFF7E2FF002808D02A462146E3
:104250003046FFF7E3FE002801D0012070BD0020AA
:1042600070BD000007B551226946120209798243E8
:104270000ED00F4AD04218D1002914D00D49EF2397
:1042800008780246184010239343184308700CE046
:104290006846007A002902D0FEF76CFF01E0FEF7C5
:1042A0005FFF00200EBD00F0E7FE01200EBD000004
:1042B000F687FFFF8001002010B50B4A1278012A13
:1042C0000FD15122120282430BD00878002806D069
:1042D00048784206520E88781146FDF7D3FF002039
:1042E00010BD012010BD00008801002003B5684604
:1042F0000078A52810D0A62810D0A72810D000201C
:10430000084A1388984206D010800323521D137068
:104310005070000A90700CBD8120F1E78220EFE719
:104320008320EDE74E010020F8B5134C0F46E668F8
:1043300005462068001D00F0E9FF681C07D1002F2A
:1043400005D021680D48091D01F019F8F8BD206855
:10435000751945602168B54204D2A06B091D00F0B3
:10436000F6FFF8BD606B091D00F0F1FFA06A854201
:10437000F7D2A562F8BD000004020020000600206C
:10438000F8B5054601F008F8294CA068401CA0606B
:104390002068284F002803D06069002827D02CE02F
:1043A0002560A068012828D1002614207043C01978
:1043B00000F0BFFF761C052EF7D31E48643000F0D6
:1043C000B8FF1C48783000F0B4FF1A488C3000F079
:1043D000B0FF1848A03000F0ACFF1648B43000F031
:1043E000A8FF1448643060631430A06305E02068BF
:1043F000E96AC06A884200D82560606A401C606231
:10440000E86A2169884200D9206114214843C01913
:10441000291D00F0B4FF00F0CBFF6069002806D032
:104420002068E96AC06A884201D200F0F1FFF8BD55
:10443000040200204C05002010B5026C0C46002A36
:104440000CD0C1688B18C36081688B4201D21946B9
:1044500001E00168C1602046FBF7B0FE10BDF8B571
:10446000856B174604460026026C002A11D0002FE7
:1044700019D0E068FBF7A2FEE168206C091AE16040
:104480002268914202D2A168081AE060022F17D078
:1044900019E02068002816D1A06801F061FC0646EA
:1044A0000020A0600FE06068FBF788FE216C606868
:1044B00040186060A168884205D32068606002E00F
:1044C000002D00D06D1E6D1CA5633046F8BD10B5E3
:1044D0000446006B00F07AFF204600F077FF10BD25
:1044E0000F480E49420705D0C01DC0080C4AC00045
:1044F000821A891A0B4A0023411809C20839C908CF
:10450000C900183A11604B600B600B1A0AC0936027
:104510000120C0075360D06070470000CC06000047
:1045200014060020500200200F4E104C3746A03FCA
:1045300011E000F031FFF068C568281D00F0E6FECC
:10454000A068401EA0606068401E606000F030FF00
:104550002846FFF7BCFF60680028EAD138680128C8
:10456000F9D900F055FFF6E7EC0500200402002021
:10457000FFB581B00C9C9000236B001F1818C60873
:104580000A9DF600700701D072B6FEE7224620327F
:1045900000290DD0002027180B5C20373B750B5CE1
:1045A000002B02D0401C0A28F5D30020507701E0F0
:1045B00000201075052D00D30425E56200276764EF
:1045C000201D256400F0C0FE2046183000F0BCFE1F
:1045D00024610520401B6462A061A7644C2007553C
:1045E0003046049A019900F0F1F820600B980028F9
:1045F00000D0046005B0F0BD30B5114900E01146AF
:104600000A688242FBD34B685C18844203D140683D
:1046100018184860084643681C18944209D1084C91
:10462000103C2468A24209D052689A1842600A6875
:1046300012680260814200D0086030BD0460F9E772
:104640005002002010B5044600F0A6FEA06B002822
:1046500004D0002400F0ACFE204610BD0124F9E790
:104660000648416B0968002905D0416BC968C968D3
:104670004968816270470021C943FAE704020020BB
:1046800003480068401C72B600D0FEE7FEE7000059
:1046900058020020F8B5044600F07EFE254640355D
:1046A0000526AE57274624370BE0606A00280AD05B
:1046B000384601F0C5FB002801D000F0D5FE761E7B
:1046C00076B2002EF1DC0027FF436F7100F070FE20
:1046D00000F062FE0426AE572046103000900BE03A
:1046E000206900280AD0009801F0AAFB002801D018
:1046F00000F0BAFE761E76B2002EF1DC2F7100F0CB
:1047000057FEF8BDF8B50546002700F023FF284EF8
:104710003068002801D1FFF7E3FEF06805423FD181
:10472000002D3DD00835680708D06807400F0821E4
:10473000081A4519680701D072B6FEE7002D2FD080
:10474000706885422CD81A48103001460C6801E088
:1047500020460C466168A94202D221680029F7D19F
:1047600031688C421CD00768216801606068083796
:10477000411B102908D96019420701D072B6FEE723
:1047800041606560FFF738FF61687068401A7060CB
:10479000B268904200D2B060F0680143002003C4C8
:1047A00001F080FB780701D072B6FEE73846F8BD0D
:1047B0004002002004490868002803D00868426CC1
:1047C000521C4264086870470402002010B501249E
:1047D000031F24061C601B1F1960191F024B0B606E
:1047E000143940380A6010BD814600084018FF287F
:1047F00000D9FF2040B27047401A00D50020C0B257
:1048000070470000F8B54D480024C460446101259C
:10481000856181690029FCD14A49494A0A604A49AF
:1048200003220A620C224A624849CA68484B1205B0
:10483000484E9A4203D1C9680904090F2BD1454952
:104840004039CC6332699207FCD5434A02235B1C92
:104850009342FCD3CD633369DB07FCD002235B1C9E
:104860009342FCD33B4B4327803BDF635B150B60DC
:1048700010234B6016234B61CD60FF2356330B6131
:104880000323F36002235B1C9342FCD3F460314AA0
:10489000803AD463CC6031490D60C460022141612B
:1048A000856181690029FCD1446205620921C161E9
:1048B000456224482A49016026488038816A4908AF
:1048C000490081622148C030006B1C4F4037401CBA
:1048D00011D124484168244A914207D10188428875
:1048E000D24392B2914201D100887060386A0007C9
:1048F00001D5FEF7E5FA144804624462F8692843DA
:10490000F861B86802210843B86018480168184A7D
:104910001140726812021143016016494160164944
:104920000A6A2A430A620168602211430160B8687A
:10493000012149020843B860F8BD000000100240A0
:1049400080841E00000000200070004000FAFF1F5D
:104950000000509B80000240102700000020024011
:10496000006CDC0200F7FF1F69E5B5A3006C004096
:10497000FF00FCFF7FBB78200000014000B50D4A1E
:104980009388834207D9D3888B4204D9434358186C
:1049900080B2516F0AE0537A002B03D0FD2803D078
:1049A000FC2801D0002000BD0846916F00F004F8FB
:1049B00000BD00001C04002010B5C3084407640FAC
:1049C0009B0000205B1801210246A1409C5C0C402A
:1049D00000D0012494400443521CD2B2E0B2042A15
:1049E000F4D310BD0EB569460880012008716B46EE
:1049F00007CBFDF7D3FA00F001F80EBDF8B5082299
:104A00003C493D48FBF7FEFB002809D081253A4C84
:104A10000822294639A0FEF723FA0821354835E057
:104A2000354803223F49801FFBF7ECFB00280AD0E2
:104A3000314C8225A41F032229463BA0FEF710FA21
:104A40000321384822E02C4803224249C01EFBF7CC
:104A5000D9FB00280AD0284C8225E41E03222946CF
:104A60003DA0FEF7FDF903213A480FE01022454929
:104A70004548FBF7C7FB00280ED08225424C102288
:104A8000294642A0FEF7ECF910213E48FEF7D6F980
:104A900048A0FEF7E5F90AE0174808224649083021
:104AA000FBF7B0FB002823D0134C08348225002CE0
:104AB0001ED0424F00260021C943386800F002FF93
:104AC0002146284600F082FB0023009038681A46F1
:104AD0001946761C00F0FBFDFCF744F8009800280E
:104AE00006D03748864203D23648807C0228E2D07E
:104AF000F8BD0000E7010020560100205B686964F2
:104B00005F6B6579626F6172645F696E5F72657019
:104B10006F72745F6275665D20307825583A202583
:104B2000640D0A00C40100205B6869645F637573EB
:104B3000746F6D65725F696E5F7265706F72745FBE
:104B40006275665D206570203D307825583A2025D5
:104B5000640D0A00C70100205B6869645F737973A4
:104B600074656D5F696E5F7265706F72745F627598
:104B7000665D206570203D307825583A2025640D0B
:104B80000A00000028050020B70300205B7573624F
:104B9000645F6E6B726F5F7265706F72745F627567
:104BA000665D206570203D307825583A2025640DDB
:104BB0000A0000000D0A0000DF01002010000020A4
:104BC00088130000380500207CB50F4800780028C5
:104BD00019D0012069460D4D88700024A007800F70
:104BE0006946ED30088000231A46286800F06FFD02
:104BF000641CE4B2082CF1D30548012200231146BD
:104C0000006800F04DFF7CBD4C0100200C0000202E
:104C1000180000204843000A70474843000A7047C4
:104C200070B5094D0024285D2E2802D05D3880B271
:104C300000E0372000F0B6F9641CE4B2152CF2D382
:104C4000282000F0AFF970BD2801002010B5022027
:104C5000FBF7AAFD0120FDF70BF91948C2680221F4
:104C60008A43C26082688A43826042688A434260A3
:104C700002688A430260002206211248FBF7D0FE38
:104C80001148026901150A43026102698A430261FF
:104C900082688A43826001210C48C9430161C1686E
:104CA00049084900C1600A4940140860BFF34F8FAA
:104CB000BFF36F8F0748C16982009143C16110BD86
:104CC00000040140000C0048401002400010004069
:104CD00080E100E00000014010B518488168184AE2
:104CE00011438160174A06211748FBF799FE0220FD
:104CF000FBF75AFD00210120FDF7C6F80120FDF762
:104D0000B7F81248FBF792FD10480221016000211C
:104D100001710821417101218171FBF751FD0C489E
:104D2000F02142688A434260416830221143416069
:104D3000C169084A1143C16110BD00004010024022
:104D40000002080001000020000C0048A40100201F
:104D5000000001400000A4890146420601D5FF225F
:104D6000111A8906890E0A07120F430600D5521C34
:104D70000909084B490059180B784978514309092A
:104D8000C91849B2000601D5484241B28031C8B2C3
:104D90007047000093660008F8B50D48C1690D4AD8
:104DA0001143C16100250C4C07030CE0E06AAE0022
:104DB0008059411C06D03946FFF7F9F8E06A80595E
:104DC000FFF7EAF86D1CA088A842EFDCF8BD0000F0
:104DD00000000140AA0AA0891C04002010B5012887
:104DE00001D8C0B210BDF72101224901884201D982
:104DF000FF2302E041090831CBB2D11849080C4623
:104E00004C43844202D9491ECBB203E0FF2906D0AD
:104E1000491CCAB29342F0D2521ED0B210BDFF203C
:104E200010BD0000F8B5254E756825480068254A74
:104E300044000020244F2549944208D2081B4221F7
:104E4000FBF792F92918B94237D2716024E01F4A62
:104E50001F4B52429C4207D9A0184221FBF784F90C
:104E600085422AD9291AF0E78C4208D2081B422130
:104E7000FBF77AF92918B9421FD2716009E08C4218
:104E800007D9A0184221FBF76FF9854215D9291AD5
:104E9000F3E70B4901228A6009490C310A68920044
:104EA0005218D4600A689200521855630A6892003A
:104EB0005218D0650868401C0860F8BD80000240A8
:104EC00098040020E0B50000FF03000080BB000054
:104ED00020C10000FEB50C460700154611462046CD
:104EE00008D0FEF751F9064602462946204600F052
:104EF00023F902E0FFF742FD064668468771047217
:104F0000C5711C482346417A002903D0FD2C26D0C8
:104F1000FC2C24D08188C288714309195143491956
:104F200000682A464900405A694688805006400E6B
:104F3000009068468288F907C90F0F48FDF790FF77
:104F40000E4800231A4601A9006800F0C0FB0C4877
:104F5000012200231146006800F0A2FDFEBD71434E
:104F60004919490009194900FF39C0682A46F93929
:104F7000D9E700001C0400209C6600080C000020FB
:104F80001800002010B500F004F80120FEF78EFB99
:104F900010BD704710B500F004F80020FEF786FB46
:104FA00010BD704710B50446FFF71CFD142000F03B
:104FB0003BFA204600F060F810BD10B5044600F042
:104FC0002DFE001B10BD10B500F028FE80B210BDF4
:104FD00010B500F023FE10BDF7B5254981B0944609
:104FE00000238F780E7848683BE001999A008D582D
:104FF0000299964689584D4000212CE001248C40AE
:1050000025421DD002780092520821D1019E72469D
:10501000B6582642009E02D00122164301E07608CF
:105020007600F207D20F143202700126D2070FD099
:10503000029F7246BF586740029CA750012707E0B5
:105040000478620804D0E20702D1E407E40F047098
:10505000491CC9B2401C074CE4888C42CED85B1C6A
:10506000DBB26345C1D3024887700670FFBD000004
:10507000400100201C0400200EB569460880002075
:1050800008716B4607CBFCF789FFFFF7B7FC0EBD35
:10509000FFB52749002082B04C68087048709446DC
:1050A000054601463CE0002334E001229A40267880
:1050B000964677082BD0059A7708974220D8F207B2
:1050C000D20F2270D20701D0012120E0AF00039E51
:1050D0000197F659724600969643029AD75972463E
:1050E00017403E43009A124FB6467240BE78324394
:1050F00000D00122BA70019F039A7646D65106E08D
:10510000F007C00FBA1A52001043207001205B1C38
:10511000DBB2641C074AD2889A42C6D86D1CEDB235
:105120006545C0D3024A1070517006B0F0BD000052
:10513000400100201C04002010B503460C48144612
:1051400082889A4207D9C2888A4204D95A435118A0
:1051500089B2426F07E0427A002A07D0FD2B01D0C6
:10516000FC2B03D1826F204600F004F810BD000034
:105170001C04002070B5CD084E070123760F1C4695
:10518000B4400021AD00AD181A468A40024000D05C
:1051900001226E5C52427240224072406A54491CA5
:1051A000C9B20429F0D370BD02780A7000780B28C8
:1051B00002D0FF2008707047012048700249014862
:1051C00008607047A5A5A55AF001002070B5244AD3
:1051D0000646927C0320022A01D0022070BD0124E1
:1051E000812E06D0822EF9D11E4D286800280BD0C2
:1051F00013E01D4D286800280FD108221B48FAF73C
:10520000DDFF0822194917E00878012807D0022895
:1052100018D003280AD004281BD0012070BD082212
:105220001348FAF7CBFF0822114905E00322114881
:10523000FAF7C4FF0F4903223046FCF71BFA2C6033
:10524000002070BD03220C48FAF7B8FF03220A4978
:10525000F2E710220948FAF7B1FF10220749EBE7FD
:1052600038050020D0010020CC010020E7010020FB
:10527000DF010020C7010020C40100202805002014
:1052800070B5104C207800281AD00F4D0021C9436A
:10529000286800F017FB0D48817C032908D172B6FD
:1052A000807C032803D1FCF747FFFBF7F3FF62B6CE
:1052B00000202070034602460146286800F007FAE5
:1052C00070BD0000B501002010000020380500204E
:1052D00010B505480178002905D00021017072B68B
:1052E000FCF774FF62B610BDB601002000B59BB09C
:1052F0006C2205496846FAF761FF034810380FC869
:10530000FDF70CFF1BB000BD300000204368826831
:1053100001699A60836842685A604A68824201D192
:1053200082684A60002202610868401E08600868BE
:1053300070470146083100224160D243C16082605B
:10534000016100210160704700210161704730B5A3
:105350000B685A1C02D00246083202E0026904E0DF
:105360002246546825689D42FAD953684B6099607B
:105370008A60516008610168491C016030BD426863
:105380004A6093688B609368596091600861016816
:10539000491C01607047000072B604480168491C4E
:1053A0000160BFF34F8FBFF36F8F7047580200202B
:1053B00005490868002804D0401E086000D162B684
:1053C000704772B6FEE700005802002070B5002852
:1053D0001AD004460D4D083C6068E968084201D1C6
:1053E00072B6FEE72268002A01D072B6FEE7884353
:1053F000606000F0AFF86068696840186860204637
:10540000FFF7FAF800F04EFD70BD000040020020EA
:105410000120044900074860BFF34F8FBFF36F8F2F
:105420007047000000ED00E010B502000FD0094801
:10543000006B002801D072B6FEE700F08BF8002167
:105440001046FEF771FF00F02DFD002801D1FFF797
:10545000DFFF10BD0402002002490A6A0260C96829
:10546000416070470402002001490120C861704773
:105470000402002010B50C46002809D0054909682F
:105480001831FFF764FF01212046FEF74DFF10BDE4
:1054900072B6FEE70402002070B504002FD0626CE3
:1054A000002A0ED0206C884200D30146E06A884270
:1054B00025D0012A23D1124D2A68944203D172B615
:1054C000FEE772B6FEE7E162A269002A02DB05226E
:1054D000511AA16114220B4E504361698019814217
:1054E0000DD1201DFFF712FFE06A2969884200D91B
:1054F0002861142148438019211DFFF740FF70BD2A
:10550000040200204C0500201CB50E480024019028
:10551000234640220CA100940D4800F099FA01287E
:1055200003D0401C0CD172B6FEE772B600210548CC
:10553000C9432C38816201214161C46000F03EF80A
:105540001CBD00003002002049444C450000000012
:10555000294500080248016B491C0163704700009F
:105560000402002010B51348016B002902D001216C
:10557000C16110BD0021C16101690F4A02E000292B
:1055800015D0491E14234B43D358002BF7D01423B6
:105590004B439A18536814465B6808345360A3421F
:1055A00001D15B685360DA680260016110BD72B6B8
:1055B000FEE70000040200204C05002010B50C4856
:1055C000016AFF22120411430162016A12021143AF
:1055D00001620848002101618161074A4261072296
:1055E000026106480160FAF775FD002010BD000059
:1055F00000ED00E000E000E07FBB0000580200206A
:1056000010B502460021012000F00CF8041E07D05E
:105610000021816001600B460A46C16000F057F826
:10562000204610BD70B50E46050014D0002E14D0D3
:1056300070434830FFF766F804000AD0214648312D
:105640002046002E0BD0016006640121C56300F0E6
:1056500008F8204670BD72B6FEE70020E9E700605A
:10566000F2E770B50D46040025D0FFF795FE216CDA
:10567000E06B484321684118A1600021A1632168C3
:105680006160E06B216C401E484321684118E16075
:105690000021C94320464030017141713038002D4E
:1056A0000BD0FFF746FE20462430FFF742FEFFF7FF
:1056B0007FFE012070BD72B6FEE721690029F6D099
:1056C00000F0BEFB0028F2D0FFF7A2FEEFE7FFB527
:1056D000002683B01D46040003D00498002802D0A1
:1056E00006E072B6FEE7206C002801D072B6FEE735
:1056F0000027022D04D1E06B012801D072B6FEE72D
:10570000FFF74AFEA16BE06B814207D3022D05D063
:105710000598002817D0002E18D01BE02A462046F6
:105720000499FEF79CFE616A002903D020462430CC
:1057300000F086FB002801D0FFF76AFEFFF738FE75
:10574000012007B0F0BDFFF733FE22E06846FFF707
:1057500083FE0126FFF72CFEFFF7FCFEFFF71CFE81
:105760002046403004214156491C00D107710521D3
:105770004156491C00D14771FFF71AFE05A968463A
:1057800000F038F9002806D02046FEF783FF00F02D
:1057900089FB0020D5E7FFF7FFFDA06BE16B884296
:1057A00010D1FFF705FE204610300599FFF762FE85
:1057B0002046FEF76FFF00F075FB0028A0D1FFF731
:1057C00027FE9DE7FFF7F4FD2046FEF763FF00F09C
:1057D00069FB95E7F7B5002582B0040004D0039873
:1057E0000026002802D006E072B6FEE7206C0028F2
:1057F00001D072B6FEE7FFF7CFFDA76B002F15D0E3
:1058000020460399FEF718FE7F1EA7632069002833
:1058100007D02046103000F013FB002801D0FFF71E
:10582000F7FDFFF7C5FD012005B0F0BD0498002885
:1058300002D0002D03D006E0FFF7BAFD27E068464E
:10584000FFF70AFE0125FFF7B3FDFFF783FEFFF721
:10585000A3FD2046403004214156491C00D1067169
:1058600005214156491C00D14671FFF7A1FD04A94D
:10587000684600F0BFF8002820460AD0FEF70AFF6D
:1058800000F010FB2046FEF7DDFE0028B3D000201C
:10589000CAE7FEF7D7FE00280ED020462430049930
:1058A000FFF7E8FD2046FEF7F5FE00F0FBFA0028C2
:1058B000A1D1FFF7ADFD9EE72046FEF7EBFE00F01D
:1058C000F1FA98E7F3B5002683B0041E354605D0FB
:1058D000206C0027002803D072B6FEE772B6FEE700
:1058E000FFF75AFDA06B002817D0401EA063206868
:1058F000002802D1FEF75EFFA0602069002807D0D3
:105900002046103000F09CFA002801D0FFF780FDFF
:10591000FFF74EFD012005B0F0BD0498002802D02D
:10592000002E07D00AE0002D01D072B6FEE7FFF787
:105930003FFD5CE06846FFF78FFD0126FFF738FD6D
:10594000FFF708FEFFF728FD2046403004214156AE
:10595000491C00D1077105214156491C00D14771EE
:10596000FFF726FD04A9684600F044F80028204609
:1059700014D0FEF78FFE00F095FA2046FEF762FE87
:105980000028ADD0002D32D0FFF706FD606A002858
:1059900028D0206B05210068091A24E0FEF752FE8A
:1059A000002819D02068002807D1FFF7F5FCA0686F
:1059B00000F00AFA0546FFF7FBFC20462430049964
:1059C000FFF758FD2046FEF765FE00F06BFA002851
:1059D00086D1FFF71DFD83E72046FEF75BFE00F052
:1059E00061FA7DE70021A068FFF756FD9FE70020E0
:1059F00091E70000F8B50C46050012D0002C12D03B
:105A0000FFF7CAFC114BDA686E682068911B471CCF
:105A10000BD02F681B6A9F420CD096420AD80124F3
:105A200004E072B6FEE772B6FEE70024FFF7C0FCA2
:105A30002046F8BD884205D9401A20602846FFF765
:105A40000BFDF2E700202060E9E7000004020020DF
:105A5000FFB585B0164690000F9FFEF753FE050078
:105A60001AD05020FEF74EFE040012D0256300210C
:105A70000E9803910197009002943246089B069974
:105A80000598FEF775FD2046FEF77AFC012009B067
:105A9000F0BD2846FFF79AFC0020C043F7E700005E
:105AA000FFB5012681B01F460D46002814D00446DC
:105AB000FFF772FC002F01D0A06C38602046403008
:105AC0000146007B02220A7303990B00FCF7B3F92D
