:04000005080000C12E
:020000040800F2
:10000000700F0020050200080D0200080F02000812
:100010002D3491FFE0E432000300000000000000F6
:100020000000000000000000000000009D1100081A
:1000300000000000000000000B0100081112000881
:100040009D05000891070008170200081702000824
:10005000170200081702000817020008170200081C
:10006000170200081702000817020008170200080C
:100070001702000839120008190E000817020008BC
:10008000170200081702000817020008CD1B00081D
:100090001702000817020008451D00081702000893
:1000A00017020008290600080000000000000000F8
:1000B0000000000000000000000000000000000040
:1000C0000348854600F0ACF8004800474D41000861
:1000D000700F0020084B19680868203080F30988E9
:1000E000022080F31488BFF36F8F3FBCAE4608BC7C
:1000F00004BC62B61847000028020020EFF310800D
:1001000072B6704780F310887047EFF309800E4B8A
:100110001A6820381060F0C044464D4656465F4687
:10012000F0C008B572B605F043FC62B60CBC1168AD
:1001300008681030F0C8A046A946B246BB4680F316
:1001400009882038F0C818472802002030B50B462F
:10015000014600202022012409E00D46D5409D42A1
:1001600005D31D469540491B254695404019154627
:10017000521E002DF1DC30BD70B50024254600284C
:1001800001DA01244042002901DA01254942FFF742
:10019000DDFFAC4200D04042002C00D0494270BD8F
:1001A00003460B439B0703D009E008C9121F08C090
:1001B000042AFAD203E00B780370401C491C521E3B
:1001C000F9D27047D2B201E00270401C491EFBD246
:1001D00070470022F6E710B513460A460446194652
:1001E000FFF7F0FF204610BD30B50446002003465F
:1001F00000E05B1C934203D2E05CCD5C401BF8D076
:1002000030BD00000448804704480047FEE7FEE791
:10021000FEE7FEE7FEE7FEE735120008C100000832
:10022000064C0125064E05E0E36807CC2B430C3C49
:1002300098471034B442F7D3FFF746FF086C000824
:10024000286C00080EB5C217C10F5040CA074018ED
:100250000021054B0293019200910A460B4600F0E3
:1002600026F803B000BD00003304000010B50029DB
:1002700004DB0124E40740428C412146002B04DBCF
:100280001C460123DB075242A341994200D1904210
:1002900010BD000010B5002B08DA0024401C61419D
:1002A00092185B411A4301D14008400010BDF0B5DF
:1002B0001FB482B005460C0003D0084601F0A4FD2F
:1002C00002E001F0A1FD20300246009021462846C0
:1002D00000F03FF8049B059A04460F46184311436B
:1002E000084314D0184610431BD0009840210A1A26
:1002F0001846059900F03DF805460E46009A059906
:10030000049800F026F8084305D0012004E02046B8
:10031000394607B0F0BD0020C11705430E432C43FA
:10032000374300990E986305401A7905E40A0022C4
:100330000C43FD0A0A3002D500200146E9E7010519
:10034000101969410C9C0D9D00196941FFF7A2FF2E
:10035000DFE710B5202A04DB0146203A9140002057
:1003600010BD914020239C1A0346E340194390405E
:1003700010BD10B5202A04DB0846203AD0400021E9
:1003800010BD0B46D340D0402024A21A9140084310
:10039000194610BD70B58C180578401C6B075B0FB3
:1003A00001D10378401C2A1106D10278401C03E0D9
:1003B00006780E70401C491C5B1EF9D12B0705D432
:1003C0000023521E0DD40B70491CFAE70378401C21
:1003D000CB1A921C03E01D780D70491C5B1C521E49
:1003E000F9D5A142D8D3002070BD00000026374CBB
:1003F000374D86B0F643FF23F53302AA314600207D
:1004000005F096FE0128F6D10298C007F3D0314FCF
:10041000002203A9386805F003FC0128EBD16946E6
:10042000C87B4006400E4870087C8870887BC007F7
:10043000C00F0870888903F0D9F869468880019A4E
:10044000009904F03CF9002804D0019A0099104664
:1004500001F0A4FDA07C032835D13146286805F0C1
:1004600057FCA07C03281ED1607C00281BD072B6EC
:1004700001F062FE1848407804210843164948708C
:1004800016487D21C9000068FFF760FE0A21484335
:1004900000F0A2FE10484078FB2108400E49487049
:1004A00000F0F8FE62B600231A461946286805F0E7
:1004B00034FB0A487D21C9000068FFF747FE0A2186
:1004C000484300F089FE04F0E1FCA1E7600600204B
:1004D000E4010020E001002000800020CC02002088
:1004E00010B5024902F0D2F810BD00005105000815
:1004F00010B5024902F056F810BD000001050008D1
:1005000070B504461D46104601F0F0FD410040184C
:10051000611B081AC0B2214604F0C7FD70BD00007F
:1005200010B5024902F072F810BD00003105000854
:1005300070B504461D461046049E01F0D7FD6119B2
:10054000891B081AC0B2214604F0AFFD70BD00003F
:10055000F8B5114E07464D00306D1446405DE4215C
:1005600004F0A3FD001B1C300028306D405D05DD4C
:10057000E42104F09AFD001B1C3004E0E42104F0A7
:1005800094FD201A1C38C000381A00D50020C0B2D3
:10059000394604F08AFDF8BDFC04002010B5064879
:1005A000416941610548006801F07CFF044800682A
:1005B00001F066FF10BD000000040140CC010020E6
:1005C00018020020F1B51748154E477880780024AE
:1005D000C1081448357F0C38008A80B204F062FDEF
:1005E000C0B204F0EBFD803840B201F0D1FC40060F
:1005F000000E394604F059FD07460BE0706D009976
:10060000005D4978084203D03946204603F0BEFA1F
:10061000641CE4B2AC42F1D3284603F05FF9F8BDA4
:10062000FC040020CC01002070B5204900208A681D
:100630001F4C53070246002B02DA0423CB60626092
:100640008B689B0702D50223CB6062608B68DB0757
:1006500026D00125CD6063685B1C6360154B1B6B66
:100660005B1C1DD16368032B1AD362600968890380
:100670008A0D11494B68114EB34212D10B884E8836
:10068000F643B6B2B34201D10888101AFFF7DAFD7B
:100690004900490800220A4BFFF7E8FD00D2256017
:1006A00070BD0848C0688005800DEEE7006C004012
:1006B000F4020020C0FAFF1F00F7FF1F69E5B5A391
:1006C0000000244000F8FF1F10B5024901F0DEFFD2
:1006D00010BD0000D90600080B46014610B50448BD
:1006E0005B00006DC05C801AC0B204F0DEFC10BD7F
:1006F000FC04002010B5024901F088FF10BD000085
:100700000507000810B501465A009A1802985208C9
:100710001018C0B204F0C9FC10BD000010B50249A9
:1007200001F0B4FF10BD00002D0700080B46014684
:1007300010B50548046D5800401C205C801AC0B2FA
:1007400004F0B3FC10BD0000FC04002010B5024909
:1007500002F068F810BD00005D07000870B50C4697
:100760000A490D6D59004B1CEB5C695C203B7039EC
:10077000534361435918CA17520E511849040A0EBF
:100780000146104604F091FC70BD0000FC040020FE
:1007900010B504484169890703D50221416102F07F
:1007A000A7FE10BD000401400149486170470000E8
:1007B0000004014001494861704700000004014005
:1007C00010B5837918490268002B26D00B68934333
:1007D0000B604A6803689A434A60027952181368AA
:1007E0000468234313608A6803689A438A60CA686E
:1007F00003689A43CA604279102A05D051180A68E2
:10080000006802430A6010BD8A6803681A438A6060
:10081000CA6800680243CA6010BD007940180168C8
:100820009143016010BD00000004014000210160FF
:1008300001710C22427181717047000070B5EFF3B5
:10084000108272B6002317490C68E5061024002DAB
:1008500003DA0D680123A5430D604D690626354373
:100860004D6102258D60C860886804263043886029
:100870004869C007FCD188688008800088604869A2
:1008800028434861002B02D0086820430860002AF2
:1008900000D162B64869400701D5012070BD002033
:1008A00070BD00000020024010B504461F20C006A5
:1008B00001212018C90388421BD200F0A5F80E4977
:1008C000486906221043486102208860CC608A682B
:1008D00004231A438A604A69D207FCD18A689208C5
:1008E00092008A604A6902434A6100F007F80120D9
:1008F00010BD002010BD00000020024002488168A9
:10090000082211438160704700200240F0B5EFF3E8
:10091000108372B60024184A1568EE061025002EC2
:1009200003DA16680124AE431660566906273E4373
:10093000566101269660D0601161906804210843D9
:1009400090605069C007FCD190688008800090607A
:100950005069022108435061002C02D010682843DE
:100960001060002B00D162B65069400701D501200C
:10097000F0BD0020F0BD00000020024038B5830724
:100980009B0F1F25C21AED0601244019E503A8425A
:1009900008D2106800906846C1541046009900F0D3
:1009A00003F80446204638BD70B504461F200D46A6
:1009B0000126C0062018F10388421BD200F024F85B
:1009C0000D4A506906210843506101209060D460AF
:1009D000156190680421084390605069C007FCD1FC
:1009E000906880088000906050690221084350613F
:1009F000FFF784FF304670BD00200240007870474A
:100A00000088704700687047034802494160034905
:100A1000416070472301674500200240AB89EFCD5C
:100A2000F0B500231D469C461C460126A6400E42FA
:100A300011D067000326BE403343082C04D2A70020
:100A40000F26BE40354306E0A7000F26203FBE40DC
:100A500067463E43B446641C102CE6D38468D60235
:100A6000F6178C430E40344384604468D601F61771
:100A70008C430E4034434460016894000F4EA40F31
:100A8000744399431C4021430160C1689403A40F3F
:100A9000744399431C402143C1601107084A090F60
:100AA0005143026A0B46AA432B401A430262426A30
:100AB00063469A4319400A434262F0BD5555555565
:100AC0001111111170B5064615460C46000701D5E7
:100AD00001F03CF8B00701D500F0DCFB700704D54D
:100AE00016490020087000F0C3FBE00701D000F0B9
:100AF000EBFBA00701D500F0CBFE600701D500F0AD
:100B0000CFFE200701D500F0D3FEE00601D500F0AE
:100B1000E3FEA80701D500F0C1FE680701D500F08B
:100B2000C5FE280701D500F0C9FEE80601D500F092
:100B3000D4FEF00701D000F0B9FB70BD0003002027
:100B40000249014808607047CCCC000000300040EA
:100B5000034A0146D26800200A4200D001207047B3
:100B6000003000400348C168890701D40249016090
:100B70007047000000300040AAAA00000149486008
:100B80007047000000300040014988607047000055
:100B9000003000400149086070470000003000400C
:100BA00000B5A838030001F046F91C0F1113151702
:100BB0001D21231F26292C2F3134373A3D44191B80
:100BC00040424F4F474A4D4FE22000BDE92000BD53
:100BD000EA2000BDB52000BDB62000BDB32000BD99
:100BE000B42000BDB72000BDCC2000BDCD2000BD8D
:100BF000FF20843000BDFF208B3000BDFF209330EC
:100C000000BDFF20953000BD104800BD0F48801C7E
:100C100000BD8920800000BD0C48001D00BD0B48B0
:100C2000401D00BD0948801D00BD6F2000BD702023
:100C300000BD0648093000BD04487E3000BD1520C7
:100C4000400100BDCF2000BD002000BD21020000FA
:100C5000F8B54E4881684E4A1143816004F0CEFADF
:100C6000002701264B4C6CE0A06ABD004059411C96
:100C700066D003F0FFFB03F0F1FB216F0028485121
:100C8000A06A40590BD00107090F32468A4091B241
:100C9000000982020920C00610183F4A0BE0020733
:100CA000120F31469140000982020920C006101837
:100CB000012289B25204FFF7B3FEA06A405901092C
:100CC0008A020921C90651180A6B03071B0F304617
:100CD000984082430A63216F26204959090A090274
:100CE0004860216F02204959090A09020861216FF1
:100CF000FF20495981434861216F00204959090A61
:100D000009028861216F4959090A09020866216FA1
:100D10004959090A09024866216F4959090A090215
:100D20008866216F4959090A0902C866216F495925
:100D3000090A09020867216F4959090A0902486727
:100D40007F1CE088B8428FDC26200121890748609B
:100D500002200861FF204861002088610F4A10626C
:100D600050629062D06210635063486830434860BC
:100D70000B490868FF22120490430122D205104358
:100D80000860084851120160F8BD000040100240A0
:100D900000E20300FC0400200100022040000040AB
:100DA0000CE400E000E100E001208007016840223F
:100DB000114301607047000010B5054900200C7F09
:100DC000214603F0E5F8204602F088FD10BD000042
:100DD000FC04002001F064FF01F002FB04F0ACFC15
:100DE00002F064FE03F03AFAFFF7DEFF01F072FE54
:100DF00001F072FDFFF7B6FE01F032FE03F09AFA41
:100E000002F05EFF01F05EFE04F088FC04F05EFC80
:100E100001F096FDEEE70000F8B50126B607306850
:100E200000064ED530688021884330605D4CA06854
:100E30005D4F5E4D002845D00020A060E86A216823
:100E400089004158491C04D021688900405803F0AA
:100E5000EBFA564881882068401CFFF777F921603B
:100E600053480025056245628562C5620563456396
:100E70005048056245628562C562056345633D620F
:100E80007D62BD62FD623D637D634B4805624562E4
:100E90008562C5624948056245628562434861686A
:100EA000406A89004158491C04D061688900405853
:100EB00003F0BAFA09207061B56130684021084337
:100EC0003060F8BD6068C1B2A86D03F0F5F9686ADA
:100ED000616889004158491C04D061688900405804
:100EE00003F08AFAA9886068401CFFF72FF9616057
:100EF000FF2070610020B06110E0AB6A82009B5857
:100F000094465B1C08D0EB6E2268514359182A6F37
:100F10006346D258415C1160401CC0B2E9888142EE
:100F2000EBD82349C220086248628862C86208631D
:100F3000486338627862B862F862386378631D4942
:100F4000086248628862C862086348631A49086296
:100F500048628862C8621949086248628862E86A21
:100F6000216889004158491C04D0216889004058F3
:100F700003F042FA0C4940390A68402002430A60F3
:100F80000C4940390A6802430A600B4940390A6833
:100F900002430A60094940390A6802430A60012095
:100FA000A0608AE71C02002040040040FC040020EE
:100FB000400000404014004040200040402C0040D1
:100FC00070B509480024057F0848467805E0314699
:100FD000204602F0DBFD641CE4B2AC42F7D32846A5
:100FE00002F07CFC70BD0000FC040020CC0100205D
:100FF00010B50146024A002001F0B8FB10BD000008
:101000008111000810B5024901F06CFB10BD000011
:101010004D11000810B5044604480121007803F082
:1010200033FE034A214601F0A1FB10BDD20400208B
:101030003510000810B5029CE3189BB2002900DAB5
:10104000494209B2002A00DA5242090114B2FF29CA
:1010500000DDFF210AB22101FF2900DDFF2109B2D5
:101060008A4200DC1146C91889B2FF2900D9FF2144
:10107000FF22511AC9B203F001FEC0B210BD000038
:1010800010B50146024A002001F070FB10BD0000BF
:101090003510000810B50146024A002001F066FB39
:1010A00010BD0000DD10000810B50146024A002006
:1010B00001F05CFB10BD00002D11000810B50446C6
:1010C00004480121007803F0DFFD034A214601F0C6
:1010D0004DFB10BDD2040020DD10000810B5029CAD
:1010E000E41AA4B2FF2C00D9FF24482B00D9FF2416
:1010F0000831112903D30832112A00D3FF24FF211C
:10110000091BC9B203F0BAFDC0B210BD10B5044648
:1011100004480121007803F0B7FD034A214601F09D
:1011200025FB10BDD20400202D11000810B59A0037
:1011300002999A18511889B2FF2900D9FF21FF227C
:10114000511AC9B203F09AFDC0B210BDFF20401A77
:10115000C2B210B5C8B2114603F0A7FF10BD00001F
:1011600010B5044604480121007803F08DFD034AC0
:10117000214601F0FBFA10BDD204002081110008C5
:1011800010B50299C91A89B2FF2900D9FF21FF229F
:10119000511AC9B203F072FDC0B210BD7047000011
:1011A0000A4910B5401E884201D9012010BD0849E6
:1011B000486108480722C3691B021B0A4C042343E9
:1011C000C361002088610A6110BD0000FFFFFF00BD
:1011D00000E000E004ED00E0F8B50C4CA76966699A
:1011E000216960618DB20020A06105202061FFF7B8
:1011F000B9FC2069C10701D0C003F8D520694008B7
:10120000400020616661A7612561F8BD00E000E053
:1012100010B5FEF773FF044604F02CFF002803D03E
:1012200001200349000748602046FEF76BFF10BD10
:1012300000ED00E07047000008480169C9070BD0C5
:101240000121C943016106494878421C4A70B72808
:1012500002D9044901208860704700000010004056
:10126000D8020020400D002010B500F0EBFA10BDB0
:1012700010B506480121C1710021417214210448B2
:10128000FEF7A7FF00F042FC10BD00000080002028
:101290006006002010B5044CA07C032803D100F0A8
:1012A0004FFCE07CA07410BD6006002010B505481E
:1012B000817C032905D0817CC1740321817400F0F5
:1012C0007FFC10BD60060020F8B5584E0025B573B0
:1012D000777C574C780701D575742570F80602D5D0
:1012E000802070742570207800282BD1F80729D031
:1012F00008225049002000F08FF94E488560C188CF
:101300008181C58100784006800F03D100F0F6F896
:10131000002801D100F0F8FAB5734021012807D068
:10132000022808D003280AD060207074032004E04B
:101330007174012001E071740220207002E04820E5
:10134000707425703A480078012835D1B80733D435
:10135000707CC107C90F49420140C8062CD4354CE6
:101360000227A1893448027891420DD2A289A1684E
:10137000802000F08FF9E089A1894018E081A581E3
:101380002B480A2705700EE0A168802000F082F942
:10139000A168294800780918A160A189091AA181CA
:1013A000E1890818E081E089E188884203D10820BA
:1013B00007431F48057077741D480078022834D110
:1013C000707CC00731D01B4C4027A1891A48027895
:1013D00091420AD2A289A168002000F01DF9E0899B
:1013E000A1894018E081A5810EE0A168002000F0ED
:1013F00013F9A168104800780918A160A189091A99
:10140000A181E1890818E081A08900280CD1482732
:1014100000F064FA032804D0682705490320087007
:1014200001E003480570B5737774F8BD00800020B3
:1014300000030020600600201B6A000810B5064863
:101440004078092806D1012000F012FB002801D0C5
:10145000032010BD002010BD6006002038B5264CCA
:1014600020784006800F012804D020784006800FA5
:101470002CD03FE06078030000F0DDFC0C3C070A54
:10148000123C3C3C3C3C181F223C00F0BBFA04E000
:10149000E08801282ED100F0A1FA002828D129E007
:1014A000E088012826D100F0A3FAF6E7002000F03A
:1014B000DFFA00281ED0022038BD00F0C5FA01E096
:1014C00000F0CCFA002815D0032038BD607806283B
:1014D00010D1E17820796A4600F03CFAA060A0685B
:1014E000002807D0A18968460088814200D9A081E0
:1014F000012038BD002038BD6006002010B5294805
:10150000417800220B0000F096FC0A060C480E48B9
:10151000142748304548C08802283ED100F0FCF826
:101520001FE0002000E0012000F020F9002811D188
:1015300033E00178002930D18178837C4906490E57
:10154000022B2AD0184B19700123002901D0837473
:1015500000E08274032010BD007880281DD100F0C7
:10156000B5F8002819D0012010BD0178802914D1C8
:10157000C188012911D1817C002904D0012902D020
:1015800002290AD102E009490A8001E00549103127
:101590008160E8E70078002801D0002010BD00F04D
:1015A0000DF9C3E7600600200080002094020020AF
:1015B0000207120F05D005498A73000602D54020A4
:1015C0004874704780200875704700000080002034
:1015D0000207120F08D0000606D404498A73C87D9A
:1015E000897D00020843704700207047008000207A
:1015F0000207120F0CD007498A73000602D5487CF7
:10160000C00601E0087D8006002801DA012070474D
:1016100000207047008000200007064B800EC01895
:1016200004E00378521E0B7092B2491C002AF8D1D4
:1016300070470000208000200107090F07D0000636
:1016400005D403488173017D49084900017570473D
:10165000008000200207120F05D005498A7300069A
:1016600002D510204874704720200875704700008C
:101670000080002010B5044600F00CF82007000F91
:1016800005D0210603D5024988730120487410BD96
:10169000008000200007064B800EC01804E00B7885
:1016A0000370521E92B2491C002AF8D17047000004
:1016B0002080002010B514210248FEF78AFD00F0BA
:1016C000FBF910BD600600207047000038B5114CD2
:1016D000E078012805D0022807D003280AD000208E
:1016E00038BD684600F030F908E0A078694600F09F
:1016F00021F903E0A078694600F062F9A060A068D3
:101700000028EDD0A18968460088814200D9A081D7
:10171000012038BD6006002038B5124C0020208022
:10172000114D2878C006C00E05D0012817D0022818
:1017300011D0002038BD287C694600F0FBF8C07944
:10174000400601D501202080687C002807D0208831
:101750000221084302E02879FFF74AFF2080AC60AD
:10176000012038BD940200206006002010B5124907
:101770000A78D206D20E02D0022A1BD107E04A888C
:10178000012A17D1002800D00120487410E04A88AF
:10179000002A0FD10C7921070CD00028204602D056
:1017A000FFF758FF04E0FFF703FF2046FFF78CFF29
:1017B000012010BD002010BD6006002070B5164C41
:1017C000A578A07C012802D0022823D10AE0002DB0
:1017D00016D0284600F0BCF900281BD02574022042
:1017E000A0740DE0002D0DD0207CA84208D0207CF4
:1017F00000F014F8284600F0ABF900280AD0257450
:10180000012070BD002020740120A074002000F091
:1018100005F8F5E7002070BD600600200848C17992
:10182000FD221140C171C179FB221140C171C27901
:10183000F7210A40C271427A0A40427270470000A2
:101840000080002010B50D48816842151143816069
:101850000C4C0B4A06212046FFF7E2F8206B0621CC
:10186000884320630848C169084A1143C1610121C6
:10187000401041700721C17210BD000040100240AD
:1018800001000020000C0048000001400000A48975
:1018900001490020086070476C020020704700007A
:1018A0000149002008607047700200207047000066
:1018B0000149002008607047740200200448032199
:1018C0008173007DC00702D0024901200860704783
:1018D00000800020780200207047704710B5094949
:1018E00000200A785206520E212A0AD10A79002ACB
:1018F00005D00A79012A02D00979022901D1FFF71E
:101900009DFD10BD6006002010B5094900200A7831
:10191000D206D20E012A0AD10A79002A05D00A7904
:10192000012A02D00979022901D1FFF797FD10BDE4
:1019300060060020002801D0002070475B2008804E
:1019400000487047576B000812210180004870471B
:10195000986800080923002804D001280ED0022826
:101960001AD01DE0212902D0222919D102E01380CA
:10197000114870474120108010487047212902D03B
:1019800022290DD103E00C48138019307047D8206C
:1019900010800A4841307047212903D0222905D000
:1019A0000020704704481380323070472220108096
:1019B0000148343870470000696B00081C6A000851
:1019C000032806D28200044883581B780B80805875
:1019D0007047002070470000B80200200349024809
:1019E00088600120704700007D0200206006002012
:1019F0000349024888600120704700007E020020F1
:101A0000600600200E480179012905D1C17801291D
:101A100002D1C188082903D00179002902D007E04A
:101A2000084909E0C178012902D1C188082901D0FB
:101A30000020704703490831816001207047000091
:101A4000600600207F0200200248C07802494870EA
:101A500001207047600600207C0200200248807848
:101A60000249887001207047600600207C02002037
:101A700010B50F490A79002A05D1CA78022A02D185
:101A8000CA88012A03D0087902280AD00DE0094A41
:101A9000002804D0107802F057F9012010BD8A60A8
:101AA000FBE7C878032800D1C888002010BD0000DB
:101AB000600600207C020020104882680121090590
:101AC0000A43826002690A43026102698A43026131
:101AD0000A49012040390863C86209490020C872D8
:101AE000C871487207490868FF22120490430860D1
:101AF0000120054980050860704700004010024041
:101B00000080002014E400E000E100E0074901202B
:101B10004870C8710020487205490860054908608E
:101B200005490860054908607047000000800020F2
:101B30006C02002070020020740200207802002055
:101B40000149012008707047B4020020704700006E
:101B500030B5012801D0002030BD18480121817323
:101B6000002282740821017440234374417441743B
:101B7000C57902242543C57184738274017443744A
:101B800041744174C47904252C43C47103248473C3
:101B900082740174437441744174C3790B43C371FB
:101BA00084734275C1748022027510220275027519
:101BB000427A0A434272012030BD000000800020BA
:101BC0000149012048707047B4020020F8B5012097
:101BD0000005FEF7EFFD114C114D20780126114F45
:101BE000002802D0012804D00CE0686900070CD559
:101BF0002670686940070FD502202070132000F07E
:101C000027F93E702078002806D16869C00703D004
:101C1000132000F01DF93E70F8BD0000FF02002007
:101C200080000240B402002008B5FFF743FDFFF733
:101C30001BFB394C394D01270026F643314633460C
:101C40006A46002004F074FA0098C007F4D03146C8
:101C5000334E306804F05CF860680002020E606881
:101C60000004010E6068C0B2FEF72CFF01202D4970
:101C7000800508602C48016800291CD072B62A48EB
:101C80000068002816D00320FFF7A2FC02460020BF
:101C9000208021490320FFF7BFFC62B61E490020C7
:101CA0004880891C881E03F0A5FC72B628680028AD
:101CB00005D00BE062B6286800280ED024E0164953
:101CC0000222891C8320FFF7D5FC2F6016490020D3
:101CD00008600320FFF7B0FCECE7144800681449E3
:101CE000884211D1642000F05FFB1349114848621B
:101CF0000E4900200860BFF34F8F11490F48C8609C
:101D0000BFF34F8F00BFFDE700231A461946306826
:101D100003F003FF90E70000D002002074020020CF
:101D2000E401002000E100E07802002090020020A1
:101D3000A5A5A55AEB9C374A401002400400FA05BD
:101D400000ED00E01CB51248017982780904120206
:101D50008079114301430F48416001200E498005FD
:101D60000860BFF34F8FBFF36F8F0020019001A871
:101D700000900A48012200231146006804F00EF981
:101D80000198002803D001200549000748601CBDC8
:101D900000800020D002002080E100E0F00100205F
:101DA00000ED00E010B5024900F070FC10BD00002D
:101DB000B51D000810B5044605484900006D405C9B
:101DC000801AC0B203F0FAF9214603F06EF910BD93
:101DD000FC04002010B5024900F058FC10BD0000C2
:101DE000E51D000810B504460648036D4800401C78
:101DF000185C801AC0B203F0E1F9214603F055F9EE
:101E000010BD0000FC0400202021020C01D0102194
:101E10001046020A01D010460839020901D01046C6
:101E2000091F820801D01046891E420801D0881E71
:101E30007047081A704730B47446641E2578641CD5
:101E4000AB4200D21D46635D5B00E31830BC18470F
:101E5000002809DBC106C90E01208840034908603B
:101E6000BFF34F8FBFF36F8F7047000080E100E03A
:101E7000002805DBC106C90E012088400149086021
:101E80007047000000E100E08307FF22DB0E9A406C
:101E90008907090E9940002808DB830809489B0040
:101EA0001B18186890430843186070470007000F1C
:101EB0000838830804489B001B18D86990430843DE
:101EC000D861704700E400E000ED00E002E008C8DF
:101ED000121F08C1002AFAD170477047002001E0A4
:101EE00001C1121F002AFBD170470000F0B500238A
:101EF0001D469C461C460126A6400E4211D0670096
:101F00000326BE403343082C04D2A7000F26BE4050
:101F1000354306E0A7000F26203FBE4067463E43FC
:101F2000B446641C102CE6D38468D602F6178C43A2
:101F30000E40344384604468D601F6178C430E404B
:101F400034434460016894000F4EA40F74439943D6
:101F50001C4021430160C1689403A40F744399435A
:101F60001C402143C1601107084A090F5143026A0E
:101F70000B46AA432B401A430262426A63469A43C5
:101F800019400A434262F0BD5555555511111111C2
:101F9000002801DA404240B27047000037B5694678
:101FA0000C880D79201FA02808D82946009802F037
:101FB000C5FA2A4621461CA001F01EFA2046E03848
:101FC000072808D82946009802F038FB2A462146FF
:101FD00021A001F011FA2046A538022808D8294688
:101FE000009802F0CBFB2A46214627A001F004FA14
:101FF0002046A8381B2808D82946009802F086FAFF
:102000002A4621462CA001F0F7F92046ED38122887
:1020100008D82946009802F027FB2A46214626A028
:1020200001F0EAF93EBD00005B70726F6365737387
:102030005F6B65795D206B6579636F6465203D201A
:10204000307825583A2070726573736564203D209E
:1020500025640D0A000000005B70726F6365737386
:102060005F6D6F645D206B6579636F6465203D20F3
:10207000307825583A2070726573736564203D206E
:1020800025640D0A000000005B70726F6365737356
:102090005F73797374656D5D206B6579636F6465DB
:1020A000203D20307825583A20707265737365643E
:1020B000203D2025640D0A005B70726F63657373A9
:1020C0005F637573746F6D65725D206B6579636FA7
:1020D0006465203D20307825583A2070726573730E
:1020E0006564203D2025640D0A00000010B5040041
:1020F0000DD0002C00DC604200B200290DDB0A1874
:10210000081A40011146FEF737F820210CE000299B
:1021100001DB002010BD802010BD421A08184001CC
:102120001146FEF729F86021081A40B2002C00DAA7
:102130004042C0B210BD000070B51320FFF788FE0A
:102140001B4B032018620C2058621A4900228A6136
:10215000184C0120403CE0630C69E407FCD0FF24EC
:10216000F5340221491CA142FCD313498C68012596
:102170002D052C438C601049403908631A625A625D
:102180000E4B1860CA6002234B6188618B69002B7B
:10219000FCD14A6208620922CA61486209490848BA
:1021A00008600948FEF7FCFF03F025F970BD000048
:1021B00000700040800002404010024000200240B9
:1021C000006CDC02CC02002080BB0000FEB503F0F6
:1021D0000BF9224C032020620C2060622048816AA7
:1021E0000127394381620020FF21F531401C8842DC
:1021F000FCD30025256265621A4EF5607561B761F2
:102200001A49194808607D200001FEF7C9FF032024
:1022100020620C20606235631248403081680126DC
:102220003605B14381600E4A0D21803291612562ED
:10223000656281687410214381606846009605716B
:10224000082141718771FEF7BBFA094805703046D5
:10225000FEF7B0FA07480460FEBD000000700040C1
:10226000000002400010024080841E00CC020020CA
:10227000FF02002000E100E000B54030C0B202F0F3
:102280009DFF00BD70B506460D480D464468002C04
:1022900015D00C48017C407CFDF758FF084949786F
:1022A000484308492039C98871434919CA08121995
:1022B0004C07835C640F0121A1404B40835470BDE7
:1022C000D80100201C050020FFB5164C81B0002568
:1022D000A57020781E461746002812D003F098F803
:1022E00021890125411A89B2A060FF2901D9FF2166
:1022F00001E0002905D0CBB23A460299019803F0DB
:10230000EDF86078064309D0002D02D103F080F883
:10231000A0603A460299019803F084F8A07805B0CD
:10232000F0BD0000F4010020F8B50E4C0546E08831
:10233000684301F05DFF0C490023486019460EE038
:10234000002207E0C6183778521CFF07FF0F3770CE
:10235000D2B25B1CE6889642F4D8491CC9B2A942A5
:10236000EED3F8BDFC040020F4010020704700000B
:1023700010B5084A002012780146012423468B40FC
:10238000134201D04018C0B2491CC9B20829F5D384
:1023900010BD0000D60100200121814001480170DC
:1023A00070470000D601002070B5054603F05CFEC2
:1023B000044601E0FEF7D6FB204603F023F8A842CE
:1023C000F8D370BD0149002008707047000000205C
:1023D00001484169014808477C690008007C000801
:1023E00010B51948032101620C2242621748826825
:1023F0000123DB041A438260154842690E239A4385
:1024000042614161134801684022090A09021143EF
:102410000160114901200860104900048860C8600B
:10242000086000F07FF80E48006800F03BF80D48A7
:10243000006800F025F800F03FF80446FFF7C8FFF9
:10244000204600F055F810BD0070004040100240DA
:102450000000024000E400E000E100E00004014070
:10246000CC0100201802002010B503488168034801
:102470008847C04310BD00007C690008087C000844
:1024800002490A69C1430248104700007C690008FC
:10249000087C000801488168014808477C690008F9
:1024A000047C000802490A690146024810470000FE
:1024B0007C690008047C00080148816801480847DD
:1024C0007C6900080C7C0008084A0748D27F01217B
:1024D000920011430170054920310A784270497811
:1024E0008170FF21C1707047CC010020FC040020E6
:1024F00070B50546FFF7CEFF0646FFF7B5FF044669
:10250000FFF766FF3046FFF7CDFF2046FFF7B8FF25
:102510000248294602690248904770BD7C6900085C
:102520000C7C000810B50AA000F066FFFFF7B2FFB0
:102530000D49086001460DA000F05EFFFFF794FF13
:1025400011490860014611A000F056FF10BD0000BF
:102550005B6565636F6E6669675F757365725F67FC
:1025600065745D200D0A0000CC0100206C65645F7D
:102570006D61747269785F6565636F6E6669672007
:102580003D2025640D0A0000180200206B65796D5E
:1025900061705F636F6E666967203D2025640D0A78
:1025A00000000000F3B518480F468078154D41082B
:1025B000154881B00C38008A00242E7F80B202F0CA
:1025C00071FDC0B2009016E0686D0199005D497818
:1025D00008420ED02A6D6000115C401C125C0A4853
:1025E00070394078203A009BB8470146204601F0F8
:1025F000CDFA641CE4B2B442E6D3304601F06EF981
:10260000FEBD0000FC040020CC010020F3B51E48F4
:102610001C4D807883B041081B4800240C38008A88
:102620002F7F80B202F03EFDC0B2029023E0686DC1
:102630000399005D497808421BD02A6D6100505C07
:10264000491C70380190565C4043203E314671432E
:10265000401880B202F0F4FD0346029800900A4848
:102660003246049E40780199B0470146204601F069
:102670008DFA641CE4B2BC42D9D3384601F02EF97D
:1026800005B0F0BDFC040020CC010020F3B5144FD0
:10269000124EB87881B0810838460C38008A002480
:1026A000357F80B202F0FEFCC0B2009010E0706D89
:1026B0000199005D4978084208D0029B787821464C
:1026C000009A98470146204601F060FA641CE4B283
:1026D000AC42ECD3284601F001F9FEBDFC04002019
:1026E000CC010020F3B51D4F1D4D81B000243E7F6D
:1026F000A9781C48FDF72AFD009029E0786D019922
:10270000005D4978084221D01749009A08780CE00A
:102710000B185B7CA34208D143005B185B8B934290
:1027200003D240004018428B03E0401E40B2002814
:10273000EEDAA978104602F0B5FC6A780146104638
:10274000029A90470146204601F020FA641CE4B248
:10275000B442D3D3304601F0C1F8FEBDFC040020E2
:10276000CC010020FFFF0000D2040020F7B52A486A
:102770008AB0007F0590294800240078039043E048
:1027800025480B99406D4978005D08423AD00020F9
:1027900002900A9D2AE020482049026D6000135CE7
:1027A00049194E78401C105C497A9F1B461A3846DE
:1027B000314678437143401880B202F041FD0890E1
:1027C00017480121807802F059FAC1B213486A0013
:1027D0001018408B02F066FC324600900C9E394681
:1027E000089B0298B0476D1CEDB202900398854299
:1027F000D1D30B484178029802F057FC014620469D
:1028000001F0C4F9641CE4B205988442B8D301F025
:1028100065F80DB0F0BD0000FC040020D2040020DB
:10282000CC010020F3B51D481B4F807883B0810890
:102830001A4800240C38008A3E7F80B202F032FC35
:102840000546C0B2FFF718FD803840B20290E8B2EA
:1028500002F0B4FC803840B2EDB2019014E00E48B2
:102860000399406D4978005D08420BD00B480095F4
:10287000049F40782346019A0299B84701462046B2
:1028800001F084F9641CE4B2B442E8D3304601F0AC
:1028900025F805B0F0BD0000FC040020CC010020AC
:1028A00010B504460029024609D0FD21012002F09E
:1028B00043FD012002F0DEFF2246FD2108E0FC215D
:1028C000012002F039FD012002F0D4FF2246FC2154
:1028D000002002F031FD10BDF8B5174C607A0028D9
:1028E00028D0002501273F040CE06069AE00805924
:1028F000394601F0A4FDA0693946805901F09FFDD9
:102900006D1CEDB2607AA842EFD800250FE0606937
:10291000AF00C05901F07CFD0646A069C05901F026
:1029200077FD40000643054846556D1CEDB2607AC0
:10293000A842ECD8F8BD0000FC040020FD020020F5
:10294000F8B516480025417A002924D000241EE05D
:102950001248A6004069805901F05AFD07460F4809
:102960008069805901F054FD400007430C48FAB2D9
:10297000015D8B079B0F934207D08906090E114317
:102980000155204600F00EF80543641CE4B20348EC
:10299000417AA142DCD82846F8BD0000FC040020A2
:1029A000FD02002070B5144C0A07144B0546120FA7
:1029B000605D9A5C0026801840B26055042807DAF2
:1029C000021D05DD0E4A8907127C890F914210D144
:1029D000012804DB012631462846FFF761FF6057D6
:1029E000002804DA012600212846FFF759FF0020BD
:1029F0006055304670BD0000FE020020B26B00083A
:102A0000FC04002000A070476C6962207665727338
:102A1000696F6E3A2076302E302E38000B49002038
:102A2000086048600A48006B401C0ED109480168E4
:102A300007221143016008490868FF2212029043EF
:102A4000086001200549400608607047F402002034
:102A5000C0FAFF1F006C004018E400E000E100E055
:102A600010B51248006B401C1FD1114801680029A5
:102A70001BD0EFF3108472B600210160FDF7C4FF94
:102A80000C48FDF7DBFE0C4800688003800DC14355
:102A9000090401430948FDF739FF08480849001DAA
:102AA000FDF734FF002C00D162B610BDC0FAFF1F45
:102AB000F402002000F6FF1F006C004000F7FF1F2B
:102AC00069E5B5A310B500F0BDF800F0E7F802F035
:102AD000C3FA10BD10B500F005F8002800D00120A1
:102AE00010BD000010B5FFF7E7FC194C2060401C3A
:102AF00000D1206001F036FA01F022FA002812D04D
:102B000004221449002001F0BFFA12490422091DD1
:102B1000012001F0B9FA0F4904220831022001F026
:102B2000B3FA01F0CDFA00F05BFF01F02BFA0028B8
:102B300003D02078800901F0CFFA6078000701D532
:102B4000022000E00020FFF727FC002010BD00005D
:102B5000040000206C66000870B50C46054600F0C5
:102B600045F8002807D0002C04D00348C54201D105
:102B700000F026FC012070BDFD83FFFFF7B50121A9
:102B800082B0194D002400913C22535DA96B26E0D0
:102B900022460C26724308328A5A82421DD1684668
:102BA000007B002806D002F038FC0C22A96B5443AD
:102BB000085116E00C20444326460A36885D00275B
:102BC000002807D0B01E085A0021FFF7C5FF00906B
:102BD000A86B8755A86B075103E0641CE4B2A342BD
:102BE000D6D8009805B0F0BDFC040020134A10B5FB
:102BF000D04221D100291FD0114901200870FF20A7
:102C000000F0B6FD0E4C0020241D20602078F1213C
:102C10004008400008406178F7220907090FC908F9
:102C2000C90011406170CF21084020700020FFF7DB
:102C3000B3FB2068FFF75CFC012010BDFD83FFFFA4
:102C400000000020F8B5144F00253E4620361EE057
:102C50002C460C20BA6B44431059002815D021464D
:102C60000A310091515C00290FD102F0CBFBB96B06
:102C7000221D8A58904208D3009A01208854B86BCC
:102C80000834005B0121FFF767FF6D1CEDB2307F58
:102C9000A842DDD8F8BD0000FC04002001207047E8
:102CA00010B50120C046002800D0012010BD000052
:102CB00037B50446029A019900F01EF8002815D095
:102CC00001A9204601F040FD00280FD00848201837
:102CD00005D07F21C900401A00D001203EBD6846C2
:102CE00001790448002900D00121017000203EBD77
:102CF000F587FFFFFC020020F7B56946F84D0C7917
:102D00002978432870D017DC1E380300FFF793F8AA
:102D100025FEFDFCFBFAF9F8F7F6F59E669E9E9EF1
:102D2000F4F39E9E9E9E9E9E9E9E9E9E9EF2F1F01F
:102D3000EFEEEDECEBEA9E00EA4AE94F831A01263A
:102D40003F1F90427ED02DDCE74BC21A98427AD0CA
:102D50001FDCE32878D004DC442876D0452875D1E0
:102D60007DE2E72873D0E14AD042F8D1002C43D06D
:102D70008807C0174000801C8007FD22800F11408B
:102D800008432870800771D500F036FEA870002037
:102D9000DEE0012A6BD0022A33D0052A68D0062A49
:102DA000DDD1F9E2D2481A18CD4813004078FFF778
:102DB00042F80FF2F14D4D4D4D4DF0EFEEED6089C3
:102DC000EC094D00002CD2D08806C01740012030FD
:102DD0008006DF22800E1140084352E2880606D4A6
:102DE000002C02D0292005E025E2292006E0002C55
:102DF00003D0352002F03EF8E0E2352002F062FB1D
:102E0000DCE2002CF8D00420C141040708191C2181
:102E1000C8410107890FF3262870022901D33040E9
:102E2000287000F0DDFD2A7811078B0FAC49891E50
:102E3000CB5C984212D10420C24110191C22D0410F
:102E4000287005E043E282E259E2FEE1FCE04FE255
:102E50000207920F022A01D3304028702878000719
:102E6000800F70E02868FFF743FBA7E26FE04FE2B6
:102E70007EE2002CC0D001070009401C0007090FAA
:102E8000000E014308096970092802D30807000FE2
:102E9000687000F0A5FD6B7891491A0909318C5CC6
:102EA000A0420CD1521C18071207000F120E10433B
:102EB00002096870092A02D30007000F6870687859
:102EC000000940E0002C97D00321C8410124640789
:102ED00000191D21C8414107490F6870052918D301
:102EE000C00814E09DE191E186E178E164E157E1F9
:102EF0003CE131E124E113E102E1E6E0D5E0C4E0A8
:102F0000B3E091E07EE065E04CE034E023E0C00017
:102F1000687000F065FD6A78714953075B0F091D01
:102F2000CB5C98420CD10320C24110191D22D04124
:102F30004207520F6870052A02D3C008C0006870AB
:102F400068784007400F085C00F0EEFD8AE7A8783B
:102F500000F06CFE86E7C80776D0FFF709FA022872
:102F600003D3002C71D0BE2044E7002C01D03A20BE
:102F700040E73A2042E7C807EED0FFF7F9F9022808
:102F80000AD3002C70D0BD2034E780E17BE18BE1D7
:102F900081E16EE196E191E1002C01D03B2029E72F
:102FA0003B202BE7C807D7D0FFF7E2F902280BD365
:102FB000002C04D0E02001F05DFF52201AE7E02051
:102FC00002F080FA522019E7002C01D03C2011E7D2
:102FD0003C2013E7C807BFD0FFF7CAF902280BD37C
:102FE000002C04D0E32001F045FF2C2002E7E32071
:102FF00002F068FA2C2001E7002C01D03D20F9E610
:103000003D20FBE6C807A7D0FFF7B2F9022805D399
:10301000002C01D0C320EDE6C320EFE6002C01D048
:103020003E20E7E63E20E9E6C8070DD0FFF7A0F90D
:10303000022813D3002C09D0E32001F01BFFE1206C
:1030400001F018FF2020D5E681E083E0E32002F0C4
:1030500039FAE12002F036FA2020CFE6002C01D028
:103060003F20C7E63F20C9E67EE0C8076FD0FFF7E4
:103070007FF9022803D3002C6AD0AC20BAE6002CDA
:1030800001D04020B6E64020B8E6C8075FD0FFF781
:103090006FF9022803D3002C78D0AE20AAE6002CCA
:1030A00001D04120A6E64120A8E6C8074FD0FFF78F
:1030B0005FF9022803D3002C69D0AB209AE6002CDC
:1030C00001D0422096E6422098E6C8073FD0FFF79D
:1030D0004FF902280ED3002C7BD0A8208AE60000EE
:1030E000040000200A78000003780000FE87FFFF3C
:1030F00007FAFFFF002C01D043207BE643207DE64A
:10310000C80724D0FFF734F9022803D3002C70D06D
:10311000AA206FE6002C01D044206BE644206DE627
:10312000C80714D0FFF724F9022803D3002C74D069
:10313000A9205FE6002C01D045205BE645205DE636
:10314000C80704D0FFF714F9022802D209E70AE001
:103150005AE0CBE0BE2051E6C80704D0FFF708F9DB
:10316000022800D20DE7C1E0BD2047E6C8074AD0DB
:10317000FFF7FEF8022846D2002C09D0E02001F02B
:1031800079FEE22001F076FE2B2033E647E050E0A6
:10319000E02002F097F9E22002F094F92B202DE6CE
:1031A000C80730D0FFF7E4F802282CD2002C01D059
:1031B000B4201FE6B42021E6C80724D0FFF7D8F8D2
:1031C000022820D2002C05D0E32001F053FE0B2072
:1031D00010E638E0E32002F075F90B200EE6C80790
:1031E00011D0FFF7C5F802280DD2002C02D0AF2075
:1031F00000E632E0AF2001E6C80777D0FFF7B8F865
:10320000022800D237E771E0AC20F7E5C8076DD09F
:10321000FFF7AEF8022801D23DE728E066E0AE20D5
:10322000ECE5C80762D0FFF7A3F8022800D242E716
:103230005CE0AB20E2E5C80758D0FFF799F8022818
:1032400000D248E752E0A820D8E5C8074ED0FFF7E3
:103250008FF8022800D259E748E0AA20CEE5C80737
:1032600044D0FFF785F8022800D25FE73EE0A920AE
:10327000C4E5002C25D048084000C907C9178E4373
:1032800030432870EEE5002C40D0E320B2E5002C5E
:1032900033D0E720AEE5002C13D00020FFF77CF8F8
:1032A0006878F721084007E0002C0AD00220FFF7D9
:1032B00073F86878082108436870D3E5002C7DD046
:1032C0007E707BE0002C79D00020787076E0002CB6
:1032D0000CD0C806C01700011030C006EF22C00E87
:1032E0001140084328702868FFF702F90120FEBD4D
:1032F000FFF73EF80228CAD205E0E7207EE5FFF797
:1033000037F80228BFD278787040FEBDE32075E51B
:10331000002C53D000F070FB1930FF2801D9FF209A
:1033200003E000F069FB1930C0B200F07FFC00F050
:1033300063FB2EE0382000F01BFA412000F018FA61
:10334000422000F015FA432000F012FA36E0002C7B
:1033500034D000F051FB192801D2002003E000F026
:103360004BFB1938C0B200F061FC00F045FB23E0D4
:10337000002C23D000F03AFB1930FF2801D9FF20A0
:1033800003E000F033FB1930C0B200F023FC00F082
:103390002DFBFF28CED011E0002C0FD000F026FB33
:1033A000192801D2002003E000F020FB1938C0B238
:1033B00000F010FC00F01AFB0028BBD00020FEBD7E
:1033C00010B5FFF70DF8FFF7ADF800F06FFB012027
:1033D000C04610BD70B50D460646002404E0315DC0
:1033E00003A000F009F8641CAC42F8D370BD0000E3
:1033F00025303258200000007047000010B51348F7
:103400008168402211438160114801688022114384
:1034100001601048FDF7BEFB0320FDF7AFFB012064
:10342000FDF796FB0028FAD13220FDF7ADFB022014
:10343000FDF78EFB0028FAD10220FDF789FB00285A
:10344000FAD1FDF78FFBFDF77BFB10BD401002406A
:10345000005801405555000070B584211D48FCF707
:10346000B8FE1C4E00200C3EB06030601A48406828
:103470008005800D7060C046C04618490020401C81
:103480008842FCD301F05AFE1548816802151143A9
:103490008160154C1348E0620125A5626561E81E54
:1034A0002061E0682843E06000210D20FEF7ECFC7D
:1034B0000D20FEF7DDFC2068284320600B48032127
:1034C00001620C214162B0680028FCD001F0F0FDDF
:1034D00070BD00004C0D002080000240102700004D
:1034E00040100240FFFF000000100040007000404C
:1034F00070B52B48416A2B484268002A23D081606E
:1035000081684268294B891A8AB227495118994221
:103510001AD881684160264C6168491C6160037853
:10352000014600260C31002B19D003789B005B1854
:10353000803BDB6F9342037807D89B005B18803B8E
:10354000DB6FD31A06E0416070BD9B005B18803BC7
:10355000DB6F9B1A0A256B43934200D906700378F0
:103560009D006D185B1C03702A600278104D0C3DA5
:10357000022A0FD30670A868002200280AD183000F
:10358000CB58401C9A18C0B20228F8D350082860C3
:1035900001F07AFE60680A28D6D90120A86070BDC3
:1035A00000100040D802002070CCFFFF60540000E3
:1035B0004C0D002010B50948416A094A91420BD1CF
:1035C000002141620749012008600748016881F332
:1035D000088840688047FEE710BD000040100240A8
:1035E000EB9C374A0000014000E0FF1F10B5304956
:1035F000E0284A78097821D012DC352844D008DC4C
:10360000292844D02A284CD0312816D148064CD439
:1036100049E0392801D082280FD1CB071FD108E01B
:103620000446E23C2300FEF706FC0611141C0822A7
:103630002508890713D4110731D410BDC8072CD130
:10364000D0070CD0C80610D4E32010BD4807F9D429
:1036500001E0480701D5E22010BDD007F2D0E020FC
:1036600010BD90070CD5C8060CD5002010BD08076A
:10367000F9D401E0080701D5E62010BD9007F2D586
:10368000E42010BDE72010BD880608D401E08806BC
:1036900001D5352010BD100701D5392010BD2920D6
:1036A00010BD480601D5312010BD2A2010BD0000F4
:1036B000180200200FB410B57C2202A90348FCF7C1
:1036C0006FFD10BC08BC04B018470000FC040020CB
:1036D00030B5084B9D888D420AD9DC88944207D9C1
:1036E000454368186043801819684000085A30BD87
:1036F000002030BDFC0400200122034982400878EC
:103700009043087070470000D601002001218140DD
:10371000024802781143017070470000D601002072
:10372000F3B50E480F4606780D48007A401E44B2A5
:1037300001250EE02846A040304208D0E0B23A46CB
:103740000099FFF7C5FF012801D0E0B2FCBD641E5F
:1037500064B2002CEEDA0020FCBD0000D60100208F
:10376000FC0400200148007870470000BC010020E4
:1037700030B5144900224424645C0B6C1DE01C2508
:10378000554310355D5D854215D11C2042431046DE
:1037900008301C58002C12D09D5865436D00141D34
:1037A0006D1C1D51096C0858FF2802D18858401C17
:1037B0000851012030BD521CD2B29442DFD8002003
:1037C00030BD0000FC040020FEB50025414F7BE029
:1037D00040482C4640381C225443016C261D8A590F
:1037E000002A68D020460C3001900858002807D0E5
:1037F00001F008FE37494039096C0959884228D33D
:103800003448224640381132016C00928A5C002A0A
:1038100013D0002200980A5401F0FFFD2D494039D1
:103820000A6C019950502B484038006C815902595C
:10383000914204D3891A81510BE00122EAE7002169
:10384000244A8151403A136C00981954126C019823
:10385000115020494039086C8259002A13D00E4675
:10386000001900F039F800282CD02046316C1130B6
:10387000085C002813D020461030085CFF280BD0CD
:103880001834095D10E0214614314158002919D03F
:103890001034005D884715E01834085D08E01034E6
:1038A000085DFF2803D0002100F070F90AE0002035
:1038B00000F07EF906E0234600221133CA54006C62
:1038C0000C3402516D1CEDB23879A84280D8012029
:1038D000FEBD00003C050020012070470349097F20
:1038E000814201D90120704700207047FC0400206C
:1038F00010B5012000F002F810BD000010B504461C
:103900000448817F0448807801F0BEF9214600F028
:1039100067F910BDFC040020CC01002010B5012087
:1039200000F002F810BD000010B504460448417FC5
:103930000448407801F0A8F9214600F07DF910BD57
:10394000FC040020CC01002010B500F001F810BDEF
:1039500010B5084801788A0703D0002203460C3BC3
:10396000DA708908890001708907890F02A0FFF7C2
:1039700043FD10BDCC0100205B6C65645F6D61741C
:103980007269785F656E61626C655D2025640D0A01
:103990000000000010B500F001F810BD10B5084897
:1039A00001788A0702D103460C3BDA708908890046
:1039B000491C01708907890F02A0FFF71DFD10BD8A
:1039C000CC0100205B6C65645F6D61747269785F27
:1039D000656E61626C655D2025640D0A0000000063
:1039E0000148007880087047CC01002001488078A9
:1039F00070470000CC01002001484078704700006B
:103A0000CC01002010B5012000F002F810BD00002C
:103A100010B504460548817F0548807801F02EF9ED
:103A2000C0B2214600F0DCF810BD0000FC0400200C
:103A3000CC01002010B5012000F002F810BD0000FC
:103A400010B504460548417F0548407801F016F955
:103A5000C0B2214600F0F0F810BD0000FC040020C8
:103A6000CC01002070B50C460546FFF7ADFE21469F
:103A7000284600F005F8002800D0012070BD0000A5
:103A800008B50948007800280CD1FFF76BFE0090BC
:103A900068460078800701D5FF2100E0002144201E
:103AA00000F074F8012008BD0000002010B5FDF7FB
:103AB000CFF800230E4A0F49137018464400A4188B
:103AC000401CC0B261830828F8D3094A2A3A13700F
:103AD000002043009B18401CC0B259830828F8D32B
:103AE00005480068401C01D1FEF7EEFC10BD000047
:103AF000D2040020FFFF0000CC01002070B5144666
:103B00000D46064600F00EF80549CA6CC988714397
:103B10005118695CFF2902D02154401CC0B270BD0D
:103B2000FC0400200020704710B5012100F002F8CD
:103B300010BD000010B50E490A78920717D00A464A
:103B400012789207920F002803D0162803D354321C
:103B500003E0121D01E0800002430A701006810E8E
:103B600004A0FFF749FC024900200C39C87010BDC1
:103B7000CC0100205B6C65645F6D61747269785F75
:103B80006D6F64655D2025640D0A000030B5074A3D
:103B9000137F834209D94000936C441C1C5DD58877
:103BA000185C6C43926E2018115430BDFC04002048
:103BB00070B506460024064D05E031462046FFF765
:103BC000E5FF641CE4B2287FA042F6D870BD000077
:103BD000FC04002010B5012100F002F810BD000027
:103BE00010B503498870014602A0FFF705FC10BD1F
:103BF000CC0100205B6C65645F6D61747269785FF5
:103C000073706565645D2025640D0A0070B5064D0E
:103C100004462978884305D0002000F0B9F8002038
:103C200000F098F82C7070BDC001002010B5012183
:103C300000F002F810BD000010B505490A7892079F
:103C400004D04870014603A0FFF7D6FB10BD00006A
:103C5000CC0100205B6C65645F6D61747269785F94
:103C600076616C5D2025640D0A00000010B501200E
:103C700000F002F810BD0000014610B504480078BD
:103C80008008401C152800D30120FFF753FF10BD0A
:103C9000CC01002010B5012000F002F810BD00009A
:103CA000014610B5054800788008401E0006000E49
:103CB00000D11420FFF73EFF10BD0000CC01002012
:103CC00010B500F017F9154C2078002811D12046C6
:103CD0000C30007881070CD08008E2780021002A9F
:103CE00009D0012A14D0022A15D0032A00D1E1708C
:103CF00010BD0020F1E709482A22001D0170A068CC
:103D0000074920618818FCF74BFA0120E07010BDCC
:103D100000F03EF810BD00F01DF810BDC0010020FD
:103D2000A804002000B5012000F002F800BD00004A
:103D300004480122017851400170024900200C39E9
:103D4000C8707047CC01002001490870704700001E
:103D5000BC01002070B50C4D0C4C2946A8700C31EC
:103D600009788907890F6970002803D0217F002016
:103D7000FFF778FEA288E088A16E4243E06EFCF770
:103D80000FFA0320E87070BDC0010020FC04002081
:103D900010B5574CA178884207D121460C310978DB
:103DA00062788907890F914201D0012100E000214A
:103DB0004F4A121D91700B285AD009DC0300FEF700
:103DC0003AF80B1F252A2F34393E43484D529400B0
:103DD00011286BD007DC0C380300FEF72CF8054ED9
:103DE00053585D628600142871D004DC122862D01A
:103DF00013287AD164E015286ED0FF2875D110BD44
:103E0000002972D00020FFF7D3FE6EE03848001D75
:103E1000FDF7D6F864E03648001DFCF7D3FB5FE001
:103E20003348001DFCF75CFB5AE03148001DFCF7ED
:103E30005FFB55E02E48001DFCF772FB50E02C485C
:103E4000001DFCF741FC4BE02948001DFCF766FC17
:103E500046E02748001DFCF74DFC41E02448001DCA
:103E6000FCF774FC3CE02248001DFDF7CBF837E07E
:103E70001F48001DFDF74AF932E01D48001DFDF7FF
:103E800013F92DE01A48001DFDF7C4F828E0184882
:103E9000001DFDF7F5F823E01548001DFDF70EF9AC
:103EA0001EE01348001DFDF7F5F819E01048001D4D
:103EB000FDF756F914E00E48001DFDF799F80FE0E4
:103EC0000B48001DFDF76EFF0AE000E004E0084823
:103ED000001DFDF77FFF03E00548001DFCF76CFFA8
:103EE000002802D00020E07010BD0220FBE7000097
:103EF000C001002070B50F4DA86801F083FA044698
:103F000001F08BFAA8600C490C4800220B78001BCA
:103F10000CE055006D186E8BB04203D20D786D1E0B
:103F20000D7001E036196E83521CD2B29A42F0D362
:103F300070BD0000C0010020A8040020FFFF0000A9
:103F400010B505488168054888470549884201D071
:103F5000012010BD002010BD7C690008007A000817
:103F600055AAAA5510B505480549406B4860002080
:103F70000870487000F06CF810BD0000FC040020D0
:103F8000D8010020152801D000207047012070477B
:103F9000F3B583B00446FF20694608700871FFF747
:103FA0002BFD294988703EE001A80290274823464E
:103FB000C06CEE468446254800218688C2883DE0D4
:103FC000154600204D4367467F1933E0C55DFF2D40
:103FD0002ED09D422CD172461170029908701A4859
:103FE0004568002D1DD019482030017C407CFCF72D
:103FF000ADF8024614486B4641781B784A43134992
:10400000C98859436B461B79C918CB085B19D25C28
:104010004907490FCA40D10713D000212046FFF7B6
:10402000B5FD641CE4B204988442BDD305B0F0BD74
:10403000401CC0B28242C9D8491CC9B28E42BFD806
:10404000EFE78178EAE70000D8010020FC040020B7
:10405000F8B50A4D297C81420FD900242E46203E16
:10406000074F07E00748396820188847716B0855E3
:10407000641CA4B2687CA042F4D8F8BD1C050020E2
:104080007C690008047A0008F8B50B4D14460F4609
:1040900068700A4E09E0641EE4B2385DB26C4000FC
:1040A000115C401C105CFEF7EDF8002CF3D1687831
:1040B00000F02AF80020F8BDD8010020FC04002000
:1040C0000248034902690348104700007C69000860
:1040D00055AAAA55007A000810B50949097C814201
:1040E00001D8002010BD07494870FFF7B1FFFFF766
:1040F00077FC152802D01520FFF716FD012010BD12
:104100001C050020D8010020F8B50D4D297C814206
:1041100015D90C4E0C48716988470B4F00243F1D80
:1041200008E00748F2682038406B015DE0199047CD
:10413000641CA4B2687CA042F3D8FFF7C1FFF8BDAD
:104140001C0500207C690008007A00081CB5FFF7F8
:1041500031FA00F09FFDFEF761FCFFF74FF9FEF723
:1041600005F9002205211E2001F082FC1449086097
:10417000012001F06BFC13490860FEF743FC124973
:104180000120019100900023602210A1114801F04C
:1041900085FE1149032001910090002340220FA1C8
:1041A0000F4801F07BFE0F4904200191009000238D
:1041B00020220DA10D4801F071FE01F0CBFBFEE7BE
:1041C000E0010020E4010020E80100204D6174724C
:1041D00069780000D50D0008EC0100204150500026
:1041E000ED030008F001002055534200291C00088F
:1041F000F0B50B30C108C900144F0026144A0FE077
:1042000003688B420BD38B4205D95C1A431845686F
:1042100030C3083B00E04368136002C004E0021DA5
:1042200010680028ECD13046002803D138680028F7
:1042300001D00020F0BD064A06481060064A121A56
:10424000D208D20044C001203860D7E7C80200205D
:10425000C4020020D40D0020700E0020F8B51448D0
:1042600081684215114381600024124E87050DE0DC
:10427000706AA1004558681C06D03946284600F0EF
:10428000DEF8284600F0B8F8641CE4B2B088A0421A
:10429000EED80004810B706EFBF79BFFB0888100A5
:1042A000306EFBF796FF3079FEF73EF8F8BD000060
:1042B00040100240FC040020F3B5002581B0012726
:1042C0002C460D4E0DE0B06AA1004058411C03D0B1
:1042D00000F09EF801280CD00020641C0543E4B2D5
:1042E0007F00F088A042EED80298810001984550E6
:1042F000FEBD3846F1E70000FC04002070B50C4C10
:10430000A088A16D8200206EFBF76EFF002807D009
:10431000A08801258200A16D206EFBF741FF00E01F
:10432000002522792B46616E206EFDF7CDFF70BD12
:10433000FC040020F0B585B0FFF7E0FF2C48002416
:1043400021468588C76D466E0AE08B00FA58F358FF
:104350005A40224301D0012400E00024491CC9B284
:104360008D4202D9002CF0D001E0002C01D00025B4
:1043700036E001F04DF81F490A88821A1204120C27
:1043800032D0088030E0A900426E0391525800926A
:10439000C26D5158009A514002911FD0012700264A
:1043A00013E0029838420DD00098384000D0012028
:1043B00032462946019000F0BFFF31462846019A57
:1043C00000F0EEF8761CF6B27F000948C088B042D3
:1043D000E7D807490098CA6D039950506D1CEDB29B
:1043E00003488188A942CED8204605B0F0BD000020
:1043F000FC040020D40100200207120F012191408B
:104400000009092209048002D206801881617047E0
:10441000010909228902D206891809690007000FDB
:10442000C140C807C00F70470207120F0121914019
:10443000000909228002D2068018816170470207B4
:10444000120F01239340000909228002D20680182E
:1044500000B50A461946FDF749FD00BD002801DBFD
:10446000642801D90020704701498000085870472E
:1044700094690008010909228902D206891852426A
:104480008A180107090F002A09D001208002824200
:10449000044803D10B2901D803484056704702480D
:1044A0001038FAE7FFFFFFFF086A000807B5694602
:1044B0000979002927D00F21C902401A0300FDF70E
:1044C000BAFC0A0609180C0F1B1E22121522FFF750
:1044D00061FA16E0FFF738FA13E0FFF71FFA10E071
:1044E000FFF7A8FA0DE0FFF78DFA0AE0FFF700FAF0
:1044F00007E0FFF717FC04E0FFF7B8FB01E0FFF768
:10450000C9FB00200EBD01200EBD000073B50220C6
:10451000094C002920700AD0684605782846FCF727
:104520003FFB60702846FCF73BFB000A01E00020DF
:104530006070A0707CBD000002020020F3B56846E8
:10454000037801255807400F8540134ADC080427EB
:104550001248A418002910D00221465C9E4204D0C3
:10456000002E08D0491C0829F7DB082913D1177041
:10457000A07828430EE04354F7E70221465C9E42B0
:1045800002D10023435402E0491C0829F6DB1770CE
:10459000A078A843A070FCBD780500200802002088
:1045A000FEB50025002A03D06A46FFF7A7FA0546A4
:1045B000204C2078401908281ED90820461B67196E
:1045C000791C3246601CFBF7EBFD3946204632462B
:1045D00009310930FBF7E4FD68000119204672003B
:1045E0001A301A31FBF7DCFD3946204632461131CC
:1045F0001130FBF7D5FD2670002017E00E49227818
:104600000F6D69460B5CA1189C465B00FE5C4E700A
:104610005B1CFB5C4B7263464B7452000021121909
:1046200051832178491C401C2170C0B2A842E5D3B7
:10463000FEBD0000A8040020FC04002013B568465D
:104640000378084A0124E03B9C401078002903D0FD
:10465000072B05D8204302E0072B01D8A043107098
:104660001CBD00000802002003B50B4801210170A9
:1046700069460B8800210A22ED2B09D0EE2B04D0CD
:104680005242EF2B04D0F02B01D1418082800CBD2F
:10469000428081800CBD00001002002070B50C46E5
:1046A00015460646FEF76AFA002807D02A46214634
:1046B0003046FEF7FDFA002800D0012070BD70B52D
:1046C0000C461546064600F015F800280ED02A467E
:1046D00021463046FFF7E2FF002808D02A4621464F
:1046E0003046FFF7E3FE002801D0012070BD002016
:1046F00070BD000007B55122694612020979824354
:104700000ED00F4AD04218D1002914D00D49EF2302
:1047100008780246184010239343184308700CE0B1
:104720006846007A002902D0FEF7F0FF01E0FEF7AC
:10473000E3FF00200EBD00F0C5FE01200EBD00000D
:10474000F687FFFF1802002010B50B4A1278012AE5
:104750000FD15122120282430BD00878002806D0D4
:1047600048784206520E88781146FDF78BFD0020EE
:1047700010BD012010BD0000D801002003B568461F
:104780000078A52810D0A62810D0A72810D0002087
:10479000084A1388984206D010800323521D1370D4
:1047A0005070000A90700CBD8120F1E78220EFE785
:1047B0008320EDE700020020F8B5134C0F46E668B1
:1047C00005462068001D00F0C7FF681C07D1002FB8
:1047D00005D021680D48091D00F0F7FFF8BD2068DD
:1047E000751945602168B54204D2A06B091D00F01F
:1047F000D4FFF8BD606B091D00F0CFFFA06A8542B1
:10480000F7D2A562F8BD0000280200203C06002077
:10481000F8B5054600F0E6FF294CA068401CA060F2
:104820002068284F002803D06069002827D02CE09A
:104830002560A068012828D1002614207043C019E3
:1048400000F09DFF761C052EF7D31E48643000F063
:1048500096FF1C48783000F092FF1A488C3000F028
:104860008EFF1848A03000F08AFF1648B43000F0E0
:1048700086FF1448643060631430A06305E020684C
:10488000E96AC06A884200D82560606A401C60629C
:10489000E86A2169884200D9206114214843C0197F
:1048A000291D00F092FF00F0A9FF6069002806D0E2
:1048B0002068E96AC06A884201D200F0CFFFF8BDE3
:1048C000280200208805002010B5026C0C46002A42
:1048D0000CD0C1688B18C36081688B4201D2194625
:1048E00001E00168C1602046FBF75AFC10BDF8B535
:1048F000856B174604460026026C002A11D0002F53
:1049000019D0E068FBF74CFCE168206C091AE16003
:104910002268914202D2A168081AE060022F17D0E3
:1049200019E02068002816D1A06801F03FFC064677
:104930000020A0600FE06068FBF732FC216C60682B
:1049400040186060A168884205D32068606002E07A
:10495000002D00D06D1E6D1CA5633046F8BD10B54E
:104960000446006B00F058FF204600F055FF10BDD4
:104970000F480E49420705D0C01DC0080C4AC000B0
:10498000821A891A0B4A0023411809C20839C9083A
:10499000C900183A11604B600B600B1A0AC0936093
:1049A0000120C0075360D06070470000CC060000B3
:1049B00074060020A80200200F4E104C3746A03F7E
:1049C00011E000F00FFFF068C568281D00F0C4FE7C
:1049D000A068401EA0606068401E606000F00EFF8E
:1049E0002846FFF7BCFF60680028EAD13868012834
:1049F000F9D900F033FFF6E728060020280200204E
:104A0000FFB581B00C9C9000236B001F1818C608DE
:104A10000A9DF600700701D072B6FEE722462032EA
:104A200000290DD0002027180B5C20373B750B5C4C
:104A3000002B02D0401C0A28F5D30020507701E05B
:104A400000201075052D00D30425E562002767645A
:104A5000201D256400F09EFE2046183000F09AFECE
:104A600024610520401B6462A061A7644C200755A7
:104A70003046049A019900F0F1F820600B98002864
:104A800000D0046005B0F0BD30B5114900E011461A
:104A90000A688242FBD34B685C18844203D14068A9
:104AA00018184860084643681C18944209D1084CFD
:104AB000103C2468A24209D052689A1842600A68E1
:104AC00012680260814200D0086030BD0460F9E7DE
:104AD000A802002010B5044600F084FEA06B002858
:104AE00004D0002400F08AFE204610BD0124F9E71E
:104AF0000648416B0968002905D0416BC968C9683F
:104B00004968816270470021C943FAE72802002002
:104B100003480068401C72B600D0FEE7FEE70000C4
:104B2000B0020020F8B5044600F05CFE2546403592
:104B30000526AE57274624370BE0606A00280AD0C6
:104B4000384601F0A3FB002801D000F0B3FE761E2A
:104B500076B2002EF1DC0027FF436F7100F04EFEAD
:104B600000F040FE0426AE572046103000900BE0C7
:104B7000206900280AD0009801F088FB002801D0A5
:104B800000F098FE761E76B2002EF1DC2F7100F058
:104B900035FEF8BDF8B50546002700F001FF284EA8
:104BA0003068002801D1FFF7E3FEF06805423FD1ED
:104BB000002D3DD00835680708D06807400F082150
:104BC000081A4519680701D072B6FEE7002D2FD0EC
:104BD000706885422CD81A48103001460C6801E0F4
:104BE00020460C466168A94202D221680029F7D10B
:104BF00031688C421CD00768216801606068083702
:104C0000411B102908D96019420701D072B6FEE78E
:104C100041606560FFF738FF61687068401A706036
:104C2000B268904200D2B060F0680143002003C433
:104C300001F05EFB780701D072B6FEE73846F8BD9A
:104C40009802002004490868002803D00868426CD4
:104C5000521C4264086870472802002010B50124E5
:104C6000031F24061C601B1F1960191F024B0B60D9
:104C7000143940380A6010BD114B00084018FF2855
:104C800000D9FF2040B27047401A00D50020C0B2C2
:104C900070470000F8B54D480024C4604461012508
:104CA000856181690029FCD14A49494A0A604A491B
:104CB00003220A620C224A624849CA68484B12051C
:104CC000484E9A4203D1C9680904090F2BD14549BE
:104CD0004039CC6332699207FCD5434A02235B1CFE
:104CE0009342FCD3CD633369DB07FCD002235B1C0A
:104CF0009342FCD33B4B4327803BDF635B150B6048
:104D000010234B6016234B61CD60FF2356330B619C
:104D10000323F36002235B1C9342FCD3F460314A0B
:104D2000803AD463CC6031490D60C4600221416196
:104D3000856181690029FCD1446205620921C16154
:104D4000456224482A49016026488038816A49081A
:104D5000490081622148C030006B1C4F4037401C25
:104D600011D124484168244A914207D101884288E0
:104D7000D24392B2914201D100887060386A000734
:104D800001D5FEF769FB144804624462F8692843C0
:104D9000F861B86802210843B86018480168184AE9
:104DA00011407268120211430160164941601649B0
:104DB0000A6A2A430A620168602211430160B868E6
:104DC000012149020843B860F8BD0000001002400C
:104DD00080841E00CC0200200070004000FAFF1FFB
:104DE0000000509B8000024010270000002002407D
:104DF000006CDC0200F7FF1F69E5B5A3006C004002
:104E0000FF00FCFF7FBB78200000014000B50D4A89
:104E10009388834207D9D3888B4204D943435818D7
:104E200080B2516F0AE0537A002B03D0FD2803D0E3
:104E3000FC2801D0002000BD0846916F00F004F866
:104E400000BD0000FC04002010B5C3084407640F37
:104E50009B0000205B1801210246A1409C5C0C4095
:104E600000D0012494400443521CD2B2E0B2042A80
:104E7000F4D310BD0EB569460880012008716B4659
:104E800007CBFDF78BF800F001F80EBDF8B508224E
:104E90003C493D48FBF7A8F9002809D081253A4C48
:104EA0000822294639A0FEF7A7FA0821354835E03F
:104EB000354803223F49801FFBF796F900280AD0A6
:104EC000314C8225A41F032229463BA0FEF794FA09
:104ED0000321384822E02C4803224249C01EFBF738
:104EE00083F900280AD0284C8225E41E0322294693
:104EF0003DA0FEF781FA03213A480FE01022454910
:104F00004548FBF771F900280ED08225424C10224B
:104F1000294642A0FEF770FA10213E48FEF75AFAE1
:104F200048A0FEF769FA0AE0174808224649083007
:104F3000FBF75AF9002823D0134C08348225002CA3
:104F40001ED0424F00260021C943386800F0E0FE21
:104F50002146284600F060FB0023009038681A467E
:104F60001946761C00F0D9FDFBF7FCFD00980028DF
:104F700006D03748864203D23648807C0228E2D0E9
:104F8000F8BD000087020020080200205B68696409
:104F90005F6B6579626F6172645F696E5F72657085
:104FA0006F72745F6275665D20307825583A2025EF
:104FB000640D0A00640200205B6869645F637573B6
:104FC000746F6D65725F696E5F7265706F72745F2A
:104FD0006275665D206570203D307825583A202541
:104FE000640D0A00670200205B6869645F7379736F
:104FF00074656D5F696E5F7265706F72745F627504
:10500000665D206570203D307825583A2025640D76
:105010000A00000050060020780500205B757362CE
:10502000645F6E6B726F5F7265706F72745F6275D2
:10503000665D206570203D307825583A2025640D46
:105040000A0000000D0A00007F020020E401002099
:1050500088130000600600207CB50F480078002807
:1050600019D0012069460D4D88700024A007800FDB
:105070006946ED30088000231A46286800F04DFD8F
:10508000641CE4B2082CF1D3054801220023114628
:10509000006800F02BFF7CBDFC020020E001002036
:1050A000EC0100204843000A70474843000A70475B
:1050B00010B50220FBF778FB0120FCF7D9FE194858
:1050C000C26802218A43C26082688A438260426861
:1050D0008A43426002688A43026000220621124825
:1050E000FBF79EFC1148026901150A43026102693F
:1050F0008A43026182688A43826001210C48C94365
:105100000161C16849084900C1600A49401408604A
:10511000BFF34F8FBFF36F8F0748C1698200914380
:10512000C16110BD00040140000C00484010024065
:105130000010004080E100E00000014010B5184878
:105140008168184A11438160174A06211748FBF706
:1051500067FC0220FBF728FB00210120FCF794FEEE
:105160000120FCF785FE1248FBF760FB1048022186
:105170000160002101710821417101218171FBF75A
:105180001FFB0C48F02142688A434260416830228C
:1051900011434160C169084A1143C16110BD00005B
:1051A000401002400002080001000020000C0048EE
:1051B000EC020020000001400000A48901464206E4
:1051C00001D5FF22111A8906890E0A07120F43061C
:1051D00000D5521C0909084B490059180B78497829
:1051E00051430909C91849B2000601D5484241B2E4
:1051F0008031C8B270470000136A0008F8B50D4846
:10520000C1690D4A1143C16100250C4C07030CE034
:10521000E06AAE008059411C06D03946FFF70FF90D
:10522000E06A8059FFF700F96D1CA088A842EFDC06
:10523000F8BD000000000140AA0AA089FC0400207B
:1052400010B5012801D8C0B210BDF72101224901D3
:10525000884201D9FF2302E041090831CBB2D118BD
:1052600049080C464C43844202D9491ECBB203E0A4
:10527000FF2906D0491CCAB29342F0D2521ED0B2C6
:1052800010BDFF2010BD0000F8B5254E75682548FB
:105290000068254A44000020244F2549944208D242
:1052A000081B4221FAF752FF2918B94237D2716020
:1052B00024E01F4A1F4B52429C4207D9A0184221AA
:1052C000FAF744FF85422AD9291AF0E78C4208D21E
:1052D000081B4221FAF73AFF2918B9421FD2716020
:1052E00009E08C4207D9A0184221FAF72FFF854226
:1052F00015D9291AF3E70B4901228A6009490C31B3
:105300000A6892005218D4600A68920052185563D5
:105310000A6892005218D0650868401C0860F8BD01
:1053200080000240400D0020E0B50000FF030000B7
:1053300080BB000020C10000FEB50C4607001546EA
:105340001146204608D0FEF7EBF9064602462946EC
:10535000204600F017F902E0FFF758FD06466846C0
:1053600087710472C5711C482346417A002903D015
:10537000FD2C26D0FC2C24D08188C28871430919C9
:105380005143491900682A464900405A69468880B5
:105390005006400E009068468288F907C90F0F48F2
:1053A000FEF72AF80E4800231A4601A9006800F00B
:1053B000B4FB0C48012200231146006800F096FD62
:1053C000FEBD71434919490009194900FF39C068F8
:1053D0002A46F939D9E70000FC040020C46B000814
:1053E000E0010020EC01002010B5C046C0460120BD
:1053F000FEF70CFC10BD10B5C046C0460020FEF7FD
:1054000005FC10BD10B5044600F02EFE001B10BDBB
:1054100010B500F029FE80B210BD10B500F024FEDA
:1054200010BD0000F7B5254981B0944600238F7860
:105430000E7848683BE001999A008D58029996468B
:1054400089584D4000212CE001248C4025421DD07C
:1054500002780092520821D1019E7246B658264227
:10546000009E02D00122164301E076087600F20782
:10547000D20F143202700126D2070FD0029F72465B
:10548000BF586740029CA750012707E004786208D4
:1054900004D0E20702D1E407E40F0470491CC9B24A
:1054A000401C074CE4888C42CED85B1CDBB26345C1
:1054B000C1D3024887700670FFBD0000F4010020D0
:1054C000FC0400200EB569460880002008716B4678
:1054D00007CBFCF763FDFFF7D9FC0EBDFFB52749ED
:1054E000002082B04C68087048709446054601461A
:1054F0003CE0002334E001229A4026789646770863
:105500002BD0059A7708974220D8F207D20F227045
:10551000D20701D0012120E0AF00039E0197F65988
:10552000724600969643029AD759724617403E43F8
:10553000009A124FB6467240BE78324300D0012224
:10554000BA70019F039A7646D65106E0F007C00F65
:10555000BA1A52001043207001205B1CDBB2641C9D
:10556000074AD2889A42C6D86D1CEDB26545C0D3B1
:10557000024A1070517006B0F0BD0000F401002026
:10558000FC04002010B503460C48144682889A4259
:1055900007D9C2888A4204D95A43511889B2426F46
:1055A00007E0427A002A07D0FD2B01D0FC2B03D163
:1055B000826F204600F004F810BD0000FC040020BB
:1055C00070B5CD084E070123760F1C46B44000216C
:1055D000AD00AD181A468A40024000D001226E5C30
:1055E00052427240224072406A54491CC9B2042996
:1055F000F0D370BD02780A7000780B2802D0FF202B
:1056000008707047012048700249014808607047DF
:10561000A5A5A55A9002002070B5244A0646927CA2
:105620000320022A01D0022070BD0124812E06D061
:10563000822EF9D11E4D286800280BD013E01D4D95
:10564000286800280FD108221B48FAF7A9FD082274
:10565000194917E00878012807D0022818D0032834
:105660000AD004281BD0012070BD08221348FAF785
:1056700097FD0822114905E003221148FAF790FD31
:105680000F4903223046FBF7F5FF2C60002070BD68
:1056900003220C48FAF784FD03220A49F2E710229C
:1056A0000948FAF77DFD10220749EBE76006002064
:1056B000700200206C020020870200207F02002080
:1056C00067020020640200205006002070B5104CD4
:1056D000207800281AD00F4D0021C943286800F017
:1056E00017FB0D48817C032908D172B6807C032802
:1056F00003D1FCF721FDFBF7CDFD62B60020207041
:10570000034602460146286800F007FA70BD000013
:10571000B4020020E40100206006002010B5054816
:105720000178002905D00021017072B6FCF74EFD0A
:1057300062B610BDB502002000B59BB06C220549D1
:105740006846FAF72DFD034810380FC8FDF7B2FF81
:105750001BB000BD500100204368826801699A6057
:10576000836842685A604A68824201D182684A600E
:10577000002202610868401E086008687047014600
:10578000083100224160D243C16082600161002182
:105790000160704700210161704730B50B685A1CE9
:1057A00002D00246083202E0026904E02246546850
:1057B00025689D42FAD953684B6099608A605160B0
:1057C00008610168491C016030BD42684A60936805
:1057D0008B6093685960916008610168491C0160A1
:1057E0007047000072B604480168491C0160BFF3AD
:1057F0004F8FBFF36F8F7047B002002005490868D4
:10580000002804D0401E086000D162B6704772B60E
:10581000FEE70000B002002070B500281AD0044650
:105820000D4D083C6068E968084201D172B6FEE798
:105830002268002A01D072B6FEE78843606000F05B
:10584000AFF860686968401868602046FFF71CF987
:1058500000F04EFD70BD00009802002001200449B8
:1058600000074860BFF34F8FBFF36F8F7047000092
:1058700000ED00E010B502000FD00948006B0028D1
:1058800001D072B6FEE700F08BF800211046FEF75B
:1058900093FF00F02DFD002801D1FFF7DFFF10BDC1
:1058A0002802002002490A6A0260C9684160704704
:1058B0002802002001490120C86170472802002009
:1058C00010B50C46002809D0054909681831FFF7C2
:1058D00064FF01212046FEF76FFF10BD72B6FEE7A0
:1058E0002802002070B504002FD0626C002A0ED070
:1058F000206C884200D30146E06A884225D0012A04
:1059000023D1124D2A68944203D172B6FEE772B6D3
:10591000FEE7E162A269002A02DB0522511AA161B9
:1059200014220B4E50436169801981420DD1201D14
:10593000FFF712FFE06A2969884200D92861142123
:1059400048438019211DFFF740FF70BD2802002049
:10595000880500201CB50E480024019023464022F3
:105960000CA100940D4800F099FA012803D0401CC6
:105970000CD172B6FEE772B600210548C9432C3837
:10598000816201214161C46000F03EF81CBD00004D
:105990005402002049444C4500000000B949000869
:1059A0000248016B491C0163704700002802002077
:1059B00010B51348016B002902D00121C16110BD4F
:1059C0000021C16101690F4A02E0002915D0491E7A
:1059D00014234B43D358002BF7D014234B439A186E
:1059E000536814465B6808345360A34201D15B6876
:1059F0005360DA680260016110BD72B6FEE7000014
:105A0000280200208805002010B50C48016AFF22FA
:105A1000120411430162016A120211430162084833
:105A2000002101618161074A426107220261064843
:105A30000160FAF74FFB002010BD000000ED00E010
:105A400000E000E07FBB0000B002002010B502467D
:105A50000021012000F00CF8041E07D00021816015
:105A600001600B460A46C16000F057F8204610BDA1
:105A700070B50E46050014D0002E14D07043483087
:105A8000FFF788F804000AD0214648312046002E4E
:105A90000BD0016006640121C56300F008F82046C0
:105AA00070BD72B6FEE70020E9E70060F2E770B56E
:105AB0000D46040025D0FFF795FE216CE06B4843AE
:105AC00021684118A1600021A16321686160E06B39
