:04000005080000C12E
:020000040800F2
:10000000600F0020050200080D0200080F02000822
:100010002D3491FF00E532000200000000000000D6
:100020000000000000000000000000008B1100082C
:1000300000000000000000000B010008FD11000896
:10004000810500087507000817020008170200085C
:10005000170200081702000817020008170200081C
:10006000170200081702000817020008170200080C
:1000700017020008251200085D0E0008170200088C
:10008000170200081702000817020008CD1B00081D
:100090001702000817020008511D00081702000887
:1000A000170200080D060008000000000000000014
:1000B0000000000000000000000000000000000040
:1000C0000348854600F0ACF800480047553D00085D
:1000D000600F0020084B19680868203080F30988F9
:1000E000022080F31488BFF36F8F3FBCAE4608BC7C
:1000F00004BC62B618470000F0010020EFF3108046
:1001000072B6704780F310887047EFF309800E4B8A
:100110001A6820381060F0C044464D4656465F4687
:10012000F0C008B572B605F03DFA62B60CBC1168B5
:1001300008681030F0C8A046A946B246BB4680F316
:1001400009882038F0C81847F001002030B50B4668
:10015000014600202022012409E00D46D5409D42A1
:1001600005D31D469540491B254695404019154627
:10017000521E002DF1DC30BD70B50024254600284C
:1001800001DA01244042002901DA01254942FFF742
:10019000DDFFAC4200D04042002C00D0494270BD8F
:1001A00003460B439B0703D009E008C9121F08C090
:1001B000042AFAD203E00B780370401C491C521E3B
:1001C000F9D27047D2B201E00270401C491EFBD246
:1001D00070470022F6E710B513460A460446194652
:1001E000FFF7F0FF204610BD30B50446002003465F
:1001F00000E05B1C934203D2E05CCD5C401BF8D076
:1002000030BD00000448804704480047FEE7FEE791
:10021000FEE7FEE7FEE7FEE721120008C100000846
:10022000064C0125064E05E0E36807CC2B430C3C49
:1002300098471034B442F7D3FFF746FFEC68000844
:100240000C6900080EB5C217C10F5040CA0740180C
:100250000021054B0293019200910A460B4600F0E3
:1002600026F803B000BD00003304000010B50029DB
:1002700004DB0124E40740428C412146002B04DBCF
:100280001C460123DB075242A341994200D1904210
:1002900010BD000010B5002B08DA0024401C61419D
:1002A00092185B411A4301D14008400010BDF0B5DF
:1002B0001FB482B005460C0003D0084601F0AAFD29
:1002C00002E001F0A7FD20300246009021462846BA
:1002D00000F03FF8049B059A04460F46184311436B
:1002E000084314D0184610431BD0009840210A1A26
:1002F0001846059900F03DF805460E46009A059906
:10030000049800F026F8084305D0012004E02046B8
:10031000394607B0F0BD0020C11705430E432C43FA
:10032000374300990E986305401A7905E40A0022C4
:100330000C43FD0A0A3002D500200146E9E7010519
:10034000101969410C9C0D9D00196941FFF7A2FF2E
:10035000DFE710B5202A04DB0146203A9140002057
:1003600010BD914020239C1A0346E340194390405E
:1003700010BD10B5202A04DB0846203AD0400021E9
:1003800010BD0B46D340D0402024A21A9140084310
:10039000194610BD70B58C180578401C6B075B0FB3
:1003A00001D10378401C2A1106D10278401C03E0D9
:1003B00006780E70401C491C5B1EF9D12B0705D432
:1003C0000023521E0DD40B70491CFAE70378401C21
:1003D000CB1A921C03E01D780D70491C5B1C521E49
:1003E000F9D5A142D8D3002070BD0000304C314D6A
:1003F00086B0FF230021F53302AAC943002005F08F
:1004000091FC0128F5D10298C007F2D02A4F0022B2
:1004100003A9386805F0FEF90128EAD16946C87BCE
:100420004006400E4870087C8870887BC607F60F2F
:100430000E70888902F096FE69468880019A0099BC
:1004400003F0D7FF002804D0019A0099104601F06C
:10045000ABFD002EDBD0A07C0328D8D1011F28687B
:1004600005F050FAA07C03281BD1607C002818D02E
:1004700072B601F067FE114E707804210843707067
:100480000F487D21C9000068FFF760FE0A2148433C
:1004900000F098FE7078FB210840707000F0F0FECC
:1004A00062B600231A461946286805F030F9AEE70F
:1004B00050060020A4010020A001002000800020A0
:1004C0008C02002010B5024902F0D2F810BD0000E5
:1004D0003505000810B5024902F056F810BD0000BD
:1004E000E504000870B504461D46104601F004FE00
:1004F00041004018611B081AC0B2214604F00DFCEF
:1005000070BD000010B5024902F072F810BD000085
:100510001505000870B504461D461046049E01F0FE
:10052000EBFD6119891B081AC0B2214604F0F5FBE6
:1005300070BD0000F8B5114E07464D00306D1446F1
:10054000405DE42104F0E9FB001B1C300028306D05
:10055000405D05DDE42104F0E0FB001B1C3004E0FD
:10056000E42104F0DAFB201A1C38C000381A00D548
:100570000020C0B2394604F0D0FBF8BDFC040020D6
:1005800010B50648416941610548006801F07CFFEB
:100590000448006801F066FF10BD0000000401403F
:1005A0008C010020DC010020F1B51748154E47787A
:1005B00080780024C1081448357F0C38008A80B246
:1005C00004F0A8FBC0B204F05BFC803840B201F03C
:1005D000E5FC4006000E394604F09FFB07460BE0A1
:1005E000706D0099005D4978084203D03946204675
:1005F00003F0B8F8641CE4B2AC42F1D3284602F030
:1006000029FFF8BDFC0400208C01002070B52049B2
:1006100000208A681F4C53070246002B02DA04238D
:10062000CB6062608B689B0702D50223CB6062605F
:100630008B68DB0726D00125CD6063685B1C636097
:10064000154B1B6B5B1C1DD16368032B1AD36260B7
:10065000096889038A0D11494B68114EB34212D1C2
:100660000B884E88F643B6B2B34201D10888101AFF
:10067000FFF7E8FD4900490800220A4BFFF7F6FDA5
:1006800000D2256070BD0848C0688005800DEEE787
:10069000006C0040B4020020C0FAFF1F00F7FF1FEB
:1006A00069E5B5A30000244000F8FF1F10B502491A
:1006B00001F0DEFF10BD0000BD0600080B4601463C
:1006C00010B504485B00006DC05C801AC0B204F035
:1006D00024FB10BDFC04002010B5024901F088FF86
:1006E00010BD0000E906000810B501465A009A182E
:1006F000029852081018C0B204F00FFB10BD0000A1
:1007000010B5024901F0B4FF10BD00001107000848
:100710000B46014610B50548046D5800401C205C8E
:10072000801AC0B204F0F9FA10BD0000FC040020E9
:1007300010B5024902F068F810BD0000410700083A
:1007400070B50C460A490D6D59004B1CEB5C695C99
:10075000203B7039534361435918CA17520E511840
:1007600049040A0E0146104604F0D7FA70BD000095
:10077000FC04002010B504484169890703D5022113
:10078000416102F071FC10BD000401400149486163
:1007900070470000000401400149486170470000B3
:1007A0000004014010B5837918490268002B26D057
:1007B0000B6893430B604A6803689A434A60027966
:1007C000521813680468234313608A6803689A43C5
:1007D0008A60CA6803689A43CA604279102A05D0C1
:1007E00051180A68006802430A6010BD8A680368ED
:1007F0001A438A60CA6800680243CA6010BD007963
:10080000401801689143016010BD000000040140E0
:100810000021016001710C2242718171704700005A
:1008200070B5EFF3108272B6002317490C68E50625
:100830001024002D03DA0D680123A5430D604D69D6
:10084000062635434D6102258D60C8608868042600
:10085000304388604869C007FCD188688008800000
:100860008860486928434861002B02D0086820430B
:100870000860002A00D162B64869400701D501200E
:1008800070BD002070BD00000020024010B504467D
:100890001F20C00601212018C90388421BD200F086
:1008A000A5F80E4948690622104348610220886075
:1008B000CC608A6804231A438A604A69D207FCD153
:1008C0008A68920892008A604A6902434A6100F08D
:1008D00007F8012010BD002010BD000000200240DC
:1008E000024881680822114381607047002002405D
:1008F000F0B5EFF3108372B60024184A1568EE06BF
:100900001025002E03DA16680124AE4316605669DE
:1009100006273E43566101269660D06011619068BB
:100920000421084390605069C007FCD1906880089A
:10093000800090605069022108435061002C02D071
:10094000106828431060002B00D162B65069400740
:1009500001D50120F0BD0020F0BD000000200240C4
:1009600038B583079B0F1F25C21AED0601244019D5
:10097000E503A84208D2106800906846C1541046AA
:10098000009900F003F80446204638BD70B50446CF
:100990001F200D460126C0062018F10388421BD2F5
:1009A00000F024F80D4A50690621084350610120E7
:1009B0009060D4601561906804210843906050698C
:1009C000C007FCD1906880088000906050690221C7
:1009D00008435061FFF784FF304670BD002002409D
:1009E00000787047008870470068704703480249E4
:1009F0004160034941607047230167450020024080
:100A0000AB89EFCDF0B500231D469C461C46012660
:100A1000A6400E4211D067000326BE403343082C87
:100A200004D2A7000F26BE40354306E0A7000F26DC
:100A3000203FBE4067463E43B446641C102CE6D3BC
:100A40008468D602F6178C430E40344384604468B1
:100A5000D601F6178C430E4034434460016894007D
:100A60000F4EA40F744399431C4021430160C16899
:100A70009403A40F744399431C402143C1601107A0
:100A8000084A090F5143026A0B46AA432B401A43F6
:100A90000262426A63469A4319400A434262F0BDC9
:100AA000555555551111111170B5064615460C4690
:100AB000000701D501F04AF8B00701D500F0E0FBCE
:100AC000700704D516490020087000F0C7FBE00746
:100AD00001D000F0F3FBA00701D500F0DFFE6007B6
:100AE00001D500F0E3FE200701D500F0E7FEE006A7
:100AF00001D500F0F7FEA80701D500F0D5FE680784
:100B000001D500F0D9FE280701D500F0DDFEE8068A
:100B100001D500F0E8FEF00701D000F0BDFB70BD8C
:100B2000C00200200249014808607047CCCC000098
:100B300000300040034A0146D26800200A4200D03B
:100B400001207047003000400348C168890701D484
:100B5000024901607047000000300040AAAA00006E
:100B6000014948607047000000300040014988603A
:100B700070470000003000400149086070470000E5
:100B800000300040F8B51448144E057F0027B078B7
:100B9000102103F011FF3446C1B20C3C208A80B210
:100BA00004F0B8F85021FFF7D1FA00290FD12946F7
:100BB000384603F038FF217900224B1C23710229AB
:100BC00002D1002121717278114602F0CBFD284636
:100BD00002F040FCF8BD0000FC0400208C01002065
:100BE00000B5A838030001F02CF91C0F11131517DC
:100BF0001D21231F26292C2F3134373A3D44191B40
:100C000040424F4F474A4D4FE22000BDE92000BD12
:100C1000EA2000BDB52000BDB62000BDB32000BD58
:100C2000B42000BDB72000BDCC2000BDCD2000BD4C
:100C3000FF20843000BDFF208B3000BDFF209330AB
:100C400000BDFF20953000BD104800BD0F48801C3E
:100C500000BD8920800000BD0C48001D00BD0B4870
:100C6000401D00BD0948801D00BD6F2000BD7020E3
:100C700000BD0648093000BD04487E3000BD152087
:100C8000400100BDCF2000BD002000BD21020000BA
:100C9000F8B54E4881684E4A1143816004F010F95E
:100CA000002701264B4C6CE0A06ABD004059411C56
:100CB00066D003F0FFF903F0F1F9216F00284851E5
:100CC000A06A40590BD00107090F32468A4091B201
:100CD000000982020920C00610183F4A0BE00207F3
:100CE000120F31469140000982020920C0061018F7
:100CF000012289B25204FFF785FEA06A405901091A
:100D00008A020921C90651180A6B03071B0F3046D6
:100D1000984082430A63216F26204959090A090233
:100D20004860216F02204959090A09020861216FB0
:100D3000FF20495981434861216F00204959090A20
:100D400009028861216F4959090A09020866216F61
:100D50004959090A09024866216F4959090A0902D5
:100D60008866216F4959090A0902C866216F4959E5
:100D7000090A09020867216F4959090A09024867E7
:100D80007F1CE088B8428FDC26200121890748605B
:100D900002200861FF204861002088610F4A10622C
:100DA00050629062D062106350634868304348607C
:100DB0000B490868FF22120490430122D205104318
:100DC0000860084851120160F8BD00004010024060
:100DD00000E20300FC04002001000220400000406B
:100DE0000CE400E000E100E00120800701684022FF
:100DF000114301607047000010B5054900200C7FC9
:100E0000214602F0B5FE204602F024FB10BD000092
:100E1000FC04002001F050FF01F0D4FA04F086FA3F
:100E200002F030FC03F01EF8FFF7DEFF01F064FE75
:100E300001F044FDFFF788FE01F006FE03F09AF88A
:100E400002F02AFD01F032FE04F062FA04F046FAE4
:100E500001F068FD03F0ECFEECE70000F8B50126B8
:100E6000B607306800064ED5306880218843306070
:100E70005D4CA0685D4F5E4D002845D00020A0600D
:100E8000E86A216889004158491C04D0216889001A
:100E9000405803F0E9F8564881882068401CFFF765
:100EA00055F9216053480025056245628562C56297
:100EB000056345635048056245628562C562056306
:100EC00045633D627D62BD62FD623D637D634B486B
:100ED000056245628562C562494805624562856270
:100EE00043486168406A89004158491C04D06168E0
:100EF0008900405803F0B8F809207061B561306886
:100F0000402108433060F8BD6068C1B2A86D02F0AE
:100F1000D7FF686A616889004158491C04D061683C
:100F20008900405803F088F8A9886068401CFFF7E2
:100F30000DF96160FF2070610020B06110E0AB6AC4
:100F400082009B5894465B1C08D0EB6E226851438C
:100F500059182A6F6346D258415C1160401CC0B2D8
:100F6000E9888142EBD82349C2200862486288623E
:100F7000C8620863486338627862B862F8623863AE
:100F800078631D49086248628862C86208634863E2
:100F90001A49086248628862C86219490862486250
:100FA0008862E86A216889004158491C04D0216898
:100FB0008900405803F040F80C4940390A68402045
:100FC00002430A600C4940390A6802430A600B492F
:100FD00040390A6802430A60094940390A680243F5
:100FE0000A600120A0608AE7E00100204004004080
:100FF000FC0400204000004040140040402000401D
:10100000402C004070B509480024057F0848467808
:1010100005E03146204602F0A5FB641CE4B2AC4278
:10102000F7D3284602F016FA70BD0000FC04002039
:101030008C01002010B50146024A002001F088FB17
:1010400010BD00006F11000810B5024901F03CFB13
:1010500010BD00005511000810B5044604480121D8
:10106000007803F0AFFC034A214601F071FB10BD8C
:10107000D00400207910000810B5029CE3189BB240
:10108000002900DA494209B2002A00DA5242090175
:1010900014B2FF2900DDFF210AB22101FF2900DD82
:1010A000FF2109B28A4200DC1146C91889B2FF2922
:1010B00000D9FF21FF22511AC9B203F07DFCC0B252
:1010C00010BD000010B5044604480121007803F06B
:1010D00079FC034A214601F03BFB10BDD0040020FF
:1010E000E510000810B5029CE41AA4B2FF2C00D948
:1010F000FF24482B00D9FF240831112903D30832DB
:10110000112A00D3FF24FF21091BC9B203F054FCAC
:10111000C0B210BD10B5044604480121007803F0A8
:1011200051FC034A214601F013FB10BDD0040020FE
:101130003511000810B59A0002999A18511889B211
:10114000FF2900D9FF21FF22511AC9B203F034FC54
:10115000C0B210BD10B50446FF20401AC2B2C8B2DA
:10116000114603F0DAFD214603F0D7FD10BD10B59E
:101170000299C91A89B2FF2900D9FF21FF22511A09
:10118000C9B203F019FCC0B210BD70470A4910B5CE
:10119000401E884201D9012010BD08494861084815
:1011A0000722C3691B021B0A4C042343C3610020AE
:1011B00088610A6110BD0000FFFFFF0000E000E051
:1011C00004ED00E0F8B50C4CA7696669216960611F
:1011D0008DB20020A06105202061FFF7B5FC2069D9
:1011E000C10701D0C003F8D5206940084000206144
:1011F0006661A7612561F8BD00E000E010B5FEF76B
:101200007DFF044604F030FD002803D0012003498F
:10121000000748602046FEF775FF10BD00ED00E0B6
:101220007047000008480169C9070BD00121C94374
:10123000016106494878421C4A70B72802D904491E
:1012400001208860704700000010004098020020D4
:10125000300D002010B500F0EFFA10BD10B50648B3
:101260000121C1710021417214210448FEF7B1FF30
:1012700000F048FC10BD0000008000205006002057
:1012800010B5044CA07C032803D100F059FCE07C8D
:10129000A07410BD5006002010B50548817C0329BC
:1012A00005D0817CC1740321817400F089FC10BDDC
:1012B0005006002010B500F0E5FA10BDF8B5584E04
:1012C0000025B573777C574C780701D57574257068
:1012D000F80602D5802070742570207800282BD164
:1012E000F80729D008225049002000F08FF94E4815
:1012F0008560C1888181C58100784006800F03D157
:1013000000F0F6F8002801D100F004FBB57340218D
:10131000012807D0022808D003280AD06020707462
:10132000032004E07174012001E071740220207038
:1013300002E04820707425703A480078012835D1C1
:10134000B80733D4707CC107C90F49420140C806B1
:101350002CD4354C0227A1893448027891420DD211
:10136000A289A168802000F08FF9E089A189401846
:10137000E081A5812B480A2705700EE0A168802036
:1013800000F082F9A168294800780918A160A189B4
:10139000091AA181E1890818E081E089E188884281
:1013A00003D1082007431F48057077741D48007853
:1013B000022834D1707CC00731D01B4C4027A18952
:1013C0001A48027891420AD2A289A168002000F04E
:1013D0001DF9E089A1894018E081A5810EE0A1688E
:1013E000002000F013F9A168104800780918A160E6
:1013F000A189091AA181E1890818E081A089002842
:101400000CD1482700F070FA032804D0682705495A
:101410000320087001E003480570B5737774F8BDC8
:1014200000800020C00200205006002063670008F2
:1014300010B506484078092806D1012000F01CFBB1
:10144000002801D0032010BD002010BD5006002050
:1014500038B5264C20784006800F012804D020782B
:101460004006800F2CD03FE06078030000F0E9FCDC
:101470000C3C070A123C3C3C3C3C181F223C00F050
:10148000C5FA04E0E08801282ED100F0ABFA00286C
:1014900028D129E0E088012826D100F0ADFAF6E74E
:1014A000002000F0E9FA00281ED0022038BD00F02C
:1014B000CFFA01E000F0D6FA002815D0032038BD9D
:1014C0006078062810D1E17820796A4600F048FA61
:1014D000A060A068002807D0A189684600888142E2
:1014E00000D9A081012038BD002038BD5006002061
:1014F00010B52948417800220B0000F0A2FC0A0632
:101500000C480E48142748304548C08802283ED170
:1015100000F0FCF81FE0002000E0012000F020F9BE
:10152000002811D133E00178002930D18178837C03
:101530004906490E022B2AD0184B197001230029A5
:1015400001D0837400E08274032010BD00788028ED
:101550001DD100F0B5F8002819D0012010BD017888
:10156000802914D1C188012911D1817C002904D09E
:10157000012902D002290AD102E009490A8001E0CA
:10158000054910318160E8E70078002801D000208B
:1015900010BD00F00DF9C3E75006002000800020C8
:1015A000540200200207120F05D005498A73000675
:1015B00002D54020487470478020087570470000AD
:1015C000008000200207120F08D0000606D404494C
:1015D0008A73C87D897D00020843704700207047E8
:1015E000008000200207120F0CD007498A73000602
:1015F00002D5487CC00601E0087D8006002801DA9B
:101600000120704700207047008000200007064B33
:10161000800EC01804E00378521E0B7092B2491C71
:10162000002AF8D170470000208000200107090F30
:1016300007D0000605D403488173017D490849009D
:1016400001757047008000200207120F05D0054980
:101650008A73000602D51020487470472020087550
:10166000704700000080002010B5044600F00CF820
:101670002007000F05D0210603D5024988730120F9
:10168000487410BD008000200007064B800EC01873
:1016900004E00B780370521E92B2491C002AF8D164
:1016A000704700002080002010B514210248FEF78A
:1016B00090FD00F0FDF910BD5006002070470000BD
:1016C00038B5114CE078012805D0022807D003284E
:1016D0000AD0002038BD684600F03CF908E0A07848
:1016E000694600F02DF903E0A078694600F06CF936
:1016F000A060A0680028EDD0A189684600888142DA
:1017000000D9A081012038BD5006002038B5124C08
:1017100000202080114D2878C006C00E05D0012879
:1017200017D0022811D0002038BD287C694600F06F
:1017300007F9C079400601D501202080687C002887
:1017400007D020880221084302E02879FFF74AFFEA
:101750002080AC60012038BD5402002050060020DB
:1017600010B512490A78D206D20E02D0022A1BD135
:1017700007E04A88012A17D1002800D001204874C8
:1017800010E04A88002A0FD10C7921070CD00028DC
:10179000204602D0FFF758FF04E0FFF703FF204682
:1017A000FFF78CFF012010BD002010BD5006002067
:1017B00070B5164CA578A07C012802D0022823D150
:1017C0000AE0002D16D0284600F0C2F900281BD0F0
:1017D00025740220A0740DE0002D0DD0207CA842BD
:1017E00008D0207C00F014F8284600F0B1F9002859
:1017F0000AD02574012070BD002020740120A0743F
:10180000002000F005F8F5E7002070BD500600202C
:101810000848C179FD221140C171C179FB221140F4
:10182000C171C279F7210A40C271427A0A404272FC
:10183000704700000080002010B50D4881684215F7
:10184000114381600C4C0B4A06212046FFF7DAF861
:10185000206B0621884320630848C169084A114368
:10186000C1610121401041700721C17210BD00000B
:101870004010024001000020000C00480000014020
:101880000000A4890349C8698A009043024A1043B2
:10189000C8617047000001400000A0890149002094
:1018A000086070472C0200207047000001490020AA
:1018B0000860704730020020704700000149002096
:1018C0000860704734020020044803218173007DC2
:1018D000C00702D002490120086070470080002044
:1018E000380200207047704710B5094900200A7877
:1018F0005206520E212A0AD10A79002A05D00A7905
:10190000012A02D00979022901D1FFF791FD10BD0A
:101910005006002010B5094900200A78D206D20EE0
:10192000012A0AD10A79002A05D00A79012A02D0AF
:101930000979022901D1FFF78BFD10BD5006002067
:10194000002801D0002070475B20088000487047C5
:101950003A6800081221018000487047E0650008DD
:101960000923002804D001280FD002281BD01EE034
:10197000212902D022291AD102E013801148704790
:10198000412010800F48E8387047212902D02229D1
:101990000DD103E00B48138019307047732010807D
:1019A0000848A7387047212903D0222905D00020F4
:1019B000704704481380323070472220108001485D
:1019C000343870474C680008032806D28200044867
:1019D00083581B780B8080587047002070470000A8
:1019E0007802002003490248886001207047000007
:1019F0003D02002050060020034902488860012073
:101A0000704700003E020020500600200E48017979
:101A1000012905D1C178012902D1C188082903D043
:101A20000179002902D007E0084909E0C1780129BD
:101A300002D1C188082901D000207047034908312C
:101A40008160012070470000500600203F02002006
:101A50000248C078024948700120704750060020B3
:101A60003C020020024880780249887001207047BB
:101A7000500600203C02002010B50B490A79002ACC
:101A800005D1CA78022A02D1CA88012A01D00020D1
:101A900010BD064A002804D0107801F041FF012053
:101AA00010BD8A60FBE70000500600203C020020C9
:101AB00010488268012109050A43826002690A43CD
:101AC000026102698A4302610A49012040390863C0
:101AD000C86209490020C872C8714872074908687D
:101AE000FF22120490430860012005498005086028
:101AF00070470000401002400080002014E400E025
:101B000000E100E010B5094901204870C8710020CB
:101B10004872074908600749086007490860074993
:101B2000086002F0EFF902F011FB10BD0080002008
:101B30002C02002030020020340200203802002055
:101B400001490120087070477402002070470000AE
:101B500030B5012801D0002030BD18480121817323
:101B6000002282740821017440234374417441743B
:101B7000C57902242543C57184738274017443744A
:101B800041744174C47904252C43C47103248473C3
:101B900082740174437441744174C3790B43C371FB
:101BA00084734275C1748022027510220275027519
:101BB000427A0A434272012030BD000000800020BA
:101BC000014901204870704774020020F8B50120D7
:101BD0000005FEF7E1FD114C114D20780126114F53
:101BE000002802D0012804D00CE0686900070CD559
:101BF0002670686940070FD502202070132000F07E
:101C00002DF93E702078002806D16869C00703D0FE
:101C1000132000F023F93E70F8BD0000BF02002041
:101C2000800002407402002008B5FFF743FBFF204C
:101C3000F53003F019FCFFF737FDFFF70BFB394CCC
:101C4000394D01270026F643314633466A460020C7
:101C500004F068F80098C007F4D03146334E30687D
:101C600003F050FE60680002020E60680004010E7E
:101C70006068C0B2FEF718FF01202D49800508609A
:101C80002C48016800291CD072B62A480068002838
:101C900016D00320FFF796FC024600202080214941
:101CA0000320FFF7B3FC62B61E4900204880891C60
:101CB000881E03F001FB72B62868002805D00BE0EF
:101CC00062B6286800280ED024E016490222891C3A
:101CD0008320FFF7C9FC2F6016490020086003200D
:101CE000FFF7A4FCECE7144800681449884211D1BE
:101CF000642000F04BFB1349114848620E49002054
:101D00000860BFF34F8F11490F48C860BFF34F8F72
:101D100000BFFDE700231A461946306803F0F7FCC0
:101D200090E700009002002034020020A40100206F
:101D300000E100E03802002050020020A5A5A55ACD
:101D4000EB9C374A401002400400FA0500ED00E029
:101D50001CB5124801798278090412028079114376
:101D600001430F48416001200E4980050860BFF320
:101D70004F8FBFF36F8F0020019001A800900A4899
:101D8000012200231146006803F002FF0198002899
:101D900003D001200549000748601CBD00800020D9
:101DA0009002002080E100E0B001002000ED00E0A2
:101DB00010B5024900F05CFC10BD0000C11D000818
:101DC00010B5044605484900006D405C801AC0B259
:101DD00003F056F8214602F0A0FF10BDFC040020DD
:101DE00010B5024900F044FC10BD0000F11D0008D0
:101DF00010B504460648036D4800401C185C801A64
:101E0000C0B203F03DF8214602F087FF10BD00008C
:101E1000FC0400202021020C01D010211046020AEF
:101E200001D010460839020901D01046091F820866
:101E300001D01046891E420801D0881E7047081A3A
:101E4000704730B47446641E2578641CAB4200D2DF
:101E50001D46635D5B00E31830BC1847002809DBB2
:101E6000C106C90E0120884003490860BFF34F8FA7
:101E7000BFF36F8F7047000080E100E0002805DBB2
:101E8000C106C90E01208840014908607047000062
:101E900000E100E08307FF22DB0E9A408907090E6C
:101EA0009940002808DB830809489B001B18186824
:101EB00090430843186070470007000F08388308F4
:101EC00004489B001B18D86990430843D8617047A9
:101ED00000E400E000ED00E002E008C8121F08C1C5
:101EE000002AFAD170477047002001E001C1121F9B
:101EF000002AFBD170470000F0B500231D469C4628
:101F00001C460126A6400E4211D067000326BE40A3
:101F10003343082C04D2A7000F26BE40354306E009
:101F2000A7000F26203FBE4067463E43B446641CD0
:101F3000102CE6D38468D602F6178C430E40344347
:101F400084604468D601F6178C430E4034434460E5
:101F5000016894000F4EA40F744399431C40214321
:101F60000160C1689403A40F744399431C4021434A
:101F7000C1601107084A090F5143026A0B46AA4380
:101F80002B401A430262426A63469A4319400A434D
:101F90004262F0BD5555555511111111002801DA55
:101FA000404240B27047000037B569460C880D7951
:101FB000201FA02808D82946009802F039F92A469F
:101FC00021461CA000F0D4FF2046E038072808D89E
:101FD0002946009802F0C0F92A46214621A000F0C7
:101FE000C7FF2046A538022808D82946009802F0E5
:101FF0005FFA2A46214627A000F0BAFF2046A838FB
:102000001B2808D82946009802F0F4F82A462146F1
:102010002CA000F0ADFF2046ED38122808D8294644
:10202000009802F0B5F92A46214626A000F0A0FF4C
:102030003EBD00005B70726F636573735F6B6579A3
:102040005D206B6579636F6465203D20307825588D
:102050003A2070726573736564203D2025640D0A13
:10206000000000005B70726F636573735F6D6F6477
:102070005D206B6579636F6465203D20307825585D
:102080003A2070726573736564203D2025640D0AE3
:10209000000000005B70726F636573735F73797328
:1020A00074656D5D206B6579636F6465203D2030DC
:1020B0007825583A2070726573736564203D202539
:1020C000640D0A005B70726F636573735F63757391
:1020D000746F6D65725D206B6579636F6465203D1B
:1020E00020307825583A2070726573736564203DFE
:1020F0002025640D0A00000010B504000DD0002C4E
:1021000000DC604200B200290DDB0A18081A400109
:102110001146FEF731F820210CE0002901DB0020F8
:1021200010BD802010BD421A081840011146FEF76C
:1021300023F86021081A40B2002C00DA4042C0B2F5
:1021400010BD000070B51320FFF788FE1B4A032066
:1021500010620C2050621A4900238B610C68012028
:1021600004430C60164C403CE0630C69A407A40FC8
:10217000012CFAD113498C6801252D052C438C6064
:10218000104940390863136253620F4A1060CB60F4
:1021900002224A6188618A69002AFCD14B62086286
:1021A0000922CA6148620A49084808600948FEF7DE
:1021B000EDFF02F082FF01F0C9FF70BD007000402A
:1021C000800002404010024000200240006CDC020F
:1021D0008C02002080BB0000FEB502F067FF224C9D
:1021E000032020620C2060622048816A0127394365
:1021F00081620020FF21F531401C8842FCD300257C
:10220000256265621A4EF5607561B7611A49194811
:1022100008607D200001FEF7B9FF032020620C203A
:102220006062356312484030816801263605B1434B
:1022300081600E4A0D21803291612562656281685C
:102240007410214381606846009605710821417130
:102250008771FEF7A7FA094805703046FEF79CFA29
:1022600007480460FEBD000000700040000002400E
:102270000010024080841E008C020020BF0200205B
:1022800000E100E000B54030C0B202F0F9FD00BD51
:1022900070B506460D480D464468002C15D00C4814
:1022A000017C407CFDF752FF0849497848430849C2
:1022B0002039C98871434919CA0812194C07835C2F
:1022C000640F0121A1404B40835470BD9801002050
:1022D0001C050020FFB5164C81B00025A5702078A4
:1022E0001E461746002812D002F0F4FE218901256F
:1022F000411A89B2A060FF2901D9FF2101E000291C
:1023000005D0CBB23A460299019802F049FF6078B5
:10231000064309D0002D02D102F0DCFEA0603A464F
:102320000299019802F0E0FEA07805B0F0BD00002F
:10233000B4010020F8B50E4C0546E088684301F072
:102340005BFD0C490023486019460EE0002207E0BF
:10235000C6183778521CFF07FF0F3770D2B25B1CCC
:10236000E6889642F4D8491CC9B2A942EED3F8BD1A
:10237000FC040020B40100207047000001218140CE
:1023800001480170704700009601002070B50546B5
:1023900003F064FC044601E0FEF7D6FB204602F0A1
:1023A00093FEA842F8D370BD014900200870704721
:1023B0007C0000200148416901480847C4660008C4
:1023C000007C000810B51948032101620C2242620A
:1023D000174882680123DB041A438260154842696A
:1023E0000E239A4342614161134801684022090A61
:1023F00009021143016011490120086010490004DD
:102400008860C860086000F07FF80E48006800F03F
:102410003BF80D48006800F025F800F03FF804464E
:10242000FFF7C8FF204600F055F810BD00700040CF
:10243000401002400000024000E400E000E100E043
:10244000000401408C010020DC01002010B503488D
:10245000816803488847C04310BD0000C466000877
:10246000087C000802490A69C1430248104700007D
:10247000C4660008087C00080148816801480847D4
:10248000C4660008047C000802490A690146024843
:1024900010470000C4660008047C000801488168F9
:1024A00001480847C46600080C7C0008084A074831
:1024B000D27F0121920011430170054920310A7831
:1024C000427049788170FF21C17070478C010020F3
:1024D000FC04002070B50546FFF7CEFF0646FFF767
:1024E000B5FF0446FFF766FF3046FFF7CDFF2046F5
:1024F000FFF7B8FF0248294602690248904770BDBD
:10250000C46600080C7C000810B50AA000F030FD7D
:10251000FFF7B2FF0D49086001460DA000F028FD4D
:10252000FFF794FF11490860014611A000F020FD5B
:1025300010BD00005B6565636F6E6669675F7573EC
:1025400065725F6765745D200D0A00008C010020D4
:102550006C65645F6D61747269785F6565636F6EE9
:10256000666967203D2025640D0A0000DC0100201B
:102570006B65796D61705F636F6E666967203D2082
:1025800025640D0A00000000F3B518480F46807856
:10259000154D4108154881B00C38008A00242E7F63
:1025A00080B202F0B7FBC0B2009016E0686D0199EE
:1025B000005D497808420ED02A6D6000115C401C15
:1025C000125C0A4870394078203A009BB8470146AF
:1025D000204601F0C7F8641CE4B2B442E6D33046AA
:1025E00000F038FFFEBD0000FC0400208C0100203C
:1025F000F3B51E481C4D807883B041081B48002469
:102600000C38008A2F7F80B202F084FBC0B20290A7
:1026100023E0686D0399005D497808421BD02A6D5C
:102620006100505C491C70380190565C4043203E6C
:1026300031467143401880B202F064FC03460298B0
:1026400000900A483246049E40780199B0470146FE
:10265000204601F087F8641CE4B2BC42D9D3384666
:1026600000F0F8FE05B0F0BDFC0400208C01002055
:10267000F3B5144F124EB87881B0810838460C3843
:10268000008A0024357F80B202F044FBC0B2009083
:1026900010E0706D0199005D4978084208D0029BF6
:1026A00078782146009A98470146204601F05AF86A
:1026B000641CE4B2AC42ECD3284600F0CBFEFEBD75
:1026C000FC0400208C010020F3B51D4F1D4D81B08E
:1026D00000243E7FA9781C48FDF738FD009029E0D2
:1026E000786D0199005D4978084221D01749009A18
:1026F00008780CE00B185B7CA34208D143005B1800
:102700005B8B934203D240004018428B03E0401E93
:1027100040B20028EEDAA978104602F0FBFA6A7897
:1027200001461046029A90470146204601F01AF8E9
:10273000641CE4B2B442D3D3304600F08BFEFEBD3D
:10274000FC0400208C010020FFFF0000D0040020CA
:10275000F7B52A488AB0007F059029480024007800
:10276000039043E025480B99406D4978005D08428D
:102770003AD0002002900A9D2AE020482049026DAC
:102780006000135C49194E78401C105C497A9F1B0D
:10279000461A3846314678437143401880B202F0F9
:1027A000B1FB089017480121807802F005F9C1B209
:1027B00013486A001018408B02F0ACFA32460090C1
:1027C0000C9E3946089B0298B0476D1CEDB20290F2
:1027D00003988542D1D30B484178029802F09DFAC4
:1027E0000146204600F0BEFF641CE4B20598844216
:1027F000B8D300F02FFE0DB0F0BD0000FC040020A7
:10280000D00400208C010020F3B51D481B4F8078B8
:1028100083B081081A4800240C38008A3E7F80B2B9
:1028200002F078FA0546C0B2FFF72CFD803840B2BE
:102830000290E8B202F024FB803840B2EDB2019081
:1028400014E00E480399406D4978005D08420BD0B2
:102850000B480095049F40782346019A0299B84797
:102860000146204600F07EFF641CE4B2B442E8D387
:10287000304600F0EFFD05B0F0BD0000FC04002084
:102880008C01002010B504460029024609D0FD2124
:10289000012002F0B3FB012002F0E6FD2246FD21FB
:1028A00008E0FC21012002F0A9FB012002F0DCFD80
:1028B0002246FC21002002F0A1FB10BDF8B5174C08
:1028C000607A002828D0002501273F040CE06069C9
:1028D000AE008059394601F0D2FBA06939468059D3
:1028E00001F0CDFB6D1CEDB2607AA842EFD8002557
:1028F0000FE06069AF00C05901F0AAFB0646A0696D
:10290000C05901F0A5FB40000643054846556D1C23
:10291000EDB2607AA842ECD8F8BD0000FC040020BB
:10292000BD020020F8B516480025417A002924D0C0
:1029300000241EE01248A6004069805901F088FB7F
:1029400007460F488069805901F082FB4000074329
:102950000C48FAB2015D8B079B0F934207D08906A2
:10296000090E11430155204600F00EF80543641C82
:10297000E4B20348417AA142DCD82846F8BD000001
:10298000FC040020BD02002070B5144C0A07144B53
:102990000546120F605D9A5C0026801840B26055B3
:1029A000042807DA021D05DD0E4A8907127C890F0B
:1029B000914210D1012804DB012631462846FFF759
:1029C00061FF6057002804DA012600212846FFF73E
:1029D00059FF00206055304670BD0000BE02002047
:1029E00095680008FC04002000A070476C69622014
:1029F00076657273696F6E3A2076302E302E3130E4
:102A0000000000000B490020086048600A48006B85
:102A1000401C0ED109480168072211430160084992
:102A20000868FF2212029043086001200549400611
:102A300008607047B4020020C0FAFF1F006C00401D
:102A400018E400E000E100E010B51248006B401C03
:102A50001FD11148016800291BD0EFF3108472B612
:102A600000210160FDF7C2FF0C48FDF7D9FE0C48BC
:102A700000688003800DC143090401430948FDF744
:102A800037FF08480849001DFDF732FF002C00D130
:102A900062B610BDC0FAFF1FB402002000F6FF1F8F
:102AA000006C004000F7FF1F69E5B5A310B500F00A
:102AB000D5F800F0FFF802F007F910BD0022054933
:102AC00065284A7003D0632801D0642800D10A70B9
:102AD000704700007C00002010B5064901204870B6
:102AE000632000F001FC642000F0FEFB652000F094
:102AF000FBFB10BD7C00002010B500F005F800289D
:102B000000D0012010BD000010B5FFF7C7FC174C26
:102B1000206001F017F801F003F8002812D0042219
:102B20001349002001F0A0F811490422091D0120D9
:102B300001F09AF80E4904220831022001F094F8BD
:102B400001F0AEF800F008FD01F00CF8002803D009
:102B50002078400901F0B0F82078C00601D50220A5
:102B600000E00020FFF70AFC002010BD84000020D8
:102B7000F062000870B50C46054600F045F80028E4
:102B800007D0002C04D00348C54201D100F0E6F97B
:102B9000012070BDFD83FFFFF7B5012182B0194D03
:102BA000002400913C22535DA96B26E022460C26AE
:102BB000724308328A5A82421DD16846007B00283F
:102BC00006D002F08CFA0C22A96B5443085116E08F
:102BD0000C20444326460A36885D0027002807D08B
:102BE000B01E085A0021FFF7C5FF0090A86B87555B
:102BF000A86B075103E0641CE4B2A342D6D8009846
:102C000005B0F0BDFC040020124A10B5D0421ED120
:102C100000291CD0104901200870652000F064FBD9
:102C2000632000F061FB642000F05EFB0A4C002191
:102C3000083421602078617040084000E921084094
:102C400020700020FFF79AFB2068FFF743FC01206B
:102C500010BD0000FD83FFFF7C000020F8B5144F7D
:102C600000253E4620361EE02C460C20BA6B44431D
:102C70001059002815D021460A310091515C0029D5
:102C80000FD102F021FAB96B221D8A58904208D365
:102C9000009A01208854B86B0834005B0121FFF7CB
:102CA00069FF6D1CEDB2307FA842DDD8F8BD000091
:102CB000FC0400200120704710B50120C046002808
:102CC00000D0012010BD000037B50446029A0199DA
:102CD00000F01EF8002815D001A9204601F0CEFB17
:102CE00000280FD00848201805D07F21C900401ABD
:102CF00000D001203EBD684601790448002900D07B
:102D00000121017000203EBDF587FFFFBC020020BD
:102D1000F7B58E4B0546C61A68468D4C01790120E1
:102D200022789D4270D01ADC894B8A4F1B78EE1BAB
:102D30005B09BD4257D009DCE32D78D0E72D76D072
:102D40008548281874D0012873D1ABE0012E5CD0DF
:102D5000032E6FD0042E6ED0052EF5D196E03300F1
:102D6000FFF76FF80FF18BF1F1F1F1F17A806A2B37
:102D7000341B0974F100002907D0E02001F04CFF5A
:102D8000E22001F049FF0F200DE0E02002F0FCF905
:102D9000E22002F0F9F90F200CE0002906D0E02033
:102DA00001F03AFF522001F037FFCAE0E02002F0C4
:102DB000EBF9522002F0E8F9C3E0002912D000201C
:102DC000FFF7DCFA2078EF21084007E0002909D05E
:102DD0000220FFF7D3FA20781021084320702068E2
:102DE000FFF778FBADE000290DD0184600F020FF7A
:102DF0002078400900F07AFE00F0AEFBE07000F0B1
:102E00007FFC00F01FFD9CE032E000290ED0184648
:102E100000F00EFF2078400900F068FEE07800F036
:102E20006FFC00F023FD00F097FBE07089E02AE0E2
:102E30004EE088E05FE072E0002948D05007C017FC
:102E40008000001D4007400FFB2128E0002901D031
:102E50006520A8E76520ADE7002901D0E720A2E7BB
:102E6000E720A7E7002901D0E3209CE7E320A1E7C2
:102E7000002966D00820024303E0002961D0F72032
:102E800002402270ABE7D1088843FEBD002958D02C
:102E90009007C0174000801C8007800FFD210A406A
:102EA00010439BE700294CD000F062FB3C30F02837
:102EB00001D9F02003E000F05BFB3C30C0B200F031
:102EC000A1FC00F055FBF0283BD1FFF705FE38E0F0
:102ED000002936D000F04CFB3C2801D2002003E052
:102EE00000F046FB3C38C0B200F08CFC00F040FB28
:102EF0000028EAD025E0002923D000F033FB32304F
:102F0000FA2801D9FA2003E000F02CFB3230C0B2DD
:102F100000F04CFC00F026FBFA28D6D011E0002986
:102F20000FD000F01FFB322801D8322003E000F060
:102F300019FB3238C0B200F039FC00F013FB322824
:102F4000C3D00020FEBD0120FEBD0000037E0000B6
:102F50008400002005780000FD87FFFF10B5FFF713
:102F600031FAFFF7D1FA00F08DFB0120C04610BD09
:102F70007047000010B513488168402211438160FA
:102F8000114801688022114301601048FDF7F4FDEB
:102F90000320FDF7E5FD0120FDF7CCFD0028FAD167
:102FA0003220FDF7E3FD0220FDF7C4FD0028FAD131
:102FB0000220FDF7BFFD0028FAD1FDF7C5FDFDF7A2
:102FC000B1FD10BD401002400058014055550000B1
:102FD00070B584211D48FDF7FCF81C4E00200C3E06
:102FE000B06030601A4840688005800D7060C0464F
:102FF000C04618490020401C8842FCD301F000FF65
:1030000015488168021511438160154C1348E06230
:103010000125A5626561E81E2061E0682843E06043
:1030200000210D20FEF736FF0D20FEF727FF206858
:10303000284320600B48032101620C214162B068E3
:103040000028FCD001F096FE70BD00003C0D002071
:10305000800002401027000040100240FFFF0000E7
:10306000001000400070004070B52B48416A2B48AA
:103070004268002A23D0816081684268294B891AFE
:103080008AB22749511899421AD881684160264C62
:103090006168491C61600378014600260C31002BF1
:1030A00019D003789B005B18803BDB6F9342037859
:1030B00007D89B005B18803BDB6FD31A06E04160AA
:1030C00070BD9B005B18803BDB6F9B1A0A256B432E
:1030D000934200D9067003789D006D185B1C037045
:1030E0002A600278104D0C3D022A0FD30670A868A2
:1030F000002200280AD18300CB58401C9A18C0B285
:103100000228F8D35008286001F020FF60680A28E0
:10311000D6D90120A86070BD0010004098020020A0
:1031200070CCFFFF605400003C0D002010B5094832
:10313000416A094A91420BD10021416207490120AD
:1031400008600748016881F3088840688047FEE707
:1031500010BD000040100240EB9C374A00000140C7
:1031600000E0FF1F10B53049E0284A78097821D0E7
:1031700012DC352844D008DC292844D02A284CD039
:10318000312816D148064CD449E0392801D082288C
:103190000FD1CB071FD108E00446E23C2300FEF725
:1031A00050FE0611141C08222508890713D41107A4
:1031B00031D410BDC8072CD1D0070CD0C80610D40C
:1031C000E32010BD4807F9D401E0480701D5E2200B
:1031D00010BDD007F2D0E02010BD90070CD5C80676
:1031E0000CD5002010BD0807F9D401E0080701D56F
:1031F000E62010BD9007F2D5E42010BDE72010BDF9
:10320000880608D401E0880601D5352010BD1007D6
:1032100001D5392010BD292010BD480601D5312027
:1032200010BD2A2010BD0000DC0100200FB410B535
:103230007C2202A90348FCF7B3FF10BC08BC04B011
:1032400018470000FC04002030B5084B9D888D42D3
:103250000AD9DC88944207D945436818604380182E
:1032600019684000085A30BD002030BDFC04002021
:10327000012203498240087890430870704700009B
:10328000960100200121814002480278114301701B
:103290007047000096010020F3B50E480F460678EF
:1032A0000D48007A401E44B201250EE02846A04099
:1032B000304208D0E0B23A460099FFF7C5FF012836
:1032C00001D0E0B2FCBD641E64B2002CEEDA002036
:1032D000FCBD000096010020FC040020014800789D
:1032E000704700007C01002030B5144900224424BE
:1032F000645C0B6C1DE01C25554310355D5D8542FB
:1033000015D11C204243104608301C58002C12D006
:103310009D5865436D00141D6D1C1D51096C0858A6
:10332000FF2802D18858401C0851012030BD521C92
:10333000D2B29442DFD8002030BD0000FC0400204F
:10334000FEB50025414F7BE040482C4640381C220A
:103350005443016C261D8A59002A68D020460C303F
:1033600001900858002807D001F0AEFE37494039D7
:10337000096C0959884228D3344822464038113212
:10338000016C00928A5C002A13D0002200980A5433
:1033900001F0A5FE2D4940390A6C019950502B4887
:1033A0004038006C81590259914204D3891A8151E5
:1033B0000BE00122EAE70021244A8151403A136CD4
:1033C00000981954126C0198115020494039086C2A
:1033D0008259002A13D00E46001900F039F800284F
:1033E0002CD02046316C1130085C002813D02046C8
:1033F0001030085CFF280BD01834095D10E021461E
:1034000014314158002919D01034005D884715E067
:103410001834085D08E01034085DFF2803D000214F
:1034200000F0A0F90AE0002000F0AEF906E0234623
:1034300000221133CA54006C0C3402516D1CEDB2E1
:103440003879A84280D80120FEBD00003C0500204C
:10345000012070470349097F814201D9012070474B
:1034600000207047FC04002010B5012000F002F895
:1034700010BD000010B504460448817F04488078E0
:1034800001F0A0FA214600F097F910BDFC040020DD
:103490008C01002010B5012000F002F810BD0000E2
:1034A00010B504460448417F0448407801F08AFA88
:1034B000214600F0ADF910BDFC0400208C01002075
:1034C00010B500F001F810BD10B5084801788A0762
:1034D00003D0002203460C3BDA7089088900017092
:1034E0008907890F02A0FFF743FD10BD8C01002062
:1034F0005B6C65645F6D61747269785F656E616253
:103500006C655D2025640D0A0000000010B500F018
:1035100001F810BD10B5084801788A0702D10346AA
:103520000C3BDA7089088900491C01708907890FF2
:1035300002A0FFF71DFD10BD8C0100205B6C6564CF
:103540005F6D61747269785F656E61626C655D2044
:1035500025640D0A000000000148007880087047CB
:103560008C01002001488078704700008C01002009
:1035700001484078704700008C01002010B5012000
:1035800000F002F810BD000010B504460548817F28
:103590000548807801F010FAC0B2214600F00CF91D
:1035A00010BD0000FC0400208C01002010B501209B
:1035B00000F002F810BD000010B504460548417F38
:1035C0000548407801F0F8F9C0B2214600F020F932
:1035D00010BD0000FC0400208C01002070B50C46DA
:1035E0000546FFF7ADFE2146284600F005F8002805
:1035F00000D0012070BD000038B5214C60782178E2
:10360000084326D1FFF76AFE0090684600788007DD
:1036100001D5502100E00021632000F0A3F8FFF75E
:103620005DFE009068460078400701D5502100E01B
:103630000021642000F096F8FFF750FE00906846E5
:103640000078C00701D0502100E00021652000F083
:1036500089F8A078632810D2002000F095F86068FF
:1036600001F032FD232805D901F039FD6060A07812
:10367000401CA070A07800F059FB012038BD00006C
:103680007C00002010B5FDF703FB00230E4A0F4914
:10369000137018464400A418401CC0B26183082867
:1036A000F8D3094A2A3A1370002043009B18401CA3
:1036B000C0B259830828F8D305480068401C01D1DE
:1036C000FEF7F4FE10BD0000D0040020FFFF000054
:1036D0008C01002070B514460D46064600F00EF829
:1036E0000549CA6CC98871435118695CFF2902D029
:1036F0002154401CC0B270BDFC0400200020704763
:1037000010B5012100F002F810BD000010B50E49FF
:103710000A78920717D00A4612789207920F00286B
:1037200003D0132803D3483203E0121D01E08000C8
:1037300002430A701006810E04A0FFF719FC02492B
:1037400000200C39C87010BD8C0100205B6C6564D2
:103750005F6D61747269785F6D6F64655D2025646B
:103760000D0A000030B5074A137F834209D9400093
:10377000936C441C1C5DD588185C6C43926E2018B9
:10378000115430BDFC04002070B506460024064DDF
:1037900005E031462046FFF7E5FF641CE4B2287FD0
:1037A000A042F6D870BD0000FC04002010B5012135
:1037B00000F002F810BD000010B503498870014602
:1037C00002A0FFF7D5FB10BD8C0100205B6C656487
:1037D0005F6D61747269785F73706565645D2025E3
:1037E000640D0A0070B5064D04462978884305D05B
:1037F000002000F0B9F8002000F098F82C7070BD9F
:103800008001002010B5012100F002F810BD000079
:1038100010B505490A78920704D04870014603A004
:10382000FFF7A6FB10BD00008C0100205B6C6564F7
:103830005F6D61747269785F76616C5D2025640DDF
:103840000A00000010B5012000F002F810BD0000D1
:10385000014610B5044800788008401C122800D3A7
:103860000120FFF753FF10BD8C01002010B501208F
:1038700000F002F810BD0000014610B505480078C0
:103880008008401E0006000E00D11120FFF73EFF09
:1038900010BD00008C01002010B500F001F9154C9E
:1038A0002078002811D120460C30007881070CD0F8
:1038B0008008E2780021002A09D0012A14D0022AC7
:1038C00015D0032A00D1E17010BD0020F1E70948AE
:1038D0002A22401D0170A068074920618818FCF762
:1038E0005FFC0120E07010BD00F03EF810BD00F05C
:1038F0001DF810BD80010020A604002000B50120A5
:1039000000F002F800BD0000044801220178514097
:103910000170024900200C39C87070478C010020EA
:1039200001490870704700007C01002070B50C4D03
:103930000C4C2946A8700C3109788907890F6970E9
:10394000002803D0217F0020FFF748FEA288E088EE
:10395000A16E4243E06EFCF723FC0320E87070BDCB
:1039600080010020FC04002010B54C4CA178884256
:1039700007D121460C31097862788907890F914275
:1039800001D0012100E00021444A521D91700A2813
:1039900051D008DC0300FEF754FA0A1B21262B3015
:1039A000353A3F44497F0F285ED008DC0B2847D0CA
:1039B0000C284AD00D284DD00E286DD14FE010288C
:1039C00057D011285AD012285DD0FF2864D110BDDD
:1039D000002961D00020FFF7D7FE5DE02F48401D91
:1039E000FDF710FB53E02D48401DFCF7DDFD4EE0D8
:1039F0002A48401DFCF766FD49E02848401DFCF7B9
:103A000069FD44E02548401DFCF77CFD3FE023486C
:103A1000401DFCF74BFE3AE02048401DFCF770FECD
:103A200035E01E48401DFCF757FE30E01B48401DA6
:103A3000FCF77EFE2BE01948401DFDF7A3F826E0B9
:103A40001648401DFDF700FB21E01448401DFDF71E
:103A500061FB1CE01148401DFDF7FEFA17E00F481E
:103A6000401DFDF72FFB12E00C48401DFDF7E2FA68
:103A70000DE00A48401DFEF79BF908E00748401D8D
:103A8000FEF7AEF903E00548401DFDF7B5F9002843
:103A900002D00020E07010BD0220FBE78001002072
:103AA00070B50F4DA86801F00FFB044601F017FB3D
:103AB000A8600C490C4800220B78001B0CE0550054
:103AC0006D186E8BB04203D20D786D1E0D7001E043
:103AD00036196E83521CD2B29A42F0D370BD0000E8
:103AE00080010020A6040020FFFF000010B50A4955
:103AF000097C81420DD909490A78012A09D14A78FD
:103B0000824206D100200870104600F0EDF8012036
:103B100010BD002010BD00001C05002098010020F1
:103B200010B505488168054888470549884201D095
:103B3000012010BD002010BDC4660008007A0008F6
:103B400055AAAA5510B505480549406B48600020A4
:103B50000870487000F06CF810BD0000FC040020F4
:103B600098010020122801D00020704701207047E2
:103B7000F3B583B00446FF20694608700871FFF76B
:103B8000F7FC294988703EE001A8029027482346A7
:103B9000C06CEE468446254800218688C2883DE0F8
:103BA000154600204D4367467F1933E0C55DFF2D64
:103BB0002ED09D422CD172461170029908701A487D
:103BC0004568002D1DD019482030017C407CFCF751
:103BD000BDFA024614486B4641781B784A431349A4
:103BE000C98859436B461B79C918CB085B19D25C4D
:103BF0004907490FCA40D10713D000212046FFF7DB
:103C0000B1FD641CE4B204988442BDD305B0F0BD9C
:103C1000401CC0B28242C9D8491CC9B28E42BFD82A
:103C2000EFE78178EAE7000098010020FC0400201B
:103C3000F8B50A4D297C81420FD900242E46203E3A
:103C4000074F07E00748396820188847716B085507
:103C5000641CA4B2687CA042F4D8F8BD1C05002006
:103C6000C4660008047A0008F8B50B4D14460F46E8
:103C700068700A4E09E0641EE4B2385DB26C400020
:103C8000115C401C105CFEF703FB002CF3D168783C
:103C900000F02AF80020F8BD98010020FC04002064
:103CA000024803490269034810470000C46600083F
:103CB00055AAAA55007A000810B50949097C814225
:103CC00001D8002010BD07494870FFF7B1FFFFF78A
:103CD00043FC122802D01220FFF712FD012010BD74
:103CE0001C05002098010020F8B50D4D297C81426B
:103CF00015D90C4E0C48716988470B4F00243F1DA5
:103D000008E00748F2682038406B015DE0199047F1
:103D1000641CA4B2687CA042F3D8FFF7C1FFF8BDD1
:103D20001C050020C4660008007A000870B504462F
:103D3000074D461D08E0285D632C01DD002100E0F1
:103D4000FF21FFF70FFD641CB442F4DB70BD0000DF
:103D50009D0000201CB5FFF7E9F900F06DFEFEF7AD
:103D600051FEFFF707F9FEF707FB002205211E2091
:103D700001F078FC14490860012001F061FC13494E
:103D80000860FEF731FE12490120019100900023E6
:103D9000602210A1114801F07BFE1149032001911E
:103DA0000090002340220FA10F4801F071FE0F493F
:103DB000042001910090002320220DA10D4801F064
:103DC00067FE01F0C1FBFEE7A0010020A401002076
:103DD000A80100204D61747269780000150E00087A
:103DE000AC01002041505000ED030008B00100205C
:103DF00055534200291C0008F0B50B30C108C9001A
:103E0000144F0026144A0FE003688B420BD38B42F9
:103E100005D95C1A4318456830C3083B00E0436885
:103E2000136002C004E0021D10680028ECD1304687
:103E3000002803D13868002801D00020F0BD064AD0
:103E400006481060064A121AD208D20044C0012067
:103E50003860D7E78802002084020020C40D0020CB
:103E6000600E0020F8B51448816842151143816046
:103E70000024124E87050DE0706AA1004558681CA9
:103E800006D03946284600F0FAF8284600F0D4F863
:103E9000641CE4B2B088A042EED80004810B706EBE
:103EA000FCF797F9B0888100306EFCF792F9307911
:103EB000FEF740FAF8BD000040100240FC0400206C
:103EC000F3B5002581B001272C460D4E0DE0B06AF8
:103ED000A1004058411C03D000F0BAF801280CD0D2
:103EE0000020641C0543E4B27F00F088A042EED8B5
:103EF0000298810001984550FEBD3846F1E7000068
:103F0000FC04002010B50B4CA0888100206EFCF74B
:103F100060F9A0888100606EFCF75BF9A0888100E1
:103F2000E06DFCF756F904480021006801F0B9FB88
:103F300010BD0000FC040020A001002070B50C4C56
:103F4000A088A16D8200206EFCF74EF9002807D0F2
:103F5000A08801258200A16D206EFCF721F900E008
:103F6000002522792B46616E206EFEF7B3F970BDF5
:103F7000FC040020F0B585B0FFF7E0FF2C480024DA
:103F800021468588C76D466E0AE08B00FA58F358C3
:103F90005A40224301D0012400E00024491CC9B248
:103FA0008D4202D9002CF0D001E0002C01D0002578
:103FB00036E001F08FF81F490A88821A1204120CA9
:103FC00032D0088030E0A900426E0391525800922E
:103FD000C26D5158009A514002911FD0012700260E
:103FE00013E0029838420DD00098384000D00120EC
:103FF00032462946019001F001F831462846019ADF
:1040000000F05CF9761CF6B27F000948C088B04227
:10401000E7D807490098CA6D039950506D1CEDB25E
:1040200003488188A942CED8204605B0F0BD0000E3
:10403000FC040020940100200207120F012191408E
:104040000009092209048002D206801881617047A4
:10405000010909228902D206891809690007000F9F
:10406000C140C807C00F70470207120F01219140DD
:10407000000909228002D206801881617047020778
:10408000120F01239340000909228002D2068018F2
:1040900000B50A461946FDF72FFF00BD002801DBD9
:1040A000642801D9002070470149800008587047F2
:1040B000DC660008010909228902D20689185242E9
:1040C0008A180107090F002A09D0012080028242C4
:1040D000044803D10B2901D80348405670470248D1
:1040E0001038FAE7FFFFFFFF5067000807B5694681
:1040F0000979002927D00F21C902401A0300FDF7D2
:10410000A0FE0A0609180C0F1B1E22121522FFF72B
:10411000FDF916E0FFF7D4F913E0FFF7BBF910E063
:10412000FFF744FA0DE0FFF729FA0AE0FFF79CF9E0
:1041300007E0FFF7E3FB04E0FFF784FB01E0FFF794
:1041400095FB00200EBD01200EBD0000F8B500203B
:10415000264901240246254B0A331D5C002D03D05D
:104160001A540B7823430B70401CC0B20828F2D3BA
:10417000012002251E4B1E5C002E03D01A540B7822
:104180002B430B70401CC0B21028F3D3012004262F
:10419000164B1B1D1F5C002F03D01A540B783343A2
:1041A0000B70401CC0B20328F2D301200F4BDB1D63
:1041B0001F5C002F04D01A540B7808273B430B7068
:1041C000401CC0B20328F1D3084808211230FCF784
:1041D00000F806480549123004700548C91D0670EC
:1041E00003200870C81E0570F8BD0000C001002043
:1041F0007805002073B502200C4C002920700AD0ED
:10420000684605782846FCF7EBFC60702846FCF70A
:10421000E7FC000A01E000206070A070034804225F
:10422000001F0178114301707CBD0000C401002013
:10423000F3B520486B461C780578012263071543C7
:104240005B0F1D4F9A40E308DB19002916D00221AD
:10425000184E0A36765CA6422BD0002E09D0491C97
:104260000829F5DB082924D10421397099781143F4
:104270001AE0104E0A3674540570F3E702210D4E11
:104280000A36765CA64205D10A4C00260A346654EA
:10429000057002E0491C0829F1DB9978114208D029
:1042A0000421397099789143997001780222114361
:1042B0000170FCBDC001002078050020FEB500257E
:1042C000002A03D06A46FFF705FA0546204C2078FD
:1042D000401908281ED90820461B6719791C324648
:1042E000601CFBF75DFF3946204632460931093034
:1042F000FBF756FF68000119204672001A301A3188
:10430000FBF74EFF39462046324611311130FBF79C
:1043100047FF2670002017E00E4922780F6D69468E
:104320000B5CA1189C465B00FE5C4E705B1CFB5C4A
:104330004B7263464B74520000211219518321784D
:10434000491C401C2170C0B2A842E5D3FEBD00004C
:10435000A6040020FC04002033B5684605780B4A0B
:1043600001231C46E03DAC401078002903D0072D06
:1043700005D8204302E0072D01D8A0431070034860
:104380000A380178194301703CBD0000CA010020C1
:1043900003B50E4801210170014612390A78102335
:1043A0001A430A7069460B8800210A22ED2B09D0B6
:1043B000EE2B04D05242EF2B04D0F02B01D14180E0
:1043C00082800CBD428081800CBD0000D2010020A3
:1043D00070B50C4615460646FEF7DEFB002807D0F2
:1043E0002A4621463046FEF76FFC002800D0012007
:1043F00070BD70B50C461546064600F015F800284D
:104400000ED02A4621463046FFF7E2FF002808D0AA
:104410002A4621463046FFF769FE002801D00120D8
:1044200070BD002070BD000007B551226946120220
:10443000097982430ED00F4AD04218D1002914D0F6
:104440000D49EF2308780246184010239343184380
:1044500008700CE06846007A002902D0FEF712FFCF
:1044600001E0FEF705FF00200EBD00F08DFE0120EB
:104470000EBD0000F687FFFFDC01002010B50B4ADF
:104480001278012A0FD15122120282430BD00878F0
:10449000002806D048784206520E88781146FDF76B
:1044A000F7FE002010BD012010BD00009801002083
:1044B00013B568460078A52814D0A62814D0A728DC
:1044C00014D000200A4B5A8890420AD05880032406
:1044D000DA1D14705070000A907018780821084393
:1044E00018701CBD8120EDE78220EBE78320E9E70F
:1044F000C0010020F8B5134C0F46E6680546206859
:10450000001D00F023FF681C07D1002F05D0216893
:104510000D48091D00F053FFF8BD2068751945606E
:104520002168B54204D2A06B091D00F030FFF8BD30
:10453000606B091D00F02BFFA06A8542F7D2A562CF
:10454000F8BD0000F00100203C060020F8B505464B
:1045500000F042FF294CA068401CA0602068284F52
:10456000002803D06069002827D02CE02560A068CF
:10457000012828D1002614207043C01900F0F9FE4C
:10458000761C052EF7D31E48643000F0F2FE1C485E
:10459000783000F0EEFE1A488C3000F0EAFE184841
:1045A000A03000F0E6FE1648B43000F0E2FE1448F9
:1045B000643060631430A06305E02068E96AC06A73
:1045C000884200D82560606A401C6062E86A216900
:1045D000884200D9206114214843C019291D00F0E8
:1045E000EEFE00F005FF6069002806D02068E96A49
:1045F000C06A884201D200F02BFFF8BDF001002014
:104600008805002010B5026C0C46002A0CD0C16849
:104610008B18C36081688B4201D2194601E00168A2
:10462000C1602046FBF7BCFD10BDF8B5856B174691
:1046300004460026026C002A11D0002F19D0E06831
:10464000FBF7AEFDE168206C091AE1602268914237
:1046500002D2A168081AE060022F17D019E0206882
:10466000002816D1A06801F09BFB06460020A06040
:104670000FE06068FBF794FD216C60684018606093
:10468000A168884205D32068606002E0002D00D058
:104690006D1E6D1CA5633046F8BD10B50446006B59
:1046A00000F0B4FE204600F0B1FE10BD0F480E49E8
:1046B000420705D0C01DC0080C4AC000821A891AE2
:1046C0000B4A0023411809C20839C908C900183A21
:1046D00011604B600B600B1A0AC093600120C00789
:1046E0005360D06070470000CC06000064060020D4
:1046F000680200200F4E104C3746A03F11E000F03A
:104700006BFEF068C568281D00F020FEA068401E02
:10471000A0606068401E606000F06AFE2846FFF7F7
:10472000BCFF60680028EAD138680128F9D900F098
:104730008FFEF6E728060020F0010020FFB581B0CB
:104740000C9C9000236B001F1818C6080A9DF600E9
:10475000700701D072B6FEE72246203200290DD044
:10476000002027180B5C20373B750B5C002B02D018
:10477000401C0A28F5D30020507701E00020107576
:10478000052D00D30425E56200276764201D2564FC
:1047900000F0FAFD2046183000F0F6FD24610520F7
:1047A000401B6462A061A7644C2007553046049A00
:1047B000019900F0F1F820600B98002800D0046007
:1047C00005B0F0BD30B5114900E011460A688242DB
:1047D000FBD34B685C18844203D1406818184860CA
:1047E000084643681C18944209D1084C103C2468C0
:1047F000A24209D052689A1842600A6812680260A0
:10480000814200D0086030BD0460F9E768020020F2
:1048100010B5044600F0E0FDA06B002804D0002491
:1048200000F0E6FD204610BD0124F9E70648416B83
:104830000968002905D0416BC968C9684968816267
:1048400070470021C943FAE7F001002003480068DF
:10485000401C72B600D0FEE7FEE7000070020020A8
:10486000F8B5044600F0B8FD254640350526AE579C
:10487000274624370BE0606A00280AD0384601F04A
:10488000FFFA002801D000F00FFE761E76B2002E4F
:10489000F1DC0027FF436F7100F0AAFD00F09CFDE2
:1048A0000426AE572046103000900BE02069002807
:1048B0000AD0009801F0E4FA002801D000F0F4FDDD
:1048C000761E76B2002EF1DC2F7100F091FDF8BD5E
:1048D000F8B50546002700F05DFE284E3068002838
:1048E00001D1FFF7E3FEF06805423FD1002D3DD036
:1048F0000835680708D06807400F0821081A4519CD
:10490000680701D072B6FEE7002D2FD0706885428F
:104910002CD81A48103001460C6801E020460C469D
:104920006168A94202D221680029F7D131688C421E
:104930001CD007682168016060680837411B102996
:1049400008D96019420701D072B6FEE74160656080
:10495000FFF738FF61687068401A7060B268904273
:1049600000D2B060F0680143002003C401F0BAFA3D
:10497000780701D072B6FEE73846F8BD580200202D
:1049800004490868002803D00868426C521C42643D
:1049900008687047F001002010B50124031F2406A9
:1049A0001C601B1F1960191F024B0B601439403823
:1049B0000A6010BD4D4800084018FF2800D9FF20AC
:1049C00040B27047401A00D50020C0B270470000C6
:1049D0000549064A08885043054A80180880010A9C
:1049E000491C4140C8B27047EC0100200508000096
:1049F0001936000070B5040013D0FF2001302146A5
:104A0000FBF7A4FB60430546FFF7E2FF2146FBF7F7
:104A10009DFB08468542F7D92146FBF797FB0846E0
:104A200070BD002070BD10B50446081BC0B2FFF772
:104A3000E1FF0019C0B210BDF8B54D480024C460B4
:104A400044610125856181690029FCD14A49494AAF
:104A50000A604A4903220A620C224A624849CA682B
:104A6000484B1205484E9A4203D1C9680904090F00
:104A70002BD145494039CC6332699207FCD5434A72
:104A800002235B1C9342FCD3CD633369DB07FCD06C
:104A900002235B1C9342FCD33B4B4327803BDF63E9
:104AA0005B150B6010234B6016234B61CD60FF2319
:104AB00056330B610323F36002235B1C9342FCD348
:104AC000F460314A803AD463CC6031490D60C460EF
:104AD00002214161856181690029FCD1446205623E
:104AE0000921C161456224482A490160264880386D
:104AF000816A4908490081622148C030006B1C4F1F
:104B00004037401C11D124484168244A914207D1C2
:104B100001884288D24392B2914201D100887060EC
:104B2000386A000701D5FEF753FA1448046244625C
:104B3000F8692843F861B86802210843B86018484A
:104B40000168184A11407268120211430160164947
:104B5000416016490A6A2A430A62016860221143C9
:104B60000160B868012149020843B860F8BD00003F
:104B70000010024080841E008C0200200070004063
:104B800000FAFF1F0000509B800002401027000029
:104B900000200240006CDC0200F7FF1F69E5B5A3AE
:104BA000006C0040FF00FCFF7FBB7820000001404C
:104BB00000B50D4A9388834207D9D3888B4204D924
:104BC0004343581880B2516F0AE0537A002B03D048
:104BD000FD2803D0FC2801D0002000BD0846916FBD
:104BE00000F004F800BD0000FC04002010B5C3086C
:104BF0004407640F9B0000205B1801210246A1407E
:104C00009C5C0C4000D0012494400443521CD2B25E
:104C1000E0B2042AF4D310BD0EB569460880012025
:104C200008716B4607CBFDF7BFF900F001F80EBD28
:104C300010B5234C2078C1070BD0214608220A3139
:104C4000812000F06DF8012810D120784008400044
:104C50000BE081070BD510221A49822000F060F882
:104C6000012803D12078FD2127E0207010BD4107E5
:104C70000AD513490322091D822000F051F80128AA
:104C8000F4D12078FB2118E001070AD50C49032252
:104C9000C91D822000F044F80128E7D12078F721CF
:104CA0000BE0C006E2D5064908221231822000F04E
:104CB00037F80128DAD12078EF210840D5E7000045
:104CC000C0010020780500207CB50F48007800283E
:104CD00019D0012069460D4D88700024A007800F6F
:104CE0006946ED30088000231A46286800F00FFD61
:104CF000641CE4B2082CF1D30548012200231146BC
:104D0000006800F0EDFE7CBDBC020020A001002088
:104D1000AC0100204843000A70474843000A70472E
:104D200070B5812802D0822802D00CE00E4C00E041
:104D30000E4C002C07D00E4B9D7C032D06D09B7C87
:104D4000022B06D008E00020C04370BD0120C04304
:104D500070BD2368002B01D0002070BD92B2FCF71B
:104D600083FC0120206070BD2C0200203002002056
:104D70005006002010B50220FBF708FD0120FDF7CA
:104D80007DF81948C26802218A43C26082688A435A
:104D9000826042688A43426002688A43026000225D
:104DA00006211248FBF72EFE1148026901150A433D
:104DB000026102698A43026182688A43826001213A
:104DC0000C48C9430161C16849084900C1600A49EA
:104DD00040140860BFF34F8FBFF36F8F0748C1695E
:104DE00082009143C16110BD00040140000C0048E5
:104DF000401002400010004080E100E0000001404F
:104E000010B518488168184A11438160174A062175
:104E10001748FBF7F7FD0220FBF7B8FC0021012043
:104E2000FDF738F80120FDF729F81248FBF7F0FCF0
:104E30001048022101600021017108214171012106
:104E40008171FBF7AFFC0C48F02142688A43426055
:104E50004168302211434160C169084A1143C16170
:104E600010BD0000401002400002080001000020B8
:104E7000000C0048AC020020000001400000A489A2
:104E80000146420601D5FF22111A8906890E0A073A
:104E9000120F430600D5521C0909084B4900591846
:104EA0000B78497851430909C91849B2000601D560
:104EB000484241B28031C8B2704700005B670008C9
:104EC000F8B50D48C1690D4A1143C161002511278C
:104ED0000B4C3F060CE0E06AAE008059411C06D046
:104EE0003946FFF7CCF8E06A8059FFF7BDF86D1C32
:104EF000A088A842EFDCF8BD00000140AA0AA08902
:104F0000FC04002010B5012801D8C0B210BDF72163
:104F100001224901884201D9FF2302E041090831F9
:104F2000CBB2D11849080C464C43844202D9491EE1
:104F3000CBB203E0FF2906D0491CCAB29342F0D29B
:104F4000521ED0B210BDFF2010BD0000F8B5254E96
:104F5000756825480068254A44000020244F2549EB
:104F6000944208D2081B4221FBF7F0F82918B942F5
:104F700037D2716024E01F4A1F4B52429C4207D92E
:104F8000A0184221FBF7E2F885422AD9291AF0E756
:104F90008C4208D2081B4221FBF7D8F82918B942E5
:104FA0001FD2716009E08C4207D9A0184221FBF79B
:104FB000CDF8854215D9291AF3E70B4901228A60F9
:104FC00009490C310A6892005218D4600A689200AC
:104FD000521855630A6892005218D0650868401C40
:104FE0000860F8BD80000240300D0020E0B50000F0
:104FF000FF03000080BB000020C10000FEB50C468E
:10500000070015461146204608D0FEF745F906462A
:1050100002462946204600F017F902E0FFF7C8FDD6
:105020000646684687710472C5711C482346417A5A
:10503000002903D0FD2C26D0FC2C24D08188C288E6
:10504000714309195143491900682A464900405AD9
:10505000694688805006400E009068468288F907AD
:10506000C90F0F48FDF784FF0E4800231A4601A917
:10507000006800F04CFB0C48012200231146006838
:1050800000F02EFDFEBD7143491949000919490080
:10509000FF39C0682A46F939D9E70000FC0400202E
:1050A000A8680008A0010020AC01002010B5C0468F
:1050B000C0460120FEF796FB10BD10B5C046C046A5
:1050C0000020FEF78FFB10BD10B5044600F0C6FDB2
:1050D000001B10BD10B500F0C1FD80B210BD10B5B1
:1050E00000F0BCFD10BD0000F7B5254981B0944625
:1050F00000238F780E7848683BE001999A008D581C
:105100000299964689584D4000212CE001248C409C
:1051100025421DD002780092520821D1019E72468C
:10512000B6582642009E02D00122164301E07608BE
:105130007600F207D20F143202700126D2070FD088
:10514000029F7246BF586740029CA750012707E0A4
:105150000478620804D0E20702D1E407E40F047087
:10516000491CC9B2401C074CE4888C42CED85B1C59
:10517000DBB26345C1D3024887700670FFBD0000F3
:10518000B4010020FC0400200EB569460880002010
:1051900008716B4607CBFCF707FFFFF749FD0EBD13
:1051A000FFB52749002082B04C68087048709446CB
:1051B000054601463CE0002334E001229A4026786F
:1051C000964677082BD0059A7708974220D8F207A1
:1051D000D20F2270D20701D0012120E0AF00039E40
:1051E0000197F659724600969643029AD75972462D
:1051F00017403E43009A124FB6467240BE78324383
:1052000000D00122BA70019F039A7646D65106E07B
:10521000F007C00FBA1A52001043207001205B1C27
:10522000DBB2641C074AD2889A42C6D86D1CEDB224
:105230006545C0D3024A1070517006B0F0BD000041
:10524000B4010020FC04002010B503460C481446AD
:1052500082889A4207D9C2888A4204D95A4351188F
:1052600089B2426F07E0427A002A07D0FD2B01D0B5
:10527000FC2B03D1826F204600F004F810BD000023
:10528000FC04002070B5CD084E070123760F1C46A4
:10529000B4400021AD00AD181A468A40024000D04B
:1052A00001226E5C52427240224072406A54491C94
:1052B000C9B20429F0D370BD02780A7000780B28B7
:1052C00002D0FF2008707047012048700249014851
:1052D00008607047A5A5A55A5002002010B50A4CD9
:1052E000207800280ED00948817C032908D172B6A5
:1052F000807C032803D1FCF725FFFBF7C1FF62B6D2
:105300000020207010BD0000740200205006002014
:1053100010B505480178002905D00021017072B64A
:10532000FCF75AFF62B610BD7502002000B59BB0B5
:105330006C2205496846FAF733FF034810380FC856
:10534000FDF774FF1BB000BD1001002043688268A8
:1053500001699A60836842685A604A68824201D152
:1053600082684A60002202610868401E086008687E
:1053700070470146083100224160D243C16082601B
:10538000016100210160704700210161704730B563
:105390000B685A1C02D00246083202E0026904E09F
:1053A0002246546825689D42FAD953684B6099603B
:1053B0008A60516008610168491C016030BD426823
:1053C0004A6093688B6093685960916008610168D6
:1053D000491C01607047000072B604480168491C0E
:1053E0000160BFF34F8FBFF36F8F704770020020D3
:1053F00005490868002804D0401E086000D162B644
:10540000704772B6FEE700007002002070B50028F9
:105410001AD004460D4D083C6068E968084201D185
:1054200072B6FEE72268002A01D072B6FEE7884312
:10543000606000F0AFF860686968401868602046F6
:10544000FFF7C0F900F04EFD70BD000058020020CB
:105450000120044900074860BFF34F8FBFF36F8FEF
:105460007047000000ED00E010B502000FD00948C1
:10547000006B002801D072B6FEE700F08BF8002127
:105480001046FFF737F800F02DFD002801D1FFF797
:10549000DFFF10BDF001002002490A6A0260C968FE
:1054A00041607047F001002001490120C861704748
:1054B000F001002010B50C46002809D00549096804
:1054C0001831FFF764FF01212046FFF713F810BDE4
:1054D00072B6FEE7F001002070B504002FD0626CB8
:1054E000002A0ED0206C884200D30146E06A884230
:1054F00025D0012A23D1124D2A68944203D172B6D5
:10550000FEE772B6FEE7E162A269002A02DB05222D
:10551000511AA16114220B4E5043616980198142D6
:105520000DD1201DFFF712FFE06A2969884200D9DA
:105530002861142148438019211DFFF740FF70BDE9
:10554000F0010020880500201CB50E4800240190C1
:10555000234640220CA100940D4800F099FA01283E
:1055600003D0401C0CD172B6FEE772B6002105488C
:10557000C9432C38816201214161C46000F03EF8CA
:105580001CBD00001C02002049444C4500000000E6
:10559000F54600080248016B491C01637047000092
:1055A000F001002010B51348016B002902D0012141
:1055B000C16110BD0021C16101690F4A02E00029EB
:1055C00015D0491E14234B43D358002BF7D0142376
:1055D0004B439A18536814465B6808345360A342DF
:1055E00001D15B685360DA680260016110BD72B678
:1055F000FEE70000F00100208805002010B50C48EF
:10560000016AFF22120411430162016A120211436E
:1056100001620848002101618161074A4261072255
:10562000026106480160FAF755FD002010BD000038
:1056300000ED00E000E000E07FBB00007002002011
:1056400010B502460021012000F00CF8041E07D01E
:105650000021816001600B460A46C16000F057F8E6
:10566000204610BD70B50E46050014D0002E14D093
:1056700070434830FFF72CF904000AD02146483126
:105680002046002E0BD0016006640121C56300F0A6
:1056900008F8204670BD72B6FEE70020E9E700601A
:1056A000F2E770B50D46040025D0FFF795FE216C9A
:1056B000E06B484321684118A1600021A163216883
:1056C0006160E06B216C401E484321684118E16035
:1056D0000021C94320464030017141713038002D0E
:1056E0000BD0FFF746FE20462430FFF742FEFFF7BF
:1056F0007FFE012070BD72B6FEE721690029F6D059
:1057000000F0BEFB0028F2D0FFF7A2FEEFE7FFB5E6
:10571000002683B01D46040003D00498002802D060
:1057200006E072B6FEE7206C002801D072B6FEE7F4
:105730000027022D04D1E06B012801D072B6FEE7EC
:10574000FFF74AFEA16BE06B814207D3022D05D023
:105750000598002817D0002E18D01BE02A462046B6
:105760000499FEF762FF616A002903D020462430C5
:1057700000F086FB002801D0FFF76AFEFFF738FE35
:10578000012007B0F0BDFFF733FE22E06846FFF7C7
:1057900083FE0126FFF72CFEFFF7FCFEFFF71CFE41
:1057A0002046403004214156491C00D10771052193
:1057B0004156491C00D14771FFF71AFE05A96846FA
:1057C00000F038F9002806D02046FFF749F800F02D
:1057D00089FB0020D5E7FFF7FFFDA06BE16B884256
:1057E00010D1FFF705FE204610300599FFF762FE45
:1057F0002046FFF735F800F075FB0028A0D1FFF731
:1058000027FE9DE7FFF7F4FD2046FFF729F800F09B
:1058100069FB95E7F7B5002582B0040004D0039832
:105820000026002802D006E072B6FEE7206C0028B1
:1058300001D072B6FEE7FFF7CFFDA76B002F15D0A2
:1058400020460399FEF7DEFE7F1EA763206900282D
:1058500007D02046103000F013FB002801D0FFF7DE
:10586000F7FDFFF7C5FD012005B0F0BD0498002845
:1058700002D0002D03D006E0FFF7BAFD27E068460E
:10588000FFF70AFE0125FFF7B3FDFFF783FEFFF7E1
:10589000A3FD2046403004214156491C00D1067129
:1058A00005214156491C00D14671FFF7A1FD04A90D
:1058B000684600F0BFF8002820460AD0FEF7D0FF67
:1058C00000F010FB2046FEF7A3FF0028B3D0002015
:1058D000CAE7FEF79DFF00280ED020462430049929
:1058E000FFF7E8FD2046FEF7BBFF00F0FBFA0028BB
:1058F000A1D1FFF7ADFD9EE72046FEF7B1FF00F016
:10590000F1FA98E7F3B5002683B0041E354605D0BA
:10591000206C0027002803D072B6FEE772B6FEE7BF
:10592000FFF75AFDA06B002817D0401EA063206827
:10593000002802D1FFF724F8A0602069002807D0D2
:105940002046103000F09CFA002801D0FFF780FDBF
:10595000FFF74EFD012005B0F0BD0498002802D0ED
:10596000002E07D00AE0002D01D072B6FEE7FFF747
:105970003FFD5CE06846FFF78FFD0126FFF738FD2D
:10598000FFF708FEFFF728FD20464030042141566E
:10599000491C00D1077105214156491C00D14771AE
:1059A000FFF726FD04A9684600F044F800282046C9
:1059B00014D0FEF755FF00F095FA2046FEF728FFB9
:1059C0000028ADD0002D32D0FFF706FD606A002818
:1059D00028D0206B05210068091A24E0FEF718FF83
:1059E000002819D02068002807D1FFF7F5FCA0682F
:1059F00000F00AFA0546FFF7FBFC20462430049924
:105A0000FFF758FD2046FEF72BFF00F06BFA002849
:105A100086D1FFF71DFD83E72046FEF721FF00F04A
:105A200061FA7DE70021A068FFF756FD9FE700209F
:105A300091E70000F8B50C46050012D0002C12D0FA
:105A4000FFF7CAFC114BDA686E682068911B471C8F
:105A50000BD02F681B6A9F420CD096420AD80124B3
:105A600004E072B6FEE772B6FEE70024FFF7C0FC62
:105A70002046F8BD884205D9401A20602846FFF725
:105A80000BFDF2E700202060E9E70000F0010020B4
:105A9000FFB585B0164690000F9FFEF719FF050071
:105AA0001AD05020FEF714FF040012D02563002105
:105AB0000E9803910197009002943246089B069934
:105AC0000598FEF73BFE2046FEF740FD012009B099
