:04000005080000C12E
:020000040800F2
:10000000500F0020050200080D0200080F02000832
:100010002D3491FF21E532000100000000000000B6
:100020000000000000000000000000008F11000828
:1000300000000000000000000B0100080112000891
:10004000890500087D07000817020008170200084C
:10005000170200081702000817020008170200081C
:10006000170200081702000817020008170200080C
:100070001702000829120008610E00081702000884
:10008000170200081702000817020008D11B000819
:100090001702000817020008551D00081702000883
:1000A000170200081506000800000000000000000C
:1000B0000000000000000000000000000000000040
:1000C0000348854600F0ACF800480047C13E0008F0
:1000D000500F0020084B19680868203080F3098809
:1000E000022080F31488BFF36F8F3FBCAE4608BC7C
:1000F00004BC62B618470000B8010020EFF310807E
:1001000072B6704780F310887047EFF309800E4B8A
:100110001A6820381060F0C044464D4656465F4687
:10012000F0C008B572B605F0F5FA62B60CBC1168FD
:1001300008681030F0C8A046A946B246BB4680F316
:1001400009882038F0C81847B801002030B50B46A0
:10015000014600202022012409E00D46D5409D42A1
:1001600005D31D469540491B254695404019154627
:10017000521E002DF1DC30BD70B50024254600284C
:1001800001DA01244042002901DA01254942FFF742
:10019000DDFFAC4200D04042002C00D0494270BD8F
:1001A00003460B439B0703D009E008C9121F08C090
:1001B000042AFAD203E00B780370401C491C521E3B
:1001C000F9D27047D2B201E00270401C491EFBD246
:1001D00070470022F6E710B513460A460446194652
:1001E000FFF7F0FF204610BD30B50446002003465F
:1001F00000E05B1C934203D2E05CCD5C401BF8D076
:1002000030BD00000448804704480047FEE7FEE791
:10021000FEE7FEE7FEE7FEE725120008C100000842
:10022000064C0125064E05E0E36807CC2B430C3C49
:1002300098471034B442F7D3FFF746FF686B0008C5
:10024000886B00080EB5C217C10F5040CA0740188E
:100250000021054B0293019200910A460B4600F0E3
:1002600026F803B000BD00003304000010B50029DB
:1002700004DB0124E40740428C412146002B04DBCF
:100280001C460123DB075242A341994200D1904210
:1002900010BD000010B5002B08DA0024401C61419D
:1002A00092185B411A4301D14008400010BDF0B5DF
:1002B0001FB482B005460C0003D0084601F0ACFD27
:1002C00002E001F0A9FD20300246009021462846B8
:1002D00000F03FF8049B059A04460F46184311436B
:1002E000084314D0184610431BD0009840210A1A26
:1002F0001846059900F03DF805460E46009A059906
:10030000049800F026F8084305D0012004E02046B8
:10031000394607B0F0BD0020C11705430E432C43FA
:10032000374300990E986305401A7905E40A0022C4
:100330000C43FD0A0A3002D500200146E9E7010519
:10034000101969410C9C0D9D00196941FFF7A2FF2E
:10035000DFE710B5202A04DB0146203A9140002057
:1003600010BD914020239C1A0346E340194390405E
:1003700010BD10B5202A04DB0846203AD0400021E9
:1003800010BD0B46D340D0402024A21A9140084310
:10039000194610BD70B58C180578401C6B075B0FB3
:1003A00001D10378401C2A1106D10278401C03E0D9
:1003B00006780E70401C491C5B1EF9D12B0705D432
:1003C0000023521E0DD40B70491CFAE70378401C21
:1003D000CB1A921C03E01D780D70491C5B1C521E49
:1003E000F9D5A142D8D3002070BD00000026324DBF
:1003F00086B0F643012302AA3146002005F04AFDEB
:1004000001280AD10298C00707D02C4F002203A967
:10041000386805F0B7FA012802D004F0BFFCE9E71C
:100420006946C87B4006400E4870087C8870887B0F
:10043000C407E40F0C70888902F0D6FE69468880F4
:10044000019A009904F08BF8002804D0019A0099D1
:10045000104601F0F5FD002CD8D0194CA07C0328E3
:10046000D4D13146286805F005FBA07C03281BD1B8
:10047000607C002818D072B601F08AFE114C6078BA
:1004800004210843607010487D21C9000068FFF70F
:100490005DFE0A21484300F097FE6078FB2108408A
:1004A000607000F0EFFE62B600231A461946286815
:1004B00005F0E5F9AAE700006C01002068010020C2
:1004C00040060020008000205402002010B50249A0
:1004D00002F0EEF810BD00003D05000810B502491D
:1004E00002F072F810BD0000ED04000870B504467B
:1004F0001D46104601F059FD41004018611B081AC5
:10050000C0B2214604F0BFFC70BD000010B5024926
:1005100002F08EF810BD00001D05000870B50446FD
:100520001D461046049E01F040FD6119891B081A02
:10053000C0B2214604F0A7FC70BD0000F8B5114E12
:1005400007464D00306D1446405DE42104F09BFCED
:10055000001B1C300028306D405D05DDE42104F0F7
:1005600092FC001B1C3004E0E42104F08CFC201AF7
:100570001C38C000381A00D50020C0B2394604F03B
:1005800082FCF8BDEC04002010B5064841694161C9
:100590000548006801F098FF0448006801F082FFF8
:1005A00010BD00000004014054010020A4010020FF
:1005B000F1B51748154E477880780024C1081448D3
:1005C000357F0C38008A80B204F05AFCC0B204F0C7
:1005D0000FFD803840B201F0E3FC4006000E3946C2
:1005E00004F051FC07460BE0706D0099005D4978FE
:1005F000084203D03946204603F016F9641CE4B2E1
:10060000AC42F1D3284602F067FFF8BDEC040020AD
:100610005401002070B5204900208A681F4C530700
:100620000246002B02DA0423CB6062608B689B07D2
:1006300002D50223CB6062608B68DB0726D00125E0
:10064000CD6063685B1C6360154B1B6B5B1C1DD12D
:100650006368032B1AD36260096889038A0D114904
:100660004B68114EB34212D10B884E88F643B6B296
:10067000B34201D10888101AFFF7E4FD4900490888
:1006800000220A4BFFF7F2FD00D2256070BD08483A
:10069000C0688005800DEEE7006C00407C02002001
:1006A000C0FAFF1F00F7FF1F69E5B5A30000244053
:1006B00000F8FF1F10B5024901F0FAFF10BD00005D
:1006C000C50600080B46014610B504485B00006DE6
:1006D000C05C801AC0B204F0D6FB10BDEC04002050
:1006E00010B5024901F0A4FF10BD0000F10600089A
:1006F00010B501465A009A18029852081018C0B254
:1007000004F0C1FB10BD000010B5024901F0D0FF9C
:1007100010BD0000190700080B46014610B505483A
:10072000046D5800401C205C801AC0B204F0ABFB82
:1007300010BD0000EC04002010B5024902F084F85E
:1007400010BD00004907000870B50C460A490D6D40
:1007500059004B1CEB5C695C203B7039534361438F
:100760005918CA17520E511849040A0E014610466C
:1007700004F089FB70BD0000EC04002010B50448B3
:100780004169890703D50221416102F0AFFC10BD28
:100790000004014001494861704700000004014025
:1007A00001494861704700000004014010B5837999
:1007B00018490268002B26D00B6893430B604A68E7
:1007C00003689A434A600279521813680468234305
:1007D00013608A6803689A438A60CA6803689A4308
:1007E000CA604279102A05D051180A68006802438D
:1007F0000A6010BD8A6803681A438A60CA68006884
:100800000243CA6010BD007940180168914301603D
:1008100010BD0000000401400021016001710C22A4
:10082000427181717047000070B5EFF3108272B6AB
:10083000002317490C68E5061024002D03DA0D6823
:100840000123A5430D604D69062635434D61022500
:100850008D60C86088680426304388604869C00796
:10086000FCD1886880088000886048692843486116
:10087000002B02D0086820430860002A00D162B62D
:100880004869400701D5012070BD002070BD0000FF
:100890000020024010B504461F20C0060121201888
:1008A000C90388421BD200F0A5F80E494869062208
:1008B0001043486102208860CC608A6804231A4390
:1008C0008A604A69D207FCD18A68920892008A60DD
:1008D0004A6902434A6100F007F8012010BD002078
:1008E00010BD000000200240024881680822114328
:1008F0008160704700200240F0B5EFF3108372B6BC
:100900000024184A1568EE061025002E03DA166832
:100910000124AE431660566906273E435661012600
:100920009660D0601161906804210843906050691E
:10093000C007FCD190688008800090605069022157
:1009400008435061002C02D0106828431060002B2F
:1009500000D162B65069400701D50120F0BD0020EA
:10096000F0BD00000020024038B583079B0F1F2513
:10097000C21AED0601244019E503A84208D2106806
:1009800000906846C1541046009900F003F80446F0
:10099000204638BD70B504461F200D460126C0060E
:1009A0002018F10388421BD200F024F80D4A506948
:1009B00006210843506101209060D4601561906861
:1009C0000421084390605069C007FCD190688008FA
:1009D000800090605069022108435061FFF784FF56
:1009E000304670BD00200240007870470088704794
:1009F00000687047034802494160034941607047FD
:100A00002301674500200240AB89EFCDF0B50023FC
:100A10001D469C461C460126A6400E4211D067008A
:100A20000326BE403343082C04D2A7000F26BE4045
:100A3000354306E0A7000F26203FBE4067463E43F1
:100A4000B446641C102CE6D38468D602F6178C4397
:100A50000E40344384604468D601F6178C430E4040
:100A600034434460016894000F4EA40F74439943CB
:100A70001C4021430160C1689403A40F744399434F
:100A80001C402143C1601107084A090F5143026A03
:100A90000B46AA432B401A430262426A63469A43BA
:100AA00019400A434262F0BD5555555511111111B7
:100AB00070B5064615460C46000701D501F048F80A
:100AC000B00701D500F0DEFB700704D51649002001
:100AD000087000F0C5FBE00701D000F0F1FBA007B3
:100AE00001D500F0DDFE600701D500F0E1FE200732
:100AF00001D500F0E5FEE00601D500F0F5FEA807FF
:100B000001D500F0D3FE680701D500F0D7FE280715
:100B100001D500F0DBFEE80601D500F0E6FEF007A7
:100B200001D000F0BBFB70BD8802002002490148E3
:100B300008607047CCCC000000300040034A0146FA
:100B4000D26800200A4200D00120704700300040E7
:100B50000348C168890701D4024901607047000059
:100B600000300040AAAA0000014948607047000018
:100B700000300040014988607047000000300040AC
:100B8000014908607047000000300040F8B5144883
:100B9000144E057F0027B078102103F0C3FF3446C0
:100BA000C1B20C3C208A80B204F06AF95021FFF7F0
:100BB000CDFA00290FD12946384603F0EAFF217902
:100BC00000224B1C2371022902D10021217172786D
:100BD000114602F029FE284602F07EFCF8BD000016
:100BE000EC0400205401002000B5A838030001F0F7
:100BF0002AF91C0F111315171D21231F26292C2F2D
:100C00003134373A3D44191B40424F4F474A4D4F0C
:100C1000E22000BDE92000BDEA2000BDB52000BDF6
:100C2000B62000BDB32000BDB42000BDB72000BD7C
:100C3000CC2000BDCD2000BDFF20843000BDFF20B2
:100C40008B3000BDFF20933000BDFF20953000BDEC
:100C5000104800BD0F48801C00BD8920800000BDE9
:100C60000C48001D00BD0B48401D00BD0948801DFB
:100C700000BD6F2000BD702000BD0648093000BDDA
:100C800004487E3000BD1520400100BDCF2000BDCE
:100C9000002000BD21020000F8B54E4881684E4A90
:100CA0001143816004F0C4F9002701264B4C6CE02D
:100CB000A06ABD004059411C66D003F0B1FA03F0B0
:100CC000A3FA216F00284851A06A40590BD00107B0
:100CD000090F32468A4091B2000982020920C006FB
:100CE00010183F4A0BE00207120F314691400009ED
:100CF00082020920C0061018012289B25204FFF7AF
:100D000085FEA06A405901098A020921C9065118C5
:100D10000A6B03071B0F3046984082430A63216F1A
:100D200026204959090A09024860216F02204959C1
:100D3000090A09020861216FFF204959814348616E
:100D4000216F00204959090A09028861216F495918
:100D5000090A09020866216F4959090A0902486609
:100D6000216F4959090A09028866216F4959090A00
:100D70000902C866216F4959090A09020867216FEB
:100D80004959090A090248677F1CE088B8428FDC8C
:100D9000262001218907486002200861FF20486160
:100DA000002088610F4A106250629062D062106326
:100DB00050634868304348600B490868FF221204BA
:100DC00090430122D2051043086008485112016087
:100DD000F8BD00004010024000E20300EC040020D7
:100DE00001000220400000400CE400E000E100E0CF
:100DF0000120800701684022114301607047000014
:100E000010B5054900200C7F214602F031FF204635
:100E100002F062FB10BD0000EC04002001F06AFF4C
:100E200001F0F0FA04F03AFB02F08EFC03F0D0F887
:100E3000FFF7DEFF01F06CFE01F060FDFFF788FEBA
:100E400001F022FE03F04CF902F088FD01F04EFEA5
:100E500004F016FB04F0FAFA01F084FDEEE700005E
:100E6000F8B50126B607306800064ED530688021F7
:100E7000884330605D4CA0685D4F5E4D002845D0D2
:100E80000020A060E86A216889004158491C04D00C
:100E900021688900405803F09DF9564881882068F0
:100EA000401CFFF753F92160534800250562456255
:100EB0008562C56205634563504805624562856287
:100EC000C562056345633D627D62BD62FD623D634F
:100ED0007D634B48056245628562C562494805628B
:100EE0004562856243486168406A89004158491CEF
:100EF00004D061688900405803F06CF909207061E2
:100F0000B5613068402108433060F8BD6068C1B207
:100F1000A86D03F08BF8686A616889004158491C24
:100F200004D061688900405803F03CF9A9886068E2
:100F3000401CFFF70BF96160FF2070610020B06179
:100F400010E0AB6A82009B5894465B1C08D0EB6EA5
:100F50002268514359182A6F6346D258415C116088
:100F6000401CC0B2E9888142EBD82349C220086204
:100F700048628862C8620863486338627862B8620F
:100F8000F862386378631D49086248628862C86203
:100F9000086348631A49086248628862C86219494E
:100FA000086248628862E86A216889004158491CE1
:100FB00004D021688900405803F0F4F80C49403906
:100FC0000A68402002430A600C4940390A6802431B
:100FD0000A600B4940390A6802430A6009494039EE
:100FE0000A6802430A600120A0608AE7A801002085
:100FF00040040040EC040020400000404014004049
:1010000040200040402C004070B509480024057F76
:101010000848467805E03146204602F005FC641C8D
:10102000E4B2AC42F7D3284602F056FA70BD000095
:10103000EC0400205401002010B50146024A0020B3
:1010400001F0A6FB10BD00007311000810B50249A5
:1010500001F05AFB10BD00005911000810B50446FC
:1010600004480121007803F063FD034A214601F0A2
:101070008FFB10BDC00400207D10000810B5029C3D
:10108000E3189BB2002900DA494209B2002A00DACB
:101090005242090114B2FF2900DDFF210AB22101E9
:1010A000FF2900DDFF2109B28A4200DC1146C91880
:1010B00089B2FF2900D9FF21FF22511AC9B203F0DA
:1010C00031FDC0B210BD000010B504460448012136
:1010D000007803F02DFD034A214601F059FB10BDB5
:1010E000C0040020E910000810B5029CE41AA4B264
:1010F000FF2C00D9FF24482B00D9FF2408311129E7
:1011000003D30832112A00D3FF24FF21091BC9B2DF
:1011100003F008FDC0B210BD10B50446044801211B
:10112000007803F005FD034A214601F031FB10BDB4
:10113000C00400203911000810B59A0002999A18CD
:10114000511889B2FF2900D9FF21FF22511AC9B2D3
:1011500003F0E8FCC0B210BD10B50446FF20401AF1
:10116000C2B2C8B2114603F08EFE214603F08BFED8
:1011700010BD10B50299C91A89B2FF2900D9FF2103
:10118000FF22511AC9B203F0CDFCC0B210BD7047A6
:101190000A4910B5401E884201D9012010BD0849F6
:1011A000486108480722C3691B021B0A4C042343F9
:1011B000C361002088610A6110BD0000FFFFFF00CD
:1011C00000E000E004ED00E0F8B50C4CA7696669AA
:1011D000216960618DB20020A06105202061FFF7C8
:1011E000B7FC2069C10701D0C003F8D520694008C9
:1011F000400020616661A7612561F8BD00E000E064
:1012000010B5FEF77BFF044604F0E6FD002803D08E
:1012100001200349000748602046FEF773FF10BD18
:1012200000ED00E07047000008480169C9070BD0D5
:101230000121C943016106494878421C4A70B72818
:1012400002D9044901208860704700000010004066
:1012500060020020200D002010B500F0EFFA10BD54
:1012600010B506480121C1710021417214210448C2
:10127000FEF7AFFF00F048FC10BD0000008000202A
:101280004006002010B5044CA07C032803D100F0D8
:1012900059FCE07CA07410BD4006002010B5054844
:1012A000817C032905D0817CC1740321817400F005
:1012B00089FC10BD4006002010B500F0E5FA10BD15
:1012C000F8B5584E0025B573777C574C780701D593
:1012D00075742570F80602D580207074257020780A
:1012E00000282BD1F80729D008225049002000F00F
:1012F0008FF94E488560C1888181C581007840069C
:10130000800F03D100F0F6F8002801D100F004FBB3
:10131000B5734021012807D0022808D003280AD03D
:1013200060207074032004E07174012001E0717486
:101330000220207002E04820707425703A4800783E
:10134000012835D1B80733D4707CC107C90F494291
:101350000140C8062CD4354C0227A18934480278B4
:1013600091420DD2A289A168802000F08FF9E08916
:10137000A1894018E081A5812B480A2705700EE05D
:10138000A168802000F082F9A16829480078091836
:10139000A160A189091AA181E1890818E081E08989
:1013A000E188884203D1082007431F4805707774FD
:1013B0001D480078022834D1707CC00731D01B4C06
:1013C0004027A1891A48027891420AD2A289A168CD
:1013D000002000F01DF9E089A1894018E081A58175
:1013E0000EE0A168002000F013F9A1681048007811
:1013F0000918A160A189091AA181E1890818E08171
:10140000A08900280CD1482700F070FA032804D0E6
:10141000682705490320087001E003480570B5738B
:101420007774F8BD0080002088020020400600206C
:10143000DF69000810B506484078092806D1012068
:1014400000F01CFB002801D0032010BD002010BDBF
:101450004006002038B5264C20784006800F012831
:1014600004D020784006800F2CD03FE06078030045
:1014700000F0E9FC0C3C070A123C3C3C3C3C181FC9
:10148000223C00F0C5FA04E0E08801282ED100F0EB
:10149000ABFA002828D129E0E088012826D100F005
:1014A000ADFAF6E7002000F0E9FA00281ED002208D
:1014B00038BD00F0CFFA01E000F0D6FA002815D0D0
:1014C000032038BD6078062810D1E17820796A467B
:1014D00000F048FAA060A068002807D0A1896846FB
:1014E0000088814200D9A081012038BD002038BD8C
:1014F0004006002010B52948417800220B0000F07A
:10150000A2FC0A060C480E48142748304548C088FB
:1015100002283ED100F0FCF81FE0002000E001208E
:1015200000F020F9002811D133E00178002930D1F2
:101530008178837C4906490E022B2AD0184B1970FA
:101540000123002901D0837400E08274032010BDC0
:10155000007880281DD100F0B5F8002819D00120AE
:1015600010BD0178802914D1C188012911D1817C55
:10157000002904D0012902D002290AD102E0094938
:101580000A8001E0054910318160E8E70078002811
:1015900001D0002010BD00F00DF9C3E74006002087
:1015A000008000201C0200200207120F05D0054910
:1015B0008A73000602D54020487470478020087561
:1015C00070470000008000200207120F08D00006BC
:1015D00006D404498A73C87D897D00020843704798
:1015E00000207047008000200207120F0CD007492E
:1015F0008A73000602D5487CC00601E0087D80069B
:10160000002801DA01207047002070470080002088
:101610000007064B800EC01804E00378521E0B70C2
:1016200092B2491C002AF8D17047000020800020A7
:101630000107090F07D0000605D403488173017D17
:101640004908490001757047008000200207120F09
:1016500005D005498A73000602D5102048747047EA
:1016600020200875704700000080002010B5044657
:1016700000F00CF82007000F05D0210603D5024921
:1016800088730120487410BD008000200007064BBD
:10169000800EC01804E00B780370521E92B2491CF1
:1016A000002AF8D1704700002080002010B51421D6
:1016B0000248FEF78EFD00F0FDF910BD4006002047
:1016C0007047000038B5114CE078012805D0022899
:1016D00007D003280AD0002038BD684600F03CF946
:1016E00008E0A078694600F02DF903E0A07869468B
:1016F00000F06CF9A060A0680028EDD0A1896846D0
:101700000088814200D9A081012038BD4006002018
:1017100038B5124C00202080114D2878C006C00E2C
:1017200005D0012817D0022811D0002038BD287C10
:10173000694600F007F9C079400601D501202080F4
:10174000687C002807D020880221084302E028791D
:10175000FFF74AFF2080AC60012038BD1C0200204A
:101760004006002010B512490A78D206D20E02D0E7
:10177000022A1BD107E04A88012A17D1002800D08D
:101780000120487410E04A88002A0FD10C79210703
:101790000CD00028204602D0FFF758FF04E0FFF7E6
:1017A00003FF2046FFF78CFF012010BD002010BD75
:1017B0004006002070B5164CA578A07C012802D008
:1017C000022823D10AE0002D16D0284600F0C2F9E5
:1017D00000281BD025740220A0740DE0002D0DD030
:1017E000207CA84208D0207C00F014F8284600F0A5
:1017F000B1F900280AD02574012070BD00202074A2
:101800000120A074002000F005F8F5E7002070BD6D
:10181000400600200848C179FD221140C171C179FC
:10182000FB221140C171C279F7210A40C271427A8C
:101830000A404272704700000080002010B50D4839
:1018400081684215114381600C4C0B4A06212046E9
:10185000FFF7DCF8206B0621884320630848C16944
:10186000084A1143C1610121401041700721C17232
:1018700010BD00004010024001000020000C004894
:10188000000001400000A4890349C8698A00904310
:10189000024A1043C8617047000001400000A0895F
:1018A0000149002008607047F401002070470000E3
:1018B0000149002008607047F801002070470000CF
:1018C0000149002008607047FC0100200448032102
:1018D0008173007DC00702D0024901200860704773
:1018E00000800020000200207047704710B50949B1
:1018F00000200A785206520E212A0AD10A79002ABB
:1019000005D00A79012A02D00979022901D1FFF70D
:1019100091FD10BD4006002010B5094900200A784D
:10192000D206D20E012A0AD10A79002A05D00A79F4
:10193000012A02D00979022901D1FFF78BFD10BDE0
:1019400040060020002801D0002070475B2008805E
:1019500000487047B66A00081221018000487047AD
:101960005C6800080923002804D001280FD0022851
:101970001BD01EE0212902D022291AD102E01380B7
:1019800011487047412010800F48E83870472129DE
:1019900002D022290DD103E00B4813801930704783
:1019A000732010800848A7387047212903D02229C6
:1019B00005D0002070470448138032307047222041
:1019C0001080014834387047C86A0008032806D2DE
:1019D0008200044883581B780B8080587047002091
:1019E000704700004002002003490248886001203F
:1019F000704700000502002040060020034902480D
:101A00008860012070470000060200204006002088
:101A10000E480179012905D1C178012902D1C18877
:101A2000082903D00179002902D007E0084909E01C
:101A3000C178012902D1C188082901D0002070474E
:101A400003490831816001207047000040060020F2
:101A5000070200200248C078024948700120704700
:101A60004006002004020020024880780249887065
:101A700001207047400600200402002010B50B49E9
:101A80000A79002A05D1CA78022A02D1CA88012A15
:101A900001D0002010BD064A002804D0107801F0C3
:101AA000A1FF012010BD8A60FBE700004006002076
:101AB0000402002010488268012109050A4382605F
:101AC00002690A43026102698A4302610A490120EC
:101AD00040390863C86209490020C872C871487259
:101AE00007490868FF221204904308600120054955
:101AF0008005086070470000401002400080002010
:101B000014E400E000E100E010B50949012048704C
:101B1000C8710020487207490860074908600749F2
:101B200008600749086002F0A3FA02F0C5FB10BD87
:101B300000800020F4010020F8010020FC010020BA
:101B40000002002001490120087070473C0200207B
:101B50007047000030B5012801D0002030BD184882
:101B6000012181730022827408210174402343748F
:101B700041744174C57902242543C571847382740C
:101B80000174437441744174C47904252C43C471B5
:101B90000324847382740174437441744174C3795F
:101BA0000B43C37184734275C17480220275102285
:101BB00002750275427A0A434272012030BD00006C
:101BC0000080002001490120487070473C0200203D
:101BD000F8B501200005FEF7E3FD114C114D20780A
:101BE0000126114F002802D0012804D00CE06869BA
:101BF00000070CD52670686940070FD502202070B9
:101C0000132000F02DF93E702078002806D1686975
:101C1000C00703D0132000F023F93E70F8BD000088
:101C200087020020800002403C02002008B5FFF738
:101C300043FBFF20F53003F0CFFCFFF737FDFFF744
:101C40000BFB394C394D01270026F643314633460C
:101C50006A46002004F01EF90098C007F4D031460F
:101C6000334E306803F006FF60680002020E6068C1
:101C70000004010E6068C0B2FEF71AFF01202D4972
:101C8000800508602C48016800291CD072B62A48DB
:101C90000068002816D00320FFF796FC02460020BB
:101CA000208021490320FFF7B3FC62B61E490020C3
:101CB0004880891C881E03F0B7FB72B6286800288C
:101CC00005D00BE062B6286800280ED024E0164943
:101CD0000222891C8320FFF7C9FC2F6016490020CF
:101CE00008600320FFF7A4FCECE7144800681449DF
:101CF000884211D1642000F069FB13491148486201
:101D00000E4900200860BFF34F8F11490F48C8608B
:101D1000BFF34F8F00BFFDE700231A461946306816
:101D200003F0ADFD90E7000058020020FC01002008
:101D30006C01002000E100E00002002018020020F9
:101D4000A5A5A55AEB9C374A401002400400FA05AD
:101D500000ED00E01CB512480179827809041202F6
:101D60008079114301430F48416001200E498005ED
:101D70000860BFF34F8FBFF36F8F0020019001A861
:101D800000900A48012200231146006803F0B8FFC2
:101D90000198002803D001200549000748601CBDB8
:101DA000008000205802002080E100E0780100203F
:101DB00000ED00E010B5024900F07AFC10BD000013
:101DC000C51D000810B5044605484900006D405C7B
:101DD000801AC0B203F00CF9214603F054F810BD8C
:101DE000EC04002010B5024900F062FC10BD0000B8
:101DF000F51D000810B504460648036D4800401C58
:101E0000185C801AC0B203F0F3F8214603F03BF8E7
:101E100010BD0000EC0400202021020C01D0102194
:101E20001046020A01D010460839020901D01046B6
:101E3000091F820801D01046891E420801D0881E61
:101E40007047081A704730B47446641E2578641CC5
:101E5000AB4200D21D46635D5B00E31830BC1847FF
:101E6000002809DBC106C90E01208840034908602B
:101E7000BFF34F8FBFF36F8F7047000080E100E02A
:101E8000002805DBC106C90E012088400149086011
:101E90007047000000E100E08307FF22DB0E9A405C
:101EA0008907090E9940002808DB830809489B0030
:101EB0001B18186890430843186070470007000F0C
:101EC0000838830804489B001B18D86990430843CE
:101ED000D861704700E400E000ED00E002E008C8CF
:101EE000121F08C1002AFAD170477047002001E094
:101EF00001C1121F002AFBD170470000F0B500237A
:101F00001D469C461C460126A6400E4211D0670085
:101F10000326BE403343082C04D2A7000F26BE4040
:101F2000354306E0A7000F26203FBE4067463E43EC
:101F3000B446641C102CE6D38468D602F6178C4392
:101F40000E40344384604468D601F6178C430E403B
:101F500034434460016894000F4EA40F74439943C6
:101F60001C4021430160C1689403A40F744399434A
:101F70001C402143C1601107084A090F5143026AFE
:101F80000B46AA432B401A430262426A63469A43B5
:101F900019400A434262F0BD5555555511111111B2
:101FA000002801DA404240B2704710B504000DD05D
:101FB000002C00DC604200B200290DDB0A18081A70
:101FC00040011146FEF7D8F820210CE0002901DB82
:101FD000002010BD802010BD421A08184001114693
:101FE000FEF7CAF86021081A40B2002C00DA40421D
:101FF000C0B210BD00B54030C0B202F0F9FF00BD64
:10200000003031000000000000000000000000006F
:102010002D3421E56D6B3235303430000000000086
:10202000000000000000000000004E554F424944EF
:10203000410000000000000000000000000000005F
:1020400037B569460C880D79201FA02808D8294685
:10205000009802F0A3F92A4621461CA000F0CAFF0E
:102060002046E038072808D82946009802F02AFAC6
:102070002A46214621A000F0BDFF2046A5380228AF
:1020800008D82946009802F0C9FA2A46214627A016
:1020900000F0B0FF2046A8381B2808D82946009831
:1020A00002F05EF92A4621462CA000F0A3FF20464C
:1020B000ED38122808D82946009802F01FFA2A465F
:1020C000214626A000F096FF3EBD00005B70726FB7
:1020D000636573735F6B65795D206B6579636F64AE
:1020E00065203D20307825583A20707265737365FD
:1020F00064203D2025640D0A000000005B70726FB3
:10210000636573735F6D6F645D206B6579636F6486
:1021100065203D20307825583A20707265737365CC
:1021200064203D2025640D0A000000005B70726F82
:10213000636573735F73797374656D5D206B657927
:10214000636F6465203D20307825583A20707265B1
:1021500073736564203D2025640D0A005B70726F07
:10216000636573735F637573746F6D65725D206B08
:102170006579636F6465203D20307825583A20707A
:10218000726573736564203D2025640D0A000000AC
:1021900070B51320FFF764FE1B4A032010620C2069
:1021A00050621A4900238B610C68012004430C60C3
:1021B000164C403CE0630C69A407A40F012CFAD133
:1021C00013498C6801252D052C438C60104940393A
:1021D0000863136253620F4A1060CB6002224A61A7
:1021E00088618A69002AFCD14B6208620922CA61AF
:1021F00048620A49084808600948FEF7C9FF03F029
:1022000014F802F059F870BD0070004080000240E0
:102210004010024000200240006CDC02540200200A
:1022200080BB0000FEB502F0F9FF224C03202062C3
:102230000C2060622048816A0127394381620020B6
:10224000FF21F531401C8842FCD3002525626562E0
:102250001A4EF5607561B7611A49194808607D200A
:102260000001FEF795FF032020620C2060623563B9
:1022700012484030816801263605B14381600E4A1C
:102280000D2180329161256265628168741021435D
:102290008160684600960571082141718771FEF7DB
:1022A00085FA094805703046FEF77AFA0748046057
:1022B000FEBD00000070004000000240001002401F
:1022C00080841E00540200208702002000E100E00C
:1022D00070B506460D480D464468002C15D00C48D4
:1022E000017C407CFDF732FF0849497848430849A2
:1022F0002039C98871434919CA0812194C07835CEF
:10230000640F0121A1404B40835470BD6001002047
:102310000C050020FFB5164C81B00025A570207873
:102320001E461746002812D002F08CFF2189012595
:10233000411A89B2A060FF2901D9FF2101E00029DB
:1023400005D0CBB23A460299019802F0E1FF6078DD
:10235000064309D0002D02D102F074FFA0603A4676
:102360000299019802F078FFA07805B0F0BD000056
:102370007C010020F8B50E4C0546E088684301F06A
:10238000F1FD0C490023486019460EE0002207E0E9
:10239000C6183778521CFF07FF0F3770D2B25B1C8C
:1023A000E6889642F4D8491CC9B2A942EED3F8BDDA
:1023B000EC0400207C0100207047000001218140D6
:1023C00001480170704700005E01002070B50546AD
:1023D00003F0FCFC044601E0FEF7BAFB204602F0E5
:1023E0002BFFA842F8D370BD014900200870704748
:1023F000B4000020014841690148084740690008CD
:10240000007C000810B51948032101620C224262C9
:10241000174882680123DB041A4382601548426929
:102420000E239A4342614161134801684022090A20
:10243000090211430160114901200860104900049C
:102440008860C860086000F07FF80E48006800F0FF
:102450003BF80D48006800F025F800F03FF804460E
:10246000FFF7C8FF204600F055F810BD007000408F
:10247000401002400000024000E400E000E100E003
:102480000004014054010020A401002010B50348BD
:10249000816803488847C04310BD000040690008B8
:1024A000087C000802490A69C1430248104700003D
:1024B00040690008087C0008014881680148084715
:1024C00040690008047C000802490A690146024884
:1024D0001047000040690008047C0008014881683A
:1024E00001480847406900080C7C0008084A074872
:1024F000D27F0121920011430170054920310A78F1
:10250000427049788170FF21C170704754010020EA
:10251000EC04002070B50546FFF7CEFF0646FFF736
:10252000B5FF0446FFF766FF3046FFF7CDFF2046B4
:10253000FFF7B8FF0248294602690248904770BD7C
:10254000406900080C7C000810B50AA000F052FD9C
:10255000FFF7B2FF0D49086001460DA000F04AFDEB
:10256000FFF794FF11490860014611A000F042FDF9
:1025700010BD00005B6565636F6E6669675F7573AC
:1025800065725F6765745D200D0A000054010020CC
:102590006C65645F6D61747269785F6565636F6EA9
:1025A000666967203D2025640D0A0000A401002013
:1025B0006B65796D61705F636F6E666967203D2042
:1025C00025640D0A00000000F3B518480F46807816
:1025D000154D4108154881B00C38008A00242E7F23
:1025E00080B202F04DFCC0B2009016E0686D019917
:1025F000005D497808420ED02A6D6000115C401CD5
:10260000125C0A4870394078203A009BB84701466E
:10261000204601F009F9641CE4B2B442E6D3304626
:1026200000F05AFFFEBD0000EC0400205401002021
:10263000F3B51E481C4D807883B041081B48002428
:102640000C38008A2F7F80B202F01AFCC0B20290D0
:1026500023E0686D0399005D497808421BD02A6D1C
:102660006100505C491C70380190565C4043203E2C
:1026700031467143401880B202F0FCFC03460298D8
:1026800000900A483246049E40780199B0470146BE
:10269000204601F0C9F8641CE4B2BC42D9D33846E4
:1026A00000F01AFF05B0F0BDEC040020540100203A
:1026B000F3B5144F124EB87881B0810838460C3803
:1026C000008A0024357F80B202F0DAFBC0B20090AD
:1026D00010E0706D0199005D4978084208D0029BB6
:1026E00078782146009A98470146204601F09CF8E8
:1026F000641CE4B2AC42ECD3284600F0EDFEFEBD13
:10270000EC04002054010020F3B51D4F1D4D81B095
:1027100000243E7FA9781C48FDF718FD009029E0B1
:10272000786D0199005D4978084221D01749009AD7
:1027300008780CE00B185B7CA34208D143005B18BF
:102740005B8B934203D240004018428B03E0401E53
:1027500040B20028EEDAA978104602F091FB6A78C0
:1027600001461046029A90470146204601F05CF867
:10277000641CE4B2B442D3D3304600F0ADFEFEBDDB
:10278000EC04002054010020FFFF0000C0040020E2
:10279000F7B52A488AB0007F0590294800240078C0
:1027A000039043E025480B99406D4978005D08424D
:1027B0003AD0002002900A9D2AE020482049026D6C
:1027C0006000135C49194E78401C105C497A9F1BCD
:1027D000461A3846314678437143401880B202F0B9
:1027E00049FC089017480121807802F09BF9C1B29A
:1027F00013486A001018408B02F042FB32460090EA
:102800000C9E3946089B0298B0476D1CEDB20290B1
:1028100003988542D1D30B484178029802F033FBEC
:102820000146204601F000F8641CE4B20598844299
:10283000B8D300F051FE0DB0F0BD0000EC04002054
:10284000C004002054010020F3B51D481B4F8078C0
:1028500083B081081A4800240C38008A3E7F80B279
:1028600002F00EFB0546C0B2FFF7C4FB803840B251
:102870000290E8B202F0BCFB803840B2EDB20190A9
:1028800014E00E480399406D4978005D08420BD072
:102890000B480095049F40782346019A0299B84757
:1028A0000146204600F0C0FF641CE4B2B442E8D305
:1028B000304600F011FE05B0F0BD0000EC04002031
:1028C0005401002010B504460029024609D0FD211C
:1028D000012002F04BFC012002F07EFE2246FD2189
:1028E00008E0FC21012002F041FC012002F074FE0E
:1028F0002246FC21002002F039FC10BDF8B5174C2F
:10290000607A002828D0002501273F040CE0606988
:10291000AE008059394601F068FCA06939468059FB
:1029200001F063FC6D1CEDB2607AA842EFD800257F
:102930000FE06069AF00C05901F040FC0646A06995
:10294000C05901F03BFC40000643054846556D1C4C
:10295000EDB2607AA842ECD8F8BD0000EC0400208B
:1029600085020020F8B516480025417A002924D0B8
:1029700000241EE01248A6004069805901F01EFCA8
:1029800007460F488069805901F018FC4000074352
:102990000C48FAB2015D8B079B0F934207D0890662
:1029A000090E11430155204600F00EF80543641C42
:1029B000E4B20348417AA142DCD82846F8BD0000C1
:1029C000EC0400208502002070B5144C0A07144B5B
:1029D0000546120F605D9A5C0026801840B2605573
:1029E000042807DA021D05DD0E4A8907127C890FCB
:1029F000914210D1012804DB012631462846FFF719
:102A000061FF6057002804DA012600212846FFF7FD
:102A100059FF00206055304670BD0000860200203E
:102A2000116B0008EC04002000A070476C69622064
:102A300076657273696F6E3A2076302E302E3131A2
:102A4000000000000B490020086048600A48006B45
:102A5000401C0ED109480168072211430160084952
:102A60000868FF22120290430860012005494006D1
:102A7000086070477C020020C0FAFF1F006C004015
:102A800018E400E000E100E010B51248006B401CC3
:102A90001FD11148016800291BD0EFF3108472B6D2
:102AA00000210160FDF7A6FF0C48FDF7BDFE0C48B4
:102AB00000688003800DC143090401430948FDF704
:102AC0001BFF08480849001DFDF716FF002C00D128
:102AD00062B610BDC0FAFF1F7C02002000F6FF1F87
:102AE000006C004000F7FF1F69E5B5A310B500F0CA
:102AF000D3F800F0FDF802F09DF910BD0022034963
:102B00003E288A7000D10A7070470000B40000208F
:102B100010B500F005F8002800D0012010BD00001D
:102B200010B5FFF7DBFC194C2060401C00D1206081
:102B30002078400701D5022000E00020FFF73EFC8E
:102B400001F078F801F064F8002812D00922104949
:102B5000002001F009F90E4904220839012001F092
:102B600003F90B490422091F022001F0FDF801F0CE
:102B700031F900F033FD01F075F8002804D0207819
:102B80004006000F01F032F9002010BDC400002003
:102B9000C864000870B50C46054600F045F80028EA
:102BA00007D0002C04D00348C54201D100F018FA28
:102BB000012070BDFD83FFFFF7B5012182B0194DE3
:102BC000002400913C22535DA96B26E022460C268E
:102BD000724308328A5A82421DD16846007B00281F
:102BE00006D002F034FB0C22A96B5443085116E0C6
:102BF0000C20444326460A36885D0027002807D06B
:102C0000B01E085A0021FFF7C5FF0090A86B87553A
:102C1000A86B075103E0641CE4B2A342D6D8009825
:102C200005B0F0BDEC04002070B50124174D292833
:102C300023D0174AD04226D1002924D0294600208B
:102C400010310860FFF766FC2C706C700020FFF7F5
:102C5000B5FBFF2000F08AFBBE2000F035FEBE2051
:102C600000F006FE062000F0ADFD00F0BBFF0922DB
:102C70000849002001F078F805E0002903D02C7005
:102C8000022000F073FB012070BD0000B4000020A2
:102C9000FD83FFFFC8640008F8B5144F00253E46C9
:102CA00020361EE02C460C20BA6B444310590028F5
:102CB00015D021460A310091515C00290FD102F054
:102CC000BBFAB96B221D8A58904208D3009A0120A2
:102CD0008854B86B0834005B0121FFF75BFF6D1C63
:102CE000EDB2307FA842DDD8F8BD0000EC04002032
:102CF0000120704710B50120C046002800D00120F7
:102D000010BD000037B50446029A019900F01EF884
:102D1000002815D001A9204601F066FC00280FD03C
:102D20000848201805D07F21C900401A00D0012092
:102D30003EBD684601790448002900D00121017098
:102D400000203EBDF587FFFF84020020F7B5A04AB2
:102D50006B46811A1D7901269E4C904273D012DC7D
:102D60009D4A811A90426FD006DC652803D0E32883
:102D7000FCD0E72869D1D0E0012967D002290DD025
:102D80000529F7D1FAE09548FD2608180300FFF75A
:102D90005AF808A5B65C5E6A1A7B8B5C002D11D0D0
:102DA00020784006000F00F0C3FF20784006000F97
:102DB00000F0FEFE607800F005FD00F0A5FD00F0DB
:102DC0000DFC607001E1002DFCD000F007FC00F06C
:102DD00049FF002809D000F03DFF002820782AD0C4
:102DE0004006000F00F0E4FEEFE020784006000F00
:102DF00000F09EFF20784006000F00F0D9FE00F0A2
:102E0000EDFB00F02FFF002803D100F0E7FB401E90
:102E1000607000F0E3FB012801D111206070207880
:102E20008721084020704006000F00F0DFFF206877
:102E3000FFF770FBC9E04006000F00F0EFFF002035
:102E400000F0AEFFC1E0AAE083E0ACE070E0002D4E
:102E50005BD000F0FFFE002857D1FFF7AFFA2078D3
:102E6000FB2108400BE0002D4FD000F0F3FE0028BE
:102E70004BD10220FFF7A2FA2078042108432070EA
:102E80002068FFF747FB40E0002D03D000F0E2FE92
:102E9000002804D0E02002F02FFA522011E0E020B8
:102EA00001F070FF522016E0002D03D000F0D2FE9A
:102EB000002809D0E22002F01FFAE32002F01CFAF9
:102EC000292002F019FA20E0E22001F05BFFE32064
:102ED00001F058FF292001F055FF16E0002D14D015
:102EE00000F0B8FE002810D120788107C9174900EA
:102EF000891C8907890F304001432170C0E7002DEC
:102F000003D000F0A7FE002804D000F0A3FE0028A4
:102F100049D1FEBD20783040B1E700F09BFE00288B
:102F200041D1207841073ED4410830468843FEBD58
:102F300000F090FE002836D1002D46D000F05AFB5C
:102F40004130FF2801D9FF2013E000F053FB41304E
:102F50000EE000F07FFE002825D1002D35D000F0D6
:102F600049FB412801D2002003E000F043FB413837
:102F7000C0B200F0A9FC00F03DFB26E000F06AFEC4
:102F8000002810D1002D20D000F02EFB4130FF286A
:102F900001D9FF2015E000F027FB413010E000F0E0
:102FA00059FE002801D00120FEBD002D0DD000F0FB
:102FB0001BFB412801D8412003E000F015FB4138FC
:102FC000C0B200F055FC00F00FFB0020FEBD000079
:102FD00009780000C40000200378000006FAFFFF13
:102FE00010B5FFF70FFAFFF7AFFA00F0ADFB0120C5
:102FF000C04610BD7047000010B5134881684022DC
:10300000114381601148016880221143016010481A
:10301000FDF7B6FD0320FDF7A7FD0120FDF78EFDAE
:103020000028FAD13220FDF7A5FD0220FDF786FD2C
:103030000028FAD10220FDF781FD0028FAD1FDF722
:1030400087FDFDF773FD10BD4010024000580140A0
:103050005555000070B584211D48FDF7BAF81C4E87
:1030600000200C3EB06030601A4840688005800D3A
:103070007060C046C04618490020401C8842FCD3FE
:1030800001F076FF15488168021511438160154CE7
:103090001348E0620125A5626561E81E2061E068D1
:1030A0002843E06000210D20FEF7F6FE0D20FEF71C
:1030B000E7FE2068284320600B48032101620C21B1
:1030C0004162B0680028FCD001F00CFF70BD000028
:1030D0002C0D00208000024010270000401002400C
:1030E000FFFF0000001000400070004070B52B484A
:1030F000416A2B484268002A23D081608168426877
:10310000294B891A8AB22749511899421AD88168DD
:103110004160264C6168491C6160037801460026C5
:103120000C31002B19D003789B005B18803BDB6FC0
:103130009342037807D89B005B18803BDB6FD31A60
:1031400006E0416070BD9B005B18803BDB6F9B1A03
:103150000A256B43934200D9067003789D006D18D1
:103160005B1C03702A600278104D0C3D022A0FD3BD
:103170000670A868002200280AD18300CB58401CA2
:103180009A18C0B20228F8D35008286001F096FFC0
:1031900060680A28D6D90120A86070BD00100040E0
:1031A0006002002070CCFFFF605400002C0D002056
:1031B00010B50948416A094A91420BD10021416288
:1031C0000749012008600748016881F308884068C2
:1031D0008047FEE710BD000040100240EB9C374ADC
:1031E0000000014000E0FF1F10B53049E0284A7898
:1031F000097821D012DC352844D008DC292844D0B5
:103200002A284CD0312816D148064CD449E0392818
:1032100001D082280FD1CB071FD108E00446E23C41
:103220002300FEF710FE0611141C0822250889074A
:1032300013D4110731D410BDC8072CD1D0070CD03E
:10324000C80610D4E32010BD4807F9D401E04807B0
:1032500001D5E22010BDD007F2D0E02010BD9007CC
:103260000CD5C8060CD5002010BD0807F9D401E024
:10327000080701D5E62010BD9007F2D5E42010BD67
:10328000E72010BD880608D401E0880601D5352066
:1032900010BD100701D5392010BD292010BD4806EA
:1032A00001D5312010BD2A2010BD0000A40100204E
:1032B0000FB410B57C2202A90348FCF771FF10BCC3
:1032C00008BC04B018470000EC04002030B5084BDF
:1032D0009D888D420AD9DC88944207D945436818F5
:1032E0006043801819684000085A30BD002030BD86
:1032F000EC040020012203498240087890430870C2
:10330000704700005E0100200121814002480278E0
:1033100011430170704700005E010020F3B50E48B4
:103320000F4606780D48007A401E44B201250EE093
:103330002846A040304208D0E0B23A460099FFF754
:10334000C5FF012801D0E0B2FCBD641E64B2002CB0
:10335000EEDA0020FCBD00005E010020EC0400203D
:1033600001480078704700004401002030B514493E
:1033700000224424645C0B6C1DE01C255543103571
:103380005D5D854215D11C204243104608301C5813
:10339000002C12D09D5865436D00141D6D1C1D51ED
:1033A000096C0858FF2802D18858401C0851012098
:1033B00030BD521CD2B29442DFD8002030BD000094
:1033C000EC040020FEB50025414F7BE040482C4630
:1033D00040381C225443016C261D8A59002A68D0AB
:1033E00020460C3001900858002807D001F024FF37
:1033F00037494039096C0959884228D33448224654
:1034000040381132016C00928A5C002A13D00022ED
:1034100000980A5401F01BFF2D4940390A6C0199AC
:1034200050502B484038006C81590259914204D3C6
:10343000891A81510BE00122EAE70021244A8151D7
:10344000403A136C00981954126C0198115020499D
:103450004039086C8259002A13D00E46001900F03A
:1034600039F800282CD02046316C1130085C002837
:1034700013D020461030085CFF280BD01834095DAB
:1034800010E0214614314158002919D01034005D54
:10349000884715E01834085D08E01034085DFF28FF
:1034A00003D0002100F0C0F90AE0002000F0CEF9BE
:1034B00006E0234600221133CA54006C0C3402513A
:1034C0006D1CEDB23879A84280D80120FEBD000005
:1034D0002C050020012070470349097F814201D952
:1034E0000120704700207047EC04002010B5012037
:1034F00000F002F810BD000010B504460448817FBA
:103500000448807801F014FB214600F0B7F910BDA3
:10351000EC0400205401002010B5012000F002F856
:1035200010BD000010B504460448417F04484078AF
:1035300001F0FEFA214600F0CDF910BDEC040020A8
:103540005401002010B500F001F810BD10B5084876
:1035500001788A0703D0002203460C3BDA70890801
:10356000890001708907890F02A0FFF743FD10BD94
:10357000540100205B6C65645F6D61747269785FF3
:10358000656E61626C655D2025640D0A00000000B7
:1035900010B500F001F810BD10B5084801788A0791
:1035A00002D103460C3BDA7089088900491C01707E
:1035B0008907890F02A0FFF71DFD10BD54010020EF
:1035C0005B6C65645F6D61747269785F656E616282
:1035D0006C655D2025640D0A00000000014800783C
:1035E000800870475401002001488078704700002F
:1035F0005401002001484078704700005401002029
:1036000010B5012000F002F810BD000010B504460E
:103610000548817F0548807801F084FAC0B22146D0
:1036200000F02CF910BD0000EC0400205401002033
:1036300010B5012000F002F810BD000010B50446DE
:103640000548417F0548407801F06CFAC0B2214638
:1036500000F040F910BD0000EC04002054010020EF
:1036600070B50C460546FFF7ADFE2146284600F032
:1036700005F8002800D0012070BD000038B5314C9D
:10368000A078002826D1FFF76BFE009068460078EE
:10369000C00701D0FF2100E000216B2000F0C4F83A
:1036A000FFF75EFE009068460078800701D5FF2195
:1036B00000E000216C2000F0B7F8224810300078BC
:1036C000810703D5400701D4FF2100E000216D20D0
:1036D00000F0AAF800F0BEFA002816D0A06801F0A9
:1036E000ABFDFF21F531884206D901F0B0FDA060A5
:1036F00020790121484020712079002801D0FF2144
:1037000000E00021632000F08FF8E0786E2816D2E8
:1037100000250021284600F087F86D1CEDB26E2DC3
:10372000F7D3E06801F088FD322805D901F08FFD5C
:10373000E060E078401CE070E07800F0AFFB012032
:1037400038BD0000B400002010B5FDF7A5FA002335
:103750000E4A0F49137018464400A418401CC0B20A
:1037600061830828F8D3094A2A3A137000204300DD
:103770009B18401CC0B259830828F8D3054800683C
:10378000401C01D1FEF7B2FE10BD0000C0040020B5
:10379000FFFF00005401002070B514460D46064698
:1037A00000F00EF80549CA6CC98871435118695C6C
:1037B000FF2902D02154401CC0B270BDEC0400208F
:1037C0000020704710B5012100F002F810BD000084
:1037D00010B50E490A78920717D00A461278920758
:1037E000920F002803D0132803D3483203E0121DA0
:1037F00001E0800002430A701006810E04A0FFF76A
:10380000F9FB024900200C39C87010BD540100209A
:103810005B6C65645F6D61747269785F6D6F646520
:103820005D2025640D0A000030B5074A137F8342EE
:1038300009D94000936C441C1C5DD588185C6C430E
:10384000926E2018115430BDEC04002070B506466D
:103850000024064D05E031462046FFF7E5FF641CD5
:10386000E4B2287FA042F6D870BD0000EC0400202E
:1038700010B5012100F002F810BD000010B5034999
:103880008870014602A0FFF7B5FB10BD540100206F
:103890005B6C65645F6D61747269785F7370656598
:1038A000645D2025640D0A0070B5064D0446297834
:1038B000884305D0002000F0B9F8002000F098F807
:1038C0002C7070BD4801002010B5012100F002F8F5
:1038D00010BD000010B505490A78920704D0487061
:1038E000014603A0FFF786FB10BD00005401002035
:1038F0005B6C65645F6D61747269785F76616C5D45
:103900002025640D0A00000010B5012000F002F827
:1039100010BD0000014610B5044800788008401C26
:10392000122800D30120FFF753FF10BD54010020DF
:1039300010B5012000F002F810BD0000014610B5DE
:10394000054800788008401E0006000E00D11120B6
:10395000FFF73EFF10BD00005401002010B500F03D
:1039600001F9154C2078002811D120460C30007840
:1039700081070CD08008E2780021002A09D0012AB2
:1039800014D0022A15D0032A00D1E17010BD002006
:10399000F1E709482A22401D0170A068074920610B
:1039A0008818FCF7FDFB0120E07010BD00F03EF828
:1039B00010BD00F01DF810BD480100209604002045
:1039C00000B5012000F002F800BD0000044801220B
:1039D000017851400170024900200C39C8707047CD
:1039E0005401002001490870704700004401002084
:1039F00070B50C4D0C4C2946A8700C31097889071C
:103A0000890F6970002803D0217F0020FFF728FE6E
:103A1000A288E088A16E4243E06EFCF7C1FB032060
:103A2000E87070BD48010020EC04002010B54C4C3B
:103A3000A178884207D121460C310978627889073C
:103A4000890F914201D0012100E00021444A521D1A
:103A500091700A2851D008DC0300FEF7F4F90A1B24
:103A600021262B30353A3F44497F0F285ED008DCB1
:103A70000B2847D00C284AD00D284DD00E286DD1E8
:103A80004FE0102857D011285AD012285DD0FF28B7
:103A900064D110BD002961D00020FFF7D7FE5DE0A2
:103AA0002F48401DFDF7B0FA53E02D48401DFCF7AC
:103AB0007FFD4EE02A48401DFCF708FD49E02848FC
:103AC000401DFCF70BFD44E02548401DFCF71EFDA2
:103AD0003FE02348401DFCF7EDFD3AE02048401D43
:103AE000FCF712FE35E01E48401DFCF7F9FD30E002
:103AF0001B48401DFCF720FE2BE01948401DFDF738
:103B000045F826E01648401DFDF7A0FA21E01448CC
:103B1000401DFDF701FB1CE01148401DFDF79EFA1A
:103B200017E00F48401DFDF7CFFA12E00C48401D8A
:103B3000FDF782FA0DE00A48401DFEF73BF908E068
:103B40000748401DFEF74EF903E00548401DFDF70C
:103B500057F9002802D00020E07010BD0220FBE7DA
:103B60004801002070B50F4DA86801F065FB0446C0
:103B700001F06DFBA8600C490C4800220B78001B7B
:103B80000CE055006D186E8BB04203D20D786D1E9F
:103B90000D7001E036196E83521CD2B29A42F0D3F6
:103BA00070BD00004801002096040020FFFF0000C7
:103BB00010B50A49097C81420DD909490A78012AC0
:103BC00009D14A78824206D100200870104600F0E0
:103BD00043F9012010BD002010BD00000C0500209D
:103BE0006001002010B5064841690648884706482C
:103BF000FF22417C05484068FCF7E4FA10BD000054
:103C000040690008007A00080C05002060010020CF
:103C100010B505488168054888470549884201D0A4
:103C2000012010BD002010BD40690008007A000886
:103C300055AAAA5510B505480549406B48600020B3
:103C40000870487000F074F810BD0000EC0400200B
:103C50006001002002480078012800D00020704751
:103C600060010020122801D0002070470120704719
:103C7000F3B583B00446FF20694608700871FFF76A
:103C8000B9FC294988703EE001A8029027482346E4
:103C9000C06CEE468446254800218688C2883DE0F7
:103CA000154600204D4367467F1933E0C55DFF2D63
:103CB0002ED09D422CD172461170029908701A487C
:103CC0004568002D1DD019482030017C407CFCF750
:103CD0003DFA024614486B4641781B784A43134923
:103CE000C98859436B461B79C918CB085B19D25C4C
:103CF0004907490FCA40D10713D000212046FFF7DA
:103D000093FD641CE4B204988442BDD305B0F0BDB9
:103D1000401CC0B28242C9D8491CC9B28E42BFD829
:103D2000EFE78178EAE7000060010020EC04002062
:103D3000F8B50A4D297C81420FD900242E46203E39
:103D4000074F07E00748396820188847716B085506
:103D5000641CA4B2687CA042F4D8F8BD0C05002015
:103D600040690008047A0008F8B50B4D14460F4668
:103D700068700A4E09E0641EE4B2385DB26C40001F
:103D8000115C401C105CFEF7A3FA002CF3D168789C
:103D900000F062F80020F8BD60010020EC04002073
:103DA00010B50024002800D1FF240848017C407C85
:103DB000FCF7CCF9064A014652785043044A52684F
:103DC00080182246FCF7FEF910BD00000C0500200B
:103DD00060010020024803490269034810470000BF
:103DE0004069000855AAAA55007A000810B509498B
:103DF000097C814201D8002010BD07494870FFF7B7
:103E000097FFFFF7EBFB122802D01220FFF7DAFC36
:103E1000012010BD0C0500206001002010B50C49E8
:103E2000097C814203D90B490A78002A01D000207D
:103E300010BD01220A704870FFF77AFFFFF7CEFB32
:103E4000122802D01220FFF7BDFC012010BD000097
:103E50000C05002060010020F8B50D4D297C814241
:103E600015D90C4E0C48716988470B4F00243F1D33
:103E700008E00748F2682038406B015DE019904780
:103E8000641CA4B2687CA042F3D8FFF7A3FFF8BD7E
:103E90000C05002040690008007A000870B504464F
:103EA000064D461D06E06A2C03DC285DFF21FFF766
:103EB000BBFC641CB442F6DB70BD0000D16400089A
:103EC0001CB5FFF775F900F06DFEFEF7BBFDFFF7BF
:103ED00093F8FEF771FA002205211E2001F07AFC0A
:103EE00014490860012001F063FC13490860FEF7E3
:103EF0009BFD12490120019100900023602210A136
:103F0000114801F07DFE114903200191009000232A
:103F100040220FA10F4801F073FE0F4904200191C8
:103F20000090002320220DA10D4801F069FE01F050
:103F3000C3FBFEE7680100206C0100207001002037
:103F40004D617472697800001D0E00087401002034
:103F500041505000ED030008780100205553420005
:103F60002D1C0008F0B50B30C108C900144F002605
:103F7000144A0FE003688B420BD38B4205D95C1ABD
:103F80004318456830C3083B00E04368136002C033
:103F900004E0021D10680028ECD13046002803D14F
:103FA0003868002801D00020F0BD064A064810609D
:103FB000064A121AD208D20044C001203860D7E75E
:103FC000500200204C020020B40D0020500E0020B2
:103FD000F8B5144881684215114381600024124EDF
:103FE00087050DE0706AA1004558681C06D0394667
:103FF000284600F0FAF8284600F0D4F8641CE4B231
:10400000B088A042EED80004810B706EFCF7E1F896
:10401000B0888100306EFCF7DCF83079FEF7AAF941
:10402000F8BD000040100240EC040020F3B500256C
:1040300081B001272C460D4E0DE0B06AA10040581A
:10404000411C03D000F0BAF801280CD00020641CF9
:104050000543E4B27F00F088A042EED802988100C8
:1040600001984550FEBD3846F1E70000EC04002001
:1040700010B50B4CA0888100206EFCF7AAF8A08830
:104080008100606EFCF7A5F8A0888100E06DFCF768
:10409000A0F804480021006801F0BBFB10BD00003F
:1040A000EC0400206801002070B50C4CA088A16DC4
:1040B0008200206EFCF798F8002807D0A088012520
:1040C0008200A16D206EFCF76BF800E000252279DC
:1040D0002B46616E206EFEF71DF970BDEC040020CA
:1040E000F0B585B0FFF7E0FF2C4800242146858815
:1040F000C76D466E0AE08B00FA58F3585A402243C7
:1041000001D0012400E00024491CC9B28D4202D92B
:10411000002CF0D001E0002C01D0002536E001F0A9
:1041200091F81F490A88821A1204120C32D00880B2
:1041300030E0A900426E039152580092C26D51586E
:10414000009A514002911FD00127002613E00298E7
:1041500038420DD00098384000D001203246294620
:10416000019001F003F831462846019A00F05CF90D
:10417000761CF6B27F000948C088B042E7D80749EC
:104180000098CA6D039950506D1CEDB203488188A8
:10419000A942CED8204605B0F0BD0000EC040020B6
:1041A0005C0100200207120F012191400009092241
:1041B00009048002D2068018816170470109092232
:1041C0008902D206891809690007000FC140C80793
:1041D000C00F70470207120F012191400009092208
:1041E0008002D2068018816170470207120F0123F6
:1041F0009340000909228002D206801800B50A46C1
:104200001946FDF77BFE00BD002801DB642801D9BB
:10421000002070470149800008587047586900081D
:10422000010909228902D206891852428A18010717
:10423000090F002A09D0012080028242044803D1DC
:104240000B2901D803484056704702481038FAE756
:10425000FFFFFFFFCC69000807B56946097900290F
:1042600027D00F21C902401A0300FDF7ECFD0A0612
:1042700009180C0F1B1E22121522FFF789F916E0F0
:10428000FFF760F913E0FFF747F910E0FFF7D0F907
:104290000DE0FFF7B5F90AE0FFF728F907E0FFF7AF
:1042A0008FFB04E0FFF730FB01E0FFF741FB00204C
:1042B0000EBD01200EBD0000F8B5002026490124E6
:1042C0000246254B0A331D5C002D03D01A540B788F
:1042D00023430B70401CC0B20828F2D301200225F2
:1042E0001E4B1E5C002E03D01A540B782B430B7010
:1042F000401CC0B21028F3D301200426164B1B1D0E
:104300001F5C002F03D01A540B7833430B70401CF2
:10431000C0B20328F2D301200F4BDB1D1F5C002F1E
:1043200004D01A540B7808273B430B70401CC0B2D2
:104330000328F1D3084808211230FBF74AFF06484A
:104340000549123004700548C91D06700320087025
:10435000C81E0570F8BD0000880100206805002017
:1043600073B502200C4C002920700AD068460578ED
:104370002846FCF739FC60702846FCF735FC000A3B
:1043800001E000206070A07003480422001F017843
:10439000114301707CBD00008C010020F3B5204862
:1043A0006B461C7805780122630715435B0F1D4F90
:1043B0009A40E308DB19002916D00221184E0A366C
:1043C000765CA6422BD0002E09D0491C0829F5DBCB
:1043D000082924D104213970997811431AE0104E2C
:1043E0000A3674540570F3E702210D4E0A36765CE6
:1043F000A64205D10A4C00260A346654057002E034
:10440000491C0829F1DB9978114208D00421397040
:104410009978914399700178022211430170FCBD93
:104420008801002068050020FEB50025002A03D081
:104430006A46FFF7B1F90546204C20784019082854
:104440001ED90820461B6719791C3246601CFBF7F1
:10445000A7FE39462046324609310930FBF7A0FE57
:1044600068000119204672001A301A31FBF798FED5
:1044700039462046324611311130FBF791FE267045
:10448000002017E00E4922780F6D69460B5CA118D9
:104490009C465B00FE5C4E705B1CFB5C4B72634693
:1044A0004B7452000021121951832178491C401C81
:1044B0002170C0B2A842E5D3FEBD000096040020E2
:1044C000EC04002033B5684605780B4A01231C46EE
:1044D000E03DAC401078002903D0072D05D82043DB
:1044E00002E0072D01D8A043107003480A38017874
:1044F000194301703CBD00009201002003B50E4835
:1045000001210170014612390A7810231A430A70FA
:1045100069460B8800210A22ED2B09D0EE2B04D02E
:104520005242EF2B04D0F02B01D1418082800CBD90
:10453000428081800CBD00009A01002070B50C46BD
:1045400015460646FEF738FB002807D02A462146C6
:104550003046FEF7D7FB002800D0012070BD70B5B3
:104560000C461546064600F015F800280ED02A46DF
:1045700021463046FFF7E2FF002808D02A462146B0
:104580003046FFF769FE002801D0012070BD0020F1
:1045900070BD000007B551226946120209798243B5
:1045A0000ED00F4AD04218D1002914D00D49EF2364
:1045B00008780246184010239343184308700CE013
:1045C0006846007A002902D0FEF79EFE01E0FEF761
:1045D00091FE00200EBD00F08FFE01200EBD0000F8
:1045E000F687FFFFA401002010B50B4A1278012ABC
:1045F0000FD15122120282430BD00878002806D036
:1046000048784206520E88781146FDF761FE002078
:1046100010BD012010BD00006001002013B56846E8
:104620000078A52814D0A62814D0A72814D00020DC
:104630000A4B5A8890420AD058800324DA1D14701D
:104640005070000A907018780821084318701CBD3B
:104650008120EDE78220EBE78320E9E78801002055
:10466000F8B5134C0F46E66805462068001D00F0BB
:1046700025FF681C07D1002F05D021680D48091DB2
:1046800000F055FFF8BD2068751945602168B542F6
:1046900004D2A06B091D00F032FFF8BD606B091D4C
:1046A00000F02DFFA06A8542F7D2A562F8BD000098
:1046B000B80100202C060020F8B5054600F044FFA4
:1046C000294CA068401CA0602068284F002803D017
:1046D0006069002827D02CE02560A068012828D137
:1046E000002614207043C01900F0FBFE761C052E36
:1046F000F7D31E48643000F0F4FE1C48783000F018
:10470000F0FE1A488C3000F0ECFE1848A03000F0A3
:10471000E8FE1648B43000F0E4FE144864306063EC
:104720001430A06305E02068E96AC06A884200D8B6
:104730002560606A401C6062E86A2169884200D98D
:10474000206114214843C019291D00F0F0FE00F03B
:1047500007FF6069002806D02068E96AC06A8842BD
:1047600001D200F02DFFF8BDB8010020780500202F
:1047700010B5026C0C46002A0CD0C1688B18C360BF
:1047800081688B4201D2194601E00168C160204670
:10479000FBF706FD10BDF8B5856B174604460026ED
:1047A000026C002A11D0002F19D0E068FBF7F8FC4A
:1047B000E168206C091AE1602268914202D2A16886
:1047C000081AE060022F17D019E02068002816D1DF
:1047D000A06801F09DFB06460020A0600FE0606825
:1047E000FBF7DEFC216C606840186060A1688842BD
:1047F00005D32068606002E0002D00D06D1E6D1CA6
:10480000A5633046F8BD10B50446006B00F0B6FE57
:10481000204600F0B3FE10BD0F480E49420705D0F8
:10482000C01DC0080C4AC000821A891A0B4A002316
:10483000411809C20839C908C900183A11604B600B
:104840000B600B1A0AC093600120C0075360D06050
:1048500070470000CC060000540600203002002003
:104860000F4E104C3746A03F11E000F06DFEF0688F
:10487000C568281D00F022FEA068401EA060606888
:10488000401E606000F06CFE2846FFF7BCFF6068C9
:104890000028EAD138680128F9D900F091FEF6E73E
:1048A00018060020B8010020FFB581B00C9C9000D4
:1048B000236B001F1818C6080A9DF600700701D068
:1048C00072B6FEE72246203200290DD000202718BC
:1048D0000B5C20373B750B5C002B02D0401C0A2878
:1048E000F5D30020507701E000201075052D00D38E
:1048F0000425E56200276764201D256400F0FCFDA7
:104900002046183000F0F8FD24610520401B646249
:10491000A061A7644C2007553046049A019900F025
:10492000F1F820600B98002800D0046005B0F0BDBD
:1049300030B5114900E011460A688242FBD34B684A
:104940005C18844203D140681818486008464368E0
:104950001C18944209D1084C103C2468A24209D08A
:1049600052689A1842600A6812680260814200D058
:10497000086030BD0460F9E73002002010B504463D
:1049800000F0E2FDA06B002804D0002400F0E8FD58
:10499000204610BD0124F9E70648416B096800294B
:1049A00005D0416BC968C9684968816270470021B8
:1049B000C943FAE7B801002003480068401C72B6FA
:1049C00000D0FEE7FEE7000038020020F8B50446FC
:1049D00000F0BAFD254640350526AE572746243758
:1049E0000BE0606A00280AD0384601F001FB00287D
:1049F00001D000F011FE761E76B2002EF1DC002709
:104A0000FF436F7100F0ACFD00F09EFD0426AE5731
:104A10002046103000900BE0206900280AD0009852
:104A200001F0E6FA002801D000F0F6FD761E76B21D
:104A3000002EF1DC2F7100F093FDF8BDF8B50546AE
:104A4000002700F05FFE284E3068002801D1FFF7F4
:104A5000E3FEF06805423FD1002D3DD008356807E0
:104A600008D06807400F0821081A4519680701D0C7
:104A700072B6FEE7002D2FD0706885422CD81A48F8
:104A8000103001460C6801E020460C466168A942DE
:104A900002D221680029F7D131688C421CD0076806
:104AA0002168016060680837411B102908D9601926
:104AB000420701D072B6FEE741606560FFF738FF3C
:104AC00061687068401A7060B268904200D2B0604D
:104AD000F0680143002003C401F0BCFA780701D05C
:104AE00072B6FEE73846F8BD200200200449086887
:104AF000002803D00868426C521C42640868704762
:104B0000B801002010B50124031F24061C601B1FE0
:104B10001960191F024B0B60143940380A6010BD30
:104B2000B94900084018FF2800D9FF2040B270475B
:104B3000401A00D50020C0B2704700000549064A5F
:104B400008885043054A80180880010A491C4140E2
:104B5000C8B27047B40100200508000019360000F3
:104B600070B5040013D0FF2001302146FBF7EEFAA8
:104B700060430546FFF7E2FF2146FBF7E7FA0846E8
:104B80008542F7D92146FBF7E1FA084670BD0020BF
:104B900070BD10B50446081BC0B2FFF7E1FF001955
:104BA000C0B210BDF8B54D480024C4604461012571
:104BB000856181690029FCD14A49494A0A604A490C
:104BC00003220A620C224A624849CA68484B12050D
:104BD000484E9A4203D1C9680904090F2BD14549AF
:104BE0004039CC6332699207FCD5434A02235B1CEF
:104BF0009342FCD3CD633369DB07FCD002235B1CFB
:104C00009342FCD33B4B4327803BDF635B150B6038
:104C100010234B6016234B61CD60FF2356330B618D
:104C20000323F36002235B1C9342FCD3F460314AFC
:104C3000803AD463CC6031490D60C4600221416187
:104C4000856181690029FCD1446205620921C16145
:104C5000456224482A49016026488038816A49080B
:104C6000490081622148C030006B1C4F4037401C16
:104C700011D124484168244A914207D101884288D1
:104C8000D24392B2914201D100887060386A000725
:104C900001D5FEF7DFF9144804624462F86928433D
:104CA000F861B86802210843B86018480168184ADA
:104CB00011407268120211430160164941601649A1
:104CC0000A6A2A430A620168602211430160B868D7
:104CD000012149020843B860F8BD000000100240FD
:104CE00080841E00540200200070004000FAFF1F64
:104CF0000000509B8000024010270000002002406E
:104D0000006CDC0200F7FF1F69E5B5A3006C0040F2
:104D1000FF00FCFF7FBB78200000014000B50D4A7A
:104D20009388834207D9D3888B4204D943435818C8
:104D300080B2516F0AE0537A002B03D0FD2803D0D4
:104D4000FC2801D0002000BD0846916F00F004F857
:104D500000BD0000EC04002010B5C3084407640F38
:104D60009B0000205B1801210246A1409C5C0C4086
:104D700000D0012494400443521CD2B2E0B2042A71
:104D8000F4D310BD0EB569460880012008716B464A
:104D900007CBFDF755F900F001F80EBD10B5234C17
:104DA0002078C1070BD0214608220A31812000F06B
:104DB0006DF8012810D12078400840000BE08107F1
:104DC0000BD510221A49822000F060F8012803D187
:104DD0002078FD2127E0207010BD41070AD5134936
:104DE0000322091D822000F051F80128F4D1207817
:104DF000FB2118E001070AD50C490322C91D8220B6
:104E000000F044F80128E7D12078F7210BE0C00634
:104E1000E2D5064908221231822000F037F8012835
:104E2000DAD12078EF210840D5E700008801002082
:104E3000680500207CB50F480078002819D00120B3
:104E400069460D4D88700024A007800F6946ED303B
:104E5000088000231A46286800F011FD641CE4B2A3
:104E6000082CF1D30548012200231146006800F008
:104E7000EFFE7CBD84020020680100207401002048
:104E80004843000A70474843000A704770B58128BC
:104E900002D0822802D00CE00F4C00E00F4C002C16
:104EA00007D00F4B9D7C032D06D09B7C022B06D098
:104EB00008E00020C04370BD0120C04370BD2368DE
:104EC000002B01D0002070BD72B692B2FCF7CEFB71
:104ED0000120206062B670BDF4010020F8010020BE
:104EE0004006002010B50220FBF754FC0120FCF71F
:104EF000C7FF1948C26802218A43C26082688A4398
:104F0000826042688A43426002688A4302600022EB
:104F100006211248FBF77AFD1148026901150A4380
:104F2000026102698A43026182688A4382600121C8
:104F30000C48C9430161C16849084900C1600A4978
:104F400040140860BFF34F8FBFF36F8F0748C169EC
:104F500082009143C16110BD00040140000C004873
:104F6000401002400010004080E100E000000140DD
:104F700010B518488168184A11438160174A062104
:104F80001748FBF743FD0220FBF704FC002101203A
:104F9000FCF782FF0120FCF773FF1248FBF73CFC93
:104FA0001048022101600021017108214171012195
:104FB0008171FBF7FBFB0C48F02142688A43426099
:104FC0004168302211434160C169084A1143C161FF
:104FD00010BD000040100240000208000100002047
:104FE000000C004874020020000001400000A48969
:104FF0000146420601D5FF22111A8906890E0A07C9
:10500000120F430600D5521C0909084B49005918D4
:105010000B78497851430909C91849B2000601D5EE
:10502000484241B28031C8B270470000D7690008D9
:10503000F8B50D48C1690D4A1143C161002511271A
:105040000B4C3F060CE0E06AAE008059411C06D0D4
:105050003946FFF7CAF8E06A8059FFF7BBF86D1CC4
:10506000A088A842EFDCF8BD00000140AA0AA08990
:10507000EC04002010B5012801D8C0B210BDF72102
:1050800001224901884201D9FF2302E04109083188
:10509000CBB2D11849080C464C43844202D9491E70
:1050A000CBB203E0FF2906D0491CCAB29342F0D22A
:1050B000521ED0B210BDFF2010BD0000F8B5254E25
:1050C000756825480068254A44000020244F25497A
:1050D000944208D2081B4221FBF738F82918B9423C
:1050E00037D2716024E01F4A1F4B52429C4207D9BD
:1050F000A0184221FBF72AF885422AD9291AF0E79D
:105100008C4208D2081B4221FBF720F82918B9422B
:105110001FD2716009E08C4207D9A0184221FBF729
:1051200015F8854215D9291AF3E70B4901228A603F
:1051300009490C310A6892005218D4600A6892003A
:10514000521855630A6892005218D0650868401CCE
:105150000860F8BD80000240200D0020E0B500008E
:10516000FF03000080BB000020C10000FEB50C461C
:10517000070015461146204608D0FEF7CFF8064630
:1051800002462946204600F017F902E0FFF7C6FD67
:105190000646684687710472C5711C482346417AE9
:1051A000002903D0FD2C26D0FC2C24D08188C28875
:1051B000714309195143491900682A464900405A68
:1051C000694688805006400E009068468288F9073C
:1051D000C90F0F48FDF70EFF0E4800231A4601A91C
:1051E000006800F04CFB0C480122002311460068C7
:1051F00000F02EFDFEBD714349194900091949000F
:10520000FF39C0682A46F939D9E70000EC040020CC
:10521000246B0008680100207401002010B5C0460E
:10522000C0460120FEF740FB10BD10B5C046C04689
:105230000020FEF739FB10BD10B5044600F0C6FD96
:10524000001B10BD10B500F0C1FD80B210BD10B53F
:1052500000F0BCFD10BD0000F7B5254981B09446B3
:1052600000238F780E7848683BE001999A008D58AA
:105270000299964689584D4000212CE001248C402B
:1052800025421DD002780092520821D1019E72461B
:10529000B6582642009E02D00122164301E076084D
:1052A0007600F207D20F143202700126D2070FD017
:1052B000029F7246BF586740029CA750012707E033
:1052C0000478620804D0E20702D1E407E40F047016
:1052D000491CC9B2401C074CE4888C42CED85B1CE8
:1052E000DBB26345C1D3024887700670FFBD000082
:1052F0007C010020EC0400200EB5694608800020E7
:1053000008716B4607CBFCF79BFEFFF747FD0EBD10
:10531000FFB52749002082B04C6808704870944659
:10532000054601463CE0002334E001229A402678FD
:10533000964677082BD0059A7708974220D8F2072F
:10534000D20F2270D20701D0012120E0AF00039ECE
:105350000197F659724600969643029AD7597246BB
:1053600017403E43009A124FB6467240BE78324311
:1053700000D00122BA70019F039A7646D65106E00A
:10538000F007C00FBA1A52001043207001205B1CB6
:10539000DBB2641C074AD2889A42C6D86D1CEDB2B3
:1053A0006545C0D3024A1070517006B0F0BD0000D0
:1053B0007C010020EC04002010B503460C48144684
:1053C00082889A4207D9C2888A4204D95A4351181E
:1053D00089B2426F07E0427A002A07D0FD2B01D044
:1053E000FC2B03D1826F204600F004F810BD0000B2
:1053F000EC04002070B5CD084E070123760F1C4643
:10540000B4400021AD00AD181A468A40024000D0D9
:1054100001226E5C52427240224072406A54491C22
:10542000C9B20429F0D370BD02780A7000780B2845
:1054300002D0FF20087070470120487002490148DF
:1054400008607047A5A5A55A1802002010B50A4C9F
:10545000207800280ED00948817C032908D172B633
:10546000807C032803D1FCF793FEFBF70BFF62B6A9
:105470000020207010BD00003C02002040060020EB
:1054800010B505480178002905D00021017072B6D9
:10549000FCF7C8FE62B610BD3D02002000B59BB00F
:1054A0006C2205496846FAF77BFE034810380FC89E
:1054B000FDF7FEFE1BB000BDD800002043688268E7
:1054C00001699A60836842685A604A68824201D1E1
:1054D00082684A60002202610868401E086008680D
:1054E00070470146083100224160D243C1608260AA
:1054F000016100210160704700210161704730B5F2
:105500000B685A1C02D00246083202E0026904E02D
:105510002246546825689D42FAD953684B609960C9
:105520008A60516008610168491C016030BD4268B1
:105530004A6093688B609368596091600861016864
:10554000491C01607047000072B604480168491C9C
:105550000160BFF34F8FBFF36F8F70473802002099
:1055600005490868002804D0401E086000D162B6D2
:10557000704772B6FEE700003802002070B50028C0
:105580001AD004460D4D083C6068E968084201D114
:1055900072B6FEE72268002A01D072B6FEE78843A1
:1055A000606000F0AFF86068696840186860204685
:1055B000FFF7BEF900F04EFD70BD00002002002094
:1055C0000120044900074860BFF34F8FBFF36F8F7E
:1055D0007047000000ED00E010B502000FD0094850
:1055E000006B002801D072B6FEE700F08BF80021B6
:1055F0001046FFF735F800F02DFD002801D1FFF728
:10560000DFFF10BDB801002002490A6A0260C968C4
:1056100041607047B801002001490120C86170470E
:10562000B801002010B50C46002809D005490968CA
:105630001831FFF764FF01212046FFF711F810BD74
:1056400072B6FEE7B801002070B504002FD0626C7E
:10565000002A0ED0206C884200D30146E06A8842BE
:1056600025D0012A23D1124D2A68944203D172B663
:10567000FEE772B6FEE7E162A269002A02DB0522BC
:10568000511AA16114220B4E504361698019814265
:105690000DD1201DFFF712FFE06A2969884200D969
:1056A0002861142148438019211DFFF740FF70BD78
:1056B000B8010020780500201CB50E480024019098
:1056C000234640220CA100940D4800F099FA0128CD
:1056D00003D0401C0CD172B6FEE772B6002105481B
:1056E000C9432C38816201214161C46000F03EF859
:1056F0001CBD0000E401002049444C4500000000AE
:10570000614800080248016B491C016370470000B2
:10571000B801002010B51348016B002902D0012107
:10572000C16110BD0021C16101690F4A02E0002979
:1057300015D0491E14234B43D358002BF7D0142304
:105740004B439A18536814465B6808345360A3426D
:1057500001D15B685360DA680260016110BD72B606
:10576000FEE70000B80100207805002010B50C48C5
:10577000016AFF22120411430162016A12021143FD
:1057800001620848002101618161074A42610722E4
:10579000026106480160FAF79DFC002010BD000080
:1057A00000ED00E000E000E07FBB000038020020D8
:1057B00010B502460021012000F00CF8041E07D0AD
:1057C0000021816001600B460A46C16000F057F875
:1057D000204610BD70B50E46050014D0002E14D022
:1057E00070434830FFF72AF904000AD021464831B7
:1057F0002046002E0BD0016006640121C56300F035
:1058000008F8204670BD72B6FEE70020E9E70060A8
:10581000F2E770B50D46040025D0FFF795FE216C28
:10582000E06B484321684118A1600021A163216811
:105830006160E06B216C401E484321684118E160C3
:105840000021C94320464030017141713038002D9C
:105850000BD0FFF746FE20462430FFF742FEFFF74D
:105860007FFE012070BD72B6FEE721690029F6D0E7
:1058700000F0BEFB0028F2D0FFF7A2FEEFE7FFB575
:10588000002683B01D46040003D00498002802D0EF
:1058900006E072B6FEE7206C002801D072B6FEE783
:1058A0000027022D04D1E06B012801D072B6FEE77B
:1058B000FFF74AFEA16BE06B814207D3022D05D0B2
:1058C0000598002817D0002E18D01BE02A46204645
:1058D0000499FEF760FF616A002903D02046243056
:1058E00000F086FB002801D0FFF76AFEFFF738FEC4
:1058F000012007B0F0BDFFF733FE22E06846FFF756
:1059000083FE0126FFF72CFEFFF7FCFEFFF71CFECF
:105910002046403004214156491C00D10771052121
:105920004156491C00D14771FFF71AFE05A9684688
:1059300000F038F9002806D02046FFF747F800F0BD
:1059400089FB0020D5E7FFF7FFFDA06BE16B8842E4
:1059500010D1FFF705FE204610300599FFF762FED3
:105960002046FFF733F800F075FB0028A0D1FFF7C1
:1059700027FE9DE7FFF7F4FD2046FFF727F800F02C
:1059800069FB95E7F7B5002582B0040004D00398C1
:105990000026002802D006E072B6FEE7206C002840
:1059A00001D072B6FEE7FFF7CFFDA76B002F15D031
:1059B00020460399FEF7DCFE7F1EA76320690028BE
:1059C00007D02046103000F013FB002801D0FFF76D
:1059D000F7FDFFF7C5FD012005B0F0BD04980028D4
:1059E00002D0002D03D006E0FFF7BAFD27E068469D
:1059F000FFF70AFE0125FFF7B3FDFFF783FEFFF770
:105A0000A3FD2046403004214156491C00D10671B7
:105A100005214156491C00D14671FFF7A1FD04A99B
:105A2000684600F0BFF8002820460AD0FEF7CEFFF7
:105A300000F010FB2046FEF7A1FF0028B3D00020A5
:105A4000CAE7FEF79BFF00280ED0204624300499B9
:105A5000FFF7E8FD2046FEF7B9FF00F0FBFA00284B
:105A6000A1D1FFF7ADFD9EE72046FEF7AFFF00F0A6
:105A7000F1FA98E7F3B5002683B0041E354605D049
:105A8000206C0027002803D072B6FEE772B6FEE74E
:105A9000FFF75AFDA06B002817D0401EA0632068B6
:105AA000002802D1FFF722F8A0602069002807D063
:105AB0002046103000F09CFA002801D0FFF780FD4E
:105AC000FFF74EFD012005B0F0BD0498002802D07C
