:020000040800F2
:10000000480F0020050200080D0200080F0200083A
:1000100000000000000000000000000000000000E0
:100020000000000000000000000000007511000842
:1000300000000000000000000B010008E9110008AA
:100040009D05000891070008170200081702000824
:10005000170200081702000817020008170200081C
:10006000170200081702000817020008170200080C
:100070001702000811120008090E000817020008F4
:10008000170200081702000817020008911B000859
:100090001702000817020008091D000817020008CF
:1000A00017020008290600080000000000000000F8
:1000B0000000000000000000000000000000000040
:1000C0000348854600F0ACF800480047A53B00080F
:1000D000480F0020084B19680868203080F3098811
:1000E000022080F31488BFF36F8F3FBCAE4608BC7C
:1000F00004BC62B61847000030010020EFF3108006
:1001000072B6704780F310887047EFF309800E4B8A
:100110001A6820381060F0C044464D4656465F4687
:10012000F0C008B572B605F07DF962B60CBC116876
:1001300008681030F0C8A046A946B246BB4680F316
:1001400009882038F0C818473001002030B50B4628
:10015000014600202022012409E00D46D5409D42A1
:1001600005D31D469540491B254695404019154627
:10017000521E002DF1DC30BD70B50024254600284C
:1001800001DA01244042002901DA01254942FFF742
:10019000DDFFAC4200D04042002C00D0494270BD8F
:1001A00003460B439B0703D009E008C9121F08C090
:1001B000042AFAD203E00B780370401C491C521E3B
:1001C000F9D27047D2B201E00270401C491EFBD246
:1001D00070470022F6E710B513460A460446194652
:1001E000FFF7F0FF204610BD30B50446002003465F
:1001F00000E05B1C934203D2E05CCD5C401BF8D076
:1002000030BD00000448804704480047FEE7FEE791
:10021000FEE7FEE7FEE7FEE70D120008C10000085A
:10022000064C0125064E05E0E36807CC2B430C3C49
:1002300098471034B442F7D3FFF746FF0C67000825
:100240002C6700080EB5C217C10F5040CA074018EE
:100250000021054B0293019200910A460B4600F0E3
:1002600026F803B000BD00003304000010B50029DB
:1002700004DB0124E40740428C412146002B04DBCF
:100280001C460123DB075242A341994200D1904210
:1002900010BD000010B5002B08DA0024401C61419D
:1002A00092185B411A4301D14008400010BDF0B5DF
:1002B0001FB482B005460C0003D0084601F086FD4D
:1002C00002E001F083FD20300246009021462846DE
:1002D00000F03FF8049B059A04460F46184311436B
:1002E000084314D0184610431BD0009840210A1A26
:1002F0001846059900F03DF805460E46009A059906
:10030000049800F026F8084305D0012004E02046B8
:10031000394607B0F0BD0020C11705430E432C43FA
:10032000374300990E986305401A7905E40A0022C4
:100330000C43FD0A0A3002D500200146E9E7010519
:10034000101969410C9C0D9D00196941FFF7A2FF2E
:10035000DFE710B5202A04DB0146203A9140002057
:1003600010BD914020239C1A0346E340194390405E
:1003700010BD10B5202A04DB0846203AD0400021E9
:1003800010BD0B46D340D0402024A21A9140084310
:10039000194610BD70B58C180578401C6B075B0FB3
:1003A00001D10378401C2A1106D10278401C03E0D9
:1003B00006780E70401C491C5B1EF9D12B0705D432
:1003C0000023521E0DD40B70491CFAE70378401C21
:1003D000CB1A921C03E01D780D70491C5B1C521E49
:1003E000F9D5A142D8D3002070BD00000026374CBB
:1003F000374D86B0F643FF23F53302AA314600207D
:1004000005F0D0FB0128F6D10298C007F3D0314F98
:10041000002203A9386805F03DF90128EBD16946AF
:10042000C87B4006400E4870087C8870887BC007F7
:10043000C00F0870888902F027FD69468880019AFC
:10044000009903F076FE002804D0019A0099104626
:1004500001F086FDA07C032835D13146286805F0DF
:1004600091F9A07C03281ED1607C00281BD072B6B5
:1004700001F044FE184840780421084316494870AA
:1004800016487D21C9000068FFF760FE0A21484335
:1004900000F08EFE10484078FB2108400E4948705D
:1004A00000F0E4FE62B600231A461946286805F0FB
:1004B0006EF80A487D21C9000068FFF747FE0A214F
:1004C000484300F075FE04F013FAA1E7940D0020F4
:1004D000880100208401002000800020A401002069
:1004E00010B5024902F098F810BD0000510500084F
:1004F00010B5024902F01CF810BD0000010500080B
:1005000070B504461D46104601F0D2FD410040186A
:10051000611B081AC0B2214604F0FBFA70BD00004E
:1005200010B5024902F038F810BD0000310500088E
:1005300070B504461D461046049E01F0B9FD6119D0
:10054000891B081AC0B2214604F0E3FA70BD00000E
:10055000F8B5114E07464D00306D1446405DE4215C
:1005600004F0D7FA001B1C300028306D405D05DD1B
:10057000E42104F0CEFA001B1C3004E0E42104F076
:10058000C8FA201A1C38C000381A00D50020C0B2A2
:10059000394604F0BEFAF8BD9002002010B50648B6
:1005A000416941610548006801F042FF0448006864
:1005B00001F02CFF10BD000000040140E00000200D
:1005C000F0010020F1B51748154E477880780024D7
:1005D000C1081448357F1038808A80B204F094FA3C
:1005E000C0B204F021FB803840B201F0B3FC4006F9
:1005F000000E394604F08DFA07460BE0706D009945
:10060000005D4978084203D03946204603F088F857
:10061000641CE4B2AC42F1D3284602F00BFFF8BDF3
:1006200090020020E000002070B5204900208A6878
:100630001F4C53070246002B02DA0423CB60626092
:100640008B689B0702D50223CB6062608B68DB0757
:1006500026D00125CD6063685B1C6360154B1B6B66
:100660005B1C1DD16368032B1AD362600968890380
:100670008A0D11494B68114EB34212D10B884E8836
:10068000F643B6B2B34201D10888101AFFF7DAFD7B
:100690004900490800220A4BFFF7E8FD00D2256017
:1006A00070BD0848C0688005800DEEE7006C004012
:1006B000CC010020C0FAFF1F00F7FF1F69E5B5A3BA
:1006C0000000244000F8FF1F10B5024901F0A4FF0C
:1006D00010BD0000D90600080B46014610B50448BD
:1006E0005B00006DC05C801AC0B204F012FA10BD4D
:1006F0009002002010B5024901F04EFF10BD00002D
:100700000507000810B501465A009A1802985208C9
:100710001018C0B204F0FDF910BD000010B5024978
:1007200001F07AFF10BD00002D0700080B460146BE
:1007300010B50548046D5800401C205C801AC0B2FA
:1007400004F0E7F910BD00009002002010B5024946
:1007500001F0E6FF10BD00005D07000870B50C4613
:100760000A490D6D59004B1CEB5C695C203B7039EC
:10077000534361435918CA17520E511849040A0EBF
:100780000146104604F0C5F970BD0000900200203B
:1007900010B504484169890703D50221416102F07F
:1007A000F5FA10BD0004014001494861704700009E
:1007B0000004014001494861704700000004014005
:1007C00010B5837918490268002B26D00B68934333
:1007D0000B604A6803689A434A60027952181368AA
:1007E0000468234313608A6803689A438A60CA686E
:1007F00003689A43CA604279102A05D051180A68E2
:10080000006802430A6010BD8A6803681A438A6060
:10081000CA6800680243CA6010BD007940180168C8
:100820009143016010BD00000004014000210160FF
:1008300001710C22427181717047000070B5EFF3B5
:10084000108272B6002317490C68E5061024002DAB
:1008500003DA0D680123A5430D604D690626354373
:100860004D6102258D60C860886804263043886029
:100870004869C007FCD188688008800088604869A2
:1008800028434861002B02D0086820430860002AF2
:1008900000D162B64869400701D5012070BD002033
:1008A00070BD00000020024010B504461F20C006A5
:1008B00001212018C90388421BD200F0A5F80E4977
:1008C000486906221043486102208860CC608A682B
:1008D00004231A438A604A69D207FCD18A689208C5
:1008E00092008A604A6902434A6100F007F80120D9
:1008F00010BD002010BD00000020024002488168A9
:10090000082211438160704700200240F0B5EFF3E8
:10091000108372B60024184A1568EE061025002EC2
:1009200003DA16680124AE431660566906273E4373
:10093000566101269660D0601161906804210843D9
:1009400090605069C007FCD190688008800090607A
:100950005069022108435061002C02D010682843DE
:100960001060002B00D162B65069400701D501200C
:10097000F0BD0020F0BD00000020024038B5830724
:100980009B0F1F25C21AED0601244019E503A8425A
:1009900008D2106800906846C1541046009900F0D3
:1009A00003F80446204638BD70B504461F200D46A6
:1009B0000126C0062018F10388421BD200F024F85B
:1009C0000D4A506906210843506101209060D460AF
:1009D000156190680421084390605069C007FCD1FC
:1009E000906880088000906050690221084350613F
:1009F000FFF784FF304670BD00200240007870474A
:100A00000088704700687047034802494160034905
:100A1000416070472301674500200240AB89EFCD5C
:100A2000F0B500231D469C461C460126A6400E42FA
:100A300011D067000326BE403343082C04D2A70020
:100A40000F26BE40354306E0A7000F26203FBE40DC
:100A500067463E43B446641C102CE6D38468D60235
:100A6000F6178C430E40344384604468D601F61771
:100A70008C430E4034434460016894000F4EA40F31
:100A8000744399431C4021430160C1689403A40F3F
:100A9000744399431C402143C1601107084A090F60
:100AA0005143026A0B46AA432B401A430262426A30
:100AB00063469A4319400A434262F0BD5555555565
:100AC0001111111170B5064615460C46000701D5E7
:100AD000C046C046B00701D500F0C8FB700704D57A
:100AE00016490020087000F0AFFBE00701D000F0CD
:100AF000D7FBA00701D500F0B5FE600701D500F0D7
:100B0000B7FE200701D500F0B9FEE00601D5C046CA
:100B1000C046A80701D5C046C046680701D5C046F3
:100B2000C046280701D500F0AFFEE80601D5C04653
:100B3000C046F00701D000F0A5FB70BD2A020020DE
:100B40000249014808607047CCCC000000300040EA
:100B5000034A0146D26800200A4200D001207047B3
:100B6000003000400348C168890701D40249016090
:100B70007047000000300040AAAA00000149486008
:100B80007047000000300040014988607047000055
:100B9000003000400149086070470000003000400C
:100BA00000B5A838030001F028F91B0F1113151721
:100BB0001D21231F26292C2F3134373A3D44191B80
:100BC00040424D4D474A4D00E22000BDE92000BDA6
:100BD000EA2000BDB52000BDB62000BDB32000BD99
:100BE000B42000BDB72000BDCC2000BDCD2000BD8D
:100BF000FF20843000BDFF208B3000BDFF209330EC
:100C000000BDFF20953000BD0F4800BD0E48801C80
:100C100000BD8920800000BD0B48001D00BD0A48B2
:100C2000401D00BD0848801D00BD6F2000BD702024
:100C300000BD0548093000BD03487E3000BD1520C9
:100C4000400100BD002000BD21020000F8B54A4867
:100C500081684A4A1143816004F006F800270126A2
:100C6000474D65E0A86ABC000059411C5FD003F005
:100C70003BF903F02DF94349002809690851A86A96
:100C800000590BD00107090F32468A4091B2000982
:100C900082020920C00610183B4A0BE00107090F29
:100CA00032468A4091B2000982020920C00610181B
:100CB00001225204FFF7B4FEA86A005901098A0212
:100CC0000921C90651180A6B0007000F33468340FB
:100CD0009A430A632B48262100690259120A12021C
:100CE000516002590221120A120211610259FF21B8
:100CF0008A43516102590021120A1202916102597C
:100D0000120A120211660259120A1202516602599F
:100D1000120A120291660259120A1202D16602598F
:100D2000120A120211670059000A000241677F1C73
:100D3000E888B84296DC2620012189074860022015
:100D40000861FF20486100208861104A10625062EB
:100D50009062D062106350634868304348600C482A
:100D60000168FF22120491430122D2051143016060
:100D7000084851120160F8BD4010024000E2030033
:100D8000900200201C0100200100022040000040D1
:100D90000CE400E000E100E001208007016840224F
:100DA000114301607047000010B5054900200C7F19
:100DB000214602F08BFE204602F03CFB10BD0000F5
:100DC0009002002001F096FE01F0D0FA04F0EEF956
:100DD00002F03CFC02F06CFFFFF7DEFF01F0ECFDDF
:100DE00001F0F8FCFFF7BEFE01F0ACFD02F0D2FF0F
:100DF00002F034FD01F0D8FD04F0CAF904F0A0F9C6
:100E000001F01CFDEEE70000F8B50125AD072868EC
:100E100000064FD528688021884328605F4CA06871
:100E20005F4E0027002846D00020A0605D4F21685B
:100E3000F86A89004158491C04D02168890040584B
:100E400003F02CF8574881882068401CFFF77EF992
:100E5000216055480027076247628762C7620763BF
:100E600047635248076247628762C7620763476306
:100E700037627762B762F762376377634C4807621D
:100E800047628762C7624B4807624762876245488C
:100E90006168406A89004158491C04D06168890032
:100EA000405802F0FBFF09206861AF6128684021CB
:100EB00008432860F8BD6068C1B23F48006802F08E
:100EC00027FF38486168406A89004158491C04D0AE
:100ED00061688900405802F0C9FF32488188606823
:100EE000401CFFF733F96160FF206861AF610021AA
:100EF0002C480EE0876A8B00FF587F1C07D02768BC
:100F00007A43E7687F18D25D2769FB581A60491C4D
:100F1000C9B2C2888A42EDD8234AC2211162516205
:100F20009162D1621163516331627162B162F162A7
:100F3000316371631D4A116251629162D162116322
:100F400051631B4A116251629162D162194A116266
:100F500051629162C06A216889004158491C04D0DD
:100F600021688900405802F081FF0D4940390A6824
:100F7000402002430A600D4940390A6802430A6072
:100F80000B4940390A6802430A600A4940390A6835
:100F900002430A600120A06088E700001C010020D5
:100FA00040040040900200204000004040140040F7
:100FB00040200040402C0040F800002070B5094857
:100FC0000024057F0848467805E03146204602F0B7
:100FD000A7FB641CE4B2AC42F7D3284602F02AFA1D
:100FE00070BD000090020020E000002010B5014616
:100FF000024A002001F03CFB10BD0000591100081E
:1010000010B5044604480121007803F077FB034A39
:10101000214601F02DFB10BD6602002021100008C2
:1010200010B5029CE3189BB2002900DA494209B2CC
:10103000002A00DA5242090114B2FF2900DDFF2123
:101040000AB22101FF2900DDFF2109B28A4200DC3A
:101050001146C91889B2FF2900D9FF21FF22511A70
:10106000C9B203F045FBC0B210BD000010B5014687
:10107000024A002001F0FCFA10BD00002110000817
:1010800010B50146024A002001F0F2FA10BD00003E
:10109000C910000810B50146024A002001F0E8FA24
:1010A00010BD00001911000810B5044604480121C4
:1010B000007803F023FB034A214601F0D9FA10BD62
:1010C00066020020C910000810B5029CE41AA4B200
:1010D000FF2C00D9FF24482B00D9FF240831112907
:1010E00003D30832112A00D3FF24FF21091BC9B200
:1010F00003F0FEFAC0B210BD10B504460448012149
:10110000007803F0FBFA034A214601F0B1FA10BD62
:10111000660200201911000810B59A0002999A1869
:10112000511889B2FF2900D9FF21FF22511AC9B2F3
:1011300003F0DEFAC0B210BD10B504460448012128
:10114000007803F0DBFA034A214601F091FA10BD62
:10115000660200205911000810B50299C91A89B217
:10116000FF2900D9FF21FF22511AC9B203F0C0FAAA
:10117000C0B210BD704700000A4910B5401E884239
:1011800001D9012010BD0849486108480722C369F8
:101190001B021B0A4C042343C361002088610A61BF
:1011A00010BD0000FFFFFF0000E000E004ED00E0E4
:1011B000F8B50C4CA7696669216960618DB20020A1
:1011C000A06105202061FFF7CDFC2069C10701D097
:1011D000C003F8D520694008400020616661A7611E
:1011E0002561F8BD00E000E010B5FEF787FF04467A
:1011F00004F07AFC002803D001200349000748606E
:101200002046FEF77FFF10BD00ED00E070470000B4
:1012100008480169C9070BD00121C943016106498A
:101220004878421C4A70B72802D9044901208860D6
:101230007047000000100040B0010020E40C0020C6
:1012400010B500F0E9FA10BD10B506480121C171D2
:101250000021417214210448FEF7BBFF00F03AFC64
:1012600010BD000000800020940D002010B5044C3B
:10127000A07C032803D100F047FCE07CA07410BDE3
:10128000940D002010B50548817C032905D0817C90
:10129000C1740321817400F075FC10BD940D002011
:1012A000F8B5584E0025B573777C574C780701D5B3
:1012B00075742570F80602D580207074257020782A
:1012C00000282BD1F80729D008225049002000F02F
:1012D0008FF94E488560C1888181C58100784006BC
:1012E000800F03D100F0F6F8002801D100F0F0FAE9
:1012F000B5734021012807D0022808D003280AD05E
:1013000060207074032004E07174012001E07174A6
:101310000220207002E04820707425703A4800785E
:10132000012835D1B80733D4707CC107C90F4942B1
:101330000140C8062CD4354C0227A18934480278D4
:1013400091420DD2A289A168802000F08FF9E08936
:10135000A1894018E081A5812B480A2705700EE07D
:10136000A168802000F082F9A16829480078091856
:10137000A160A189091AA181E1890818E081E089A9
:10138000E188884203D1082007431F48057077741D
:101390001D480078022834D1707CC00731D01B4C26
:1013A0004027A1891A48027891420AD2A289A168ED
:1013B000002000F01DF9E089A1894018E081A58195
:1013C0000EE0A168002000F013F9A1681048007831
:1013D0000918A160A189091AA181E1890818E08191
:1013E000A08900280CD1482700F05CFA032804D01B
:1013F000682705490320087001E003480570B573AC
:101400007774F8BD008000202A020020940D00208F
:10141000EC64000810B506484078092806D1012080
:1014200000F00AFB002801D0032010BD002010BDF1
:10143000940D002038B5264C20784006800F0128F6
:1014400004D020784006800F2CD03FE06078030065
:1014500000F0D3FC0C3C070A123C3C3C3C3C181FFF
:10146000223C00F0B3FA04E0E08801282ED100F01D
:1014700099FA002828D129E0E088012826D100F037
:101480009BFAF6E7002000F0D7FA00281ED00220D1
:1014900038BD00F0BDFA01E000F0C4FA002815D014
:1014A000032038BD6078062810D1E17820796A469B
:1014B00000F034FAA060A068002807D0A18968462F
:1014C0000088814200D9A081012038BD002038BDAC
:1014D000940D002010B52948417800220B0000F03F
:1014E0008CFC0A060C480E48142748304548C08832
:1014F00002283ED100F0FAF81FE0002000E00120B1
:1015000000F01EF9002811D133E00178002930D114
:101510008178837C4906490E022B2AD0184B19701A
:101520000123002901D0837400E08274032010BDE0
:10153000007880281DD100F0B3F8002819D00120D0
:1015400010BD0178802914D1C188012911D1817C75
:10155000002904D0012902D002290AD102E0094958
:101560000A8001E0054910318160E8E70078002831
:1015700001D0002010BD00F00BF9C3E7940D00204E
:1015800000800020280200200207120F05D0054924
:101590008A73000602D54020487470478020087581
:1015A00070470000008000200207120F08D00006DC
:1015B00006D404498A73C87D897D000208437047B8
:1015C00000207047008000200207120F0CD007494E
:1015D0008A73000602D5487CC00601E0087D8006BB
:1015E000002801DA012070470020704700800020A9
:1015F0000007064B800EC01804E00378521E0B70E3
:1016000092B2491C002AF8D17047000020800020C7
:101610000107090F07D0000605D403488173017D37
:101620004908490001757047008000200207120F29
:1016300005D005498A73000602D51020487470470A
:1016400020200875704700000080002010B5044677
:1016500000F00CF82007000F05D0210603D5024941
:1016600088730120487410BD008000200007064BDD
:10167000800EC01804E00B780370521E92B2491C11
:10168000002AF8D1704700002080002010B51421F6
:101690000248FEF79EFD00F0F3F910BD940D002006
:1016A00038B5114CE078012805D0022807D003286E
:1016B0000AD0002038BD684600F02AF908E0A0787A
:1016C000694600F01BF903E0A078694600F05CF978
:1016D000A060A0680028EDD0A189684600888142FA
:1016E00000D9A081012038BD940D002038B5124CDE
:1016F00000202080114D2878C006C00E05D001289A
:1017000017D0022811D0002038BD287C694600F08F
:10171000F5F8C079400601D501202080687C0028BA
:1017200007D020880221084302E02879FFF74CFF08
:101730002080AC60012038BD28020020940D0020DC
:1017400010B512490A78D206D20E02D0022A1BD155
:1017500007E04A88012A17D1002800D001204874E8
:1017600010E04A88002A0FD10C7921070CD00028FC
:10177000204602D0FFF75AFF04E0FFF705FF20469E
:10178000C046C046012010BD002010BD940D0020B1
:1017900070B5164CA578A07C012802D0022823D170
:1017A0000AE0002D16D0284600F0B4F900281BD01E
:1017B00025740220A0740DE0002D0DD0207CA842DD
:1017C00008D0207C00F014F8284600F0A3F9002887
:1017D0000AD02574012070BD002020740120A0745F
:1017E000002000F005F8F5E7002070BD940D002002
:1017F0000848C179FD221140C171C179FB22114015
:10180000C171C279F7210A40C271427A0A4042721C
:10181000704700000080002010B50D488168421517
:10182000114381600C4C0B4A06212046FFF7F8F863
:10183000206B0621884320630848C169084A114388
:10184000C1610121401041700721C17210BD00002B
:101850004010024001000020000C00480000014040
:101860000000A489014900200860704700020020A0
:10187000014900200860704704020020014900204F
:101880000860704708020020044803218173007D2E
:10189000C00702D002490120086070470080002084
:1018A0000C02002010B5094900200A785206520E99
:1018B000212A0AD10A79002A05D00A79012A02D000
:1018C0000979022901D1FFF7A5FD10BD940D002073
:1018D00010B5094900200A78D206D20E012A0AD191
:1018E0000A79002A05D00A79012A02D00979022949
:1018F00001D1FFF79FFD10BD940D0020002801D0FD
:10190000002070475B200880004870472866000868
:10191000122101800048704748630008092300280D
:1019200004D001280ED002281AD01DE0212902D0AF
:10193000222919D102E013801148704741201080FC
:1019400010487047212902D022290DD103E00C480C
:10195000138019307047D82010800A4841307047F2
:10196000212903D0222905D0002070470448138084
:101970003230704722201080014834387047000010
:101980003A660008ED640008032806D28200044885
:1019900083581B780B8080587047002070470000E8
:1019A000300200200349024888600120704700008F
:1019B00011020020940D0020034902488860012094
:1019C0007047000012020020940D00200E4801799B
:1019D000012905D1C178012902D1C188082903D084
:1019E0000179002902D007E0084909E0C1780129FE
:1019F00002D1C188082901D000207047034908316D
:101A00008160012070470000940D00201302002027
:101A10000248C0780249487001207047940D0020A8
:101A20001002002002488078024988700120704727
:101A3000940D00201002002010B50F490A79002AE9
:101A400005D1CA78022A02D1CA88012A03D00879AE
:101A500002280AD00DE0094A002804D0107801F0CD
:101A600041FF012010BD8A60FBE7C878032800D140
:101A7000C888002010BD0000940D00201002002036
:101A800010488268012109050A43826002690A43FD
:101A9000026102698A4302610A49012040390863F0
:101AA000C86209490020C872C871487207490868AD
:101AB000FF22120490430860012005498005086058
:101AC00070470000401002400080002014E400E055
:101AD00000E100E0074901204870C8710020487209
:101AE000054908600549086005490860054908601E
:101AF0007047000000800020000200200402002047
:101B0000080200200C0200200149012008707047E3
:101B10002B02002030B5012801D0002030BD18482C
:101B200001218173002282740821017440234374CF
:101B300041744174C57902242543C571847382744C
:101B40000174437441744174C47904252C43C471F5
:101B50000324847382740174437441744174C3799F
:101B60000B43C37184734275C174802202751022C5
:101B700002750275427A0A434272012030BD0000AC
:101B80000080002001490120487070472B0200208E
:101B9000F8B501200005FEF70DFE114C114D20781F
:101BA0000126114F002802D0012804D00CE06869FA
:101BB00000070CD52670686940070FD502202070F9
:101BC000132000F027F93E702078002806D16869BC
:101BD000C00703D0132000F01DF93E70F8BD0000CF
:101BE000F6010020800002402B02002008B5FFF71C
:101BF0004DFDFFF725FB394C394D01270026F643F3
:101C0000314633466A46002003F0CCFF0098C007F7
:101C1000F4D03146334E306803F0B4FD6068000202
:101C2000020E60680004010E6068C0B2FEF74AFF51
:101C300001202D49800508602C48016800291CD02E
:101C400072B62A480068002816D00320FFF7ACFCC3
:101C500002460020208021490320FFF7C9FC62B61C
:101C60001E4900204880891C881E03F0FDF972B6C9
:101C70002868002805D00BE062B6286800280ED03E
:101C800024E016490222891C8320FFF7DFFC2F6025
:101C90001649002008600320FFF7BAFCECE714485F
:101CA00000681449884211D1642000F042FB1349B6
:101CB000114848620E4900200860BFF34F8F114958
:101CC0000F48C860BFF34F8F00BFFDE700231A46DF
:101CD0001946306803F05BFC90E70000A801002083
:101CE000080200208801002000E100E00C02002032
:101CF00024020020A5A5A55AEB9C374A40100240BB
:101D00000400FA0500ED00E01CB512480179827864
:101D1000090412028079114301430F4841600120F8
:101D20000E4980050860BFF34F8FBFF36F8F00200F
:101D3000019001A800900A48012200231146006882
:101D400003F066FE0198002803D001200549000732
:101D500048601CBD00800020A801002080E100E058
:101D60009401002000ED00E010B5024900F054FCA1
:101D700010BD0000791D000810B504460548490053
:101D8000006D405C801AC0B202F04EFF214602F0A6
:101D9000C0FE10BD9002002010B5024900F03CFCCE
:101DA00010BD0000A91D000810B504460648036DCB
:101DB0004800401C185C801AC0B202F035FF214672
:101DC00002F0A7FE10BD0000900200202021020CAE
:101DD00001D010211046020A01D01046083902092C
:101DE00001D01046091F820801D01046891E420802
:101DF00001D0881E7047081A704730B47446641EBC
:101E00002578641CAB4200D21D46635D5B00E3187D
:101E100030BC1847002809DBC106C90E01208840E4
:101E200003490860BFF34F8FBFF36F8F7047000007
:101E300080E100E0002805DBC106C90E01208840D2
:101E4000014908607047000000E100E08307FF22BD
:101E5000DB0E9A408907090E9940002808DB8308A9
:101E600009489B001B181868904308431860704786
:101E70000007000F0838830804489B001B18D86926
:101E800090430843D861704700E400E000ED00E0B3
:101E900002E008C8121F08C1002AFAD17047704733
:101EA000002001E001C1121F002AFBD17047000091
:101EB000F0B500231D469C461C460126A6400E4256
:101EC00011D067000326BE403343082C04D2A7007C
:101ED0000F26BE40354306E0A7000F26203FBE4038
:101EE00067463E43B446641C102CE6D38468D60291
:101EF000F6178C430E40344384604468D601F617CD
:101F00008C430E4034434460016894000F4EA40F8C
:101F1000744399431C4021430160C1689403A40F9A
:101F2000744399431C402143C1601107084A090FBB
:101F30005143026A0B46AA432B401A430262426A8B
:101F400063469A4319400A434262F0BD55555555C0
:101F500011111111002801DA404240B2704700000F
:101F600037B569460C880D79201FA02808D8294666
:101F7000009802F01DF82A4621461CA000F08AFEB7
:101F80002046E038072808D82946009802F090F843
:101F90002A46214621A000F07DFE2046A5380228D1
:101FA00008D82946009802F023F92A46214627A09E
:101FB00000F070FE2046A8381A2808D82946009854
:101FC00001F0DEFF2A4621462CA000F063FE2046E9
:101FD000ED38122808D82946009802F07FF82A46E2
:101FE000214626A000F056FE3EBD00005B70726FD9
:101FF000636573735F6B65795D206B6579636F648F
:1020000065203D20307825583A20707265737365DD
:1020100064203D2025640D0A000000005B70726F93
:10202000636573735F6D6F645D206B6579636F6467
:1020300065203D20307825583A20707265737365AD
:1020400064203D2025640D0A000000005B70726F63
:10205000636573735F73797374656D5D206B657908
:10206000636F6465203D20307825583A2070726592
:1020700073736564203D2025640D0A005B70726FE8
:10208000636573735F637573746F6D65725D206BE9
:102090006579636F6465203D20307825583A20705B
:1020A000726573736564203D2025640D0A0000008D
:1020B00010B504000DD0002C00DC604200B20029F5
:1020C0000DDB0A18081A40011146FEF755F82021C9
:1020D0000CE0002901DB002010BD802010BD421A59
:1020E000081840011146FEF747F86021081A40B26F
:1020F000002C00DA4042C0B210BD000070B51320C1
:10210000FFF788FE1B4B032018620C2058621A4907
:1021100000228A61184C0120403CE0630C69E4070E
:10212000FCD0FF24F5340221491CA142FCD3134901
:102130008C6801252D052C438C60104940390863BB
:102140001A625A620E4B1860CA6002234B618861A2
:102150008B69002BFCD14A6208620922CA6148627D
:102160000949084808600948FFF706F802F079FEB7
:1021700070BD00000070004080000240401002402E
:1021800000200240006CDC02A401002080BB0000A3
:10219000FEB502F05FFE224C032020620C2060623C
:1021A0002048816A0127394381620020FF21F531EF
:1021B000401C8842FCD30025256265621A4EF560FA
:1021C0007561B7611A49194808607D200001FEF762
:1021D000D3FF032020620C20606235631248403038
:1021E000816801263605B14381600E4A0D21803297
:1021F000916125626562816874102143816068463F
:1022000000960571082141718771FEF7D9FA0948D6
:1022100005703046FEF7CEFA07480460FEBD0000A8
:1022200000700040000002400010024080841E0048
:10223000A4010020F601002000E100E000B54030DC
:10224000C0B202F0F1FC00BD70B506460D480D4667
:102250004468002C15D00C48017C407CFDF776FFCB
:1022600008494978484308492039C98871434919C0
:10227000CA0812194C07835C640F0121A1404B402E
:10228000835470BD14010020B0020020FFB5164C2D
:1022900081B00025A57020781E461746002812D070
:1022A00002F0ECFD21890125411A89B2A060FF29C5
:1022B00001D9FF2101E0002905D0CBB23A460299AD
:1022C000019802F041FE6078064309D0002D02D14A
:1022D00002F0D4FDA0603A460299019802F0D8FDC0
:1022E000A07805B0F0BD000004010020F8B50E4C48
:1022F0000546E088684301F0A5FC0C4900234860CE
:1023000019460EE0002207E0C6183778521CFF0776
:10231000FF0F3770D2B25B1CE6889642F4D8491C96
:10232000C9B2A942EED3F8BD9002002004010020FA
:10233000704770B5054603F0D1FB044601E0FEF797
:1023400011FC204602F094FDA842F8D370BD0000B5
:1023500001490020087070476C0000200148416965
:1023600001480847C4640008007C000810B51948FB
:10237000032101620C224262174882680123DB04B8
:102380001A438260154842690E239A4342614161B3
:10239000134801684022090A0902114301601149EA
:1023A00001200860104900048860C860086000F0DF
:1023B0007FF80E48006800F03BF80D48006800F018
:1023C00025F800F03FF80446FFF7C8FF204600F06C
:1023D00055F810BD0070004040100240000002405F
:1023E00000E400E000E100E000040140E000002023
:1023F000F001002010B50348816803488847C043B6
:1024000010BD0000C4640008087C000802490A6985
:10241000C143024810470000C4640008087C00085B
:102420000148816801480847C4640008047C00082A
:1024300002490A690146024810470000C4640008C6
:10244000047C00080148816801480847C46400080A
:102450000C7C0008084A0748D27F012192001143F2
:102460000170054920310A78427049788170FF2156
:10247000C1707047E00000209002002070B5054652
:10248000FFF7CEFF0646FFF7B5FF0446FFF766FFEE
:102490003046FFF7CDFF2046FFF7B8FF0248294638
:1024A00002690248904770BDC46400080C7C0008B3
:1024B00010B50AA000F0EEFBFFF7B2FF0D4908606F
:1024C00001460DA000F0E6FBFFF794FF11490860FC
:1024D000014611A000F0DEFB10BD00005B656563E6
:1024E0006F6E6669675F757365725F6765745D209F
:1024F0000D0A0000E00000206C65645F6D6174727D
:1025000069785F6565636F6E666967203D20256445
:102510000D0A0000F00100206B65796D61705F634A
:102520006F6E666967203D2025640D0A000000007B
:10253000F3B518480F468078154D4108154881B00D
:102540001038808A00242E7F80B202F0DDFAC0B2FB
:10255000009016E0686D0199005D497808420ED040
:102560002A6D6000115C401C125C0A48703940788A
:10257000203A009BB8470146204601F0D1F8641C80
:10258000E4B2B442E6D3304600F054FFFEBD000092
:1025900090020020E0000020F3B51E481C4D80781A
:1025A00083B041081B4800241038808A2F7F80B2F6
:1025B00002F0AAFAC0B2029023E0686D0399005DB0
:1025C000497808421BD02A6D6100505C491C703864
:1025D0000190565C4043203E31467143401880B222
:1025E00002F064FB0346029800900A483246049EBB
:1025F00040780199B0470146204601F091F8641CEB
:10260000E4B2BC42D9D3384600F014FF05B0F0BDA7
:1026100090020020E0000020F3B5144F124EB8786D
:1026200081B0810838461038808A0024357F80B216
:1026300002F06AFAC0B2009010E0706D0199005D7E
:102640004978084208D0029B78782146009A98473A
:102650000146204601F064F8641CE4B2AC42ECD3BD
:10266000284600F0E7FEFEBD90020020E0000020BA
:10267000F7B5284886B0007F0290274800240078EC
:1026800004903FE023480799406D4978005D084277
:1026900036D000200190069D26E01E481E49026D9E
:1026A0006000135C49194E78401C105C497A9F1BEE
:1026B000461A3846314678437143401880B202F0DA
:1026C000F5FA039015486A00817813481018408B7A
:1026D00002F01AFA32460090089E3946039B019890
:1026E000B0476D1CEDB2019004988542D5D30B48DC
:1026F0004178019802F00DFA0146204601F010F8E9
:10270000641CE4B202988442BCD300F093FE09B08A
:10271000F0BD00009002002066020020E0000020D2
:10272000F3B51D481B4F807883B081081A480024F8
:102730001038808A3E7F80B202F0E6F90546C0B2CA
:10274000FFF77CFD803840B20290E8B202F06CFAEC
:10275000803840B2EDB2019014E00E480399406D0C
:102760004978005D08420BD00B480095049F4078E3
:102770002346019A0299B8470146204600F0D0FF4F
:10278000641CE4B2B442E8D3304600F053FE05B016
:10279000F0BD000090020020E000002010B50446CB
:1027A0000029024609D0FD21012002F0FBFA012098
:1027B00002F09AFD2246FD2108E0FC21012002F0F2
:1027C000F1FA012002F090FD2246FC21002002F0E7
:1027D000E9FA10BDF8B5174C607A002828D000251A
:1027E00001273F040CE06069AE008059394601F0D2
:1027F00060FBA0693946805901F05BFB6D1CEDB2AE
:10280000607AA842EFD800250FE06069AF00C05998
:1028100001F038FB0646A069C05901F033FB4000C7
:102820000643054846556D1CEDB2607AA842ECD8C7
:10283000F8BD000090020020F4010020F8B5164811
:102840000025417A002924D000241EE01248A60069
:102850004069805901F016FB07460F48806980598E
:1028600001F010FB400007430C48FAB2015D8B07F2
:102870009B0F934207D08906090E1143015520464C
:1028800000F00EF80543641CE4B20348417AA1420B
:10289000DCD82846F8BD000090020020F40100209A
:1028A00070B5144C0A07144B0546120F605D9A5C14
:1028B0000026801840B26055042807DA021D05DDA5
:1028C0000E4A8907127C890F914210D1012804DB3E
:1028D000012631462846FFF761FF6057002804DAD9
:1028E000012600212846FFF759FF00206055304699
:1028F00070BD0000F5010020DC640008900200209B
:102900000B490020086048600A48006B401C0ED14B
:102910000948016807221143016008490868FF223D
:102920001202904308600120054940060860704784
:10293000CC010020C0FAFF1F006C004018E400E04A
:1029400000E100E010B51248006B401C1FD1114897
:10295000016800291BD0EFF3108472B600210160DA
:10296000FEF752F80C48FDF769FF0C480068800339
:10297000800DC143090401430948FDF7C7FF08481A
:102980000849001DFDF7C2FF002C00D162B610BD42
:10299000C0FAFF1FCC01002000F6FF1F006C0040B2
:1029A00000F7FF1F69E5B5A310B500F075F800F05A
:1029B0009FF802F083F810BD10B500F004F800286D
:1029C00000D0012010BD00207047000070B50C46FB
:1029D000054600F045F8002807D0002C04D0034835
:1029E000C54201D100F03AF9012070BDFD83FFFF1F
:1029F000F7B5012182B0194D002400913C22535DAE
:102A0000A96B26E022460C26724308328A5A82427B
:102A10001DD16846007B002806D002F034FA0C2253
:102A2000A96B5443085116E00C20444326460A364D
:102A3000885D0027002807D0B01E085A0021FFF744
:102A4000C5FF0090A86B8755A86B075103E0641C75
:102A5000E4B2A342D6D8009805B0F0BD90020020A1
:102A600070B501240A4D292809D00A4AD0420CD158
:102A700000290AD02C70012000F026FC01E000297A
:102A800003D02C70022000F01FFC012070BD00005C
:102A90006C000020FD83FFFFF8B5144F00253E4673
:102AA00020361EE02C460C20BA6B444310590028F7
:102AB00015D021460A310091515C00290FD102F056
:102AC000D7F9B96B221D8A58904208D3009A012089
:102AD0008854B86B0834005B0121FFF777FF6D1C49
:102AE000EDB2307FA842DDD8F8BD00009002002092
:102AF0000120704710B50120C046002800D00120F9
:102B000010BD000037B50446029A019900F01EF886
:102B1000002815D001A9204601F050FB00280FD055
:102B20000848201805D07F21C900401A00D0012094
:102B30003EBD684601790448002900D0012101709A
:102B400000203EBDF587FFFFD401002037B53F4B85
:102B50006946C21A097901253D4C98424DD009DCDD
:102B6000E32819D0E72817D03A4A801834D0012832
:102B700007D114E0012A54D03748101803D0012897
:102B800005D001203EBD00295DD065705BE00029C5
:102B900059D00020607056E0607868403EBD002942
:102BA00051D000F0CFFC4130FF2801D9FF2003E0D5
:102BB00000F0C8FC4130C0B200F006FE00F0C2FCDC
:102BC0002CE02570592000F07FFB5A2000F07CFBA0
:102BD0005B2000F079FB36E0002934D000F0B2FC35
:102BE000412801D2002003E000F0ACFC4138C0B223
:102BF00000F0EAFD00F0A6FC23E0002923D000F05D
:102C00009BFC4130FF2801D9FF2003E000F094FC39
:102C10004130C0B200F0ACFD00F08EFCFF28D0D0F7
:102C200011E000290FD000F087FC412801D20020DC
:102C300003E000F081FC4138C0B200F099FD00F0E3
:102C40007BFC0028BDD000203EBD000008780000BD
:102C50006C000020FD87FFFF05FAFFFF10B5FFF7AE
:102C600085FBFFF725FC00F0F1FC0120C04610BDFC
:102C700070B50D460646002404E0315D03A000F067
:102C800009F8641CAC42F8D370BD000025303258FE
:102C9000200000007047000010B5134881684022F2
:102CA000114381601148016880221143016010487E
:102CB000FDF770FF0320FDF761FF0120FDF748FFDE
:102CC0000028FAD13220FDF75FFF0220FDF740FF18
:102CD0000028FAD10220FDF73BFF0028FAD1FDF7CA
:102CE00041FFFDF72DFF10BD40100240005801408C
:102CF0005555000070B584211D48FDF76AFA1C4E39
:102D000000200C3EB06030601A4840688005800D9D
:102D10007060C046C04618490020401C8842FCD361
:102D200001F042FF15488168021511438160154C7E
:102D30001348E0620125A5626561E81E2061E06834
:102D40002843E06000210D20FFF780F80D20FFF7F9
:102D500071F82068284320600B48032101620C2190
:102D60004162B0680028FCD001F0D8FE70BD0000C0
:102D7000F00C0020800002401027000040100240AC
:102D8000FFFF0000001000400070004070B52B48AD
:102D9000416A2B484268002A23D0816081684268DA
:102DA000294B891A8AB22749511899421AD8816841
:102DB0004160264C6168491C616003780146002629
:102DC0000C31002B19D003789B005B18803BDB6F24
:102DD0009342037807D89B005B18803BDB6FD31AC4
:102DE00006E0416070BD9B005B18803BDB6F9B1A67
:102DF0000A256B43934200D9067003789D006D1835
:102E00005B1C03702A600278104D0C3D022A0FD320
:102E10000670A868002200280AD18300CB58401C05
:102E20009A18C0B20228F8D35008286001F062FF57
:102E300060680A28D6D90120A86070BD0010004043
:102E4000B001002070CCFFFF60540000F00C0020A7
:102E500010B50948416A094A91420BD100214162EB
:102E60000749012008600748016881F30888406825
:102E70008047FEE710BD000040100240EB9C374A3F
:102E80000000014000E0FF1F10B53049E0284A78FB
:102E9000097821D012DC352844D008DC292844D018
:102EA0002A284CD0312816D148064CD449E039287C
:102EB00001D082280FD1CB071FD108E00446E23CA5
:102EC0002300FEF79AFF0611141C08222508890723
:102ED00013D4110731D410BDC8072CD1D0070CD0A2
:102EE000C80610D4E32010BD4807F9D401E0480714
:102EF00001D5E22010BDD007F2D0E02010BD900730
:102F00000CD5C8060CD5002010BD0807F9D401E087
:102F1000080701D5E62010BD9007F2D5E42010BDCA
:102F2000E72010BD880608D401E0880601D53520C9
:102F300010BD100701D5392010BD292010BD48064D
:102F400001D5312010BD2A2010BD0000F001002065
:102F50000FB470B5582204A94248FDF721F9414C3D
:102F6000A088800000F078FF3F4D0028A86004D1C1
:102F700037223E493EA0FFF78DFEA088800000F07A
:102F80006BFFE860002804D13922384944A0FFF7DC
:102F900081FEA088E1884843C01DC117490F081869
:102FA000C010800000F058FFA861002804D13B2227
:102FB0002E4947A0FFF76EFE607A00280CD0C01D96
:102FC000C008800000F048FF6860002804D13E225D
:102FD00026494E48FFF75EFEE088800000F03CFF87
:102FE0004B490028086004D14122204949A0FFF73D
:102FF00051FEA088800000F02FFF2861002804D136
:1030000043221A4950A0FFF745FEA088800000F037
:1030100023FF6861002804D14522144957A0FFF717
:1030200039FEA088E188484300F016FF6149002876
:10303000086004D147220D495FA0FFF72BFEA0884E
:10304000E188484300F008FF69490028086004D17E
:103050004922064967A0FFF71DFE70BC08BC04B0FA
:103060001847000090020020E80000202A640008B1
:103070005B6B65796D61705F696E69745F757365AF
:10308000725D2025733A2025643A207261775F6D66
:103090006174726978203D3D204E554C4C0D0A00FC
:1030A0005B6B65796D61705F696E69745F7573657F
:1030B000725D2025733A2025643A206465625F6D55
:1030C0006174726978203D3D204E554C4C0D0A00CC
:1030D0005B6B65796D61705F696E69745F7573654F
:1030E000725D2025733A2025643A20736F757263F0
:1030F000655F6C61796572735F6361636865203DCC
:103100003D204E554C4C0D0A00000000846600081E
:103110002C0100205B6B65796D61705F696E69746D
:103120005F757365725D2025733A2025643A2070BF
:1031300063745F6363725F61646472203D3D204E1F
:10314000554C4C0D0A0000005B6B65796D61705F3A
:10315000696E69745F757365725D2025733A202509
:10316000643A20637572725F6D6174726978203D94
:103170003D204E554C4C0D0A000000005B6B6579FC
:103180006D61705F696E69745F757365725D20252E
:10319000733A2025643A206D61747269785F7072A9
:1031A0006576696F7573203D3D204E554C4C0D0A78
:1031B00000000000D80000205B6B65796D61705FD6
:1031C000696E69745F757365725D2025733A202599
:1031D000643A206C65645F72656E6465725F7068E6
:1031E000617365203D3D204E554C4C0D0A0000009A
:1031F000280100205B6B65796D61705F696E697491
:103200005F757365725D2025733A2025643A206CE2
:1032100065645F706C61795F7068617365203D3DC6
:10322000204E554C4C0D0A0030B5084B9D888D4200
:103230000AD9DC88944207D945436818604380184E
:1032400019684000085A30BD002030BD90020020AF
:1032500001220349824008789043087070470000BB
:1032600010010020012181400248027811430170C1
:103270007047000010010020F3B50E480F46067895
:103280000D48007A401E44B201250EE02846A040B9
:10329000304208D0E0B23A460099FFF7C5FF012856
:1032A00001D0E0B2FCBD641E64B2002CEEDA002056
:1032B000FCBD0000100100209002002001480078B1
:1032C00070470000CC00002030B51449002244248F
:1032D000645C0B6C1DE01C25554310355D5D85421B
:1032E00015D11C204243104608301C58002C12D027
:1032F0009D5865436D00141D6D1C1D51096C0858C7
:10330000FF2802D18858401C0851012030BD521CB2
:10331000D2B29442DFD8002030BD000090020020DD
:10332000FEB50025414F7BE040482C4640381C222A
:103330005443016C261D8A59002A68D020460C305F
:1033400001900858002807D001F092FD3749403914
:10335000096C0959884228D3344822464038113232
:10336000016C00928A5C002A13D0002200980A5453
:1033700001F089FD2D4940390A6C019950502B48C4
:103380004038006C81590259914204D3891A815105
:103390000BE00122EAE70021244A8151403A136CF4
:1033A00000981954126C0198115020494039086C4A
:1033B0008259002A13D00E46001900F039F800286F
:1033C0002CD02046316C1130085C002813D02046E8
:1033D0001030085CFF280BD01834095D10E021463E
:1033E00014314158002919D01034005D884715E088
:1033F0001834085D08E01034085DFF2803D0002170
:1034000000F08EF90AE0002000F0A0F906E0234663
:1034100000221133CA54006C0C3402516D1CEDB201
:103420003879A84280D80120FEBD0000D0020020DB
:10343000012070470349097F814201D9012070476B
:10344000002070479002002010B5012000F002F823
:1034500010BD000010B504460448817F0448807800
:1034600001F04CF9214600F089F910BD90020020CE
:10347000E000002010B5012000F002F810BD0000AF
:1034800010B504460448417F0448407801F036F9FD
:10349000214600F09FF910BD90020020E0000020BE
:1034A00010B500F001F810BD10B5084801788A0782
:1034B00003D000220346103BDA70890889000170AE
:1034C0008907890F02A0FFF7E5FB10BDE00000208F
:1034D0005B6C65645F6D61747269785F656E616273
:1034E0006C655D2025640D0A0000000010B500F039
:1034F00001F810BD10B5084801788A0702D10346CB
:10350000103BDA7089088900491C01708907890F0E
:1035100002A0FFF7BFFB10BDE00000205B6C6564FC
:103520005F6D61747269785F656E61626C655D2064
:1035300025640D0A000000000148807870470000F3
:10354000E00000200148407870470000E0000020C3
:1035500010B5012000F002F810BD000010B50446BF
:103560000548817F0548807801F0C2F8C0B2214645
:1035700000F004F910BD000090020020E0000020DF
:1035800010B5012000F002F810BD000010B504468F
:103590000548417F0548407801F0AAF8C0B22146AD
:1035A00000F018F910BD000090020020E00000209B
:1035B00070B50C460546FFF7B3FE2146284600F0DD
:1035C00005F8002800D0012070BD000038B51E4C61
:1035D0002078002822D1FFF771FE0090684600781D
:1035E000800701D5FF2100E00021592000F098F864
:1035F000FFF764FE009068460078400701D5FF2180
:1036000000E000215A2000F08BF86078002801D0FB
:10361000FF2100E000215B2000F082F8A0785C2808
:1036200010D2002000F092F8606801F021FC3228EE
:1036300005D901F028FC6060A078401CA070A0783B
:1036400000F0A4FA012038BD6C00002010B5FDF791
:10365000FDFA00230E4A0F49137018464400A418BF
:10366000401CC0B261830828F8D3094A2A3A137073
:10367000002043009B18401CC0B259830828F8D38F
:1036800005480068401C01D1FEF7E4FE10BD0000B3
:1036900066020020FFFF0000E000002070B5144625
:1036A0000D46064600F00EF80549CA6CC9887143FC
:1036B0005118695CFF2902D02154401CC0B270BD72
:1036C000900200200020704710B50E490A7892073A
:1036D00017D00A4612789207920F002803D01528B7
:1036E00003D3503203E0121D01E0800002430A7050
:1036F0001006810E04A0FFF7CDFA02490020103910
:10370000C87010BDE00000205B6C65645F6D617483
:103710007269785F6D6F64655D2025640D0A000035
:1037200010B5084A137F83420AD94000936C441CA9
:103730001C5DD288185C5443034A201892681154C7
:1037400010BD000090020020D000002070B5064699
:103750000024064D05E031462046FFF7E1FF641CDA
:10376000E4B2287FA042F6D870BD0000900200208D
:1037700010B5012100F002F810BD000010B503499A
:103780008870014602A0FFF785FA10BDE000002016
:103790005B6C65645F6D61747269785F7370656599
:1037A000645D2025640D0A0070B5064D0446297835
:1037B000884305D0002000F0BDF8002000F098F804
:1037C0002C7070BDD000002010B5012100F002F86F
:1037D00010BD000010B505490A78920704D0487062
:1037E000014603A0FFF756FA10BD0000E0000020DC
:1037F0005B6C65645F6D61747269785F76616C5D46
:103800002025640D0A00000010B5012000F002F828
:1038100010BD0000014610B5044800788008401C27
:10382000142800D30120FFF74FFF10BDE000002057
:1038300010B5012000F002F810BD0000014610B5DF
:10384000054800788008401E0006000E00D11320B5
:10385000FFF73AFF10BD0000E000002010B500F0B7
:103860000FF9154C2078002811D12046103000782F
:1038700081070CD08008E2780021002A09D0012AB3
:1038800014D0022A15D0032A00D1E17010BD002007
:10389000F1E709482A22001D0170E06807496061CC
:1038A0008818FCF77DFC0120E07010BD00F042F8A4
:1038B00010BD00F01DF810BDD00000203C0200201B
:1038C00000B5012000F002F800BD0000044801220C
:1038D000017851400170024900201039C8707047CA
:1038E000E00000200149087070470000CC00002073
:1038F00070B50D4C0D4D2146A07010310978890727
:10390000890F6170002803D0297F0020FFF750FE47
:10391000AA88E888A168424305480068FCF740FC93
:103920000320E07070BD0000D00000209002002055
:103930002801002010B5514CA178884207D12146BA
:103940001031097862788907890F914201D00121ED
:1039500000E00021494A121D91700B2856D009DC65
:103960000300FEF74AFA0B1B21262B30353A3F4461
:10397000494E8900112867D007DC0C380300FEF798
:103980003CFA054A4F54595E7B00122861D0132837
:1039900064D0142867D0FF286ED110BD00296BD0E9
:1039A0000020FFF7D3FE67E03448001DFDF706FB5B
:1039B0005DE03248001DFCF705FE58E02F48001D71
:1039C000FCF78EFD53E02D48001DFCF791FD4EE005
:1039D0002A48001DFCF7A4FD49E02848001DFCF71B
:1039E00073FE44E02548001DFCF798FE3FE02348A5
:1039F000001DFCF77FFE3AE02048001DFCF7A6FE04
:103A000035E01E48001DFDF777FB30E01B48001D28
:103A1000FDF740FB2BE01948001DFDF7F1FA26E009
:103A20001648001DFDF722FB21E01448001DFDF79C
:103A30003BFB1CE01148001DFDF722FB17E00F487F
:103A4000001DFDF779FB12E00C48001DFDF7CEFAD2
:103A50000DE00A48001DFEF787F908E00748001D41
:103A6000FEF79AF903E00548001DFDF79DF90028CF
:103A700002D00020E07010BD0220FBE7D000002043
:103A800070B50F4DE86801F0F3F9044601F0FBF959
:103A9000E8600C490C4800220B78001B0CE0550034
:103AA0006D186E8BB04203D20D786D1E0D7001E063
:103AB00036196E83521CD2B29A42F0D370BD000008
:103AC000D00000203C020020FFFF0000F3B583B0CF
:103AD0000446FF20694608700871FFF733FD294945
:103AE00088703EE001A8029027482346C06CEE464D
:103AF0008446254800218688C2883DE0154600207E
:103B00004D4367467F1933E0C55DFF2D2ED09D42A2
:103B10002CD172461170029908701A484568002D20
:103B20001DD019482030017C407CFCF70FFB024679
:103B300014486B4641781B784A431349C988594356
:103B40006B461B79C918CB085B19D25C4907490F32
:103B5000CA40D10713D000212046FFF7E1FD641CC5
:103B6000E4B204988442BDD305B0F0BD401CC0B29D
:103B70008242C9D8491CC9B28E42BFD8EFE78178CA
:103B8000EAE70000140100209002002070B504460E
:103B9000451D04E0A0B2FF21FFF7C2FD641CAC424A
:103BA000F8DB70BD1CB5FFF753F900F0ADFDFEF773
:103BB000A7FEFFF771F8FEF7BBFB002205211E20D0
:103BC00001F090FC13490860012001F079FC1249D2
:103BD000086012490120019100900023602210A189
:103BE000114801F095FE1149032001910090002336
:103BF00040220FA10F4801F08BFE0F4904200191D4
:103C00000090002320220DA10D4801F081FE01F05B
:103C1000DBFBFEE784010020880100208C010020EE
:103C20004D61747269780000C50D00089001002094
:103C300041505000ED03000894010020555342000C
:103C4000ED1B0008F0B50B30C108C900144F002669
:103C5000144A0FE003688B420BD38B4205D95C1AE0
:103C60004318456830C3083B00E04368136002C056
:103C700004E0021D10680028ECD13046002803D172
:103C80003868002801D00020F0BD064A06481060C0
:103C9000064A121AD208D20044C001203860D7E781
:103CA000A00100209C010020AC0D0020480E002047
:103CB000F8B5144881684215114381600024124E02
:103CC00087050DE0706AA1004558681C06D039468A
:103CD000284600F0EEF8284600F0C8F8641CE4B26C
:103CE000B088A042EED80004084C810BE068FCF7D5
:103CF00070FAB0888100A068FCF76BFA3079FEF7A3
:103D0000F5FAF8BD4010024090020020E8000020C3
:103D1000F3B5002581B001272C460D4E0DE0B06AA9
:103D2000A1004058411C03D000F0ACF801280CD091
:103D30000020641C0543E4B27F00F088A042EED866
:103D40000298810001984550FEBD3846F1E7000019
:103D50009002002070B50D4D0D4CA888216982009D
:103D6000A068FCF741FA002807D0A8880126820045
:103D70002169A068FCF714FA00E000262A7933468E
:103D8000E168A068FEF782FA70BD00009002002092
:103D9000E8000020F0B585B0FFF7DCFF2C490026D5
:103DA000CC684A692B4930468B880AE08500575910
:103DB00065596F40374301D0012600E00026401CC2
:103DC000C0B2834202D9002EF0D001E0002E01D013
:103DD000002436E001F052F81D490A88821A1204C4
:103DE000120C32D0088030E0A20019490192CB6851
:103DF0009B58009349698958594003911FD0012766
:103E0000002513E0039838420DD00098384000D0C8
:103E100001202A462146029000F0C4FF2946204690
:103E2000029A00F0F7F86D1CEDB27F000948C088D7
:103E3000A842E7D8064A0199526900985050641C7C
:103E4000E4B204488188A142CED8304605B0F0BD26
:103E5000E80000209002002070B5044600F0D4FB7A
:103E600005462146FCF7B5F9284670BD0207120F3A
:103E7000012191400009092209048002D20680181C
:103E800081617047010909228902D20689180969EE
:103E90000007000FC140C807C00F70470207120F8C
:103EA00001219140000909228002D2068018816117
:103EB00070470207120F0123934000090922800274
:103EC000D206801800B50A461946FDF7F1FF00BD7D
:103ED000002801DB642801D90020704701498000D7
:103EE000085870473C640008010909228902D2067B
:103EF000891852428A180107090F002A09D00120A7
:103F000080028242044803D10B2901D8034840565D
:103F1000704702481038FAE7FFFFFFFFB06400085F
:103F200007B569460979002927D00F21C902401A2F
:103F30000300FDF762FF0A0609180C0F1B1E221270
:103F40001522FFF7D3FA16E0FFF7AAFA13E0FFF7FE
:103F500091FA10E0FFF714FB0DE0FFF7F9FA0AE021
:103F6000FFF772FA07E0FFF7ABFC04E0FFF74CFC49
:103F700001E0FFF75DFC00200EBD01200EBD00003A
:103F800073B50220094C002920700AD068460578D4
:103F90002846FCF705FE60702846FCF701FE000A83
:103FA00001E000206070A0707CBD0000D8010020FE
:103FB000F3B56846037801255807400F8540134A3A
:103FC000DC0804271248A418002910D00221465CFE
:103FD0009E4204D0002E08D0491C0829F7DB08298E
:103FE00013D11770A07828430EE04354F7E702215D
:103FF000465C9E4202D10023435402E0491C08293A
:10400000F6DB1770A078A843A070FCBD740D0020EB
:10401000DE010020FEB50025002A03D06A46FFF726
:104020003DFB0546204C2078401908281ED9082061
:10403000461B6719791C3246601CFCF7B1F83946FB
:104040002046324609310930FCF7AAF86800011908
:10405000204672001A301A31FCF7A2F83946204681
:10406000324611311130FCF79BF82670002017E022
:104070000E4922780F6D69460B5CA1189C465B00C7
:10408000FE5C4E705B1CFB5C4B7263464B745200D3
:104090000021121951832178491C401C2170C0B2A3
:1040A000A842E5D3FEBD00003C02002090020020A3
:1040B00013B568460378084A0124E03B9C40107819
:1040C000002903D0072B05D8204302E0072B01D895
:1040D000A04310701CBD0000DE01002003B50B489A
:1040E0000121017069460B8800210A22ED2B09D0BD
:1040F000EE2B04D05242EF2B04D0F02B01D14180A3
:1041000082800CBD428081800CBD0000E601002051
:1041100070B50C4615460646FEF76AFC002807D027
:104120002A4621463046FEF7EDFC002800D001204B
:1041300070BD70B50C461546064600F015F800280F
:104140000ED02A4621463046FFF7E2FF002808D06D
:104150002A4621463046FFF7E3FE002801D0012021
:1041600070BD002070BD000007B5512269461202E3
:10417000097982430ED00F4AD04218D1002914D0B9
:104180000D49EF2308780246184010239343184343
:1041900008700CE06846007A002902D0FFF762F848
:1041A00001E0FFF755F800200EBD00F0C1FE012030
:1041B0000EBD0000F687FFFFF001002010B50B4A8E
:1041C0001278012A0FD15122120282430BD00878B3
:1041D000002806D048784206520E88781146FEF72D
:1041E00033F8002010BD012010BD00001401002094
:1041F00003B568460078A52810D0A62810D0A728B7
:1042000010D00020084A1388984206D0108003235B
:10421000521D13705070000A90700CBD8120F1E7A0
:104220008220EFE78320EDE7D6010020F8B5134C9C
:104230000F46E66805462068001D00F0C7FF681CB1
:1042400007D1002F05D021680D48091D00F0F7FFA8
:10425000F8BD2068751945602168B54204D2A06B8D
:10426000091D00F0D4FFF8BD606B091D00F0CFFF01
:10427000A06A8542F7D2A562F8BD00003001002097
:104280009C030020F8B5054600F0E6FF294CA06825
:10429000401CA0602068284F002803D060690028D7
:1042A00027D02CE02560A068012828D10026142002
:1042B0007043C01900F09DFF761C052EF7D31E48F1
:1042C000643000F096FF1C48783000F092FF1A48E6
:1042D0008C3000F08EFF1848A03000F08AFF16489E
:1042E000B43000F086FF1448643060631430A0637B
:1042F00005E02068E96AC06A884200D82560606AE3
:10430000401C6062E86A2169884200D9206114215A
:104310004843C019291D00F092FF00F0A9FF606911
:10432000002806D02068E96AC06A884201D200F0FD
:10433000CFFFF8BD30010020E802002010B5026C6C
:104340000C46002A0CD0C1688B18C36081688B4270
:1043500001D2194601E00168C1602046FBF720FF49
:1043600010BDF8B5856B174604460026026C002A7E
:1043700011D0002F19D0E068FBF712FFE168206C24
:10438000091AE1602268914202D2A168081AE0602D
:10439000022F17D019E02068002816D1A06801F07C
:1043A0003FFC06460020A0600FE06068FBF7F8FEC7
:1043B000216C606840186060A168884205D320685D
:1043C000606002E0002D00D06D1E6D1CA5633046BC
:1043D000F8BD10B50446006B00F058FF204600F011
:1043E00055FF10BD0F480E49420705D0C01DC0083B
:1043F0000C4AC000821A891A0B4A0023411809C2CC
:104400000839C908C900183A11604B600B600B1AD3
:104410000AC093600120C0075360D060704700005D
:1044200033090000B00300207C0100200F4E104C27
:104430003746A03F11E000F00FFFF068C568281D67
:1044400000F0C4FEA068401EA0606068401E60606E
:1044500000F00EFF2846FFF7BCFF60680028EAD195
:1044600038680128F9D900F033FFF6E78803002007
:1044700030010020FFB581B00C9C9000236B001F21
:104480001818C6080A9DF600700701D072B6FEE73C
:104490002246203200290DD0002027180B5C20373F
:1044A0003B750B5C002B02D0401C0A28F5D3002082
:1044B000507701E000201075052D00D30425E5623A
:1044C00000276764201D256400F09EFE20461830FA
:1044D00000F09AFE24610520401B6462A061A7647D
:1044E0004C2007553046049A019900F0F1F82060FD
:1044F0000B98002800D0046005B0F0BD30B511491C
:1045000000E011460A688242FBD34B685C18844283
:1045100003D1406818184860084643681C18944244
:1045200009D1084C103C2468A24209D052689A185C
:1045300042600A6812680260814200D0086030BDA3
:104540000460F9E77C01002010B5044600F084FE09
:10455000A06B002804D0002400F08AFE204610BD85
:104560000124F9E70648416B0968002905D0416B31
:10457000C968C9684968816270470021C943FAE780
:104580003001002003480068401C72B600D0FEE7EE
:10459000FEE7000098010020F8B5044600F05CFE3C
:1045A000254640350526AE57274624370BE0606A7E
:1045B00000280AD0384601F0A3FB002801D000F003
:1045C000B3FE761E76B2002EF1DC0027FF436F713A
:1045D00000F04EFE00F040FE0426AE57204610309C
:1045E00000900BE0206900280AD0009801F088FBB9
:1045F000002801D000F098FE761E76B2002EF1DC85
:104600002F7100F035FEF8BDF8B50546002700F023
:1046100001FF284E3068002801D1FFF7E3FEF06863
:1046200005423FD1002D3DD00835680708D0680706
:10463000400F0821081A4519680701D072B6FEE735
:10464000002D2FD0706885422CD81A4810300146B2
:104650000C6801E020460C466168A94202D221683C
:104660000029F7D131688C421CD0076821680160AD
:1046700060680837411B102908D96019420701D02A
:1046800072B6FEE741606560FFF738FF61687068E9
:10469000401A7060B268904200D2B060F068014386
:1046A000002003C401F05EFB780701D072B6FEE77C
:1046B0003846F8BD6C01002004490868002803D082
:1046C0000868426C521C4264086870473001002040
:1046D00010B50124031F24061C601B1F1960191F3D
:1046E000024B0B60143940380A6010BD8545000844
:1046F0004018FF2800D9FF2040B27047401A00D56B
:104700000020C0B270470000F8B54D480024C460D6
:1047100044610125856181690029FCD14A49494AE2
:104720000A604A4903220A620C224A624849CA685E
:10473000484B1205484E9A4203D1C9680904090F33
:104740002BD145494039CC6332699207FCD5434AA5
:1047500002235B1C9342FCD3CD633369DB07FCD09F
:1047600002235B1C9342FCD33B4B4327803BDF631C
:104770005B150B6010234B6016234B61CD60FF234C
:1047800056330B610323F36002235B1C9342FCD37B
:10479000F460314A803AD463CC6031490D60C46022
:1047A00002214161856181690029FCD14462056271
:1047B0000921C161456224482A49016026488038A0
:1047C000816A4908490081622148C030006B1C4F52
:1047D0004037401C11D124484168244A914207D1F6
:1047E00001884288D24392B2914201D10088706020
:1047F000386A000701D5FEF77DFA14480462446266
:10480000F8692843F861B86802210843B86018487D
:104810000168184A1140726812021143016016497A
:10482000416016490A6A2A430A62016860221143FC
:104830000160B868012149020843B860F8BD000072
:104840000010024080841E00A4010020007000407F
:1048500000FAFF1F0000509B80000240102700005C
:1048600000200240006CDC0200F7FF1F69E5B5A3E1
:10487000006C0040FF00FCFF7FBB7820000001407F
:1048800000B50D4A9388834207D9D3888B4204D957
:104890004343581880B209490AE0527A002A03D0EB
:1048A000FD2803D0FC2801D0002000BD08460449A3
:1048B000096800F007F800BD900200200001002008
:1048C000EC00002010B5C3084407640F9B000020D3
:1048D0005B1801210246A1409C5C0C4000D00124E1
:1048E00094400443521CD2B2E0B2042AF4D310BD67
:1048F000F8B508223C493D48FBF776FC002809D072
:1049000081253A4C0822294639A0FEF7C3F908212F
:10491000354835E0354803223F49801FFBF764FCEA
:1049200000280AD0314C8225A41F032229463BA02F
:10493000FEF7B0F90321384822E02C48032242490F
:10494000C01EFBF751FC00280AD0284C8225E41E2B
:10495000032229463DA0FEF79DF903213A480FE0C6
:10496000102245494548FBF73FFC00280ED0822520
:10497000424C1022294642A0FEF78CF910213E48F5
:10498000FEF776F948A0FEF785F90AE017480822F5
:1049900046490830FBF728FC002823D0134C083484
:1049A0008225002C1ED0424F00260021C9433868C2
:1049B00000F0E8FE2146284600F068FB0023009046
:1049C00038681A461946761C00F0E1FDFCF7CAF873
:1049D0000098002806D03748864203D23648807CAB
:1049E0000228E2D0F8BD00001B020020DE010020FA
:1049F0005B6869645F6B6579626F6172645F696E41
:104A00005F7265706F72745F6275665D20307825C5
:104A1000583A2025640D0A00F70100205B6869649C
:104A20005F637573746F6D65725F696E5F726570D9
:104A30006F72745F6275665D206570203D30782509
:104A4000583A2025640D0A00FA0100205B68696469
:104A50005F73797374656D5F696E5F7265706F7295
:104A6000745F6275665D206570203D307825583A28
:104A70002025640D0A000000840D0020740D002024
:104A80005B757362645F6E6B726F5F7265706F727D
:104A9000745F6275665D206570203D307825583AF8
:104AA0002025640D0A0000000D0A000013020020FA
:104AB0008801002088130000940D00207CB50F4869
:104AC0000078002819D0012069460D4D8870002417
:104AD000A007800F6946ED30088000231A46286839
:104AE00000F055FD641CE4B2082CF1D30548012206
:104AF00000231146006800F033FF7CBDD401002084
:104B00008401002090010020491C48430002000C51
:104B10007047491C48430004000E704710B502203E
:104B2000FBF742FE0120FDF785F91948C268022112
:104B30008A43C26082688A43826042688A434260D4
:104B400002688A430260002206211248FBF768FFD0
:104B50001148026901150A43026102698A43026130
:104B600082688A43826001210C48C9430161C1689F
:104B700049084900C1600A4940140860BFF34F8FDB
:104B8000BFF36F8F0748C16982009143C16110BDB7
:104B900000040140000C004840100240001000409A
:104BA00080E100E00000014010B518488168184A13
:104BB00011438160174A06211748FBF731FF022095
:104BC000FBF7F2FD00210120FDF740F90120FDF780
:104BD00031F91248FBF72AFE10480221016000213A
:104BE00001710821417101218171FBF7E9FD0C4838
:104BF000F02142688A43426041683022114341609B
:104C0000C169084A1143C16110BD00004010024053
:104C10000002080001000020000C0048C401002030
:104C2000000001400000A4890146420601D5FF2290
:104C3000111A8906890E0A07120F430600D5521C65
:104C40000909084B490059180B784978514309095B
:104C5000C91849B2000601D5484241B28031C8B2F4
:104C600070470000BB640008F8B50D48C1690D4AE3
:104C70001143C16100250C4C07030CE0E06AAE0053
:104C80008059411C06D03946FFF713F9E06A805974
:104C9000FFF704F96D1CA088A842EFDCF8BD000006
:104CA00000000140AA0AA0899002002010B5012846
:104CB00001D8C0B210BDF72101224901884201D9B3
:104CC000FF2302E041090831CBB2D11849080C4654
:104CD0004C43844202D9491ECBB203E0FF2906D0DF
:104CE000491CCAB29342F0D2521ED0B210BDFF206E
:104CF00010BD0000F8B5254E756825480068254AA6
:104D000044000020244F2549944208D2081B422128
:104D1000FBF71CFA2918B94237D2716024E01F4A08
:104D20001F4B52429C4207D9A0184221FBF70EFAB2
:104D300085422AD9291AF0E78C4208D2081B422161
:104D4000FBF704FA2918B9421FD2716009E08C42BE
:104D500007D9A0184221FBF7F9F9854215D9291A7C
:104D6000F3E70B4901228A6009490C310A68920075
:104D70005218D4600A689200521855630A6892006B
:104D80005218D0650868401C0860F8BD80000240D9
:104D9000E40C0020E0B50000FF03000080BB000031
:104DA00020C10000FEB50C460700154611462046FE
:104DB00008D0FEF761FA064602462946204600F072
:104DC00017F902E0FFF75CFD06466846877104723A
:104DD000C5711C482346417A002903D0FD2C26D0FA
:104DE000FC2C24D08188C288714309195143491988
:104DF00000682A464900405A694688805006400E9D
:104E0000009068468288F907C90F0F48FDF742FFF6
:104E10000E4800231A4601A9006800F0B8FB0C48B0
:104E2000012200231146006800F09AFDFEBD714387
:104E30004919490009194900FF39C0682A46F9395A
:104E4000D9E7000090020020C86600088401002015
:104E50009001002010B5C046C0460120FEF7A4FC1A
:104E600010BD10B5C046C0460020FEF79DFC10BD29
:104E700010B5044600F032FE001B10BD10B500F066
:104E80002DFE80B210BD10B500F028FE10BD000050
:104E9000F7B5254981B0944600238F780E7848688D
:104EA0003BE001999A008D580299964689584D40E9
:104EB00000212CE001248C4025421DD00278009274
:104EC000520821D1019E7246B6582642009E02D059
:104ED0000122164301E076087600F207D20F143261
:104EE00002700126D2070FD0029F7246BF5867405A
:104EF000029CA750012707E00478620804D0E2076B
:104F000002D1E407E40F0470491CC9B2401C074CED
:104F1000E4888C42CED85B1CDBB26345C1D3024827
:104F200087700670FFBD0000040100209002002081
:104F30000EB569460880002008716B4607CBFDF767
:104F40000FF8FFF7D5FC0EBDFFB52749002082B052
:104F50004C68087048709446054601463CE00023C2
:104F600034E001229A402678964677082BD0059A9D
:104F70007708974220D8F207D20F2270D20701D0CB
:104F8000012120E0AF00039E0197F659724600967A
:104F90009643029AD759724617403E43009A124FE1
:104FA000B6467240BE78324300D00122BA70019FEB
:104FB000039A7646D65106E0F007C00FBA1A52009F
:104FC0001043207001205B1CDBB2641C074AD288AE
:104FD0009A42C6D86D1CEDB26545C0D3024A107026
:104FE000517006B0F0BD00000401002090020020C6
:104FF00010B50D4B14469A88824207D9DA888A4246
:1050000004D94243501881B2084807E05A7A002A6E
:1050100008D0FD2801D0FC2804D1054802682046AC
:1050200000F008F810BD00009002002000010020F0
:10503000EC00002070B5CD084E070123760F1C460A
:10504000B4400021AD00AD181A468A40024000D09D
:1050500001226E5C52427240224072406A54491CE6
:10506000C9B20429F0D370BD02780A7000780B2809
:1050700002D0FF20087070470120487002490148A3
:1050800008607047A5A5A55A2402002070B5244ADF
:105090000646927C0320022A01D0022070BD012422
:1050A000812E06D0822EF9D11E4D286800280BD003
:1050B00013E01D4D286800280FD108221B48FBF77C
:1050C0006FF80822194917E00878012807D002284C
:1050D00018D003280AD004281BD0012070BD082254
:1050E0001348FBF75DF80822114905E00322114837
:1050F000FBF756F80F4903223046FCF7A7FA2C605D
:10510000002070BD03220C48FBF74AF803220A492D
:10511000F2E710220948FBF743F810220749EBE7B2
:10512000940D002004020020000200201B02002039
:1051300013020020FA010020F7010020840D002056
:1051400070B5104C207800281AD00F4D0021C943AB
:10515000286800F017FB0D48817C032908D172B63E
:10516000807C032803D1FCF7C9FFFCF77FF862B607
:1051700000202070034602460146286800F007FA26
:1051800070BD00002B02002088010020940D00203B
:1051900010B505480178002905D00021017072B6CC
:1051A000FCF7F6FF62B610BD2C02002000B593B0EC
:1051B000482205496846FAF7F3FF034810380FC83C
:1051C000FDF7C6FE13B000BD84000020436882686E
:1051D00001699A60836842685A604A68824201D1D4
:1051E00082684A60002202610868401E0860086800
:1051F00070470146083100224160D243C16082609D
:10520000016100210160704700210161704730B5E4
:105210000B685A1C02D00246083202E0026904E020
:105220002246546825689D42FAD953684B609960BC
:105230008A60516008610168491C016030BD4268A4
:105240004A6093688B609368596091600861016857
:10525000491C01607047000072B604480168491C8F
:105260000160BFF34F8FBFF36F8F7047980100202D
:1052700005490868002804D0401E086000D162B6C5
:10528000704772B6FEE700009801002070B5002854
:105290001AD004460D4D083C6068E968084201D107
:1052A00072B6FEE72268002A01D072B6FEE7884394
:1052B000606000F0AFF86068696840186860204678
:1052C000FFF71CF900F04EFD70BD00006C010020DE
:1052D0000120044900074860BFF34F8FBFF36F8F71
:1052E0007047000000ED00E010B502000FD0094843
:1052F000006B002801D072B6FEE700F08BF80021A9
:105300001046FEF793FF00F02DFD002801D1FFF7B6
:10531000DFFF10BD3001002002490A6A0260C9683F
:10532000416070473001002001490120C861704789
:105330003001002010B50C46002809D00549096845
:105340001831FFF764FF01212046FEF76FFF10BD03
:1053500072B6FEE73001002070B504002FD0626CF9
:10536000002A0ED0206C884200D30146E06A8842B1
:1053700025D0012A23D1124D2A68944203D172B656
:10538000FEE772B6FEE7E162A269002A02DB0522AF
:10539000511AA16114220B4E504361698019814258
:1053A0000DD1201DFFF712FFE06A2969884200D95C
:1053B0002861142148438019211DFFF740FF70BD6B
:1053C00030010020E80200201CB50E4800240190A6
:1053D000234640220CA100940D4800F099FA0128C0
:1053E00003D0401C0CD172B6FEE772B6002105480E
:1053F000C9432C38816201214161C46000F03EF84C
:105400001CBD00005C01002049444C450000000028
:105410002D4400080248016B491C016370470000DD
:105420003001002010B51348016B002902D0012182
:10543000C16110BD0021C16101690F4A02E000296C
:1054400015D0491E14234B43D358002BF7D01423F7
:105450004B439A18536814465B6808345360A34260
:1054600001D15B685360DA680260016110BD72B6F9
:10547000FEE7000030010020E802002010B50C48D3
:10548000016AFF22120411430162016A12021143F0
:1054900001620848002101618161074A42610722D7
:1054A000026106480160FAF715FE002010BD0000F9
:1054B00000ED00E000E000E07FBB0000980100206C
:1054C00010B502460021012000F00CF8041E07D0A0
:1054D0000021816001600B460A46C16000F057F868
:1054E000204610BD70B50E46050014D0002E14D015
:1054F00070434830FFF788F804000AD0214648314D
:105500002046002E0BD0016006640121C56300F027
:1055100008F8204670BD72B6FEE70020E9E700609B
:10552000F2E770B50D46040025D0FFF795FE216C1B
:10553000E06B484321684118A1600021A163216804
:105540006160E06B216C401E484321684118E160B6
:105550000021C94320464030017141713038002D8F
:105560000BD0FFF746FE20462430FFF742FEFFF740
:105570007FFE012070BD72B6FEE721690029F6D0DA
:1055800000F0BEFB0028F2D0FFF7A2FEEFE7FFB568
:10559000002683B01D46040003D00498002802D0E2
:1055A00006E072B6FEE7206C002801D072B6FEE776
:1055B0000027022D04D1E06B012801D072B6FEE76E
:1055C000FFF74AFEA16BE06B814207D3022D05D0A5
:1055D0000598002817D0002E18D01BE02A46204638
:1055E0000499FEF7BEFE616A002903D020462430EC
:1055F00000F086FB002801D0FFF76AFEFFF738FEB7
:10560000012007B0F0BDFFF733FE22E06846FFF748
:1056100083FE0126FFF72CFEFFF7FCFEFFF71CFEC2
:105620002046403004214156491C00D10771052114
:105630004156491C00D14771FFF71AFE05A968467B
:1056400000F038F9002806D02046FEF7A5FF00F04C
:1056500089FB0020D5E7FFF7FFFDA06BE16B8842D7
:1056600010D1FFF705FE204610300599FFF762FEC6
:105670002046FEF791FF00F075FB0028A0D1FFF750
:1056800027FE9DE7FFF7F4FD2046FEF785FF00F0BB
:1056900069FB95E7F7B5002582B0040004D00398B4
:1056A0000026002802D006E072B6FEE7206C002833
:1056B00001D072B6FEE7FFF7CFFDA76B002F15D024
:1056C00020460399FEF73AFE7F1EA7632069002853
:1056D00007D02046103000F013FB002801D0FFF760
:1056E000F7FDFFF7C5FD012005B0F0BD04980028C7
:1056F00002D0002D03D006E0FFF7BAFD27E0684690
:10570000FFF70AFE0125FFF7B3FDFFF783FEFFF762
:10571000A3FD2046403004214156491C00D10671AA
:1057200005214156491C00D14671FFF7A1FD04A98E
:10573000684600F0BFF8002820460AD0FEF72CFF8C
:1057400000F010FB2046FEF7FFFE0028B3D000203B
:10575000CAE7FEF7F9FE00280ED02046243004994F
:10576000FFF7E8FD2046FEF717FF00F0FBFA0028E0
:10577000A1D1FFF7ADFD9EE72046FEF70DFF00F03B
:10578000F1FA98E7F3B5002683B0041E354605D03C
:10579000206C0027002803D072B6FEE772B6FEE741
:1057A000FFF75AFDA06B002817D0401EA0632068A9
:1057B000002802D1FEF780FFA0602069002807D0F2
:1057C0002046103000F09CFA002801D0FFF780FD41
:1057D000FFF74EFD012005B0F0BD0498002802D06F
:1057E000002E07D00AE0002D01D072B6FEE7FFF7C9
:1057F0003FFD5CE06846FFF78FFD0126FFF738FDAF
:10580000FFF708FEFFF728FD2046403004214156EF
:10581000491C00D1077105214156491C00D147712F
:10582000FFF726FD04A9684600F044F8002820464A
:1058300014D0FEF7B1FE00F095FA2046FEF784FE84
:105840000028ADD0002D32D0FFF706FD606A002899
:1058500028D0206B05210068091A24E0FEF774FEA9
:10586000002819D02068002807D1FFF7F5FCA068B0
:1058700000F00AFA0546FFF7FBFC204624300499A5
:10588000FFF758FD2046FEF787FE00F06BFA002870
:1058900086D1FFF71DFD83E72046FEF77DFE00F071
:1058A00061FA7DE70021A068FFF756FD9FE7002021
:1058B00091E70000F8B50C46050012D0002C12D07C
:1058C000FFF7CAFC114BDA686E682068911B471C11
:1058D0000BD02F681B6A9F420CD096420AD8012435
:1058E00004E072B6FEE772B6FEE70024FFF7C0FCE4
:1058F0002046F8BD884205D9401A20602846FFF7A7
:105900000BFDF2E700202060E9E7000030010020F5
:10591000FFB585B0164690000F9FFEF775FE050097
:105920001AD05020FEF770FE040012D0256300212B
:105930000E9803910197009002943246089B0699B5
:105940000598FEF797FD2046FEF79CFC012009B064
:10595000F0BD2846FFF79AFC0020C043F7E700009F
:10596000FFB5012681B01F460D46002814D004461D
:10597000FFF772FC002F01D0A06C38602046403049
:105980000146007B02220A7303990B00FCF735FAEB
:10599000051806090F0D130072B6FEE7A16C294326
:1059A00001E0A16C491CA1640AE0022801D0A564B1
:1059B00006E0002622E0A16C491C01D072B6FEE789
:1059C00001281BD1201DFFF701FC0F4DE06A29695A
:1059D000884200D92861142148430C494018211DF0
:1059E000FFF72DFCA06A002801D072B6FEE7E06A3E
:1059F0002968C96A884201D9FFF76AFCFFF738FCB9
:105A0000304605B0F0BD000030010020E802002063
:105A1000FFB5012681B01F460D46002815D004466B
:105A2000FAF76CFB0090002F01D0A06C3860204684
:105A300040300146007B02220A7303990B00FCF7F9
:105A4000DCF9051806090F0D130072B6FEE7A16C0C
:105A5000294301E0A16C491CA1640AE0022801D09D
:105A6000A56406E000262EE0A16C491C01D072B6A8
:105A7000FEE7012827D1A06A002801D072B6FEE710
:105A8000144D286B002803D02146183112480DE030
:105A9000201DFFF79BFBE06A2969884200D9286135
:105AA000142148430C498C394018211DFFF7C7FBCE
:105AB000E06A2968C96A884205D90A990120002943
:105AC00000D00860E8610098FAF71CFB304605B08A
:105AD000F0BD000030010020740300200148C068C0
