:04000005080000C12E
:020000040800F2
:10000000780F0020050200080D0200080F0200080A
:100010002D3491FFE0E432000700000000000000F2
:100020000000000000000000000000009F11000818
:1000300000000000000000000B0100081112000881
:10004000A10500089507000817020008170200081C
:10005000170200081702000817020008170200081C
:10006000170200081702000817020008170200080C
:100070001702000839120008790E0008170200085C
:10008000170200081702000817020008CD1B00081D
:100090001702000817020008451D00081702000893
:1000A000170200082D0600080000000000000000F4
:1000B0000000000000000000000000000000000040
:1000C0000348854600F0ACF8004800475D41000851
:1000D000780F0020084B19680868203080F30988E1
:1000E000022080F31488BFF36F8F3FBCAE4608BC7C
:1000F00004BC62B61847000030020020EFF3108005
:1001000072B6704780F310887047EFF309800E4B8A
:100110001A6820381060F0C044464D4656465F4687
:10012000F0C008B572B605F079FC62B60CBC116877
:1001300008681030F0C8A046A946B246BB4680F316
:1001400009882038F0C818473002002030B50B4627
:10015000014600202022012409E00D46D5409D42A1
:1001600005D31D469540491B254695404019154627
:10017000521E002DF1DC30BD70B50024254600284C
:1001800001DA01244042002901DA01254942FFF742
:10019000DDFFAC4200D04042002C00D0494270BD8F
:1001A00003460B439B0703D009E008C9121F08C090
:1001B000042AFAD203E00B780370401C491C521E3B
:1001C000F9D27047D2B201E00270401C491EFBD246
:1001D00070470022F6E710B513460A460446194652
:1001E000FFF7F0FF204610BD30B50446002003465F
:1001F00000E05B1C934203D2E05CCD5C401BF8D076
:1002000030BD00000448804704480047FEE7FEE791
:10021000FEE7FEE7FEE7FEE735120008C100000832
:10022000064C0125064E05E0E36807CC2B430C3C49
:1002300098471034B442F7D3FFF746FF746C0008B8
:10024000946C00080EB5C217C10F5040CA07401881
:100250000021054B0293019200910A460B4600F0E3
:1002600026F803B000BD00003304000010B50029DB
:1002700004DB0124E40740428C412146002B04DBCF
:100280001C460123DB075242A341994200D1904210
:1002900010BD000010B5002B08DA0024401C61419D
:1002A00092185B411A4301D14008400010BDF0B5DF
:1002B0001FB482B005460C0003D0084601F0A4FD2F
:1002C00002E001F0A1FD20300246009021462846C0
:1002D00000F03FF8049B059A04460F46184311436B
:1002E000084314D0184610431BD0009840210A1A26
:1002F0001846059900F03DF805460E46009A059906
:10030000049800F026F8084305D0012004E02046B8
:10031000394607B0F0BD0020C11705430E432C43FA
:10032000374300990E986305401A7905E40A0022C4
:100330000C43FD0A0A3002D500200146E9E7010519
:10034000101969410C9C0D9D00196941FFF7A2FF2E
:10035000DFE710B5202A04DB0146203A9140002057
:1003600010BD914020239C1A0346E340194390405E
:1003700010BD10B5202A04DB0846203AD0400021E9
:1003800010BD0B46D340D0402024A21A9140084310
:10039000194610BD70B58C180578401C6B075B0FB3
:1003A00001D10378401C2A1106D10278401C03E0D9
:1003B00006780E70401C491C5B1EF9D12B0705D432
:1003C0000023521E0DD40B70491CFAE70378401C21
:1003D000CB1A921C03E01D780D70491C5B1C521E49
:1003E000F9D5A142D8D3002070BD00000026384CBA
:1003F000384D86B0F643FF23F53302AA314600207C
:1004000005F0CCFE0128F6D10298C007F3D0324F98
:10041000002203A9386805F039FC0128EBD1A07C43
:1004200003281DD06946C87B4006400E4870087CF2
:100430008870887BC007C00F0870888903F0F4F8C3
:1004400069468880019A009904F041F9002804D097
:10045000019A0099104601F0A1FD04F053FDD7E781
:100460003146286805F08AFCA07C03281ED1607CF8
:1004700000281BD072B601F05FFE184840780421B6
:1004800008431649487016487D21C9000068FFF7E7
:100490005DFE0A21484300F09FFE10484178FB2092
:1004A00001400E48417000F0F5FE62B600231A4686
:1004B0001946286805F067FB09487D21C9000068D6
:1004C000FFF744FE0A21484300F086FEC5E700001E
:1004D00068060020E8010020E401002000800020E0
:1004E000D402002010B5024902F0D0F810BD00007F
:1004F0005505000810B5024902F054F810BD00007F
:100500000505000870B504461D46104601F0EEFDD5
:1005100041004018611B081AC0B2214604F0FBFDDF
:1005200070BD000010B5024902F070F810BD000067
:100530003505000870B504461D461046049E01F0BE
:10054000D5FD6119891B081AC0B2214604F0E3FDEC
:1005500070BD0000F8B5114E07464D00306D1446D1
:10056000405DE42104F0D7FD001B1C300028306DF5
:10057000405D05DDE42104F0CEFD001B1C3004E0ED
:10058000E42104F0C8FD201A1C38C000381A00D538
:100590000020C0B2394604F0BEFDF8BD04050020BD
:1005A00010B50648416941610548006801F07AFFCD
:1005B0000448006801F064FF10BD00000004014021
:1005C000D00100201C020020F1B51748154E4778D5
:1005D00080780024C1081448357F0C38008A80B226
:1005E00004F096FDC0B204F01FFE803840B201F066
:1005F000CFFC4006000E394604F08DFD07460BE0A7
:10060000706D0099005D4978084203D03946204654
:1006100003F0DAFA641CE4B2AC42F1D3284603F0EA
:100620007BF9F8BD04050020D001002070B52049F9
:1006300000208A681F4C53070246002B02DA04236D
:10064000CB6062608B689B0702D50223CB6062603F
:100650008B68DB0726D00125CD6063685B1C636077
:10066000154B1B6B5B1C1DD16368032B1AD3626097
:10067000096889038A0D11494B68114EB34212D1A2
:100680000B884E88F643B6B2B34201D10888101ADF
:10069000FFF7D8FD4900490800220A4BFFF7E6FDA5
:1006A00000D2256070BD0848C0688005800DEEE767
:1006B000006C0040FC020020C0FAFF1F00F7FF1F83
:1006C00069E5B5A30000244000F8FF1F10B50249FA
:1006D00001F0DCFF10BD0000DD0600080B460146FE
:1006E00010B504485B00006DC05C801AC0B204F015
:1006F00012FD10BD0405002010B5024901F086FF6F
:1007000010BD00000907000810B501465A009A18EC
:10071000029852081018C0B204F0FDFC10BD000091
:1007200010B5024901F0B2FF10BD0000310700080A
:100730000B46014610B50548046D5800401C205C6E
:10074000801AC0B204F0E7FC10BD000004050020D0
:1007500010B5024902F066F810BD000061070008FC
:1007600070B50C460A490D6D59004B1CEB5C695C79
:10077000203B7039534361435918CA17520E511820
:1007800049040A0E0146104604F0C5FC70BD000085
:100790000405002010B504484169890703D50221EA
:1007A000416102F0C3FE10BD0004014001494861EF
:1007B0007047000000040140014948617047000093
:1007C0000004014010B5837918490268002B26D037
:1007D0000B6893430B604A6803689A434A60027946
:1007E000521813680468234313608A6803689A43A5
:1007F0008A60CA6803689A43CA604279102A05D0A1
:1008000051180A68006802430A6010BD8A680368CC
:100810001A438A60CA6800680243CA6010BD007942
:10082000401801689143016010BD000000040140C0
:100830000021016001710C2242718171704700003A
:1008400070B5EFF3108272B6002317490C68E50605
:100850001024002D03DA0D680123A5430D604D69B6
:10086000062635434D6102258D60C86088680426E0
:10087000304388604869C007FCD1886880088000E0
:100880008860486928434861002B02D008682043EB
:100890000860002A00D162B64869400701D50120EE
:1008A00070BD002070BD00000020024010B504465D
:1008B0001F20C00601212018C90388421BD200F066
:1008C000A5F80E4948690622104348610220886055
:1008D000CC608A6804231A438A604A69D207FCD133
:1008E0008A68920892008A604A6902434A6100F06D
:1008F00007F8012010BD002010BD000000200240BC
:10090000024881680822114381607047002002403C
:10091000F0B5EFF3108372B60024184A1568EE069E
:100920001025002E03DA16680124AE4316605669BE
:1009300006273E43566101269660D060116190689B
:100940000421084390605069C007FCD1906880087A
:10095000800090605069022108435061002C02D051
:10096000106828431060002B00D162B65069400720
:1009700001D50120F0BD0020F0BD000000200240A4
:1009800038B583079B0F1F25C21AED0601244019B5
:10099000E503A84208D2106800906846C15410468A
:1009A000009900F003F80446204638BD70B50446AF
:1009B0001F200D460126C0062018F10388421BD2D5
:1009C00000F024F80D4A50690621084350610120C7
:1009D0009060D4601561906804210843906050696C
:1009E000C007FCD1906880088000906050690221A7
:1009F00008435061FFF784FF304670BD002002407D
:100A000000787047008870470068704703480249C3
:100A1000416003494160704723016745002002405F
:100A2000AB89EFCDF0B500231D469C461C46012640
:100A3000A6400E4211D067000326BE403343082C67
:100A400004D2A7000F26BE40354306E0A7000F26BC
:100A5000203FBE4067463E43B446641C102CE6D39C
:100A60008468D602F6178C430E4034438460446891
:100A7000D601F6178C430E4034434460016894005D
:100A80000F4EA40F744399431C4021430160C16879
:100A90009403A40F744399431C402143C160110780
:100AA000084A090F5143026A0B46AA432B401A43D6
:100AB0000262426A63469A4319400A434262F0BDA9
:100AC000555555551111111170B5064615460C4670
:100AD000000701D501F03AF8B00701D500F0DAFBC4
:100AE000700704D516490020087000F0C1FBE0072C
:100AF00001D000F0E9FBA00701D500F0C9FE6007B6
:100B000001D500F0CDFE200701D500F0D1FEE006B2
:100B100001D500F0E1FEA80701D500F0BFFE68078F
:100B200001D500F0C3FE280701D500F0C7FEE80696
:100B300001D500F0D2FEF00701D000F0B7FB70BD88
:100B4000080300200249014808607047CCCC00002F
:100B500000300040034A0146D26800200A4200D01B
:100B600001207047003000400348C168890701D464
:100B7000024901607047000000300040AAAA00004E
:100B8000014948607047000000300040014988601A
:100B900070470000003000400149086070470000C5
:100BA00000300040F8B51448144E057F0027B07897
:100BB000102104F06BF83446C1B20C3C208A80B29C
:100BC00004F0A6FA5021FFF7C1FA00290FD12946F7
:100BD000384604F092F8217900224B1C2371022937
:100BE00002D1002121717278114602F0EDFF2846F2
:100BF00002F092FEF8BD000004050020D0010020A4
:100C000000B5A838030001F016F91C0F11131517D1
:100C10001D21231F26292C2F3134373A3D44191B1F
:100C200040424F4F474A4D4FE22000BDE92000BDF2
:100C3000EA2000BDB52000BDB62000BDB32000BD38
:100C4000B42000BDB72000BDCC2000BDCD2000BD2C
:100C5000FF20843000BDFF208B3000BDFF2093308B
:100C600000BDFF20953000BD104800BD0F48801C1E
:100C700000BD8920800000BD0C48001D00BD0B4850
:100C8000401D00BD0948801D00BD6F2000BD7020C3
:100C900000BD0648093000BD04487E3000BD152067
:100CA000400100BDCF2000BD002000BD210200009A
:100CB000F8B54E4881684E4A1143816004F0D4FA79
:100CC000002701264B4C6CE0A06ABD004059411C36
:100CD00066D003F0D7FB03F0C9FB216F0028485111
:100CE000A06A40590BD00107090F32468A4091B2E1
:100CF000000982020920C00610183F4A0BE00207D3
:100D0000120F31469140000982020920C0061018D6
:100D1000012289B25204FFF785FEA06A40590109F9
:100D20008A020921C90651180A6B03071B0F3046B6
:100D3000984082430A63216F26204959090A090213
:100D40004860216F02204959090A09020861216F90
:100D5000FF20495981434861216F00204959090A00
:100D600009028861216F4959090A09020866216F41
:100D70004959090A09024866216F4959090A0902B5
:100D80008866216F4959090A0902C866216F4959C5
:100D9000090A09020867216F4959090A09024867C7
:100DA0007F1CE088B8428FDC26200121890748603B
:100DB00002200861FF204861002088610F4A10620C
:100DC00050629062D062106350634868304348605C
:100DD0000B490868FF22120490430122D2051043F8
:100DE0000860084851120160F8BD00004010024040
:100DF00000E2030004050020010002204000004042
:100E00000CE400E000E100E00120800701684022DE
:100E1000114301607047000010B5054900200C7FA8
:100E2000214603F0BDF8204602F076FD10BD00001B
:100E30000405002001F052FF01F0D2FA04F0B2FCE8
:100E400002F052FE03F012FAFFF7DEFF01F042FE5D
:100E500001F042FDFFF788FE01F002FE03F072FA96
:100E600002F04CFF01F02EFE04F08EFC04F064FC56
:100E700001F066FDEEE70000F8B50126B607306820
:100E800000064ED530688021884330605D4CA068F4
:100E90005D4F5E4D002845D00020A060E86A2168C3
:100EA00089004158491C04D021688900405803F04A
:100EB000C3FA564881882068401CFFF747F9216033
:100EC00053480025056245628562C5620563456336
:100ED0005048056245628562C562056345633D62AF
:100EE0007D62BD62FD623D637D634B480562456284
:100EF0008562C5624948056245628562434861680A
:100F0000406A89004158491C04D0616889004058F2
:100F100003F092FA09207061B561306840210843FE
:100F20003060F8BD6068C1B2A86D03F0CDF9686AA1
:100F3000616889004158491C04D0616889004058A3
:100F400003F062FAA9886068401CFFF7FFF861604F
:100F5000FF2070610020B06110E0AB6A82009B58F6
:100F600094465B1C08D0EB6E2268514359182A6FD7
:100F70006346D258415C1160401CC0B2E98881428E
:100F8000EBD82349C220086248628862C8620863BD
:100F9000486338627862B862F862386378631D49E2
:100FA000086248628862C862086348631A49086236
:100FB00048628862C8621949086248628862E86AC1
:100FC000216889004158491C04D021688900405893
:100FD00003F01AFA0C4940390A68402002430A60BB
:100FE0000C4940390A6802430A600B4940390A68D3
:100FF00002430A60094940390A6802430A60012035
:10100000A0608AE720020020400400400405002080
:10101000400000404014004040200040402C004070
:1010200070B509480024057F0848467805E0314638
:10103000204602F0C9FD641CE4B2AC42F7D3284656
:1010400002F06AFC70BD000004050020D001002001
:1010500010B50146024A002001F088FB10BD0000D7
:101060008311000810B5024901F03CFB10BD0000DF
:101070007111000810B5044604480121007803F0FE
:101080000BFE034A214601F071FB10BDDA0400207B
:101090009510000810B5029CE3189BB2002900DAF5
:1010A000494209B2002A00DA5242090114B2FF296A
:1010B00000DDFF210AB22101FF2900DDFF2109B275
:1010C0008A4200DC1146C91889B2FF2900D9FF21E4
:1010D000FF22511AC9B203F0D9FDC0B210BD000001
:1010E00010B5044604480121007803F0D5FD034AF9
:1010F000214601F03BFB10BDDA040020011100087D
:1011000010B5029CE41AA4B2FF2C00D9FF24482B8E
:1011100000D9FF240831112903D30832112A00D342
:10112000FF24FF21091BC9B203F0B0FDC0B210BDFE
:1011300010B5044604480121007803F0ADFD034AD0
:10114000214601F013FB10BDDA0400205111000804
:1011500010B59A0002999A18511889B2FF2900D93E
:10116000FF21FF22511AC9B203F090FDC0B210BD99
:10117000FF20401AC2B210B5C8B2114603F0CBFF2F
:1011800010BD10B50299C91A89B2FF2900D9FF21F3
:10119000FF22511AC9B203F079FDC0B210BD7047E9
:1011A0000A4910B5401E884201D9012010BD0849E6
:1011B000486108480722C3691B021B0A4C042343E9
:1011C000C361002088610A6110BD0000FFFFFF00BD
:1011D00000E000E004ED00E0F8B50C4CA76966699A
:1011E000216960618DB20020A06105202061FFF7B8
:1011F000BBFC2069C10701D0C003F8D520694008B5
:10120000400020616661A7612561F8BD00E000E053
:1012100010B5FEF773FF044604F062FF002803D008
:1012200001200349000748602046FEF76BFF10BD10
:1012300000ED00E07047000008480169C9070BD0C5
:101240000121C943016106494878421C4A70B72808
:1012500002D9044901208860704700000010004056
:10126000E0020020480D002010B500F0EBFA10BDA0
:1012700010B506480121C1710021417214210448B2
:10128000FEF7A7FF00F042FC10BD00000080002028
:101290006806002010B5044CA07C032803D100F0A0
:1012A0004FFCE07CA07410BD6806002010B5054816
:1012B000817C032905D0817CC1740321817400F0F5
:1012C0007FFC10BD68060020F8B5584E0025B573A8
:1012D000777C574C780701D575742570F80602D5D0
:1012E000802070742570207800282BD1F80729D031
:1012F00008225049002000F08FF94E488560C188CF
:101300008181C58100784006800F03D100F0F6F896
:10131000002801D100F0F8FAB5734021012807D068
:10132000022808D003280AD060207074032004E04B
:101330007174012001E071740220207002E04820E5
:10134000707425703A480078012835D1B80733D435
:10135000707CC107C90F49420140C8062CD4354CE6
:101360000227A1893448027891420DD2A289A1684E
:10137000802000F08FF9E089A1894018E081A581E3
:101380002B480A2705700EE0A168802000F082F942
:10139000A168294800780918A160A189091AA181CA
:1013A000E1890818E081E089E188884203D10820BA
:1013B00007431F48057077741D480078022834D110
:1013C000707CC00731D01B4C4027A1891A48027895
:1013D00091420AD2A289A168002000F01DF9E0899B
:1013E000A1894018E081A5810EE0A168002000F0ED
:1013F00013F9A168104800780918A160A189091A99
:10140000A181E1890818E081A08900280CD1482732
:1014100000F064FA032804D0682705490320087007
:1014200001E003480570B5737774F8BD00800020B3
:101430000803002068060020876A000810B50648E7
:101440004078092806D1012000F012FB002801D0C5
:10145000032010BD002010BD6806002038B5264CC2
:1014600020784006800F012804D020784006800FA5
:101470002CD03FE06078030000F0DDFC0C3C070A54
:10148000123C3C3C3C3C181F223C00F0BBFA04E000
:10149000E08801282ED100F0A1FA002828D129E007
:1014A000E088012826D100F0A3FAF6E7002000F03A
:1014B000DFFA00281ED0022038BD00F0C5FA01E096
:1014C00000F0CCFA002815D0032038BD607806283B
:1014D00010D1E17820796A4600F03CFAA060A0685B
:1014E000002807D0A18968460088814200D9A081E0
:1014F000012038BD002038BD6806002010B52948FD
:10150000417800220B0000F096FC0A060C480E48B9
:10151000142748304548C08802283ED100F0FCF826
:101520001FE0002000E0012000F020F9002811D188
:1015300033E00178002930D18178837C4906490E57
:10154000022B2AD0184B19700123002901D0837473
:1015500000E08274032010BD007880281DD100F0C7
:10156000B5F8002819D0012010BD0178802914D1C8
:10157000C188012911D1817C002904D0012902D020
:1015800002290AD102E009490A8001E00549103127
:101590008160E8E70078002801D0002010BD00F04D
:1015A0000DF9C3E768060020008000209C0200209F
:1015B0000207120F05D005498A73000602D54020A4
:1015C0004874704780200875704700000080002034
:1015D0000207120F08D0000606D404498A73C87D9A
:1015E000897D00020843704700207047008000207A
:1015F0000207120F0CD007498A73000602D5487CF7
:10160000C00601E0087D8006002801DA012070474D
:1016100000207047008000200007064B800EC01895
:1016200004E00378521E0B7092B2491C002AF8D1D4
:1016300070470000208000200107090F07D0000636
:1016400005D403488173017D49084900017570473D
:10165000008000200207120F05D005498A7300069A
:1016600002D510204874704720200875704700008C
:101670000080002010B5044600F00CF82007000F91
:1016800005D0210603D5024988730120487410BD96
:10169000008000200007064B800EC01804E00B7885
:1016A0000370521E92B2491C002AF8D17047000004
:1016B0002080002010B514210248FEF78AFD00F0BA
:1016C000FBF910BD680600207047000038B5114CCA
:1016D000E078012805D0022807D003280AD000208E
:1016E00038BD684600F030F908E0A078694600F09F
:1016F00021F903E0A078694600F062F9A060A068D3
:101700000028EDD0A18968460088814200D9A081D7
:10171000012038BD6806002038B5124C002020801A
:10172000114D2878C006C00E05D0012817D0022818
:1017300011D0002038BD287C694600F0FBF8C07944
:10174000400601D501202080687C002807D0208831
:101750000221084302E02879FFF74AFF2080AC60AD
:10176000012038BD9C0200206806002010B51249F7
:101770000A78D206D20E02D0022A1BD107E04A888C
:10178000012A17D1002800D00120487410E04A88AF
:10179000002A0FD10C7921070CD00028204602D056
:1017A000FFF758FF04E0FFF703FF2046FFF78CFF29
:1017B000012010BD002010BD6806002070B5164C39
:1017C000A578A07C012802D0022823D10AE0002DB0
:1017D00016D0284600F0BCF900281BD02574022042
:1017E000A0740DE0002D0DD0207CA84208D0207CF4
:1017F00000F014F8284600F0ABF900280AD0257450
:10180000012070BD002020740120A074002000F091
:1018100005F8F5E7002070BD680600200848C1798A
:10182000FD221140C171C179FB221140C171C27901
:10183000F7210A40C271427A0A40427270470000A2
:101840000080002010B50D48816842151143816069
:101850000C4C0B4A06212046FFF7E4F8206B0621CA
:10186000884320630848C169084A1143C1610121C6
:10187000401041700721C17210BD000040100240AD
:1018800001000020000C0048000001400000A48975
:101890000149002008607047740200207047000072
:1018A000014900200860704778020020704700005E
:1018B00001490020086070477C0200200448032191
:1018C0008173007DC00702D0024901200860704783
:1018D00000800020800200207047704710B5094941
:1018E00000200A785206520E212A0AD10A79002ACB
:1018F00005D00A79012A02D00979022901D1FFF71E
:101900009DFD10BD6806002010B5094900200A7829
:10191000D206D20E012A0AD10A79002A05D00A7904
:10192000012A02D00979022901D1FFF797FD10BDE4
:1019300068060020002801D0002070475B20088046
:1019400000487047C36B00081221018000487047AF
:10195000046900080923002804D001280ED00228B9
:101960001AD01DE0212902D0222919D102E01380CA
:10197000114870474120108010487047212902D03B
:1019800022290DD103E00C48138019307047D8206C
:1019900010800A4841307047212903D0222905D000
:1019A0000020704704481380323070472220108096
:1019B0000148343870470000D56B0008886A000879
:1019C000032806D28200044883581B780B80805875
:1019D0007047002070470000C00200200349024801
:1019E0008860012070470000850200206806002002
:1019F00003490248886001207047000086020020E9
:101A0000680600200E480179012905D1C178012915
:101A100002D1C188082903D00179002902D007E04A
:101A2000084909E0C178012902D1C188082901D0FB
:101A30000020704703490831816001207047000091
:101A400068060020870200200248C07802494870DA
:101A50000120704768060020840200200248807838
:101A60000249887001207047680600208402002027
:101A700010B50F490A79002A05D1CA78022A02D185
:101A8000CA88012A03D0087902280AD00DE0094A41
:101A9000002804D0107802F075F9012010BD8A608A
:101AA000FBE7C878032800D1C888002010BD0000DB
:101AB0006806002084020020104882680121090580
:101AC0000A43826002690A43026102698A43026131
:101AD0000A49012040390863C86209490020C872D8
:101AE000C871487207490868FF22120490430860D1
:101AF0000120054980050860704700004010024041
:101B00000080002014E400E000E100E0074901202B
:101B10004870C8710020487205490860054908608E
:101B200005490860054908607047000000800020F2
:101B300074020020780200207C0200208002002035
:101B40000149012008707047BC0200207047000066
:101B500030B5012801D0002030BD18480121817323
:101B6000002282740821017440234374417441743B
:101B7000C57902242543C57184738274017443744A
:101B800041744174C47904252C43C47103248473C3
:101B900082740174437441744174C3790B43C371FB
:101BA00084734275C1748022027510220275027519
:101BB000427A0A434272012030BD000000800020BA
:101BC0000149012048707047BC020020F8B501208F
:101BD0000005FEF7F1FD114C114D20780126114F43
:101BE000002802D0012804D00CE0686900070CD559
:101BF0002670686940070FD502202070132000F07E
:101C000027F93E702078002806D16869C00703D004
:101C1000132000F01DF93E70F8BD000007030020FE
:101C200080000240BC02002008B5FFF743FDFFF72B
:101C30001BFB394C394D01270026F643314633460C
:101C40006A46002004F0AAFA0098C007F4D0314692
:101C5000334E306804F092F860680002020E60684B
:101C60000004010E6068C0B2FEF72EFF01202D496E
:101C7000800508602C48016800291CD072B62A48EB
:101C80000068002816D00320FFF7A2FC02460020BF
:101C9000208021490320FFF7BFFC62B61E490020C7
:101CA0004880891C881E03F0DBFC72B62868002877
:101CB00005D00BE062B6286800280ED024E0164953
:101CC0000222891C8320FFF7D5FC2F6016490020D3
:101CD00008600320FFF7B0FCECE7144800681449E3
:101CE000884211D1642000F05FFB1349114848621B
:101CF0000E4900200860BFF34F8F11490F48C8609C
:101D0000BFF34F8F00BFFDE700231A461946306826
:101D100003F039FF90E70000D80200207C02002089
:101D2000E801002000E100E080020020980200208D
:101D3000A5A5A55AEB9C374A401002400400FA05BD
:101D400000ED00E01CB51248017982780904120206
:101D50008079114301430F48416001200E498005FD
:101D60000860BFF34F8FBFF36F8F0020019001A871
:101D700000900A48012200231146006804F044F94B
:101D80000198002803D001200549000748601CBDC8
:101D900000800020D802002080E100E0F401002053
:101DA00000ED00E010B5024900F070FC10BD00002D
:101DB000B51D000810B5044605484900006D405C9B
:101DC000801AC0B203F030FA214603F0A4F910BD26
:101DD0000405002010B5024900F058FC10BD0000B9
:101DE000E51D000810B504460648036D4800401C78
:101DF000185C801AC0B203F017FA214603F08BF981
:101E000010BD0000040500202021020C01D010218B
:101E10001046020A01D010460839020901D01046C6
:101E2000091F820801D01046891E420801D0881E71
:101E30007047081A704730B47446641E2578641CD5
:101E4000AB4200D21D46635D5B00E31830BC18470F
:101E5000002809DBC106C90E01208840034908603B
:101E6000BFF34F8FBFF36F8F7047000080E100E03A
:101E7000002805DBC106C90E012088400149086021
:101E80007047000000E100E08307FF22DB0E9A406C
:101E90008907090E9940002808DB830809489B0040
:101EA0001B18186890430843186070470007000F1C
:101EB0000838830804489B001B18D86990430843DE
:101EC000D861704700E400E000ED00E002E008C8DF
:101ED000121F08C1002AFAD170477047002001E0A4
:101EE00001C1121F002AFBD170470000F0B500238A
:101EF0001D469C461C460126A6400E4211D0670096
:101F00000326BE403343082C04D2A7000F26BE4050
:101F1000354306E0A7000F26203FBE4067463E43FC
:101F2000B446641C102CE6D38468D602F6178C43A2
:101F30000E40344384604468D601F6178C430E404B
:101F400034434460016894000F4EA40F74439943D6
:101F50001C4021430160C1689403A40F744399435A
:101F60001C402143C1601107084A090F5143026A0E
:101F70000B46AA432B401A430262426A63469A43C5
:101F800019400A434262F0BD5555555511111111C2
:101F9000002801DA404240B27047000037B5694678
:101FA0000C880D79201FA02808D82946009802F037
:101FB000CDFA2A4621461CA001F03CFA2046E03822
:101FC000072808D82946009802F040FB2A462146F7
:101FD00021A001F02FFA2046A538022808D829466A
:101FE000009802F0D3FB2A46214627A001F022FAEE
:101FF0002046A8381B2808D82946009802F08EFAF7
:102000002A4621462CA001F015FA2046ED38122868
:1020100008D82946009802F02FFB2A46214626A020
:1020200001F008FA3EBD00005B70726F6365737368
:102030005F6B65795D206B6579636F6465203D201A
:10204000307825583A2070726573736564203D209E
:1020500025640D0A000000005B70726F6365737386
:102060005F6D6F645D206B6579636F6465203D20F3
:10207000307825583A2070726573736564203D206E
:1020800025640D0A000000005B70726F6365737356
:102090005F73797374656D5D206B6579636F6465DB
:1020A000203D20307825583A20707265737365643E
:1020B000203D2025640D0A005B70726F63657373A9
:1020C0005F637573746F6D65725D206B6579636FA7
:1020D0006465203D20307825583A2070726573730E
:1020E0006564203D2025640D0A00000010B5040041
:1020F0000DD0002C00DC604200B200290DDB0A1874
:10210000081A40011146FEF737F820210CE000299B
:1021100001DB002010BD802010BD421A08184001CC
:102120001146FEF729F86021081A40B2002C00DAA7
:102130004042C0B210BD000070B51320FFF788FE0A
:102140001B4B032018620C2058621A4900228A6136
:10215000184C0120403CE0630C69E407FCD0FF24EC
:10216000F5340221491CA142FCD313498C68012596
:102170002D052C438C601049403908631A625A625D
:102180000E4B1860CA6002234B6188618B69002B7B
:10219000FCD14A6208620922CA61486209490848BA
:1021A00008600948FEF7FCFF03F05BF970BD000012
:1021B00000700040800002404010024000200240B9
:1021C000006CDC02D402002080BB0000FEB503F0EE
:1021D00041F9224C032020620C2060622048816A71
:1021E0000127394381620020FF21F531401C8842DC
:1021F000FCD30025256265621A4EF5607561B761F2
:102200001A49194808607D200001FEF7C9FF032024
:1022100020620C20606235631248403081680126DC
:102220003605B14381600E4A0D21803291612562ED
:10223000656281687410214381606846009605716B
:10224000082141718771FEF7BDFA094805703046D3
:10225000FEF7B2FA07480460FEBD000000700040BF
:10226000000002400010024080841E00D4020020C2
:102270000703002000E100E000B54030C0B202F0EA
:10228000D3FF00BD70B506460D480D464468002CCE
:1022900015D00C48017C407CFDF758FF084949786F
:1022A000484308492039C98871434919CA08121995
:1022B0004C07835C640F0121A1404B40835470BDE7
:1022C000DC01002024050020FFB5164C81B000255C
:1022D000A57020781E461746002812D003F0CEF8CD
:1022E00021890125411A89B2A060FF2901D9FF2166
:1022F00001E0002905D0CBB23A460299019803F0DB
:1023000023F96078064309D0002D02D103F0B6F816
:10231000A0603A460299019803F0BAF8A07805B097
:10232000F0BD0000F8010020F8B50E4C0546E0882D
:10233000684301F065FF0C490023486019460EE030
:10234000002207E0C6183778521CFF07FF0F3770CE
:10235000D2B25B1CE6889642F4D8491CC9B2A942A5
:10236000EED3F8BD04050020F801002070470000FE
:1023700010B5084A002012780146012423468B40FC
:10238000134201D04018C0B2491CC9B20829F5D384
:1023900010BD0000DA0100200121814001480170D8
:1023A00070470000DA01002070B5054603F092FE88
:1023B000044601E0FEF7D8FB204603F059F8A84296
:1023C000F8D370BD0149002008707047000000205C
:1023D0000148416901480847E8690008007C000895
:1023E00010B51948032101620C2242621748826825
:1023F0000123DB041A438260154842690E239A4385
:1024000042614161134801684022090A09021143EF
:102410000160114901200860104900048860C8600B
:10242000086000F07FF80E48006800F03BF80D48A7
:10243000006800F025F800F03FF80446FFF7C8FFF9
:10244000204600F055F810BD0070004040100240DA
:102450000000024000E400E000E100E00004014070
:10246000D00100201C02002010B5034881680348F9
:102470008847C04310BD0000E8690008087C0008D8
:1024800002490A69C143024810470000E869000890
:10249000087C00080148816801480847E86900088D
:1024A000047C000802490A690146024810470000FE
:1024B000E8690008047C0008014881680148084771
:1024C000E86900080C7C0008084A0748D27F01210F
:1024D000920011430170054920310A784270497811
:1024E0008170FF21C1707047D001002004050020D9
:1024F00070B50546FFF7CEFF0646FFF7B5FF044669
:10250000FFF766FF3046FFF7CDFF2046FFF7B8FF25
:102510000248294602690248904770BDE8690008F0
:102520000C7C000810B50AA000F084FFFFF7B2FF92
:102530000D49086001460DA000F07CFFFFF794FFF5
:1025400011490860014611A000F074FF10BD0000A1
:102550005B6565636F6E6669675F757365725F67FC
:1025600065745D200D0A0000D00100206C65645F79
:102570006D61747269785F6565636F6E6669672007
:102580003D2025640D0A00001C0200206B65796D5A
:1025900061705F636F6E666967203D2025640D0A78
:1025A00000000000F3B518480F468078154D41082B
:1025B000154881B00C38008A00242E7F80B202F0CA
:1025C000A7FDC0B2009016E0686D0199005D4978E2
:1025D00008420ED02A6D6000115C401C125C0A4853
:1025E00070394078203A009BB8470146204601F0F8
:1025F000EBFA641CE4B2B442E6D3304601F08CF945
:10260000FEBD000004050020D0010020F3B51E48E7
:102610001C4D807883B041081B4800240C38008A88
:102620002F7F80B202F074FDC0B2029023E0686D8B
:102630000399005D497808421BD02A6D6100505C07
:10264000491C70380190565C4043203E314671432E
:10265000401880B202F02AFE0346029800900A4811
:102660003246049E40780199B0470146204601F069
:10267000ABFA641CE4B2BC42D9D3384601F04CF941
:1026800005B0F0BD04050020D0010020F3B5144FC3
:10269000124EB87881B0810838460C38008A002480
:1026A000357F80B202F034FDC0B2009010E0706D52
:1026B0000199005D4978084208D0029B787821464C
:1026C000009A98470146204601F07EFA641CE4B265
:1026D000AC42ECD3284601F01FF9FEBD04050020F2
:1026E000D0010020F3B51D4F1D4D81B000243E7F69
:1026F000A9781C48FDF72AFD009029E0786D019922
:10270000005D4978084221D01749009A08780CE00A
:102710000B185B7CA34208D143005B185B8B934290
:1027200003D240004018428B03E0401E40B2002814
:10273000EEDAA978104602F0EBFC6A780146104602
:10274000029A90470146204601F03EFA641CE4B22A
:10275000B442D3D3304601F0DFF8FEBD04050020BB
:10276000D0010020FFFF0000DA040020F7B52A485E
:102770008AB0007F0590294800240078039043E048
:1027800025480B99406D4978005D08423AD00020F9
:1027900002900A9D2AE020482049026D6000135CE7
:1027A00049194E78401C105C497A9F1B461A3846DE
:1027B000314678437143401880B202F077FD0890AB
:1027C00017480121807802F061FAC1B213486A000B
:1027D0001018408B02F09CFC324600900C9E39464B
:1027E000089B0298B0476D1CEDB202900398854299
:1027F000D1D30B484178029802F08DFC0146204667
:1028000001F0E2F9641CE4B205988442B8D301F007
:1028100083F80DB0F0BD000004050020DA040020AC
:10282000D0010020F3B51D481B4F807883B081088C
:102830001A4800240C38008A3E7F80B202F068FCFF
:102840000546C0B2FFF718FD803840B20290E8B2EA
:1028500002F0EAFC803840B2EDB2019014E00E487C
:102860000399406D4978005D08420BD00B480095F4
:10287000049F40782346019A0299B84701462046B2
:1028800001F0A2F9641CE4B2B442E8D3304601F08E
:1028900043F805B0F0BD000004050020D001002081
:1028A00010B504460029024609D0FD21012002F09E
:1028B00079FD012003F014F82246FD2108E0FC21F7
:1028C000012002F06FFD012003F00AF82246FC21EE
:1028D000002002F067FD10BDF8B5174C607A0028A3
:1028E00028D0002501273F040CE06069AE00805924
:1028F000394601F0ACFDA0693946805901F0A7FDC9
:102900006D1CEDB2607AA842EFD800250FE0606937
:10291000AF00C05901F084FD0646A069C05901F01E
:102920007FFD40000643054846556D1CEDB2607AB8
:10293000A842ECD8F8BD00000405002005030020E3
:10294000F8B516480025417A002924D000241EE05D
:102950001248A6004069805901F062FD07460F4801
:102960008069805901F05CFD400007430C48FAB2D1
:10297000015D8B079B0F934207D08906090E114317
:102980000155204600F00EF80543641CE4B20348EC
:10299000417AA142DCD82846F8BD00000405002099
:1029A0000503002070B5144C0A07144B0546120F9E
:1029B000605D9A5C0026801840B26055042807DAF2
:1029C000021D05DD0E4A8907127C890F914210D144
:1029D000012804DB012631462846FFF761FF6057D6
:1029E000002804DA012600212846FFF759FF0020BD
:1029F0006055304670BD0000060300201E6C0008C4
:102A00000405002000A070476C696220766572732F
:102A1000696F6E3A2076302E302E39000B49002037
:102A2000086048600A48006B401C0ED109480168E4
:102A300007221143016008490868FF2212029043EF
:102A4000086001200549400608607047FC0200202C
:102A5000C0FAFF1F006C004018E400E000E100E055
:102A600010B51248006B401C1FD1114801680029A5
:102A70001BD0EFF3108472B600210160FDF7C6FF92
:102A80000C48FDF7DDFE0C4800688003800DC14353
:102A9000090401430948FDF73BFF08480849001DA8
:102AA000FDF736FF002C00D162B610BDC0FAFF1F43
:102AB000FC02002000F6FF1F006C004000F7FF1F23
:102AC00069E5B5A310B500F0DBF800F005F902F0F8
:102AD000F9FA10BD10B500F005F8002800D001206B
:102AE00010BD000010B5FFF7E7FC284C2060401C2B
:102AF00000D1206001F03EFA01F02AFA002812D03D
:102B000004222349002001F0C7FA21490422091DAB
:102B1000012001F0C1FA1E4904220831022001F00F
:102B2000BBFA01F0D5FA00F079FF01F033FA002882
:102B300003D02078800901F0D7FA6078000701D52A
:102B4000022000E00020FFF727FC01242407214693
:102B50000E2001F07CFC0E2001F056FC21461A20CC
:102B600001F075FC1A2001F04FFC2146192001F0FC
:102B70006EFC192001F048FC2146182001F067FC8A
:102B8000182001F041FC002010BD000004000020CE
:102B9000D866000870B50C46054600F045F80028D8
:102BA00007D0002C04D00348C54201D100F026FC18
:102BB000012070BDFD83FFFFF7B5012182B0194DE3
:102BC000002400913C22535DA96B26E022460C268E
:102BD000724308328A5A82421DD16846007B00281F
:102BE00006D002F050FC0C22A96B5443085116E0A9
:102BF0000C20444326460A36885D0027002807D06B
:102C0000B01E085A0021FFF7C5FF0090A86B87553A
:102C1000A86B075103E0641CE4B2A342D6D8009825
:102C200005B0F0BD04050020134A10B5D04221D1F3
:102C300000291FD0114901200870FF2000F0B6FDC7
:102C40000E4C0020241D20602078F1214008400017
:102C500008406178F7220907090FC908C900114027
:102C60006170CF21084020700020FFF795FB20689D
:102C7000FFF73EFC012010BDFD83FFFF0000002098
:102C8000F8B5144F00253E4620361EE02C460C2099
:102C9000BA6B44431059002815D021460A310091DF
:102CA000515C00290FD102F0E3FBB96B221D8A5859
:102CB000904208D3009A01208854B86B0834005B16
:102CC0000121FFF767FF6D1CEDB2307FA842DDD810
:102CD000F8BD0000040500200120704710B5012058
:102CE000C046002800D0012010BD000037B50446C2
:102CF000029A019900F01EF8002815D001A920467B
:102D000001F02AFD00280FD00848201805D07F21A7
:102D1000C900401A00D001203EBD68460179044830
:102D2000002900D00121017000203EBDF587FFFF82
:102D300004030020F7B56946F84D0C79297843283B
:102D400070D017DC1E380300FFF775F825FEFDFC78
:102D5000FBFAF9F8F7F6F59E669E9E9EF4F39E9EAA
:102D60009E9E9E9E9E9E9E9E9EF2F1F0EFEEEDEC4C
:102D7000EBEA9E00EA4AE94F831A01263F1F904280
:102D80007ED02DDCE74BC21A98427AD01FDCE328B4
:102D900078D004DC442876D0452875D17DE2E72838
:102DA00073D0E14AD042F8D1002C43D08807C01735
:102DB0004000801C8007FD22800F114008432870CE
:102DC000800771D500F036FEA8700020DEE0012AF1
:102DD0006BD0022A33D0052A68D0062ADDD1F9E269
:102DE000D2481A18CD4813004078FFF724F80FF2A4
:102DF000F14D4D4D4D4DF0EFEEED6089EC094D007C
:102E0000002CD2D08806C017400120308006DF2277
:102E1000800E1140084352E2880606D4002C02D0EE
:102E2000292005E025E2292006E0002C03D03520EA
:102E300002F05CF8E0E2352002F07AFBDCE2002CE4
:102E4000F8D00420C141040708191C21C84101071A
:102E5000890FF3262870022901D33040287000F032
:102E6000DDFD2A7811078B0FAC49891ECB5C984297
:102E700012D10420C24110191C22D041287005E053
:102E800043E282E259E2FEE1FCE04FE20207920FE8
:102E9000022A01D33040287028780007800F70E0A4
:102EA0002868FFF725FBA7E26FE04FE27EE2002CE7
:102EB000C0D001070009401C0007090F000E0143A4
:102EC000080969700A2802D30807000F687000F02B
:102ED000A5FD6B7891491A0909318C5CA0420CD18F
:102EE000521C18071207000F120E104302096870D7
:102EF0000A2A02D30007000F68706878000940E0D2
:102F0000002C97D00321C8410124640700191D211A
:102F1000C8414107490F6870052918D3C00814E05B
:102F20009DE191E186E178E164E157E13CE131E145
:102F300024E113E102E1E6E0D5E0C4E0B3E091E092
:102F40007EE065E04CE034E023E0C000687000F013
:102F500065FD6A78714953075B0F091DCB5C984288
:102F60000CD10320C24110191D22D0414207520F3B
:102F70006870052A02D3C008C000687068784007EE
:102F8000400F085C00F0EEFD8AE7A87800F06CFEC8
:102F900086E7C80776D0FFF7EBF9022803D3002CA9
:102FA00071D0BE2044E7002C01D03A2040E73A20FF
:102FB00042E7C807EED0FFF7DBF902280AD3002C5E
:102FC00070D0BD2034E780E17BE18BE181E16EE1EF
:102FD00096E191E1002C01D03B2029E73B202BE733
:102FE000C807D7D0FFF7C4F902280BD3002C04D0B0
:102FF000E02001F07BFF52201AE7E02002F098FA6F
:10300000522019E7002C01D03C2011E73C2013E7A7
:10301000C807BFD0FFF7ACF902280BD3002C04D0AF
:10302000E32001F063FF2C2002E7E32002F080FAA6
:103030002C2001E7002C01D03D20F9E63D20FBE6E5
:10304000C807A7D0FFF794F9022805D3002C01D0B8
:10305000C320EDE6C320EFE6002C01D03E20E7E6DA
:103060003E20E9E6C8070DD0FFF782F9022813D306
:10307000002C09D0E32001F039FFE12001F036FFF8
:103080002020D5E681E083E0E32002F051FAE12040
:1030900002F04EFA2020CFE6002C01D03F20C7E6F8
:1030A0003F20C9E67EE0C8076FD0FFF761F902282C
:1030B00003D3002C6AD0AC20BAE6002C01D040200B
:1030C000B6E64020B8E6C8075FD0FFF751F90228FE
:1030D00003D3002C78D0AE20AAE6002C01D04120EA
:1030E000A6E64120A8E6C8074FD0FFF741F902281D
:1030F00003D3002C69D0AB209AE6002C01D04220EB
:1031000096E6422098E6C8073FD0FFF731F902283B
:103110000ED3002C7BD0A8208AE6000004000020FB
:103120000A78000003780000FE87FFFF07FAFFFF20
:10313000002C01D043207BE643207DE6C80724D045
:10314000FFF716F9022803D3002C70D0AA206FE6EF
:10315000002C01D044206BE644206DE6C80714D053
:10316000FFF706F9022803D3002C74D0A9205FE6EC
:10317000002C01D045205BE645205DE6C80704D061
:10318000FFF7F6F8022802D209E70AE05AE0CBE09E
:10319000BE2051E6C80704D0FFF7EAF8022800D2A3
:1031A0000DE7C1E0BD2047E6C8074AD0FFF7E0F8C9
:1031B000022846D2002C09D0E02001F097FEE22040
:1031C00001F094FE2B2033E647E050E0E02002F0CF
:1031D000AFF9E22002F0ACF92B202DE6C80730D081
:1031E000FFF7C6F802282CD2002C01D0B4201FE62D
:1031F000B42021E6C80724D0FFF7BAF8022820D26D
:10320000002C05D0E32001F071FE0B2010E638E021
:10321000E32002F08DF90B200EE6C80711D0FFF76E
:10322000A7F802280DD2002C02D0AF2000E632E031
:10323000AF2001E6C80777D0FFF79AF8022800D23E
:1032400037E771E0AC20F7E5C8076DD0FFF790F8DD
:10325000022801D23DE728E066E0AE20ECE5C80791
:1032600062D0FFF785F8022800D242E75CE0AB208D
:10327000E2E5C80758D0FFF77BF8022800D248E7FC
:1032800052E0A820D8E5C8074ED0FFF771F8022811
:1032900000D259E748E0AA20CEE5C80744D0FFF79E
:1032A00067F8022800D25FE73EE0A920C4E5002CC1
:1032B00025D048084000C907C9178E4330432870FD
:1032C000EEE5002C40D0E320B2E5002C33D0E7201F
:1032D000AEE5002C13D00020FFF75EF86878F721E8
:1032E000084007E0002C0AD00220FFF755F8687864
:1032F000082108436870D3E5002C7DD07E707BE008
:10330000002C79D00020787076E0002C0CD0C80614
:10331000C01700011030C006EF22C00E1140084354
:1033200028702868FFF7E4F80120FEBDFFF720F8B9
:103330000228CAD205E0E7207EE5FFF719F8022847
:10334000BFD278787040FEBDE32075E5002C53D0E5
:1033500000F070FB1930FF2801D9FF2003E000F0D6
:1033600069FB1930C0B200F07FFC00F063FB2EE077
:10337000382000F01BFA412000F018FA422000F03B
:1033800015FA432000F012FA36E0002C34D000F099
:1033900051FB192801D2002003E000F04BFB193843
:1033A000C0B200F061FC00F045FB23E0002C23D00C
:1033B00000F03AFB1930FF2801D9FF2003E000F0AC
:1033C00033FB1930C0B200F023FC00F02DFBFF28C6
:1033D000CED011E0002C0FD000F026FB192801D22E
:1033E000002003E000F020FB1938C0B200F010FC10
:1033F00000F01AFB0028BBD00020FEBD10B5FEF780
:10340000EFFFFFF78FF800F06FFB0120C04610BD03
:1034100070B50D460646002404E0315D03A000F0BF
:1034200009F8641CAC42F8D370BD00002530325856
:10343000200000007047000010B51348816840224A
:1034400011438160114801688022114301601048D6
:10345000FDF7A2FB0320FDF793FB0120FDF77AFBAC
:103460000028FAD13220FDF791FB0220FDF772FB14
:103470000028FAD10220FDF76DFB0028FAD1FDF7F4
:1034800073FBFDF75FFB10BD401002400058014088
:103490005555000070B584211D48FCF79AFE1C4E5E
:1034A00000200C3EB06030601A4840688005800DF6
:1034B0007060C046C04618490020401C8842FCD3BA
:1034C00001F072FE15488168021511438160154CA8
:1034D0001348E0620125A5626561E81E2061E0688D
:1034E0002843E06000210D20FEF7CEFC0D20FEF702
:1034F000BFFC2068284320600B48032101620C2197
:103500004162B0680028FCD001F008FE70BD0000E8
:10351000540D00208000024010270000401002409F
:10352000FFFF0000001000400070004070B52B4805
:10353000416A2B484268002A23D081608168426832
:10354000294B891A8AB22749511899421AD8816899
:103550004160264C6168491C616003780146002681
:103560000C31002B19D003789B005B18803BDB6F7C
:103570009342037807D89B005B18803BDB6FD31A1C
:1035800006E0416070BD9B005B18803BDB6F9B1ABF
:103590000A256B43934200D9067003789D006D188D
:1035A0005B1C03702A600278104D0C3D022A0FD379
:1035B0000670A868002200280AD18300CB58401C5E
:1035C0009A18C0B20228F8D35008286001F092FE81
:1035D00060680A28D6D90120A86070BD001000409C
:1035E000E002002070CCFFFF60540000540D00206A
:1035F00010B50948416A094A91420BD10021416244
:103600000749012008600748016881F3088840687D
:103610008047FEE710BD000040100240EB9C374A97
:103620000000014000E0FF1F10B53049E0284A7853
:10363000097821D012DC352844D008DC292844D070
:103640002A284CD0312816D148064CD449E03928D4
:1036500001D082280FD1CB071FD108E00446E23CFD
:103660002300FEF7E8FB0611141C08222508890731
:1036700013D4110731D410BDC8072CD1D0070CD0FA
:10368000C80610D4E32010BD4807F9D401E048076C
:1036900001D5E22010BDD007F2D0E02010BD900788
:1036A0000CD5C8060CD5002010BD0807F9D401E0E0
:1036B000080701D5E62010BD9007F2D5E42010BD23
:1036C000E72010BD880608D401E0880601D5352022
:1036D00010BD100701D5392010BD292010BD4806A6
:1036E00001D5312010BD2A2010BD00001C02002091
:1036F0000FB410B57C2202A90348FCF751FD10BCA1
:1037000008BC04B0184700000405002030B5084B81
:103710009D888D420AD9DC88944207D945436818B0
:103720006043801819684000085A30BD002030BD41
:103730000405002001220349824008789043087064
:1037400070470000DA010020012181400248027820
:103750001143017070470000DA010020F3B50E48F4
:103760000F4606780D48007A401E44B201250EE04F
:103770002846A040304208D0E0B23A460099FFF710
:10378000C5FF012801D0E0B2FCBD641E64B2002C6C
:10379000EEDA0020FCBD0000DA0100200405002064
:1037A0000148007870470000C001002030B514497E
:1037B00000224424645C0B6C1DE01C25554310352D
:1037C0005D5D854215D11C204243104608301C58CF
:1037D000002C12D09D5865436D00141D6D1C1D51A9
:1037E000096C0858FF2802D18858401C0851012054
:1037F00030BD521CD2B29442DFD8002030BD000050
:1038000004050020FEB50025414F7BE040482C46D2
:1038100040381C225443016C261D8A59002A68D066
:1038200020460C3001900858002807D001F020FEF7
:1038300037494039096C0959884228D3344822460F
:1038400040381132016C00928A5C002A13D00022A9
:1038500000980A5401F017FE2D4940390A6C01996D
:1038600050502B484038006C81590259914204D382
:10387000891A81510BE00122EAE70021244A815193
:10388000403A136C00981954126C01981150204959
:103890004039086C8259002A13D00E46001900F0F6
:1038A00039F800282CD02046316C1130085C0028F3
:1038B00013D020461030085CFF280BD01834095D67
:1038C00010E0214614314158002919D01034005D10
:1038D000884715E01834085D08E01034085DFF28BB
:1038E00003D0002100F070F90AE0002000F07EF91A
:1038F00006E0234600221133CA54006C0C340251F6
:103900006D1CEDB23879A84280D80120FEBD0000C0
:1039100044050020012070470349097F814201D9F5
:1039200001207047002070470405002010B50120D9
:1039300000F002F810BD000010B504460448817F75
:103940000448807801F0A8F9214600F067F910BD1D
:1039500004050020D001002010B5012000F002F87D
:1039600010BD000010B504460448417F044840786B
:1039700001F092F9214600F07DF910BD0405002008
:10398000D001002010B500F001F810BD10B50848B6
:1039900001788A0703D0002203460C3BDA708908BD
:1039A000890001708907890F02A0FFF743FD10BD50
:1039B000D00100205B6C65645F6D61747269785F33
:1039C000656E61626C655D2025640D0A0000000073
:1039D00010B500F001F810BD10B5084801788A074D
:1039E00002D103460C3BDA7089088900491C01703A
:1039F0008907890F02A0FFF71DFD10BDD00100202F
:103A00005B6C65645F6D61747269785F656E61623D
:103A10006C655D2025640D0A0000000001480078F7
:103A200080087047D001002001488078704700006E
:103A3000D00100200148407870470000D0010020EC
:103A400010B5012000F002F810BD000010B50446CA
:103A50000548817F0548807801F018F9C0B22146F9
:103A600000F0DCF810BD000004050020D0010020AB
:103A700010B5012000F002F810BD000010B504469A
:103A80000548417F0548407801F000F9C0B2214661
:103A900000F0F0F810BD000004050020D001002067
:103AA00070B50C460546FFF7ADFE2146284600F0EE
:103AB00005F8002800D0012070BD000008B50948B5
:103AC000007800280CD1FFF76BFE00906846007864
:103AD000800701D5FF2100E00021442000F074F8A8
:103AE000012008BD0000002010B5FDF7E1F800231B
:103AF0000E4A0F49137018464400A418401CC0B267
:103B000061830828F8D3094A2A3A13700020430039
:103B10009B18401CC0B259830828F8D30548006898
:103B2000401C01D1FEF7D0FC10BD0000DA040020DB
:103B3000FFFF0000D001002070B514460D46064678
:103B400000F00EF80549CA6CC98871435118695CC8
:103B5000FF2902D02154401CC0B270BD04050020D2
:103B60000020704710B5012100F002F810BD0000E0
:103B700010B50E490A78920717D00A4612789207B4
:103B8000920F002803D0132803D3483203E0121DFC
:103B900001E0800002430A701006810E04A0FFF7C6
:103BA00049FC024900200C39C87010BDD00100202A
:103BB0005B6C65645F6D61747269785F6D6F64657D
:103BC0005D2025640D0A000030B5074A137F83424B
:103BD00009D94000936C441C1C5DD588185C6C436B
:103BE000926E2018115430BD0405002070B50646B1
:103BF0000024064D05E031462046FFF7E5FF641C32
:103C0000E4B2287FA042F6D870BD00000405002071
:103C100010B5012100F002F810BD000010B50349F5
:103C20008870014602A0FFF705FC10BDD0010020FE
:103C30005B6C65645F6D61747269785F73706565F4
:103C4000645D2025640D0A0070B5064D0446297890
:103C5000884305D0002000F0B9F8002000F098F863
:103C60002C7070BDC401002010B5012100F002F8D5
:103C700010BD000010B505490A78920704D04870BD
:103C8000014603A0FFF7D6FB10BD0000D0010020C5
:103C90005B6C65645F6D61747269785F76616C5DA1
:103CA0002025640D0A00000010B5012000F002F884
:103CB00010BD0000014610B5044800788008401C83
:103CC000122800D30120FFF753FF10BDD0010020C0
:103CD00010B5012000F002F810BD0000014610B53B
:103CE000054800788008401E0006000E00D1112013
:103CF000FFF73EFF10BD0000D001002010B500F01E
:103D000001F9154C2078002811D120460C3000789C
:103D100081070CD08008E2780021002A09D0012A0E
:103D200014D0022A15D0032A00D1E17010BD002062
:103D3000F1E709482A22401D0170A0680749206167
:103D40008818FCF72DFA0120E07010BD00F03EF855
:103D500010BD00F01DF810BDC4010020B00400200B
:103D600000B5012000F002F800BD00000448012267
:103D7000017851400170024900200C39C870704729
:103D8000D00100200149087070470000C0010020E8
:103D900070B50C4D0C4C2946A8700C310978890778
:103DA000890F6970002803D0217F0020FFF778FE7B
:103DB000A288E088A16E4243E06EFCF7F1F903208F
:103DC000E87070BDC40100200405002010B54C4C03
:103DD000A178884207D121460C3109786278890799
:103DE000890F914201D0012100E00021444A521D77
:103DF00091700A2851D008DC0300FEF71CF80A1B5A
:103E000021262B30353A3F44497F0F285ED008DC0D
:103E10000B2847D00C284AD00D284DD00E286DD144
:103E20004FE0102857D011285AD012285DD0FF2813
:103E300064D110BD002961D00020FFF7D7FE5DE0FE
:103E40002F48401DFDF7ECF853E02D48401DFCF7CE
:103E5000BBFB4EE02A48401DFCF744FB49E02848E4
:103E6000401DFCF747FB44E02548401DFCF75AFB8A
:103E70003FE02348401DFCF729FC3AE02048401D64
:103E8000FCF74EFC35E01E48401DFCF735FC30E0E9
:103E90001B48401DFCF75CFC2BE01948401DFCF75B
:103EA00081FE26E01648401DFDF7DCF821E01448AD
:103EB000401DFDF73DF91CE01148401DFDF7DAF803
:103EC00017E00F48401DFDF70BF912E00C48401DAC
:103ED000FDF7BEF80DE00A48401DFDF763FF08E05E
:103EE0000748401DFDF776FF03E00548401DFCF73D
:103EF00093FF002802D00020E07010BD0220FBE7F5
:103F0000C401002070B50F4DA86801F0B1FA044655
:103F100001F0B9FAA8600C490C4800220B78001B8C
:103F20000CE055006D186E8BB04203D20D786D1EFB
:103F30000D7001E036196E83521CD2B29A42F0D352
:103F400070BD0000C4010020B0040020FFFF00008D
:103F500010B505488168054888470549884201D061
:103F6000012010BD002010BDE8690008007A00089B
:103F700055AAAA5510B505480549406B4860002070
:103F80000870487000F06CF810BD000004050020B7
:103F9000DC010020122801D000207047012070476A
:103FA000F3B583B00446FF20694608700871FFF737
:103FB00041FD294988703EE001A802902748234628
:103FC000C06CEE468446254800218688C2883DE0C4
:103FD000154600204D4367467F1933E0C55DFF2D30
:103FE0002ED09D422CD172461170029908701A4849
:103FF0004568002D1DD019482030017C407CFCF71D
:10400000A5F8024614486B4641781B784A43134989
:10401000C98859436B461B79C918CB085B19D25C18
:104020004907490FCA40D10713D000212046FFF7A6
:10403000CBFD641CE4B204988442BDD305B0F0BD4E
:10404000401CC0B28242C9D8491CC9B28E42BFD8F6
:10405000EFE78178EAE70000DC010020040500209A
:10406000F8B50A4D297C81420FD900242E46203E06
:10407000074F07E00748396820188847716B0855D3
:10408000641CA4B2687CA042F4D8F8BD24050020CA
:10409000E8690008047A0008F8B50B4D14460F468D
:1040A00068700A4E09E0641EE4B2385DB26C4000EC
:1040B000115C401C105CFEF7E5F8002CF3D1687829
:1040C00000F02AF80020F8BDDC01002004050020E3
:1040D000024803490269034810470000E8690008E4
:1040E00055AAAA55007A000810B50949097C8142F1
:1040F00001D8002010BD07494870FFF7B1FFFFF756
:104100008DFC122802D01220FFF72CFD012010BDDB
:1041100024050020DC010020F8B50D4D297C8142EA
:1041200015D90C4E0C48716988470B4F00243F1D70
:1041300008E00748F2682038406B015DE0199047BD
:10414000641CA4B2687CA042F3D8FFF7C1FFF8BD9D
:1041500024050020E8690008007A00081CB5FFF774
:1041600047FA00F0D3FDFEF759FCFFF765F9FEF7BB
:10417000FDF8002205211E2001F0B0FC1449086062
:10418000012001F099FC13490860FEF73BFC12493D
:104190000120019100900023602210A1114801F03C
:1041A000B3FE1149032001910090002340220FA18A
:1041B0000F4801F0A9FE0F4904200191009000234F
:1041C00020220DA10D4801F09FFE01F0F9FBFEE752
:1041D000E4010020E8010020EC0100204D61747230
:1041E00069780000350E0008F001002041505000B1
:1041F000ED030008F401002055534200291C00087B
:10420000F0B50B30C108C900144F0026144A0FE066
:1042100003688B420BD38B4205D95C1A431845685F
:1042200030C3083B00E04368136002C004E0021D95
:1042300010680028ECD13046002803D138680028E7
:1042400001D00020F0BD064A06481060064A121A46
:10425000D208D20044C001203860D7E7D002002045
:10426000CC020020DC0D0020780E0020F8B51448A8
:1042700081684215114381600024124E87050DE0CC
:10428000706AA1004558681C06D03946284600F0DF
:10429000DEF8284600F0B8F8641CE4B2B088A0420A
:1042A000EED80004810B706EFBF793FFB08881009D
:1042B000306EFBF78EFF3079FEF736F8F8BD000060
:1042C0004010024004050020F3B5002581B001270D
:1042D0002C460D4E0DE0B06AA1004058411C03D0A1
:1042E00000F09EF801280CD00020641C0543E4B2C5
:1042F0007F00F088A042EED80298810001984550D6
:10430000FEBD3846F1E700000405002070B50C4CF6
:10431000A088A16D8200206EFBF766FF002807D001
:10432000A08801258200A16D206EFBF739FF00E017
:10433000002522792B46616E206EFDF7C5FF70BD0A
:1043400004050020F0B585B0FFF7E0FF2C480024FD
:1043500021468588C76D466E0AE08B00FA58F358EF
:104360005A40224301D0012400E00024491CC9B274
:104370008D4202D9002CF0D001E0002C01D00025A4
:1043800036E001F07BF81F490A88821A1204120CE9
:1043900032D0088030E0A900426E0391525800925A
:1043A000C26D5158009A514002911FD0012700263A
:1043B00013E0029838420DD00098384000D0012018
:1043C00032462946019000F0EDFF31462846019A19
:1043D00000F0EEF8761CF6B27F000948C088B042C3
:1043E000E7D807490098CA6D039950506D1CEDB28B
:1043F00003488188A942CED8204605B0F0BD000010
:1044000004050020D80100200207120F012191406D
:104410000009092209048002D206801881617047D0
:10442000010909228902D206891809690007000FCB
:10443000C140C807C00F70470207120F0121914009
:10444000000909228002D2068018816170470207A4
:10445000120F01239340000909228002D20680181E
:1044600000B50A461946FDF741FD00BD002801DBF5
:10447000642801D90020704701498000085870471E
:10448000006A0008010909228902D20689185242ED
:104490008A180107090F002A09D0012080028242F0
:1044A000044803D10B2901D80348405670470248FD
:1044B0001038FAE7FFFFFFFF746A000807B5694686
:1044C0000979002927D00F21C902401A0300FDF7FE
:1044D000B2FC0A0609180C0F1B1E22121522FFF748
:1044E00077FA16E0FFF74EFA13E0FFF735FA10E01F
:1044F000FFF7BEFA0DE0FFF7A3FA0AE0FFF716FA9E
:1045000007E0FFF72DFC04E0FFF7CEFB01E0FFF72B
:10451000DFFB00200EBD01200EBD000073B50220A0
:10452000094C002920700AD0684605782846FCF717
:1045300067FB60702846FCF763FB000A01E000207F
:104540006070A0707CBD000006020020F3B56846D4
:10455000037801255807400F8540134ADC080427DB
:104560001248A418002910D00221465C9E4204D0B3
:10457000002E08D0491C0829F7DB082913D1177031
:10458000A07828430EE04354F7E70221465C9E42A0
:1045900002D10023435402E0491C0829F6DB1770BE
:1045A000A078A843A070FCBD800500200C0200206C
:1045B000FEB50025002A03D06A46FFF7BDFA05467E
:1045C000204C2078401908281ED90820461B67195E
:1045D000791C3246601CFBF7E3FD39462046324623
:1045E00009310930FBF7DCFD680001192046720033
:1045F0001A301A31FBF7D4FD3946204632461131C4
:104600001130FBF7CDFD2670002017E00E4922780F
:104610000F6D69460B5CA1189C465B00FE5C4E70FA
:104620005B1CFB5C4B7263464B74520000211219F9
:1046300051832178491C401C2170C0B2A842E5D3A7
:10464000FEBD0000B00400200405002013B568463C
:104650000378084A0124E03B9C401078002903D0ED
:10466000072B05D8204302E0072B01D8A043107088
:104670001CBD00000C02002003B50B480121017095
:1046800069460B8800210A22ED2B09D0EE2B04D0BD
:104690005242EF2B04D0F02B01D1418082800CBD1F
:1046A000428081800CBD00001402002070B50C46D1
:1046B00015460646FEF780FA002807D02A4621460E
:1046C0003046FEF713FB002800D0012070BD70B506
:1046D0000C461546064600F015F800280ED02A466E
:1046E00021463046FFF7E2FF002808D02A4621463F
:1046F0003046FFF7E3FE002801D0012070BD002006
:1047000070BD000007B55122694612020979824343
:104710000ED00F4AD04218D1002914D00D49EF23F2
:1047200008780246184010239343184308700CE0A1
:104730006846007A002902D0FFF706F801E0FEF78C
:10474000F9FF00200EBD00F0F3FE01200EBD0000B9
:10475000F687FFFF1C02002010B50B4A1278012AD1
:104760000FD15122120282430BD00878002806D0C4
:1047700048784206520E88781146FDF783FD0020E6
:1047800010BD012010BD0000DC01002003B568460B
:104790000078A52810D0A62810D0A72810D0002077
:1047A000084A1388984206D010800323521D1370C4
:1047B0005070000A90700CBD8120F1E78220EFE775
:1047C0008320EDE704020020F8B5134C0F46E6689D
:1047D00005462068001D00F0F5FF681C07D1002F7A
:1047E00005D021680D48091D01F025F8F8BD2068A5
:1047F000751945602168B54204D2A06B091D01F00E
:1048000002F8F8BD606B091D00F0FDFFA06A85424B
:10481000F7D2A562F8BD0000300200204406002057
:10482000F8B5054601F014F8294CA068401CA060BA
:104830002068284F002803D06069002827D02CE08A
:104840002560A068012828D1002614207043C019D3
:1048500000F0CBFF761C052EF7D31E48643000F025
:10486000C4FF1C48783000F0C0FF1A488C3000F0BC
:10487000BCFF1848A03000F0B8FF1648B43000F074
:10488000B4FF1448643060631430A06305E020680E
:10489000E96AC06A884200D82560606A401C60628C
:1048A000E86A2169884200D9206114214843C0196F
:1048B000291D00F0C0FF00F0D7FF6069002806D076
:1048C0002068E96AC06A884201D200F0FDFFF8BDA5
:1048D000300200209005002010B5026C0C46002A22
:1048E0000CD0C1688B18C36081688B4201D2194615
:1048F00001E00168C1602046FBF752FC10BDF8B52D
:10490000856B174604460026026C002A11D0002F42
:1049100019D0E068FBF744FCE168206C091AE160FB
:104920002268914202D2A168081AE060022F17D0D3
:1049300019E02068002816D1A06801F06DFC064639
:104940000020A0600FE06068FBF72AFC216C606823
:1049500040186060A168884205D32068606002E06A
:10496000002D00D06D1E6D1CA5633046F8BD10B53E
:104970000446006B00F086FF204600F083FF10BD68
:104980000F480E49420705D0C01DC0080C4AC000A0
:10499000821A891A0B4A0023411809C20839C9082A
:1049A000C900183A11604B600B600B1A0AC0936083
:1049B0000120C0075360D06070470000CC060000A3
:1049C0007C060020B00200200F4E104C3746A03F5E
:1049D00011E000F03DFFF068C568281D00F0F2FE10
:1049E000A068401EA0606068401E606000F03CFF50
:1049F0002846FFF7BCFF60680028EAD13868012824
:104A0000F9D900F061FFF6E73006002030020020FF
:104A1000FFB581B00C9C9000236B001F1818C608CE
:104A20000A9DF600700701D072B6FEE722462032DA
:104A300000290DD0002027180B5C20373B750B5C3C
:104A4000002B02D0401C0A28F5D30020507701E04B
:104A500000201075052D00D30425E562002767644A
:104A6000201D256400F0CCFE2046183000F0C8FE62
:104A700024610520401B6462A061A7644C20075597
:104A80003046049A019900F0F1F820600B98002854
:104A900000D0046005B0F0BD30B5114900E011460A
:104AA0000A688242FBD34B685C18844203D1406899
:104AB00018184860084643681C18944209D1084CED
:104AC000103C2468A24209D052689A1842600A68D1
:104AD00012680260814200D0086030BD0460F9E7CE
:104AE000B002002010B5044600F0B2FEA06B002812
:104AF00004D0002400F0B8FE204610BD0124F9E7E0
:104B00000648416B0968002905D0416BC968C9682E
:104B10004968816270470021C943FAE730020020EA
:104B200003480068401C72B600D0FEE7FEE70000B4
:104B3000B8020020F8B5044600F08AFE254640354C
:104B40000526AE57274624370BE0606A00280AD0B6
:104B5000384601F0D1FB002801D000F0E1FE761EBE
:104B600076B2002EF1DC0027FF436F7100F07CFE6F
:104B700000F06EFE0426AE572046103000900BE089
:104B8000206900280AD0009801F0B6FB002801D067
:104B900000F0C6FE761E76B2002EF1DC2F7100F01A
:104BA00063FEF8BDF8B50546002700F02FFF284E3C
:104BB0003068002801D1FFF7E3FEF06805423FD1DD
:104BC000002D3DD00835680708D06807400F082140
:104BD000081A4519680701D072B6FEE7002D2FD0DC
:104BE000706885422CD81A48103001460C6801E0E4
:104BF00020460C466168A94202D221680029F7D1FB
:104C000031688C421CD007682168016060680837F1
:104C1000411B102908D96019420701D072B6FEE77E
:104C200041606560FFF738FF61687068401A706026
:104C3000B268904200D2B060F0680143002003C423
:104C400001F08CFB780701D072B6FEE73846F8BD5C
:104C5000A002002004490868002803D00868426CBC
:104C6000521C4264086870473002002010B50124CD
:104C7000031F24061C601B1F1960191F024B0B60C9
:104C8000143940380A6010BD214B00084018FF2835
:104C900000D9FF2040B27047401A00D50020C0B2B2
:104CA000704700000549064A08885043054A8018A5
:104CB0000880010A491C4140C8B270472C020020FC
:104CC000050800001936000070B5040013D0FF205D
:104CD00001302146FBF73AFA60430546FFF7E2FF51
:104CE0002146FBF733FA08468542F7D92146FBF700
:104CF0002DFA084670BD002070BD10B50446081B93
:104D0000C0B2FFF7E1FF0019C0B210BDF8B54D48C1
:104D10000024C46044610125856181690029FCD1BA
:104D20004A49494A0A604A4903220A620C224A62F5
:104D30004849CA68484B1205484E9A4203D1C9688F
:104D40000904090F2BD145494039CC6332699207D8
:104D5000FCD5434A02235B1C9342FCD3CD633369E9
:104D6000DB07FCD002235B1C9342FCD33B4B432765
:104D7000803BDF635B150B6010234B6016234B6198
:104D8000CD60FF2356330B610323F36002235B1CCA
:104D90009342FCD3F460314A803AD463CC60314909
:104DA0000D60C46002214161856181690029FCD1E7
:104DB000446205620921C161456224482A490160B3
:104DC00026488038816A4908490081622148C030FC
:104DD000006B1C4F4037401C11D124484168244AC5
:104DE000914207D101884288D24392B2914201D1C7
:104DF00000887060386A000701D5FEF74BFB144845
:104E000004624462F8692843F861B86802210843E3
:104E1000B86018480168184A1140726812021143BC
:104E200001601649416016490A6A2A430A6201680C
:104E3000602211430160B868012149020843B8604B
:104E4000F8BD00000010024080841E00D402002043
:104E50000070004000FAFF1F0000509B80000240DD
:104E60001027000000200240006CDC0200F7FF1F4A
:104E700069E5B5A3006C0040FF00FCFF7FBB782014
:104E80000000014000B50D4A9388834207D9D388BA
:104E90008B4204D94343581880B2516F0AE0537AC9
:104EA000002B03D0FD2803D0FC2801D0002000BD3A
:104EB0000846916F00F004F800BD000004050020D2
:104EC00010B5C3084407640F9B0000205B18012144
:104ED0000246A1409C5C0C4000D001249440044355
:104EE000521CD2B2E0B2042AF4D310BD0EB569460A
:104EF0000880012008716B4607CBFDF74FF800F0E2
:104F000001F80EBDF8B508223A493B48FBF76CF9A9
:104F1000002809D08125384C0822294637A0FEF701
:104F200089FA0821334835E0334803223D49801F80
:104F3000FBF75AF900280AD02F4C8225A41F032220
:104F4000294639A0FEF776FA0321364822E02A489E
:104F500003224049C01EFBF747F900280AD0264C1F
:104F60008225E41E032229463BA0FEF763FA0321B3
:104F700038480FE0102243494348FBF735F9002831
:104F80000ED08225404C1022294640A0FEF752FA4E
:104F900010213C48FEF73CFA46A0FEF74BFA0AE027
:104FA0001548082244490830FBF71EF900281FD095
:104FB000114C08348225002C1AD0404F00260021C5
:104FC000C943386800F0DAFE2146284600F05AFB53
:104FD0000023009038681A461946761C00F0D3FD6D
:104FE000FBF7C2FD0098002802D035488642E6D380
:104FF000F8BD00008F0200200C0200205B6869648D
:105000005F6B6579626F6172645F696E5F72657014
:105010006F72745F6275665D20307825583A20257E
:10502000640D0A006C0200205B6869645F6375733D
:10503000746F6D65725F696E5F7265706F72745FB9
:105040006275665D206570203D307825583A2025D0
:10505000640D0A006F0200205B6869645F737973F6
:1050600074656D5F696E5F7265706F72745F627593
:10507000665D206570203D307825583A2025640D06
:105080000A00000058060020800500205B7573624E
:10509000645F6E6B726F5F7265706F72745F627562
:1050A000665D206570203D307825583A2025640DD6
:1050B0000A0000000D0A000087020020E80100201D
:1050C000881300007CB50F480078002819D0012013
:1050D00069460D4D88700024A007800F6946ED30A9
:1050E000088000231A46286800F04DFD641CE4B2D5
:1050F000082CF1D30548012200231146006800F076
:105100002BFF7CBD04030020E4010020F0010020FF
:105110004843000A70474843000A704710B5022010
:10512000FBF744FB0120FCF7A3FE1948C2680221EB
:105130008A43C26082688A43826042688A434260CE
:1051400002688A430260002206211248FBF76AFCCB
:105150001148026901150A43026102698A4302612A
:1051600082688A43826001210C48C9430161C16899
:1051700049084900C1600A4940140860BFF34F8FD5
:10518000BFF36F8F0748C16982009143C16110BDB1
:1051900000040140000C0048401002400010004094
:1051A00080E100E00000014010B518488168184A0D
:1051B00011438160174A06211748FBF733FC022090
:1051C000FBF7F4FA00210120FCF75EFE0120FCF75A
:1051D0004FFE1248FBF72CFB104802210160002112
:1051E00001710821417101218171FBF7EBFA0C4833
:1051F000F02142688A434260416830221143416095
:10520000C169084A1143C16110BD0000401002404D
:105210000002080001000020000C0048F4020020F9
:10522000000001400000A4890146420601D5FF228A
:10523000111A8906890E0A07120F430600D5521C5F
:105240000909084B490059180B7849785143090955
:10525000C91849B2000601D5484241B28031C8B2EE
:10526000704700007F6A0008F8B50D48C1690D4A13
:105270001143C16100250C4C07030CE0E06AAE004D
:105280008059411C06D03946FFF7E1F8E06A8059A1
:10529000FFF7D2F86D1CA088A842EFDCF8BD000033
:1052A00000000140AA0AA0890405002010B50128C9
:1052B00001D8C0B210BDF72101224901884201D9AD
:1052C000FF2302E041090831CBB2D11849080C464E
:1052D0004C43844202D9491ECBB203E0FF2906D0D9
:1052E000491CCAB29342F0D2521ED0B210BDFF2068
:1052F00010BD0000F8B5254E756825480068254AA0
:1053000044000020244F2549944208D2081B422122
:10531000FAF71CFF2918B94237D2716024E01F4AFE
:105320001F4B52429C4207D9A0184221FAF70EFFA8
:1053300085422AD9291AF0E78C4208D2081B42215B
:10534000FAF704FF2918B9421FD2716009E08C42B4
:1053500007D9A0184221FAF7F9FE854215D9291A72
:10536000F3E70B4901228A6009490C310A6892006F
:105370005218D4600A689200521855630A68920065
:105380005218D0650868401C0860F8BD80000240D3
:10539000480D0020E0B50000FF03000080BB0000C6
:1053A00020C10000FEB50C460700154611462046F8
:1053B00008D0FEF7D3F9064602462946204600F0FB
:1053C00017F902E0FFF75EFD064668468771047232
:1053D000C5711C482346417A002903D0FD2C26D0F4
:1053E000FC2C24D08188C288714309195143491982
:1053F00000682A464900405A694688805006400E97
:10540000009068468288F907C90F0F48FEF712F826
:105410000E4800231A4601A9006800F0B4FB0C48AE
:10542000012200231146006800F096FDFEBD714385
:105430004919490009194900FF39C0682A46F93954
:10544000D9E7000004050020306C0008E4010020CA
:10545000F001002010B5C046C0460120FEF7F4FB65
:1054600010BD10B5C046C0460020FEF7EDFB10BDD4
:1054700010B5044600F02EFE001B10BD10B500F064
:1054800029FE80B210BD10B500F024FE10BD000052
:10549000F7B5254981B0944600238F780E78486887
:1054A0003BE001999A008D580299964689584D40E3
:1054B00000212CE001248C4025421DD0027800926E
:1054C000520821D1019E7246B6582642009E02D053
:1054D0000122164301E076087600F207D20F14325B
:1054E00002700126D2070FD0029F7246BF58674054
:1054F000029CA750012707E00478620804D0E20765
:1055000002D1E407E40F0470491CC9B2401C074CE7
:10551000E4888C42CED85B1CDBB26345C1D3024821
:1055200087700670FFBD0000F80100200405002010
:105530000EB569460880002008716B4607CBFCF762
:105540002DFDFFF7DFFC0EBDFFB52749002082B01F
:105550004C68087048709446054601463CE00023BC
:1055600034E001229A402678964677082BD0059A97
:105570007708974220D8F207D20F2270D20701D0C5
:10558000012120E0AF00039E0197F6597246009674
:105590009643029AD759724617403E43009A124FDB
:1055A000B6467240BE78324300D00122BA70019FE5
:1055B000039A7646D65106E0F007C00FBA1A520099
:1055C0001043207001205B1CDBB2641C074AD288A8
:1055D0009A42C6D86D1CEDB26545C0D3024A107020
:1055E000517006B0F0BD0000F80100200405002055
:1055F00010B503460C48144682889A4207D9C288DF
:105600008A4204D95A43511889B2426F07E0427A5C
:10561000002A07D0FD2B01D0FC2B03D1826F20463E
:1056200000F004F810BD00000405002070B5CD089E
:105630004E070123760F1C46B4400021AD00AD1883
:105640001A468A40024000D001226E5C52427240EB
:10565000224072406A54491CC9B20429F0D370BD7B
:1056600002780A7000780B2802D0FF20087070477B
:10567000012048700249014808607047A5A5A55A55
:105680009802002070B5244A0646927C0320022A24
:1056900001D0022070BD0124812E06D0822EF9D1C6
:1056A0001E4D286800280BD013E01D4D28680028E7
:1056B0000FD108221B48FAF773FD0822194917E099
:1056C0000878012807D0022818D003280AD0042817
:1056D0001BD0012070BD08221348FAF761FD082293
:1056E000114905E003221148FAF75AFD0F49032238
:1056F0003046FBF7BFFF2C60002070BD03220C4832
:10570000FAF74EFD03220A49F2E710220948FAF798
:1057100047FD10220749EBE76806002078020020C9
:10572000740200208F020020870200206F020020F8
:105730006C0200205806002070B5104C207800281C
:105740001AD00F4D0021C943286800F017FB0D48FF
:10575000817C032908D172B6807C032803D1FCF731
:10576000EBFCFBF797FD62B6002020700346024673
:105770000146286800F007FA70BD0000BC02002056
:10578000E80100206806002010B5054801780029CE
:1057900005D00021017072B6FCF718FD62B610BD8D
:1057A000BD02002000B59BB06C2205496846FAF79F
:1057B000F7FC034810380FC8FDF79AFF1BB000BD77
:1057C000540100204368826801699A6083684268D6
:1057D0005A604A68824201D182684A6000220261AE
:1057E0000868401E086008687047014608310022BA
:1057F0004160D243C1608260016100210160704755
:1058000000210161704730B50B685A1C02D0024676
:10581000083202E0026904E02246546825689D428D
:10582000FAD953684B6099608A60516008610168D9
:10583000491C016030BD42684A6093688B60936880
:105840005960916008610168491C0160704700005F
:1058500072B604480168491C0160BFF34F8FBFF363
:105860006F8F7047B802002005490868002804D0EF
:10587000401E086000D162B6704772B6FEE70000B5
:10588000B802002070B500281AD004460D4D083C1F
:105890006068E968084201D172B6FEE72268002A12
:1058A00001D072B6FEE78843606000F0AFF8606830
:1058B0006968401868602046FFF7EEF800F04EFD7A
:1058C00070BD0000A00200200120044900074860CC
:1058D000BFF34F8FBFF36F8F7047000000ED00E004
:1058E00010B502000FD00948006B002801D072B635
:1058F000FEE700F08BF800211046FEF765FF00F090
:105900002DFD002801D1FFF7DFFF10BD3002002080
:1059100002490A6A0260C96841607047300200208B
:1059200001490120C86170473002002010B50C46C3
:10593000002809D0054909681831FFF764FF0121E3
:105940002046FEF741FF10BD72B6FEE73002002090
:1059500070B504002FD0626C002A0ED0206C8842F3
:1059600000D30146E06A884225D0012A23D1124D96
:105970002A68944203D172B6FEE772B6FEE7E1628E
:10598000A269002A02DB0522511AA16114220B4EE2
:1059900050436169801981420DD1201DFFF712FF2C
:1059A000E06A2969884200D9286114214843801996
:1059B000211DFFF740FF70BD300200209005002040
:1059C0001CB50E4800240190234640220CA10094EF
:1059D0000D4800F099FA012803D0401C0CD172B692
:1059E000FEE772B600210548C9432C3881620121C7
:1059F0004161C46000F03EF81CBD00005C02002064
:105A000049444C4500000000C94900080248016BA8
:105A1000491C0163704700003002002010B5134894
:105A2000016B002902D00121C16110BD0021C161BB
:105A300001690F4A02E0002915D0491E14234B4387
:105A4000D358002BF7D014234B439A1853681446AD
:105A50005B6808345360A34201D15B685360DA6825
:105A60000260016110BD72B6FEE700003002002046
:105A70009005002010B50C48016AFF221204114362
:105A80000162016A120211430162084800210161AA
:105A90008161074A42610722026106480160FAF704
:105AA00019FB002010BD000000ED00E000E000E068
:105AB0007FBB0000B802002010B502460021012083
:105AC00000F00CF8041E07D00021816001600B4635
