:04000005080000A946
:020000040800F2
:100000008008002021080008290800082B080008A3
:100010002D3491FF30003200080000000000000085
:100020000000000000000000000000002D08000893
:1000300000000000000000002F0800081514000850
:100040003308000881090008A109000833080008E6
:100050003308000833080008330800083308000894
:100060003308000833080008330800083308000884
:10007000330800088D14000833080008330800080E
:100080003308000833080008330800087923000803
:100090003308000833080008F1230008330800087B
:1000A00033080008A508000800F002F800F042F844
:1000B0000CA030C8083824182D18A246671EAB467D
:1000C00054465D46AC4201D100F034F87E460F3E06
:1000D0000FCCB6460126334200D0FB1AA246AB46EF
:1000E00033431847704A0000904A0000103A02D388
:1000F00078C878C1FAD8520701D330C830C101D5C9
:1001000004680C60704700000023002400250026CE
:10011000103A01D378C1FBD8520700D330C100D5C3
:100120000B6070471FB50098019900F00AFA1FBDD7
:1001300010B510BD00F0F1FA1146FFF7F3FF03F020
:100140002DF900F009FB03B4FFF7F2FF03BC00F048
:1001500083FB000070B505460C46164602E00FCC46
:100160000FC5103E102EFAD2082E02D303CC03C5C1
:10017000083E042E07D301CC01C5361F03E02178C9
:100180002970641C6D1C761EF9D270BD70B50646D0
:1001900000F0BAF9056830460B30C408E400B442F8
:1001A00001D8002070BD68682A46002818D0016870
:1001B000A14211D30B46214608318B4208D3436834
:1001C00001194B6003681B1B0B605160046001E068
:1001D00041685160001D70BD024640680028E6D1AC
:1001E0002146284600F098F90028DCD170BD70B592
:1001F0000446051F00F088F90068002C1AD04468F6
:1002000001E020466468002C01D0AC42F9D30168BB
:100210000A18AA4204D12A6805468918016000E03C
:10022000456028684119A14205D16168696021686B
:100230004018286070BD6C6070BD034610B50B435C
:100240009B070FD1042A0DD308C810C9121FA3425F
:10025000F8D018BA21BA884201D9012010BD002077
:10026000C04310BD002A03D0D30703D0521C07E0BF
:10027000002010BD03780C78401C491C1B1B07D1C3
:1002800003780C78401C491C1B1B01D1921EF1D134
:10029000184610BDF8B5042A2CD3830712D00B786A
:1002A000491C0370401C521E83070BD00B78491C5D
:1002B0000370401C521E830704D00B78491C037046
:1002C000401C521E8B079B0F05D0C91ADF0020234C
:1002D000DE1B08C90AE0FFF73DFFF8BD1D4608C94F
:1002E000FD401C46B4402C4310C0121F042AF5D216
:1002F000F308C91A521EF0D40B78491C0370401C35
:10030000521EEAD40B78491C0370401C012AE4D425
:1003100009780170F8BD01E004C0091F0429FBD26F
:100320008B0701D50280801CC90700D0027070477E
:1003300000290BD0C30702D00270401C491E0229BD
:1003400004D3830702D50280801C891EE3E70022C4
:10035000EEE70022DFE7002203098B422CD3030AD9
:100360008B4211D300239C464EE003460B433CD402
:10037000002243088B4231D303098B421CD3030A6A
:100380008B4201D394463FE0C3098B4201D3CB019A
:10039000C01A524183098B4201D38B01C01A5241CA
:1003A00043098B4201D34B01C01A524103098B42CE
:1003B00001D30B01C01A5241C3088B4201D3CB00B9
:1003C000C01A524183088B4201D38B00C01A52419C
:1003D00043088B4201D34B00C01A5241411A00D24C
:1003E00001465241104670475DE0CA0F00D04942B5
:1003F000031000D34042534000229C4603098B4225
:100400002DD3030A8B4212D3FC22890112BA030AAC
:100410008B420CD3890192118B4208D3890192112E
:100420008B4204D389013AD0921100E08909C309B3
:100430008B4201D3CB01C01A524183098B4201D3B5
:100440008B01C01A524143098B4201D34B01C01AA0
:10045000524103098B4201D30B01C01A5241C30818
:100460008B4201D3CB00C01A524183088B4201D387
:100470008B00C01A5241D9D243088B4201D34B00A2
:10048000C01A5241411A00D20146634652415B10E4
:10049000104601D34042002B00D5494270476346C5
:1004A0005B1000D3404201B50020C046C04602BDEB
:1004B0001F22030C02D10F22000402D0030E03D02E
:1004C00004E00020014670470002083A030F01D102
:1004D0000001121F830F01D18000921E002801DB52
:1004E0004000521E120551184205C0124118104614
:1004F0007047C10FC90700D0404201229207114343
:10050000D6E701218907D3E7004870472804002077
:10051000704770477047704738B504460A46002058
:10052000694600F0BBF8002805D002462046009935
:1005300000F088F8012038BD10B5012000F09CF8CB
:1005400010BDF8B500F09EF8054600200C461020BE
:10055000C0460646A819A0420DD932466946002079
:1005600000F09CF8070001D100F086F80098A04246
:1005700000D00546C419FFF7C7FFF61D0746056002
:10058000F008C0004619284600F008F8B44204D02C
:1005900031463868A21B00F055F8F8BD0021016013
:1005A000416080607047102070470000F8B5224C11
:1005B0004E00069DA6420AD8A64201D1002806D1C7
:1005C0005E00A64203D8A6420AD1002A08D00D2414
:1005D000240425422CD02946002000F07BF8F8BDE9
:1005E0000C461C430CD4994202D0EFF30080F8BDB6
:1005F000904202D0EFF30080F8BDEFF30080F8BD29
:1006000009242407E5008B4206D0EFF30080A043C5
:10061000591A06D2284304E0101A05D3EFF30080DC
:10062000A04380F30088F8BDEFF30080A043F1E71A
:10063000009500F067F8F8BD0000E0FF0048704743
:100640002004002010B50346406801E003464068DE
:10065000002801D08842F9D31868C3188B4206D00D
:10066000CB1CD808C000001D411A521A0146081DB3
:100670000A60FFF7BCFD10BD10B500F079F800F07E
:1006800071F810BD01226946114B120382188A428B
:100690001A6001D8114670471960704770B50C4C4C
:1006A0006D46012636032368AD1B9A18AA420ED860
:1006B000AD1A9019EE0F75196D10AA18904200D955
:1006C0001046C01D0B60C208D200D01A226070BD57
:1006D0001C010020CA0211D54A03520F002A04D07F
:1006E000C803C043012188407047054AEFF30081E9
:1006F00008010009104380F300887047002070470C
:100700000000003010B500200249029A00F058F8AD
:1007100010BD00000000F87F70477546FFF78EFFA0
:10072000AE46050069465346C008C000854618B06D
:1007300020B500F07FF860BC00274908B6460026C7
:10074000C0C5C0C5C0C5C0C5C0C5C0C5C0C5C0C581
:10075000403D49008D4670470446C046C04620468D
:10076000FFF7F1FC10B5002801D000F075F810BDBE
:1007700010B5012805D0002103A000F073F8012076
:1007800010BD09A1F8E7000053494752544D454DAB
:100790003A204F7574206F662068656170206D6522
:1007A0006D6F7279000000003A2048656170206D1D
:1007B000656D6F727920636F727275707465640015
:1007C00010B50C461107090F092904D00A290AD0CF
:1007D00008290CD104E011460820FFF77BFF06E052
:1007E000510606D501E0510601D50120C00721467A
:1007F00010BDD10607D501010909CC084907000E33
:100800000006044309E0410F20024907000A0143A2
:10081000200E00061D22D14101430846E7E70000F3
:100820000748804707480047FEE7FEE7FEE7FEE788
:10083000FEE7FEE704480549054A064B70470000FD
:1008400085140008A900000880040020800800200A
:10085000800600208006002001491820ABBEFEE77C
:100860002600020070B505460C460A2000E06D1C0B
:1008700000F012F8002D06D028780028F7D102E009
:10088000641C00F009F8002C02D020780028F7D171
:100890000A2000F001F870BD08B569460870032011
:1008A000ABBE08BDF8B5002400272D4880680421A0
:1008B0000840002805D004202949C86000202949A3
:1008C00008602748806802210840002805D00220DF
:1008D0002349C86000202349086021488068C00778
:1008E000C00F00283BD001201D49C8601D4800688A
:1008F000401C1C4908601C48006B401C00282ED17D
:100900000846006803282AD30020086014480068BD
:100910008003840D002715484068154988420BD193
:100920001248008811494988C94389B2884208D1D0
:100930000E480088271A04E00E48C0688005800D24
:10094000271A3846FFF7D5FD490049080546002219
:10095000094B03F085FF02D2012008490860F8BD69
:10096000006C004094000020C0FAFF1F00F7FF1F3A
:1009700069E5B5A300F8FF1F0000244090000020A7
:1009800010B50648406902210840002804D0022022
:100990000249486102F052FC10BD00000004014011
:1009A0000121034A117003494869486170470000FA
:1009B00058000020000401400149486170470000D0
:1009C00000040140014948617047000000040140F3
:1009D000002120498279002A35D00A46126803682E
:1009E0009A430B461A600A46526803689A430B46BC
:1009F0005A60027951180A6803681A430A60154A56
:100A0000926803689A43134B9A601A46D268036847
:100A10009A43104BDA604279102A0CD11A46926838
:100A200003681A430B4B9A601A46D26803681A434C
:100A3000084BDA600DE00749427951180A680368EB
:100A40001A430A6005E0027951180A6803689A435C
:100A50000A607047000401400021016001710C210F
:100A60004171002181717047114949690622114382
:100A70000F4A5161022191601146C86089680422C1
:100A800011430B4A916000BF09494969C907C90F61
:100A90000029F9D10649896889088900044A9160CA
:100AA0001146496902221143014A51617047000011
:100AB0000020024010B5014600BFEFF3108002464F
:100AC00072B600232148006810242040002805D079
:100AD00001231E480068A0431C4C20601B4840694D
:100AE00006242043194C60610220A0602046C160AA
:100AF000806804242043154CA06000BF134840695F
:100B0000C007C00F0028F9D1104880688008800015
:100B10000E4CA06020464069022420430B4C6061CB
:100B2000002B05D02046006810242043074C20608D
:100B3000002A00D162B605484069042420400028FC
:100B400001D0012010BD0020FCE700000020024081
:100B500010B504460120C00684420BD306488442E7
:100B600008D200F0ABF82046FFF77EFF00F006F851
:100B7000012010BD0020FCE70080000803488068C9
:100B800008210843014988607047000000200240A6
:100B900030B5024600BFEFF31080034672B6002462
:100BA0002148006810252840002805D001241E484F
:100BB0000068A8431C4D28601B484069062528434F
:100BC000194D68610120A8602846C26001618068F3
:100BD00004252843144DA86000BF13484069C0078E
:100BE000C00F0028F9D110488068800880000E4DA1
:100BF000A86028464069022528430B4D6861002CF7
:100C000005D02846006810252843074D2860002B92
:100C100000D162B60448406904252840002801D06C
:100C2000012030BD0020FCE700200240FEB5044654
:100C30000D4601200190A707BF0FE61BC0068442A6
:100C40000BD30748844208D2306800906846C555E7
:100C50003046009900F006F801900198FEBD0000B2
:100C60000080000870B504460D460126F006844257
:100C70000AD30648844207D200F020F829462046CD
:100C800000F040FBFFF77AFF304670BD008000089F
:100C900001460A461078704701460A461088704798
:100CA00010B5024613460020032104E000025C5CFC
:100CB00020434C1E61B20029F8DA10BD02480349F6
:100CC00048600348486070472301674500200240A0
:100CD000AB89EFCDF7B582B0039B002400250195C9
:100CE000009500211AE001258D401D40002D14D0F3
:100CF0004E000325B5402C43082906D28E000F254F
:100D0000B540019E3543019507E00D46083DAE0014
:100D10000F25B540009E35430095491C1029E2D3AC
:100D200085689D43D602F60F76421E4035438560A6
:100D300045689D43D601F60F76421E403543456017
:100D40000568A5439600B60F0F4F7E4326403543F6
:100D50000560C568A5439603B60F7E43264035431C
:100D6000C5601107090F094E7143056A019EB5431D
:100D70000E4035430562456A009EB5430E4035433B
:100D8000456205B0F0BD00005555555511111111C2
:100D900070B506460C46154608203040002801D0A4
:100DA00001F060FA02203040002801D000F01EFC63
:100DB00004203040002804D000202049087000F0B2
:100DC00003FCE007C00F002801D000F031FC022036
:100DD0002040002801D001F093F804202040002892
:100DE00001D001F0A5F808202040002801D001F032
:100DF000B7F810202040002801D001F0D5F80220DB
:100E00002840002801D001F081F804202840002863
:100E100001D001F093F808202840002801D001F00B
:100E2000A5F810202840002801D001F0C3F8F007F1
:100E3000C00F002801D000F0E7FB70BD7600002055
:100E40000148024908607047AAAA0000003000402B
:100E500000B501460846A838030001F0D7FA170D7F
:100E60000F1113151B1F211D24272A2D2F32353852
:100E70003B4217193E404500E22000BDE920FCE757
:100E8000EA20FAE7B520F8E7B620F6E7B320F4E762
:100E9000B420F2E7B720F0E7CC20EEE7CD20ECE776
:100EA000FF208430E9E7FF208B30E6E7FF20933016
:100EB000E3E7FF209530E0E70C48DEE70B48801CB5
:100EC000DBE789208000D8E70848001DD5E7074800
:100ED000401DD2E70548801DCFE76F20CDE7702089
:100EE000CBE702480930C8E70020C6E7210200002E
:100EF00010B5094880680121490208430649886005
:100F000014220649064802F017FE02F04DFA054980
:100F1000087901F0EBFD10BD4010024030020020C6
:100F200020020020D002002010B5062002F0A6FB0F
:100F3000022003F009F9062002F0B9FB022001F0BB
:100F4000FDFD10BD08B55A21092000F0BFF90620AB
:100F500000F06EF9009068460078802188434118BF
:100F6000009168460178062000F0B0F900210920C0
:100F700000F0ACF908BD70B52025002000F058F94C
:100F80000446312C01D1012070BD09E0FFF7CCFFF0
:100F9000002000F04DF90446312C01D10120F3E787
:100FA00028466D1E0028F1D1FFF7CCFF0020EBE7AB
:100FB00038B50024FFF7DFFF002801D1204638BDF7
:100FC0005A21092000F082F9062000F031F9009042
:100FD0000021092000F07AF9694608784007400F9F
:100FE000002806D0012807D0022808D003280BD1FA
:100FF00007E01924640108E07D24E40005E0044CC6
:1010000003E01924A40100E000BF00BF2046D6E79A
:101010001405000010B5414908688047322001F0EE
:101020008DFDFFF7A8FFFFF78DFF052001F086FD7E
:101030005A21092000F04AF9B421282000F046F98D
:101040004621292000F042F996212A2000F03EF99D
:101050008C212B2000F03AF96E212C2000F036F97B
:1010600064212D2000F032F95F21382000F02EF9A4
:101070000F21392000F02AF932213A2000F026F918
:1010800047213B2000F022F91021422000F01EF9F8
:101090002E21542000F01AF9F221552000F016F903
:1010A000F421612000F012F97021632000F00EF9A4
:1010B0005221752000F00AF94121762000F006F94E
:1010C000ED21772000F002F92321782000F0FEF8CE
:1010D0004621792000F0FAF8E5217A2000F0F6F8B0
:1010E00048217C2000F0F2F880217D2000F0EEF80D
:1010F00077217E2000F0EAF80121FF2000F0E6F8D9
:1011000000210B2000F0E2F80021FF2000F0DEF8C3
:101110000021092000F0DAF8012010BDF449000890
:10112000FEB50646002001900290FFF724FF022042
:1011300000F07EF80090032000F07AF804460420C6
:1011400000F076F8054668460078C10968460171E6
:101150000079002801D1012000E00020C007C00F65
:10116000002805D0062201A93046FFF793F8FEBDFE
:10117000684600780007C00F002805D0062201A9A4
:101180003046FFF787F8F2E768460078C006C00FE0
:10119000002805D0062201A93046FFF77BF8E6E7D4
:1011A00080202040002806D0FF200002204300B20B
:1011B0006946C88008E08020204000026106490E90
:1011C000084300B26946C88080202840002806D025
:1011D000FF200002284300B26946088108E0802011
:1011E000284000026906490E084300B2694608819A
:1011F0006A460820105E01F0ECFF322806DC6A46E1
:101200000620105E01F0E5FF322809DD0021684666
:101210000181C180062201A93046FFF73BF8A6E70D
:10122000062201A93046FFF735F800BF9FE700000E
:1012300070B504466006400E024A5168884705466C
:10124000284670BDF449000838B50446FFF793FE00
:10125000002800D138BD19204001201A0AD0C82822
:101260000AD0FF38F538002808D0FF382D3800287C
:1012700008D105E0002407E0012405E0022403E092
:10128000032401E0022400BF00BF5A21092000F01E
:101290001DF80620FFF7CCFF009068460078C108D3
:1012A000C9006007400F014300916846017806209D
:1012B00000F00CF80021092000F008F800BFC9E791
:1012C00010B50021092000F001F810BD70B50446EA
:1012D0000D46642002F038FF802222431046044A63
:1012E00091688847024881682846884770BD000099
:1012F000F44900080320024908620C204862704744
:1013000000700040114A526906231A430F4B5A617C
:1013100001229A601A46D0601161926804231A4330
:101320000A4B9A6000BF094A5269D207D20F002ABD
:10133000F9D1064A926892089200044B9A601A46C4
:10134000526902231A43014B5A6170470020024040
:10135000002905D0054A92680243044B9A6004E0D4
:10136000024A92688243014B9A60704740100240E3
:10137000002905D0054A12690243044B1A6104E0B2
:10138000024A12698243014B1A61704740100240C1
:1013900030B500228B071C0F0F23A3401A460B4BBE
:1013A0008C10A4001B599343084C8D10AD00635161
:1013B00023468C10A4001B598C07250F0446AC4013
:1013C0002343024C8D10AD00635130BD0400014039
:1013D0007047000070B505460D48456100200C4976
:1013E00088610520086100BF09480469FFF728FDEE
:1013F000E007C00F002804D001200004204000288E
:10140000F2D003480069400840000149086170BDFE
:1014100000E000E010B504480068401C0249086084
:1014200002F048FF10BD00006C00002070B51048AD
:101430004069002804D0012804D0022806D103E026
:101440000C4C05E00C4C03E00C4C01E0094C00BFD7
:1014500000BF0748C0684006400E401C4008451CBD
:1014600029462046FEF777FF0549086070BD000059
:1014700000100240006A180000127A00006CDC02C2
:101480007000002010B5FFF7A3FF10BD10B50121BB
:101490000A4800F065F800280ED00121074800F046
:1014A0003DF8074801780078401C054A1070B429BF
:1014B00002DD01200349886010BD000000100040DB
:1014C000B4000020100300201CB501218802FFF7A2
:1014D0003FFF684600F06CF80120694608800D481F
:1014E00001900D4800F05CF801210B4800F016F85F
:1014F00001221146084800F046F800210D2001F0B5
:101500006FF80D2000F0ACFF0121034800F00AF84D
:101510001CBD0000FFFF000000100040CA4392B253
:1015200002617047002904D0026801231A43026057
:1015300003E00268014B1A4002607047FEFF0000A2
:1015400010B504460548844207D101210015FFF774
:101550000FFF00212015FFF70BFF10BD001000400A
:1015600030B5024600200023002415690D402B46AB
:10157000D5680D402C46002B03D0002C01D0012053
:1015800000E0002030BD10B5002A03D0C3680B4333
:10159000C36004E0C368CC43A4B22340C36010BD61
:1015A0004A68C2620A888262012242617047000072
:1015B000024941600021018070470000FFFF0000E8
:1015C00010B500F063FC10BD10B501200549C871CD
:1015D0000020487214210448FEF7BBFE00F022FEF2
:1015E00010BD000000800020FC02002010B505485E
:1015F000807C032805D100F02FFE0248C07C014901
:10160000887410BDFC02002010B50648807C0328B9
:1016100007D00448807C0349C8740320887400F014
:10162000A5FE10BDFC02002010B500F059FC10BD55
:1016300070B50020874988730846447C0420204008
:10164000002803D0002048748349087010202040EF
:10165000002805D080207F49487400207E4908700A
:101660007D480078002847D1E007C00F002843D00C
:10167000002508227949002000F052FA002077491D
:1016800088600846C08888810020C88108460078A4
:1016900060210840002802D100F064F90546002DC1
:1016A00002D100F0B5FC054600206A498873012D7F
:1016B00004D0022D09D0032D15D10DE0402065493D
:1016C000487401206449087014E04020614948745E
:1016D0000220614908700DE048205E4948740020EE
:1016E0005D49087006E060205A49487403205A4951
:1016F000087000BF00BF00BF57480078012852D1D2
:101700000220204000284ED15248447C1020204026
:10171000002803D0E007C00F002844D102244F481E
:1017200080894F490978884214DA4C488289816857
:10173000802000F045FA4948C08948498989401805
:101740004649C8810020888108200443002042497E
:1017500008701BE04148816841480278802000F011
:101760002FFA3E4880683E49097840183B49886016
:10177000084680893A490978401A384988810846DC
:10178000C0893749097840183449C8813348C0892D
:101790003249C988884204D10820044300202E49D8
:1017A00008702C4844742C480078022850D12948ED
:1017B000447CE007C00F00284AD040242748808995
:1017C0002749097888420FDA2448828981680020F5
:1017D00000F0A6F92148C0892049898940181F498D
:1017E000C881002088811BE01C4881681C48027861
:1017F000002000F095F919488068194909784018C7
:10180000164988600846808915490978401A1349A5
:1018100088810846C0891249097840180F49C88153
:101820000E488089002811D10820044300F0D4FB21
:10183000032805D02020044303200749087002E054
:10184000002005490870002002498873014844744B
:1018500070BD00000080002076000020FC02002007
:10186000004A000810B507484078092807D1012030
:1018700000F09EFC002801D0032010BD00BF00BF77
:101880000020FAE7FC02002008B535480078602106
:10189000084020283FD132484078030000F0B6FDD0
:1018A0000C3A070E193A3A3A3A3A242C333A00F0F5
:1018B00069FC002801D0012008BD2BE02848C08821
:1018C000012805D100F04AFC002801D00120F3E7EF
:1018D00020E02348C088012805D100F049FC0028F9
:1018E00001D00120E8E715E0002000F061FC0028AD
:1018F00001D00220E0E70DE000F046FC002801D016
:101900000320D9E706E000F049FC002801D00320BD
:10191000D2E700BF22E0124800786021084000288A
:101920001CD10F484078062818D10D4AD17810797B
:101930006A4600F0A1FB0A498860084680680028D2
:101940000BD00846808969460988884203DD6846CD
:101950000088034988810120AEE700BF0020ABE783
:10196000FC02002010B547484078030000F04EFD0F
:101970000C0712861A86222D8638596477864148CC
:10198000C088022805D100F07FF9002801D001208D
:1019900010BD74E0002000F0D1F9002801D0032030
:1019A000F6E76CE0012000F0C9F9002801D003201F
:1019B000EEE764E033480078002805D100F0A2F992
:1019C000002801D00320E3E759E02E480078802862
:1019D00005D100F011F9002801D00120D8E74EE030
:1019E0002848007880281BD12648C088012817D1B4
:1019F0002448807C002804D0012803D002280FD17D
:101A000008E000BF00202049088008461D49886082
:101A10000120BDE71B4810301A4988600120B7E754
:101A20002DE018480078002805D100F0BFF9002803
:101A300001D00320ACE722E01248007881280DD1C4
:101A400010484088002809D10E48C088012805D1D7
:101A500000F008F9002801D0012099E70FE00948BB
:101A60000078012809D10748C088002805D100F076
:101A7000DDF9002801D003208AE700E000BF00BFA5
:101A8000002085E7FC020020740000200107090FF8
:101A900000290CD0064A917380220240002A03D00C
:101AA0004022034B5A7402E08022014B1A757047A2
:101AB0000080002001460A07120F002A0BD0802068
:101AC0000840002807D105488273C07D0002034BFF
:101AD0009B7D184370470020FCE700000080002039
:101AE00001460A07120F002A15D00C488273802085
:101AF0000840002807D00948407C102318400028DF
:101B000009D0012070470548007D20231840002897
:101B100001D00120F6E70020F4E70000008000205B
:101B200030B50407A40E054D631904E01C780C7051
:101B3000491C541EA2B2002AF8D130BD20800020DA
:101B40000107090F00290AD080220240002A06D18D
:101B5000034A9173127D52085200014B1A75704767
:101B6000008000200107090F00290CD0064A91735C
:101B700080220240002A03D01022034B5A7402E054
:101B80002022014B1A75704700800020F0B50446F2
:101B90000E4617463A463146204600F011F8250712
:101BA0002D0F002D08D080202040002804D00348AD
:101BB0008573012001494874F0BD000000800020B9
:101BC00030B50407A40E054D631904E00C781C70B1
:101BD000491C541EA2B2002AF8D130BD208000203A
:101BE00010B514210248FEF7B4FB00F0E5FA10BD71
:101BF000FC0200207047000008B51948C078012891
:101C000004D0022808D0032816D10DE0684600F061
:101C10002BFA1349886011E011498878694600F071
:101C200013FA0F49886009E00D498878694600F089
:101C300085FA0B49886001E0002008BD00BF084814
:101C40008068002800D1F8E705488089694609883E
:101C5000884203DD68460088014988810120ECE75D
:101C6000FC02002010B50748807C022808D10548F6
:101C70000479204600F03AFA002801D0012010BD76
:101C80000020FCE7FC02002038B500201B4908803A
:101C90001B480078C006C00E002804D001281BD0C5
:101CA000022822D119E01649087C694600F0CCF9D7
:101CB0000446E07940210840002802D001200F4965
:101CC00008800F48407C002805D00C48008802217D
:101CD00008430A4908800AE009E0094805792846CE
:101CE000FFF7FEFE0549088001E0002038BD00BF77
:101CF0000248034988600120F8E7000074000020D2
:101D0000FC0200200B4880784106490E0948807C7F
:101D100002280CD008480170002903D00120054A90
:101D2000907402E00020034A907401207047002064
:101D3000FCE70000FC0200200080002070B5054692
:101D400019480078C006C00E002802D0022828D109
:101D50000EE015484088012809D1002D02D0124913
:101D6000487402E0002010494874012070BD18E05A
:101D70000D484088002813D10B4804792007000F34
:101D800000280DD0002D03D0E0B2FFF7EBFE05E0F8
:101D9000E0B2FFF77BFEE0B2FFF72CFF0120E5E7A2
:101DA00000BF00BF0020E1E7FC02002010B51E4884
:101DB0008478807C012802D0022831D110E0002CE8
:101DC0000BD0204600F050FA002808D016480474C2
:101DD000022015498874012010BD0120FCE720E095
:101DE000002C09D1002010490874012088740020BB
:101DF00000F030F80120EFE70B48007CA0420CD047
:101E00000949087C00F026F8204600F02DFA002849
:101E100005D0054804740120DEE70120DCE700E07E
:101E200000BF00BF0020D7E7FC02002070B50848C3
:101E3000807C02280AD10648047985782946204604
:101E400000F070FA002801D0012070BD0020FCE7EE
:101E5000FC0200200C49C979022291430A4AD1713F
:101E60001146C97904229143074AD1711146C979B3
:101E700008229143044AD1711146497A08229143BC
:101E8000014A5172704700000080002010B50F48D1
:101E900080680121490208430C4988600C4A0621E8
:101EA0000C48FEF717FF0B48006B062188430949D1
:101EB00008630948C069094908430749C861012006
:101EC000491048700720C87210BD00004010024041
:101ED00001000020000C0048000001400000A4891F
:101EE0000549C8698A0001469143084603490143F0
:101EF000014AD16170470000000001400000A08944
:101F00000020014908607047F400002001200649C4
:101F100088730846007DC007C00F002802D001204A
:101F20000249086070470000008000200401002082
:101F30000020014908607047F8000020022006498F
:101F400088730846007DC007C00F002802D001201A
:101F5000024908607047000000800020080100204E
:101F60000020014908607047FC00002010B50320E4
:101F70000A4988730846007DC007C00F00280BD0AF
:101F80000320FFF797FD0446224605490320FFF78B
:101F9000C7FD01200349086010BD0000008000203B
:101FA000A00300200C0100200020014908607047B8
:101FB000000100200420064988730846007DC00700
:101FC000C00F002802D001200249086070470000BD
:101FD000008000201001002010B500240B4800787C
:101FE0004006400E21280ED108480079002807D06D
:101FF00006480079012803D004480079022802D15C
:10200000FFF730FC0446204610BD0000FC02002013
:1020100010B500240B480078C006C00E01280ED170
:1020200008480079002807D006480079012803D025
:1020300004480079022802D1FFF726FC0446204616
:1020400010BD0000FC0200200246012A08DA054803
:10205000C0780002034B9B78184308800148704702
:102060000020FCE7F64A00080146122008800148DB
:1020700070470000FC4800080346002B0CD12129C2
:1020800002D0222928D103E009201080134870478C
:10209000472010801248FAE7012B0DD1212902D0E8
:1020A000222919D104E0092010800C481930EEE7EC
:1020B0005F2010800B48EAE7022B0DD1212902D0C6
:1020C000222909D104E00920108004483230DEE7DB
:1020D000242010800448DAE70020D8E7084B0008E5
:1020E0002C4A0008734A0008D24A0008F8B5064690
:1020F00000251AE069462846FFF7A6FF0446002C93
:1021000010D00C48007C617988420CD12079B04213
:1021100007DD00200849088008460649886001203C
:10212000F8BD04E003E0681CC5B2FF2DE2DD00BF8E
:102130000020F5E7FC020020740000200246032A7C
:1021400007D29000044B1858007808809000185867
:1021500070470020FCE70000C0000020024803494F
:10216000886001207047000018010020FC02002058
:1021700002480349886001207047000019010020CF
:10218000FC020020002070470248C0780249087015
:1021900001207047FC0200201801002002488078CE
:1021A0000249087001207047FC020020190100203C
:1021B000014600207047000010B5174880680121D3
:1021C000090508431449886008460069012109058A
:1021D000084311490861084600690121090588433F
:1021E0000D49086101200C4940390863C86200208C
:1021F0000A49C872C87148720021162000F02CFAF2
:102200001620002805DBC206D20E01219140044AA7
:10221000116000BF10BD000040100240008000208F
:1022200000E100E0012007494870C87100204872B1
:1022300005490860054908600549086005490860C6
:102240007047000000800020F4000020F80000200B
:10225000FC0000200C01002001200149087070479B
:10226000BC000020704700000146012956D12C4ACD
:10227000907300209074082010744020507408203F
:10228000507450741046C07902221043244AD07111
:102290000220907300209074082010744020507425
:1022A0000820507450741046C079042210431C4A10
:1022B000D071032090730020907408201074402087
:1022C00050740820507450741046C079082210438E
:1022D000134AD07104209073002090740820107469
:1022E000402050740820507450741046C079102259
:1022F00010430B4AD07103209073002050750820C2
:10230000D074802010751020107510751046407A1A
:1023100008221043024A5072012070470020FCE757
:1023200000800020F8B506460F46002516E06946F5
:102330002846FFF789FE0446002C0CD00A48007C92
:102340006179884208D12079B04203DD002F01D1A4
:102350000120F8BD04E003E0681CC5B2FF2DE6DDF6
:1023600000BF0020F5E70000FC0200200120014929
:1023700008707047BD00002010B501200005FEF771
:1023800021FB18480078002808D117484069082127
:102390000840002802D00120124908701148007836
:1023A00001280ED11048406904210840002808D0B7
:1023B00002200C490870132000F036F801200B4968
:1023C00008700848007800280BD107484069C0070A
:1023D000C00F002805D0132000F026F80120034983
:1023E000087010BD7700002080000240BC00002073
:1023F00070B50548847985780679324629462046A5
:10240000FEF7C6FC70BD00000080002030B47446AA
:10241000641E2578641CAB4204D3635D5B00E31843
:1024200030BC18471D46F8E7002815DBC206D20E5F
:1024300001219140094A116000BF00BF00BFBFF3F6
:102440004F8F00BF00BF00BF00BF00BF00BFBFF382
:102450006F8F00BF00BF00BF7047000080E100E049
:10246000002805DBC206D20E01219140014A11600D
:102470007047000000E100E010B5002819DB1A4A9F
:1024800003231B02D21883089B00D2588307DC0E5B
:10249000FF23A3409A438B071B0E8407E40EA3403F
:1024A0001A43114B032424021B198408A4001A5157
:1024B00018E00E4A03071B0F083B9B089B00D258ED
:1024C0008307DC0EFF23A3409A438B071B0E840770
:1024D000E40EA3401A43054B0407240F083CA4084C
:1024E000A4001A5110BD000000E100E01CED00E066
:1024F00010B5002819DB1A4A03231B02D2188308DF
:102500009B00D2588307DC0EFF23A3409A438B071E
:102510001B0E8407E40EA3401A43114B032424022C
:102520001B198408A4001A5118E00E4A03071B0F58
:10253000083B9B089B00D2588307DC0EFF23A34077
:102540009A438B071B0E8407E40EA3401A43054BE6
:102550000407240F083CA408A4001A5110BD000071
:1025600000E100E01CED00E010B5002819DB1A4A7C
:1025700003231B02D21883089B00D2588307DC0E6A
:10258000FF23A3409A438B071B0E8407E40EA3404E
:102590001A43114B032424021B198408A4001A5166
:1025A00018E00E4A03071B0F083B9B089B00D258FC
:1025B0008307DC0EFF23A3409A438B071B0E84077F
:1025C000E40EA3401A43054B0407240F083CA4085B
:1025D000A4001A5110BD000000E100E01CED00E075
:1025E00010B5002819DB1A4A03231B02D2188308EE
:1025F0009B00D2588307DC0EFF23A3409A438B072E
:102600001B0E8407E40EA3401A43114B032424023B
:102610001B198408A4001A5118E00E4A03071B0F67
:10262000083B9B089B00D2588307DC0EFF23A34086
:102630009A438B071B0E8407E40EA3401A43054BF5
:102640000407240F083CA408A4001A5110BD000080
:1026500000E100E01CED00E010B5002819DB1A4A8B
:1026600003231B02D21883089B00D2588307DC0E79
:10267000FF23A3409A438B071B0E8407E40EA3405D
:102680001A43114B032424021B198408A4001A5175
:1026900018E00E4A03071B0F083B9B089B00D2580B
:1026A0008307DC0EFF23A3409A438B071B0E84078E
:1026B000E40EA3401A43054B0407240F083CA4086A
:1026C000A4001A5110BD000000E100E01CED00E084
:1026D000F7B582B0039B00240025019500950021E9
:1026E0001AE001258D401D40002D14D04E00032519
:1026F000B5402C43082906D28E000F25B540019E17
:102700003543019507E00D46083DAE000F25B54065
:10271000009E35430095491C1029E2D385689D43EE
:10272000D602F60F76421E403543856045689D43CC
:10273000D601F60F76421E40354345600568A54335
:102740009600B60F0F4F7E43264035430560C5689F
:10275000A5439603B60F7E4326403543C560110757
:10276000090F094E7143056A019EB5430E4035437A
:102770000562456A009EB5430E403543456205B08B
:10278000F0BD0000555555551111111110B513200C
:10279000FFF74AFE0320204908620C20486200200F
:1027A0001E49886108460068012108431B490860EA
:1027B00001201A494039C86300BF184800698007E2
:1027C000800F0128F9D116488068012109050843C6
:1027D00013498860012012494039086300200E49DE
:1027E0000862486211200F49086000200C494039F6
:1027F000C8600220486101208861002048620120F1
:1028000008620920C861012048620748074908603A
:1028100001F062FD10BD0000007000408000024029
:102820004010024000200240006CDC0270000020DA
:102830001CB50320494908620C2048624848806A58
:102840000121084346498862002000E0401CFF2126
:10285000F5318842FAD30020404908624862414974
:10286000C8604861012088613F484049086001F024
:1028700033FD0320394908620C20486200203949A1
:10288000086338484030806801210905884335498C
:10289000403188603648C0680005000D35498842DF
:1028A00005D13348C0680004000F002813D1002070
:1028B0002B494031C86300BF29488030006902219C
:1028C00008400028F8D0002000E0401CFF21F5312E
:1028D0008842FAD313E02248803000684008400064
:1028E0001F498031086000201D494031C86300BF86
:1028F0001B48803000698007800F0228F8D10D2026
:1029000017498031886100201449086248621548DF
:10291000403080680121C904084312494031886071
:1029200001200005009000216846017108214171D5
:1029300001218171FEF74CF800200F490870012039
:102940000005FEF73FF81320002805DBC206D20E73
:1029500001219140094A116000BF1CBD0070004078
:10296000000002400010024080841E007000002021
:1029700000FAFF1FB50900007700002000E100E029
:1029800070B505460C4640212046FDF7E0FC28784E
:10299000207028780B2805D1012060700448054973
:1029A000086002E0FF20207000BF00BF70BD000083
:1029B000A5A5A55AB800002010B51E48006800283B
:1029C00000D110BD00201B4908601B491B48FFF7C0
:1029D000D7FF0320FFF7B4F8402217498320FFF701
:1029E000D5F8174800681749884220D1642000F0C4
:1029F000A5F815481549486200201149086000BF34
:102A000000BF00BF00BF00BFBFF34F8F00BF00BFBC
:102A100000BF0F480F49C86000BF00BF00BFBFF331
:102A20004F8F00BF00BF00BF00BF00BFFDE700BF6A
:102A3000C7E700000C010020E0030020A0030020F5
:102A4000B8000020A5A5A55AEB9C374A40100240CB
:102A50000400FA0500ED00E0FFB581B01E46002736
:102A600000201D4908701D48007800281FD000BFB5
:102A700001F054FC04461A480068844203D3184805
:102A80000068201A04E0164800681649081A001960
:102A900085B2134804600127FF2D00DDFF25002DBE
:102AA00004DDEBB201A807C801F068FD00BF002EED
:102AB00003D10D48007800280AD0002F04D100BFB0
:102AC00001F02CFC0649086001A807C801F032FC9F
:102AD0000148007805B0F0BD820000208000002091
:102AE0007C000020FFFF00008100002070B504463C
:102AF0001049C98861430846FDF748FB0E49086044
:102B00000025002012E000210AE02B466D1C0A4E31
:102B100036689A191378FE26B34313704A1CD1B253
:102B2000044AD2888A42F0DC411CC8B2A042EADBE7
:102B300070BD0000D00200207800002070B505466E
:102B400001F0F2FB044601E0FEF77AF901F0ECFB3C
:102B5000A04203D301F0E8FB001B05E001F0E4FB19
:102B60000021C943091B4018A842EDD370BD00E005
:102B7000401E0028FCD1704710B500F0C3F90028B2
:102B800007D1044841690448884700F047F800F03D
:102B9000C9F910BD144A0008007C00080146054828
:102BA000C088044A928850434000034A80188A0033
:102BB00080187047D00200200A7C0008F8B505464E
:102BC0000E460D488088A84203DD0B48C088B042FD
:102BD00001DC0020F8BD3146284600F011F804461B
:102BE0000648016820468847070204480168601CBF
:102BF000884707433846EDE7D0020020144A000812
:102C000002460448C08850434000034BC0184B00A4
:102C1000C0187047D00200200A7C000870B500245C
:102C200013E000250CE0154B1E689B8863435B0096
:102C3000F3186E009A5BE9B2E0B200F03DF86D1C4B
:102C40000E48C088A842EEDC641C0C488088A04274
:102C5000E7DC00240EE0094989684A88E0B20121D6
:102C600000F00EF8054989680A88E0B2002100F0FA
:102C700007F8641C012CEEDB70BD0000D0020020C0
:102C8000F8B507460C461546012F00DDF8BD38465D
:102C9000FFF784FF0646291263009819054BDA688E
:102CA0009047E9B263009B19581C024BDA689047C1
:102CB00000BFEBE7144A0008F8B506460F46144675
:102CC0000C488088B04203DD0A48C088B84200DC66
:102CD000F8BD39463046FFF793FF054621120648F6
:102CE000C26828469047E1B20348C268681C904712
:102CF00000BFEDE7D0020020144A000810B50248DA
:102D000041690248884710BD144A0008007E000847
:102D1000F0B5FFB082B005460E46174601225202BA
:102D20000E4901A8FDF716FA0C49791A01AA88186C
:102D300032462946FDF7AEFAFFF7E0FF002408E02F
:102D400001AB195D054BE018054BDA689047601C34
:102D500084B2042CF4D37FB002B0F0BD007E000832
:102D6000144A000801B5034A04216846FFF7D0FF62
:102D700008BD0000007E000810B5024881680248C6
:102D8000884710BD144A0008007E000870B504464C
:102D90000D46002D0AD02246FD21012001F054FAF3
:102DA0002246FD21002001F04FFA09E02246FC21D5
:102DB000012001F049FA2246FC21002001F044FAEA
:102DC00070BD000010B50D49C8680121090400F06C
:102DD00079FC0A4908690121090400F073FC0749DC
:102DE000C86800F057FC04460449086900F052FC2A
:102DF0004000044302490C7010BD0000D0020020C6
:102E00008300002070B500241149C86800F042FC1E
:102E100006460F49086900F03DFC40000643F5B244
:102E20000C4800788007800FA8420FD0094800782E
:102E30008006000E0749087008460078284308708D
:102E400008460178002000F007F80443204670BDD2
:102E5000D002002083000020F8B505460C4600266D
:102E600002272007000F1C49085C1C4909784018FC
:102E700040B21A49087008468157022908DA01460B
:102E80008857B11E884203DDA007800F032820D198
:102E9000124800214156012904DB01260121284660
:102EA000FFF774FF0D4800214156002904DA01267E
:102EB00000212846FFF76AFF084900200856C10F85
:102EC000091849104900411A044A1170002011469E
:102ED00008703046F8BD0000014A00088400002058
:102EE00000A070476C69622076657273696F6E3AF4
:102EF00020764254535F4C49425F56455253494FE6
:102F00004E00000010B505480168054888475A285A
:102F100001D1012010BD0020FCE70000144A000888
:102F2000007C000810B503485A21C2680248904747
:102F300010BD0000144A0008007C00081CB52048A1
:102F40000078002808D01F480078002804D000F03E
:102F500027FB00201A4908701B484079002808D038
:102F600018480078002805D1032000F093FB0028C2
:102F700000D01CBD00201349087014480169684640
:102F80008847062269461248FDF784F910484088B0
:102F9000002803D10E48808800280ED00C484088B5
:102FA000404201B268468180094881886846C180F4
:102FB0000848019900F0EBFD00BF00BFD9E7000011
:102FC000590000205800002050000020E04900086F
:102FD000480000202001002010B500200F490860A3
:102FE0000F4908600F48006B401C002814D10E48A0
:102FF0000068072108430C49086000211920FFF7E9
:10300000B3FA1920002805DBC206D20E0121914037
:10301000064A116000BF00BF10BD000090000020F4
:1030200094000020C0FAFF1F006C004000E100E0A7
:1030300070B51548006B401C002823D11348006868
:1030400000281FD000BFEFF31080044672B60020A6
:103050000E490860FDF732FE0D48FDF72BFD0D48C7
:1030600000688003850DE8430004054329460A48AB
:10307000FDF78EFD09490848001DFDF789FD002C6C
:1030800000D162B670BD0000C0FAFF1F90000020A2
:1030900000F6FF1F006C004000F7FF1F69E5B5A3B5
:1030A00070B505460C460F482818002816D1002C8C
:1030B00009D0E32000F0BAFEE12000F0B7FE722054
:1030C00000F0B4FE08E0E32001F02AFAE12001F06C
:1030D00027FA722001F024FA002070BD00BF00BF63
:1030E0000120FAE7FF9DFFFFF8B506460F460125D0
:1030F00000242DE00C2060431A4940180089B0429A
:1031000024D1002F06D001F00FF90C216143154A9C
:1031100050501AE00C20604312494018807A002871
:103120000ED00C2161430F4A891808890021FFF74E
:10313000B7FF054600210C2060430A4A80188172BF
:1031400000210C206043074A115003E0601CC4B208
:10315000002CCFD000BF012D01D00020F8BD2846A3
:10316000FCE700000000002010B5002426E00C2041
:1031700060431449085800281ED00C2060434018B2
:10318000807A002818D10C2161430E4A505801F072
:1031900092F80C2161430B4A8918496888420BD385
:1031A00001210C206043801881720C216143891831
:1031B00008890121FFF774FF601CC4B2002CD6D02F
:1031C00010BD00000000002010B5FFF7CDFF01206A
:1031D00010BD0146002901DA484200E0084600B26D
:1031E0007047000010B584211048FDF7B2F80020A8
:1031F0000F49886008600F4840688005800D48606E
:10320000FEF714F9002000E0401C0B498842FBD374
:1032100000F060FFFEF758F9FEF76CF800BF0448B5
:1032200080680028FBD000F0F3FE10BD1C030020D6
:1032300010030020800002401027000070B53E48B7
:10324000456A3E480068002802D13C48056071E0AC
:103250003B480560006839490968884205D3384809
:10326000006836490968401A06E034480068354964
:10327000081A33490968401804463348844259D330
:103280003248844256D82E4800682C49086030489D
:103290004068401C2E4948602E48007800281CD009
:1032A0002C480078401E80002B490858A04206D8C0
:1032B00028480078401E80000858201A06E025485B
:1032C0000078401E800024490858001B0A2148430A
:1032D000A04202D900201F4908701E490878411CED
:1032E0001C4A117081001C4A54501A480078022868
:1032F00019DB00201749087000BF002617488068B6
:1033000000280ED100BF05E08100134A51588E19E4
:10331000411CC8B20228F7DB70081049086000F0B1
:103320001BFF00BF00BF0A4840680A2802D90120DD
:103330000A49886070BD000000100040980000201D
:103340009C000020FFFF000090330000F087000089
:103350001C030020A0000020A40000201003002077
:1033600010B50A48406A0A4988420ED10020074930
:1033700048620120074908600749086880F3088807
:1033800000BF4868804700BFFEE710BD4010024004
:10339000EB9C374A0000014000E0FF1F10B501F030
:1033A000B7F9002010BD000010B501F0D7F80024D7
:1033B0000EE00F488069A1004058401C002805D04D
:1033C0000B498969A200885800F00EFE601CC4B247
:1033D0000748C088A042ECDC054A9188106AFCF7D7
:1033E000B8FF034A9188506AFCF7B3FF10BD000094
:1033F000D0020020FEB506460C460027204600F00D
:10340000B1FD01200190002513E00F498969AA0050
:10341000885800F0FFFC00900098002801D00020A0
:1034200000E001980743681CC5B201984004000CF5
:1034300001900548C088A842E7DC204601F07EF8EC
:10344000A0003750FEBD0000D002002070B500255E
:1034500006E01449C8692946FFF7CCFF681CC5B2CD
:1034600010488088A842F4DC0E4B9A88D969186A03
:10347000FCF7E3FE002801D0012000E00020044614
:10348000002C05D0074B9A88D969186AFCF762FEB0
:10349000044B1A79596A186A2346FFF7DDFA044685
:1034A000204670BDD0020020FEB5FFF7CFFF0025FB
:1034B000002011E03749896A82008958354A526AEA
:1034C0008300D25851402943002901D0012100E056
:1034D00000210D46411CC8B22E498988814201DD78
:1034E000002DE7D0002D18D100BF00F017FF0446D3
:1034F00029480088844203DB27480088201A04E01A
:10350000254800882549081A001980B2002801D0F2
:103510002148048000BF2846FEBD002434E01D4839
:10352000406AA10047581B48806AA1004058784073
:1035300002900298002800D124E00126002001908A
:1035400016E00298304000280DD038463040002860
:1035500001D0012000E0002000902146019A00984F
:1035600000F072FE00BF0198401CC0B201907600CE
:103570000848C18801988142E3DC0648806AA100BE
:10358000475000BF601CC4B202488088A042C6DC1D
:103590002846C1E7D00200206A000020FFFF00009B
:1035A00010B51D4800690121C90408431A49086182
:1035B000084600690121C904884317490861084683
:1035C000806816490843144988601549086880478F
:1035D0000120144948710104032000F073F801210F
:1035E0000220FEF749FF0220002805DBC206D20EAA
:1035F000012191400C4A116000BF00200B49486036
:1036000008200B498860C86008603C2209490A48C4
:1036100000F092FA10BD00004010024000020800C5
:10362000E04900085000002000E100E000000140F7
:1036300000040140300100202001002010B50020CE
:1036400004494871044948688047012003490870CB
:1036500010BD000050000020E04900085900002083
:103660000FB410B52C2202A90348FCF773FD10BC5F
:1036700008BC04B018470000D00200200207120F57
:10368000012191400904020992020923DB06D218A4
:10369000916170470146080980020922D20680180C
:1036A00000690A07120FD040C007C00F7047020719
:1036B000120F01219140020992020923DB06D21860
:1036C0009161704730B504460D4623071B0F012258
:1036D0009A401146220992020923DB06D0182A4695
:1036E000FEF7F6FF30BD0000024600290FD0094862
:1036F0001018002804D0012804D0022806D103E0C5
:10370000002070470020FCE70020FAE700BF0120FE
:10371000F7E70000FF9DFFFF70B504460E46FF204F
:103720000130844229DD0001844226DA002515E0BB
:103730002846083021460141C807C00F00280CD098
:10374000002E05D069000E4A505A00F06FFB04E0CD
:1037500069000B4A505A00F0E3FE6D1C082DE7D3B8
:10376000002E03D0E0B200F061FB02E0E0B200F016
:10377000D7FE00F069FB002070BD0120FCE70000CF
:103780005A00002070B504460D4629462046FFF732
:10379000C3FF002800D170BD29462046FFF7A4FFD3
:1037A000002800D1F7E70120F5E770B504460D4683
:1037B0002946204600F00CF8002800D170BD2946AB
:1037C000204600F065F8002800D1F7E70120F5E772
:1037D00070B504460D462946204600F00DF8002835
:1037E00000D170BD29462046FFF7CCFF002800D14C
:1037F000F7E70120F5E70000F8B504460D46294635
:103800002046FFF771FC002800D1F8BD14482018AD
:10381000002820D1002D1CD1FDF7CAFB0646192037
:103820004001864203D80F48FDF70EFD0BE00D481E
:10383000864204D819208001FDF706FD03E0192017
:103840004001FDF701FDFDF7B3FB0746FFF78AFADC
:1038500000BF0020D9E700BF00BF0120D5E700006E
:10386000FF9DFFFF14050000024607484270130A3F
:103870008370C1700B0A0371044800781023184349
:10388000024B187001207047EA00002088000020D9
:10389000FEB504460D4601200190042C7EDBA42CCD
:1038A0007CDC06210091002D3DD0002013E09C49D6
:1038B000095CA14200D111E09949095C002908D1B5
:1038C00097490C549749097801221143954A117080
:1038D00004E0411CC8B200998842E8DB00BF0199AE
:1038E000002965D00099884262D12146E3175B0F19
:1038F0005B18DE108C4B9B5D2246E617760FB618E0
:10390000F610F600A71B0126BE403343E617760FDC
:103910007618F710844EF355824909780222114334
:10392000804A117044E000200FE07D49095CA1420B
:1039300009D100227A490A547A49097801221143AF
:10394000784A117003E0411CC8B20628EDDB00BFC5
:10395000E3175B0F1B19DE10734B9B5D2146E617C7
:10396000760F7618F610F600A71B0126BE403340EE
:10397000002B1DD0E3175B0F5B18DE106A4B9B5DBD
:103980002246E617760FB618F610F600A71B01269A
:10399000BE40B343E617760F761800E009E0F71053
:1039A000614EF3555F490978022211435D4A117057
:1039B000B4E0E02C21DBE72C1FDC002D0BD05848B5
:1039C000801E40782146E03901228A401043544944
:1039D000891E48700AE05248801E40782146E0392E
:1039E00001228A4090434E49891E48704D48007814
:1039F000012108434B49087090E0A82C16DBBE2C2F
:103A000014DC002D07D0E0B2FDF722FA47494870D8
:103A1000000A887003E000214448417081704148E9
:103A20000078042108433F49087077E0A52C1DDB8E
:103A3000A72C1BDC002D09D03D4840782146A53934
:103A400001228A4010433A49487008E038484078DB
:103A50002146A53901228A409043354948703148B2
:103A60000078082108432F49087057E0F12C22DB29
:103A7000F82C20DC00212F4841708170C170017149
:103A8000002D08D000782146F13901228A401043E8
:103A90002849087008E0274800782146F1390122BA
:103AA0008A409043234908701E480078102108433B
:103AB0001C49087032E0F92C2EDBFC2C2CDC002198
:103AC0001C4841708170C1700171002D0ED005211C
:103AD00041562046F938002802DD0020C04300E0AE
:103AE0000120081840B2134948710EE01148052121
:103AF00041562046F938002802DD0020C04300E08E
:103B00000120081A40B20B4948710648007810217C
:103B100008430449087001E00020FEBD0120FCE7D5
:103B2000CF00002088000020D7000020E500002002
:103B3000E8000020EA000020002803D0002901D07E
:103B4000002A00D17047816001604160531E9B00D4
:103B50005B18C36000BFF5E70246136850689842DF
:103B600004D0506800680860012070470020FCE71E
:103B700002684168914209D0C2684168914202D10D
:103B80008168416002E04168091D4160704702465A
:103B9000D3681068984203D193685068984208D05F
:103BA000D3681068984206D01068001D5368984288
:103BB00001D10020704710680160D36810689842F6
:103BC00002D19068106002E01068001D10600120B2
:103BD000F0E7000010B500207E49C8604861012070
:103BE000886100BF7B4880690028FBD17A487B4907
:103BF000086003207A4908620C2048627948C0684E
:103C00000005000D7849884205D17648C068000457
:103C1000000F002844D100207449C86300BF7348D6
:103C200040300069022108400028F8D0002000E060
:103C3000401C6F498842FBD301206C49C86300BF18
:103C40006A4840300069C007C00F0028F8D0002043
:103C500000E0401C66498842FBD343206349403959
:103C6000C863481561490860102048601620486103
:103C70000120C860FF205630086103205B494031B5
:103C8000C860002000E0401C6428FCD30020574995
:103C90004031C86055494039C8635449C86031E073
:103CA00052484030006840084000504940310860A8
:103CB00000204E49C86300BF4C484030006980076F
:103CC000800F0228F8D1002000E0401C48498842BB
:103CD000FBD3464840300068012108434349403146
:103CE000086001204149C86300BF40484030006976
:103CF0008007800F0128F8D1002000E0401C3C49DB
:103D00008842FBD311203B49086000203149C8603C
:103D10000220486101208861002048620120086279
:103D20000920C8610120486233482C4908602F48A7
:103D30004038806A400840002C494039886200F0D1
:103D4000CBFA2848C030006B401C00281AD12B4801
:103D500040682B4988420CD1284800882749498867
:103D6000C94389B2884204D1244800881F494031A0
:103D7000486018484030006A08210840002801D0F7
:103D8000FFF730FA13484030C06901210843114958
:103D90004031C86100201249086248620D48403035
:103DA0008068022108430B4940318860154800684B
:103DB000154908400D494031496809020843114935
:103DC0000860124848601248006A012108431049FF
:103DD000086210BD0010024080841E0070000020A8
:103DE0000070004000FAFF1FB509000040000240CB
:103DF0001027000000200240006CDC0200F7FF1FCB
:103E000069E5B5A3006C0040FF00FCFF7FBB782094
:103E10000000014010B50446601C002804D0204674
:103E2000FFF738FCC0B210BD0020FCE71CB504460B
:103E3000684604800121817002480099FFF7A7FEBF
:103E40001CBD00002002002010B500243D48007871
:103E5000C007C00F00280ED008223B49822000F086
:103E600093F800285AD03748007840084000354978
:103E70000870012452E033480078022108400028ED
:103E80000ED010223149822000F07EF8002845D063
:103E90002C480078022188432A49087001243DE01B
:103EA000284800780421084000280ED00322284921
:103EB000822000F069F8002830D0224800780421E0
:103EC000884320490870012428E01E480078082112
:103ED000084000280ED002221E49822000F054F82B
:103EE00000281BD01748007808218843154908701E
:103EF000012413E0134800781021084000280DD059
:103F000007221549812000F03FF8002806D00D480F
:103F10000078102188430B4908700124002C04D03C
:103F200000200E490860012010BD0C480068401CAC
:103F30000A4908600A49884201D90120F4E70020B3
:103F4000F2E7000088000020CD000020D50000200E
:103F5000E5000020E8000020EA0000208C0000209E
:103F600050C3000070B5044606484069A10045589A
:103F7000681C002804D0284600F03EF8012070BDDF
:103F80000020FCE7D0020020F8B504460F46164694
:103F90000025812C01D1114D02E0822C00D1104D61
:103FA000002D01D10020F8BD0E48807C032801D1EE
:103FB0000120F8E70B48807C02280DD128680028F2
:103FC0000AD172B6B2B239462046FDF7DFFD0120B4
:103FD000286062B60120E6E70020E4E7F400002054
:103FE000F8000020FC02002010B50446012109045D
:103FF0002046FFF767FB10BD10B5044601210907F5
:104000002046FFF75FFB2046FFF738FB10BD00009E
:1040100010B50220FCF7D0FC0120FEF721FA284859
:10402000C068022188432649C8600846806802218A
:104030008843234988600846406802218843204914
:10404000486008460068022188431D490860002234
:1040500006211C48FCF73EFE1B48FDF771FA0021C3
:1040600001208002FDF774F901211748FDF756FA87
:10407000002201211448FDF786FA0D20002815DBE7
:10408000C206D20E01219140104A116000BF00BF4C
:1040900000BFBFF34F8F00BF00BF00BF00BF00BF16
:1040A00000BFBFF36F8F00BF00BF00BF00BF084855
:1040B000C0690121890488430549C86110BD000019
:1040C00000040140000C00480010004080E100E0C6
:1040D0000000014010B501211548FDF739F9154AD6
:1040E00006211548FCF7F6FD0220FCF765FC0021CF
:1040F0000120FEF775FA0120FEF7B2F90F48FCF730
:10410000ABFC02200D4908600020087108204871AE
:10411000012088710846FCF75BFC01210320FDF7B4
:1041200037F90748C069074908430549C86110BD08
:104130000002080001000020000C0048AC00002034
:10414000000001400000A48901B500BF0098411E95
:1041500000910028FAD108BDF8B5344844683448C5
:104160000068450000270026324885420FD23248B9
:10417000471B42213846FCF7EEF80646A0192F49A6
:10418000884200D3F8BDA0192849486034E02C4883
:1041900085420DD928482F1A42213846FCF7DBF812
:1041A0000646B44200D8EDE7A01B2049486023E052
:1041B000214885420ED2471B42213846FCF7CBF8F6
:1041C0000646A0191D49884200D3DBE7A01917490C
:1041D00048600EE0184885420BD92F1A4221384614
:1041E000FCF7B9F80646B44200D8CBE7A01B0F494C
:1041F000486001200E49886012480068810011481B
:104200000C3045500C38006881000E483430445062
:104210003438006881000B485C3046505C380068D8
:10422000401C0849086000BFACE700008000024065
:1042300010030020E0B5000080BB0000FF03000079
:1042400020C100001C0300207CB506460C46154624
:10425000684686700471C570FD2C01D0FC2C08D115
:104260000B4881682046FC384000085A694608809F
:1042700005E029462046FEF7A1FC6946088068460D
:104280000088002803D003480099FFF780FC7CBD1C
:10429000D00200202002002010B500F003F8FFF744
:1042A000CDF910BD704710B500F003F8FFF778F9AD
:1042B00010BD7047704700B5014600F035F88842E0
:1042C00003D300F031F8401A00BD00F02DF80022B1
:1042D000D243521A8018F7E710B57D21C9000C4867
:1042E0000068FCF738F80446601E0A49884200D985
:1042F0000CE0601E084948610321081FFEF7F8F82A
:104300000020054988610720086100BF10BD00003A
:1043100070000020FFFFFF0000E000E0014800689F
:1043200080B270476C0000200148006870470000B0
:104330006C000020F7B581B004460B462A49086896
:1043400000214DE08A00A2588D005D596A4000921C
:1043500000223FE0012696403546009E2E40002E6A
:1043600028D006787608002E31D1067876087600B7
:104370008F00E7592F40002F01D0012700E00027D0
:10438000FF07FF0F3E4306700678FE27BE43143634
:1043900006700126154F3E700678F607F60F002EC0
:1043A00015D08E009E596E408F00DE510126104FB1
:1043B0003E700CE006787608002E08D00678F607E6
:1043C000F60F002E03D10678FE27BE430670401C70
:1043D000551CEAB2074DED889542BBDC4A1CD1B2B0
:1043E000039A9142AEDBFFBD7800002080000020E0
:1043F00082000020D002002070B5044600251AE09B
:104400000620FFF73BF980202040002803D005203C
:10441000FFF74DF902E00520FFF730F90120FEF724
:10442000A6FB0620FFF743F96006040E0120FEF705
:104430009EFB681CC5B2082DE2DB00210520FFF7BA
:1044400041F91E20FEF793FB002516E00620FFF73A
:1044500015F90120FEF78BFB6006040E0620FFF71E
:1044600026F90520FFF716F9002801D001200443A2
:104470000120FEF77CFB681CC5B2082DE6DB052099
:10448000FFF715F9112109060520FFF71BF9052093
:10449000FFF70DF9204670BD10B50C48806801216A
:1044A0004902084309498860112109060620FFF7DF
:1044B00009F9112109060520FFF704F90620FFF785
:1044C000F6F80520FFF7F3F8012010BD4010024078
:1044D00070B5044600251AE00620FFF7CFF88020CB
:1044E0002040002803D00520FFF7E1F802E0052076
:1044F000FFF7C4F80120FEF73AFB0620FFF7D7F8D4
:104500006006040E0120FEF732FB681CC5B2082DC0
:10451000E2DB0520FFF7CBF80120FEF728FB70BD9A
:104520001CB5044668460480002181700248009949
:10453000FFF72DFB1CBD00002002002070B50446D3
:1045400005484069A1004558681C002802D028464B
:10455000FFF74AFD70BD0000D002002010B5002416
:1045600004E02046FFF7EAFF601CC4B202488088DE
:10457000A042F6DC10BD0000D0020020FFB582B0E2
:104580000C462E49086800212D4A11702D4A1170E1
:1045900000BF4DE0002245E00125954001950578DA
:1045A0006D08002D3BD005786D089D4229DC05780B
:1045B000FE26B54305700578ED07ED0F002D03D0FD
:1045C0000125204E35702AE08D006559019EB543C6
:1045D0008F00029EF659019F3E40354300958D00A5
:1045E0006559009E7540184E36783543002D01D030
:1045F000012500E00025144E35708E00009DA55168
:104600000DE00578FE26B54306787608F61A7600A2
:10461000FE273E40354305700125094E3570401C8C
:10462000551CEAB2094DED889542B5DC4A1CD1B261
:10463000049A9142AEDB06B0F0BD00007800002085
:10464000800000208100002082000020D002002095
:1046500010B50A48007800280ED00948807C03284D
:1046600007D172B6FEF792F8FCF7C0FF62B6FFF70B
:104670001AFE00200149087010BD0000BC00002097
:10468000FC02002010B507480078002808D0002060
:104690000449087072B6FEF7CBF862B6FFF7FCFD6E
:1046A00010BD0000BD00002010B51648807C032816
:1046B00027D11448407C002820D072B6FEF766F857
:1046C00011484078042108430F4948707D21C900F2
:1046D0000E480068FBF73FFE0A2148430446FCF7FA
:1046E00079FEFFF7F9FD0848407804218843064920
:1046F0004870FCF77BFF62B6FFF7D5FD0A20FEF796
:104700001DFA10BDFC020020008000207000002077
:104710000EB5FEF725FEFFF75DFAFEF75DFC3748A4
:1047200000688021084335490860FCF7C7FA34481F
:10473000FCF7C0F900F06AF8FFF7CEFDFCF7D8FBF4
:10474000FEF72EFFFEF73EFBFEF716FAFEF7C8FB5C
:10475000FCF76AFFFF20F530FEF7F0F9FDF740FAAD
:10476000FCF72EFF48E0FEF763FCFEF79DFEFEF728
:10477000E5FBFEF747FBFEF727FDFEF71DF9FFF708
:1047800081FFFFF765FF17E06A469279D107C90FED
:104790006A469088FFF709F800280AD000BFFFF7A3
:1047A00053FB0028FBD01748FFF7E2F9FFF77CFF27
:1047B00002E01448FFF7DCF901A91248FFF7CCF931
:1047C0000028E1D110E06A460221515E0020105E0F
:1047D000FFF74AF800BFFFF737FB0028FBD00A4875
:1047E000FFF7C6F9FFF760FF69460748FFF7B4F91E
:1047F0000028E8D1FCF724FBB5E700000058014091
:1048000000FCFF1F200200202001002010B588B00E
:104810001C2211496846FBF79DFC0F4810380FC851
:10482000FEF71EFFFEF7A8FA401C002803D0FEF793
:10483000A3FA002808D10948FCF706FDFCF7B8FBED
:104840000446FEF78FFA04E0FEF796FA0446FCF7FA
:10485000FBFC08B010BD00002C0000201405000077
:1048600070B501251C002D050C4310D4EC4206D474
:10487000AC420AD48B4200D070BD824270BDEB4284
:1048800017D4E94215D48B4270BD9B4270BDEC42F7
:1048900006D5AC42F9D5994200D070BD904270BDAA
:1048A0006D005C00EC4204D24C00EC4201D2994213
:1048B00070BD0FB4034C0CBC03BC30B4FBF776FEE8
:1048C00030BC70BD19001604F100F200F300F400D2
:1048D000F5000162F900FA00FFFFFFFF150000007C
:1048E00016000000170000000B0000000A00000086
:1048F0000E0000001300000014000000120110015F
:10490000000000402D3430002A140102000104038D
:1049100009041C0357006500730074006200650001
:1049200072007200790054006500630068000000A6
:104930000000000000000000000000000000000077
:104940000000000000000000000000000000000067
:104950000000000000000000000000000000000057
:104960000000000000000000000000000000000047
:10497000000000000000000016034D004F0055002D
:10498000530045005F00440045004D004F0000000B
:104990000000000000000000000000000000000017
:1049A0000000000000000000000000000000000007
:1049B00000000000000000000000000000000000F7
:1049C00000000000000000000000000000000000E7
:1049D00000000000000000000000000000000000D7
:1049E00015100008C112000849120008B10F000894
:1049F0002111000899440008F9430008D144000837
:104A00004000FF0100010000FFFF0000010001FF66
:104A100000000000910C0008990C0008A10C00088F
:104A20002D0C0008650C0008510B00080501090257
:104A3000A1010901A1000509190129051500250198
:104A40007501950581029503810105010930093140
:104A500016008026FF7F75109502810609381580A3
:104A6000257F750895018106050C0A38029501819C
:104A700006C0C005010906A1018501050719E02945
:104A8000E715002501750195088102950675081541
:104A90000026FF00050719002AFF008100C0050C51
:104AA0000901A101850319002A3C021500263C02D8
:104AB000950175108100C005010980A101850419C7
:104AC00081298315002501750195038102950581D2
:104AD00001C00691FF0932A101150026FF007508EB
:104AE000954009018102150026FF0009007508950F
:104AF0004009019102C009025B00030100A03209D4
:104B000004000001030102000921100100012247F5
:104B100000070581034000010904010001030101B0
:104B200000092110010001225F00070582034000F7
:104B30000109040200020301010009211001000122
:104B400022240007058303400001070503034000FA
:104B500001000000744B000800000020200100004C
:104B6000EC000008944C00082001002060070000C1
:104B70000801000800000000B80B000001620000FE
:104B80000000000000000000000000000000000025
:104B9000C848000801000600D448000813000000BF
:104BA00014000000D8480008DC4800080C00002071
:104BB0001000002018000020140000200000000059
:104BC0000000000000000000000000000000E00005
:104BD000E100E200E300E400E500E600E700000099
:104BE00000000000006A1800000000000000000043
:104BF00000000000000000000000000000000000B5
:104C000000000000000000000000000000000000A4
:104C10000000000000000000000000000000000094
:104C20000000000000000000000000000000000084
:104C3000000000000E4900081249000878490008E9
:104C40000001000000000000000200000000000061
:104C5000000000000000000000030000040000004D
:104C60000000000000000000000000000000000044
:104C70000000000000000000000000000000000034
:104C80000000000000000000000000000001000023
:044C90000000000020
:00000001FF
