:04000005080000C12E
:020000040800F2
:10000000400E0020050200080D0200080F02000843
:100010002D3491FF0EE532000500000000000000C5
:100020000000000000000000000000009311000824
:1000300000000000000000000B010008051200088D
:100040008905000881070008170200081702000848
:10005000170200081702000817020008170200081C
:10006000170200081702000817020008170200080C
:10007000170200082D120008650E0008170200087C
:10008000170200081702000817020008D51B000815
:100090001702000817020008591D0008170200087F
:1000A0001702000819060008000000000000000008
:1000B0000000000000000000000000000000000040
:1000C0000348854600F0ACF800480047113B0008A3
:1000D000400E0020084B19680868203080F309881A
:1000E000022080F31488BFF36F8F3FBCAE4608BC7C
:1000F00004BC62B618470000C8010020EFF310806E
:1001000072B6704780F310887047EFF309800E4B8A
:100110001A6820381060F0C044464D4656465F4687
:10012000F0C008B572B605F027F962B60CBC1168CC
:1001300008681030F0C8A046A946B246BB4680F316
:1001400009882038F0C81847C801002030B50B4690
:10015000014600202022012409E00D46D5409D42A1
:1001600005D31D469540491B254695404019154627
:10017000521E002DF1DC30BD70B50024254600284C
:1001800001DA01244042002901DA01254942FFF742
:10019000DDFFAC4200D04042002C00D0494270BD8F
:1001A00003460B439B0703D009E008C9121F08C090
:1001B000042AFAD203E00B780370401C491C521E3B
:1001C000F9D27047D2B201E00270401C491EFBD246
:1001D00070470022F6E710B513460A460446194652
:1001E000FFF7F0FF204610BD30B50446002003465F
:1001F00000E05B1C934203D2E05CCD5C401BF8D076
:1002000030BD00000448804704480047FEE7FEE791
:10021000FEE7FEE7FEE7FEE729120008C10000083E
:10022000064C0125064E05E0E36807CC2B430C3C49
:1002300098471034B442F7D3FFF746FF64630008D1
:10024000846300080EB5C217C10F5040CA0740189A
:100250000021054B0293019200910A460B4600F0E3
:1002600026F803B000BD00003304000010B50029DB
:1002700004DB0124E40740428C412146002B04DBCF
:100280001C460123DB075242A341994200D1904210
:1002900010BD000010B5002B08DA0024401C61419D
:1002A00092185B411A4301D14008400010BDF0B5DF
:1002B0001FB482B005460C0003D0084601F0AEFD25
:1002C00002E001F0ABFD20300246009021462846B6
:1002D00000F03FF8049B059A04460F46184311436B
:1002E000084314D0184610431BD0009840210A1A26
:1002F0001846059900F03DF805460E46009A059906
:10030000049800F026F8084305D0012004E02046B8
:10031000394607B0F0BD0020C11705430E432C43FA
:10032000374300990E986305401A7905E40A0022C4
:100330000C43FD0A0A3002D500200146E9E7010519
:10034000101969410C9C0D9D00196941FFF7A2FF2E
:10035000DFE710B5202A04DB0146203A9140002057
:1003600010BD914020239C1A0346E340194390405E
:1003700010BD10B5202A04DB0846203AD0400021E9
:1003800010BD0B46D340D0402024A21A9140084310
:10039000194610BD70B58C180578401C6B075B0FB3
:1003A00001D10378401C2A1106D10278401C03E0D9
:1003B00006780E70401C491C5B1EF9D12B0705D432
:1003C0000023521E0DD40B70491CFAE70378401C21
:1003D000CB1A921C03E01D780D70491C5B1C521E49
:1003E000F9D5A142D8D3002070BD00000026324DBF
:1003F00086B0F643012302AA3146002005F07CFBBB
:1004000001280AD10298C00707D02C4F002203A967
:10041000386805F0E9F8012802D004F0EBFAE9E7C2
:100420006946C87B4006400E4870087C8870887B0F
:10043000C407E40F0C70888902F03AFE6946888090
:10044000019A009903F0B3FE002804D0019A0099A4
:10045000104601F0F5FD002CD8D0194CA07C0328E3
:10046000D4D13146286805F037F9A07C03281BD188
:10047000607C002818D072B601F08AFE114C6078BA
:1004800004210843607010487D21C9000068FFF70F
:100490005DFE0A21484300F099FE6078FB21084088
:1004A000607000F0F1FE62B600231A461946286813
:1004B00005F017F8AAE70000700100206C01002089
:1004C000CC050020008000206402002010B5024905
:1004D00002F008F910BD00003D05000810B5024902
:1004E00002F08AF810BD0000ED04000870B5044663
:1004F0001D46104601F05BFD41004018611B081AC3
:10050000C0B2214604F0EBFA70BD000010B50249FC
:1005100002F0A6F810BD00001D05000870B50446E5
:100520001D461046049E01F042FD6119891B081A00
:10053000C0B2214604F0D3FA70BD0000F8B5114EE8
:1005400007464D00B06D1446405DE42104F0C7FA43
:10055000001B1C300028B06D405D05DDE42104F077
:10056000BEFA001B1C3004E0E42104F0B8FA201AA3
:100570001C38C000381A00D50020C0B2394604F03B
:10058000AEFAF8BD7004002010B50648416941611B
:100590000548006801F094FF0448006801F07EFF00
:1005A00010BD00000004014060010020A8010020EF
:1005B000F1B5174800240579164846788078C108B7
:1005C00014480C38008A80B204F086FAC0B204F0F5
:1005D0003BFB803840B201F0E5FC4006000E31469E
:1005E00004F07DFA0A4F0646203F0BE0F86D0099B3
:1005F000005D4978084203D03146204603F04AF8AE
:10060000641CE4B2AC42F1D3284602F0C9FEF8BD46
:10061000900400206001002070B5204900208A6805
:100620001F4C53070246002B02DA0423CB606260A2
:100630008B689B0702D50223CB6062608B68DB0767
:1006400026D00125CD6063685B1C6360154B1B6B76
:100650005B1C1DD16368032B1AD362600968890390
:100660008A0D11494B68114EB34212D10B884E8846
:10067000F643B6B2B34201D10888101AFFF7E2FD83
:100680004900490800220A4BFFF7F0FD00D225601F
:1006900070BD0848C0688005800DEEE7006C004022
:1006A0008C020020C0FAFF1F00F7FF1F69E5B5A309
:1006B0000000244000F8FF1F10B5024902F012F8B4
:1006C00010BD0000C90600080B46014610B50448DD
:1006D0005B00806DC05C801AC0B204F000FA10BDEF
:1006E0007004002010B5024901F0BAFF10BD0000EF
:1006F000F506000810B501465A009A1802985208EB
:100700001018C0B204F0EBF910BD000010B502499A
:1007100001F0E8FF10BD00001D0700080B46014670
:1007200010B50548846D5800401C205C801AC0B28A
:1007300004F0D5F910BD00007004002010B5024986
:1007400002F0A2F810BD00004D07000870B50C467D
:100750000A498D6D59004B1CEB5C695C203B70397C
:10076000534361435918CA17520E511849040A0ECF
:100770000146104604F0B3F970BD0000700400207B
:1007800010B504484169890703D50221416102F08F
:1007900011FC10BD00040140014948617047000090
:1007A0000004014001494861704700000004014015
:1007B00010B5837918490268002B26D00B68934343
:1007C0000B604A6803689A434A60027952181368BA
:1007D0000468234313608A6803689A438A60CA687E
:1007E00003689A43CA604279102A05D051180A68F2
:1007F000006802430A6010BD8A6803681A438A6071
:10080000CA6800680243CA6010BD007940180168D8
:100810009143016010BD000000040140002101600F
:1008200001710C22427181717047000070B5EFF3C5
:10083000108272B6002317490C68E5061024002DBB
:1008400003DA0D680123A5430D604D690626354383
:100850004D6102258D60C860886804263043886039
:100860004869C007FCD188688008800088604869B2
:1008700028434861002B02D0086820430860002A02
:1008800000D162B64869400701D5012070BD002043
:1008900070BD00000020024010B504461F20C006B5
:1008A00001212018C90388421BD200F0A5F80E4987
:1008B000486906221043486102208860CC608A683B
:1008C00004231A438A604A69D207FCD18A689208D5
:1008D00092008A604A6902434A6100F007F80120E9
:1008E00010BD002010BD00000020024002488168B9
:1008F000082211438160704700200240F0B5EFF3F9
:10090000108372B60024184A1568EE061025002ED2
:1009100003DA16680124AE431660566906273E4383
:10092000566101269660D0601161906804210843E9
:1009300090605069C007FCD190688008800090608A
:100940005069022108435061002C02D010682843EE
:100950001060002B00D162B65069400701D501201C
:10096000F0BD0020F0BD00000020024038B5830734
:100970009B0F1F25C21AED0601244019E503A8426A
:1009800008D2106800906846C1541046009900F0E3
:1009900003F80446204638BD70B504461F200D46B6
:1009A0000126C0062018F10388421BD200F024F86B
:1009B0000D4A506906210843506101209060D460BF
:1009C000156190680421084390605069C007FCD10C
:1009D000906880088000906050690221084350614F
:1009E000FFF784FF304670BD00200240007870475A
:1009F0000088704700687047034802494160034916
:100A0000416070472301674500200240AB89EFCD6C
:100A1000F0B500231D469C461C460126A6400E420A
:100A200011D067000326BE403343082C04D2A70030
:100A30000F26BE40354306E0A7000F26203FBE40EC
:100A400067463E43B446641C102CE6D38468D60245
:100A5000F6178C430E40344384604468D601F61781
:100A60008C430E4034434460016894000F4EA40F41
:100A7000744399431C4021430160C1689403A40F4F
:100A8000744399431C402143C1601107084A090F70
:100A90005143026A0B46AA432B401A430262426A40
:100AA00063469A4319400A434262F0BD5555555575
:100AB0001111111170B5064615460C46000701D5F7
:100AC00001F048F8B00701D500F0DEFB700704D54F
:100AD00016490020087000F0C5FBE00701D000F0C7
:100AE000F1FBA00701D500F0DDFE600701D500F0A5
:100AF000E1FE200701D500F0E5FEE00601D500F09B
:100B0000F5FEA80701D500F0D3FE680701D500F077
:100B1000D7FE280701D500F0DBFEE80601D500F07E
:100B2000E6FEF00701D000F0BBFB70BD980200208C
:100B30000249014808607047CCCC000000300040FA
:100B4000034A0146D26800200A4200D001207047C3
:100B5000003000400348C168890701D402490160A0
:100B60007047000000300040AAAA00000149486018
:100B70007047000000300040014988607047000065
:100B8000003000400149086070470000003000401C
:100B9000F8B51448144E05790027B078102103F0F9
:100BA000EBFD3446C1B20C3C208A80B203F094FFC6
:100BB0005021FFF7CBFA00290FD12946384603F020
:100BC00012FE217900224B1C2371022902D100213F
:100BD00021717278114602F05DFD284602F0E0FBBB
:100BE000F8BD0000900400206001002000B5A83886
:100BF000030001F02AF91C0F111315171D21231FE3
:100C000026292C2F3134373A3D44191B40424F4F8F
:100C1000474A4D4FE22000BDE92000BDEA2000BD5B
:100C2000B52000BDB62000BDB32000BDB42000BD7E
:100C3000B72000BDCC2000BDCD2000BDFF208430FA
:100C400000BDFF208B3000BDFF20933000BDFF2092
:100C5000953000BD104800BD0F48801C00BD8920A4
:100C6000800000BD0C48001D00BD0B48401D00BDAC
:100C70000948801D00BD6F2000BD702000BD0648E2
:100C8000093000BD04487E3000BD1520400100BD84
:100C9000CF2000BD002000BD21020000F8B54E4865
:100CA00081684E4A1143816003F0EEFF0027012660
:100CB0004B4C6CE0206BBD004059411C66D003F0EA
:100CC000D7F803F0C9F8A16F00284851206B4059AC
:100CD0000BD00107090F32468A4091B20009820207
:100CE0000920C00610183F4A0BE00207120F3146D8
:100CF0009140000982020920C0061018012289B221
:100D00005204FFF785FE206B405901098A02092130
:100D1000C90651180A6B03071B0F304698408243DF
:100D20000A63A16F26204959090A09024860A16F88
:100D300002204959090A09020861A16FFF20495997
:100D400081434861A16F00204959090A090288615D
:100D5000A16F4959090A09020866A16F4959090A90
:100D600009024866A16F4959090A09028866A16FFC
:100D70004959090A0902C866A16F4959090A0902B5
:100D80000867A16F4959090A090248677F1CE08872
:100D9000B8428FDC262001218907486002200861C3
:100DA000FF204861002088610F4A10625062906203
:100DB000D062106350634868304348600B4908684C
:100DC000FF22120490430122D20510430860084814
:100DD00051120160F8BD00004010024000E2030023
:100DE0007004002001000220400000400CE400E0FC
:100DF00000E100E00120800701684022114301600A
:100E00007047000010B5054900200C79214602F01A
:100E100013FE204602F0C4FA10BD0000900400202A
:100E200001F048FF01F0EAFA04F06AF902F0BEFBB3
:100E300002F0F6FEFFF7DEFF01F08AFE01F07EFD14
:100E4000FFF788FE01F040FE02F072FF02F0C4FCE2
:100E500001F06CFE04F046F904F02AF901F0A2FD5D
:100E6000EEE70000F8B50126B607306800064ED55B
:100E700030688021884330605D4CA0685D4F5E4DD6
:100E8000002845D00020A060686B21688900415887
:100E9000491C04D021688900405802F0C3FF56481D
:100EA00081882068401CFFF751F9216053480025D4
:100EB000056245628562C562056345635048056207
:100EC00045628562C562056345633D627D62BD62C0
:100ED000FD623D637D634B48056245628562C56284
:100EE000494805624562856243486168C06A890075
:100EF0004158491C04D061688900405802F092FFB3
:100F000009207061B5613068402108433060F8BD48
:100F10006068C1B2286E02F0B1FEE86A61688900BB
:100F20004158491C04D061688900405802F062FFB2
:100F3000A9886068401CFFF709F96160FF207061B3
:100F40000020B06110E02B6B82009B5894465B1C24
:100F500008D06B6F226851435918AA6F6346D25864
:100F6000415C1160401CC0B2E9888142EBD8234942
:100F7000C220086248628862C862086348633862B7
:100F80007862B862F862386378631D490862486223
:100F90008862C862086348631A49086248628862C6
:100FA000C8621949086248628862686B21688900D2
:100FB0004158491C04D021688900405802F01AFFAA
:100FC0000C4940390A68402002430A600C49403904
:100FD0000A6802430A600B4940390A6802430A6002
:100FE000094940390A6802430A600120A0608AE783
:100FF000B801002040040040700400204000004080
:101000004014004040200040402C004070B509488A
:10101000002405790848467805E03146204602F06C
:1010200039FB641CE4B2AC42F7D3284602F0B8F9AD
:1010300070BD0000900400206001002010B5014642
:10104000024A002001F0C2FB10BD00007711000829
:1010500010B5024901F074FB10BD00005D110008DD
:1010600010B5044604480121007803F08BFB034AC5
:10107000214601F0ABFB10BD4604002081100008A2
:1010800010B5029CE3189BB2002900DA494209B26C
:10109000002A00DA5242090114B2FF2900DDFF21C3
:1010A0000AB22101FF2900DDFF2109B28A4200DCDA
:1010B0001146C91889B2FF2900D9FF21FF22511A10
:1010C000C9B203F059FBC0B210BD000010B5044610
:1010D00004480121007803F055FB034A214601F042
:1010E00075FB10BD46040020ED10000810B5029CF1
:1010F000E41AA4B2FF2C00D9FF24482B00D9FF2406
:101100000831112903D30832112A00D3FF24FF210B
:10111000091BC9B203F030FBC0B210BD10B50446C4
:1011200004480121007803F02DFB034A214601F019
:101130004DFB10BD460400203D11000810B59A007B
:1011400002999A18511889B2FF2900D9FF21FF226C
:10115000511AC9B203F010FBC0B210BD10B504465D
:10116000FF20401AC2B2C8B2114603F0B8FC2146B3
:1011700003F0B5FC10BD10B50299C91A89B2FF2958
:1011800000D9FF21FF22511AC9B203F0F5FAC0B20B
:1011900010BD70470A4910B5401E884201D9012090
:1011A00010BD0849486108480722C3691B021B0A91
:1011B0004C042343C361002088610A6110BD000014
:1011C000FFFFFF0000E000E004ED00E0F8B50C4C8C
:1011D000A7696669216960618DB20020A061052060
:1011E0002061FFF7B7FC2069C10701D0C003F8D523
:1011F00020694008400020616661A7612561F8BD53
:1012000000E000E010B5FEF779FF044604F016FC9C
:10121000002803D001200349000748602046FEF75C
:1012200071FF10BD00ED00E0704700000848016943
:10123000C9070BD00121C943016106494878421C06
:101240004A70B72802D9044901208860704700001D
:101250000010004070020020AC0C002010B500F01F
:10126000EFFA10BD10B506480121C171002141728D
:1012700014210448FEF7ADFF00F048FC10BD00004B
:1012800000800020CC05002010B5044CA07C032871
:1012900003D100F059FCE07CA07410BDCC05002007
:1012A00010B50548817C032905D0817CC1740321D8
:1012B000817400F089FC10BDCC05002010B500F051
:1012C000E5FA10BDF8B5584E0025B573777C574C3C
:1012D000780701D575742570F80602D580207074E2
:1012E0002570207800282BD1F80729D008225049F2
:1012F000002000F08FF94E488560C1888181C5814A
:1013000000784006800F03D100F0F6F8002801D1E4
:1013100000F004FBB5734021012807D0022808D053
:1013200003280AD060207074032004E07174012047
:1013300001E071740220207002E048207074257072
:101340003A480078012835D1B80733D4707CC107FA
:10135000C90F49420140C8062CD4354C0227A18947
:101360003448027891420DD2A289A168802000F011
:101370008FF9E089A1894018E081A5812B480A27CF
:1013800005700EE0A168802000F082F9A16829486C
:1013900000780918A160A189091AA181E1890818BA
:1013A000E081E089E188884203D1082007431F4893
:1013B000057077741D480078022834D1707CC0070E
:1013C00031D01B4C4027A1891A48027891420AD299
:1013D000A289A168002000F01DF9E089A1894018C8
:1013E000E081A5810EE0A168002000F013F9A1685A
:1013F000104800780918A160A189091AA181E18922
:101400000818E081A08900280CD1482700F070FA64
:10141000032804D0682705490320087001E0034829
:101420000570B5737774F8BD008000209802002025
:10143000CC050020DB61000810B50648407809287B
:1014400006D1012000F01CFB002801D0032010BDB4
:10145000002010BDCC05002038B5264C2078400671
:10146000800F012804D020784006800F2CD03FE068
:101470006078030000F0E9FC0C3C070A123C3C3C9D
:101480003C3C181F223C00F0C5FA04E0E08801282B
:101490002ED100F0ABFA002828D129E0E0880128FD
:1014A00026D100F0ADFAF6E7002000F0E9FA0028B6
:1014B0001ED0022038BD00F0CFFA01E000F0D6FACD
:1014C000002815D0032038BD6078062810D1E178B7
:1014D00020796A4600F048FAA060A068002807D08A
:1014E000A18968460088814200D9A081012038BDC9
:1014F000002038BDCC05002010B5294841780022D5
:101500000B0000F0A2FC0A060C480E4814274830D5
:101510004548C08802283ED100F0FCF81FE00020BA
:1015200000E0012000F020F9002811D133E001781B
:10153000002930D18178837C4906490E022B2AD0BC
:10154000184B19700123002901D0837400E08274C4
:10155000032010BD007880281DD100F0B5F80028C8
:1015600019D0012010BD0178802914D1C18801292A
:1015700011D1817C002904D0012902D002290AD18D
:1015800002E009490A8001E0054910318160E8E77D
:101590000078002801D0002010BD00F00DF9C3E74D
:1015A000CC050020008000202C0200200207120F32
:1015B00005D005498A73000602D54020487470475B
:1015C0008020087570470000008000200207120F7D
:1015D00008D0000606D404498A73C87D897D0002BC
:1015E0000843704700207047008000200207120F58
:1015F0000CD007498A73000602D5487CC00601E07A
:10160000087D8006002801DA01207047002070471D
:10161000008000200007064B800EC01804E003780D
:10162000521E0B7092B2491C002AF8D1704700007C
:10163000208000200107090F07D0000605D40348C9
:101640008173017D490849000175704700800020C1
:101650000207120F05D005498A73000602D5102033
:1016600048747047202008757047000000800020F3
:1016700010B5044600F00CF82007000F05D0210635
:1016800003D5024988730120487410BD00800020F2
:101690000007064B800EC01804E00B780370521E42
:1016A00092B2491C002AF8D1704700002080002027
:1016B00010B514210248FEF78CFD00F0FDF910BDB5
:1016C000CC0500207047000038B5114CE0780128A7
:1016D00005D0022807D003280AD0002038BD68466C
:1016E00000F03CF908E0A078694600F02DF903E02D
:1016F000A078694600F06CF9A060A0680028EDD0E1
:10170000A18968460088814200D9A081012038BDA6
:10171000CC05002038B5124C00202080114D2878CF
:10172000C006C00E05D0012817D0022811D0002015
:1017300038BD287C694600F007F9C079400601D51C
:1017400001202080687C002807D0208802210843DF
:1017500002E02879FFF74AFF2080AC60012038BD05
:101760002C020020CC05002010B512490A78D206C0
:10177000D20E02D0022A1BD107E04A88012A17D1D3
:10178000002800D00120487410E04A88002A0FD1B8
:101790000C7921070CD00028204602D0FFF758FF13
:1017A00004E0FFF703FF2046FFF78CFF012010BD88
:1017B000002010BDCC05002070B5164CA578A07C8B
:1017C000012802D0022823D10AE0002D16D0284695
:1017D00000F0C2F900281BD025740220A0740DE08F
:1017E000002D0DD0207CA84208D0207C00F014F8F9
:1017F000284600F0B1F900280AD02574012070BDF8
:10180000002020740120A074002000F005F8F5E706
:10181000002070BDCC0500200848C179FD22114090
:10182000C171C179FB221140C171C279F7210A400F
:10183000C271427A0A404272704700000080002064
:1018400010B50D4881684215114381600C4C0B4A5C
:1018500006212046FFF7DCF8206B06218843206331
:101860000848C169084A1143C16101214010417013
:101870000721C17210BD000040100240010000208D
:10188000000C0048000001400000A4890349C86919
:101890008A009043024A1043C8617047000001402B
:1018A0000000A08901490020086070470402002060
:1018B00070470000014900200860704708020020BE
:1018C0007047000001490020086070470C020020AA
:1018D000044803218173007DC00702D00249012022
:1018E0000860704700800020100200207047704799
:1018F00010B5094900200A785206520E212A0AD151
:101900000A79002A05D00A79012A02D00979022928
:1019100001D1FFF791FD10BDCC05002010B509499C
:1019200000200A78D206D20E012A0AD10A79002AAA
:1019300005D00A79012A02D00979022901D1FFF7DD
:101940008BFD10BDCC050020002801D00020704781
:101950005B20088000487047B262000812210180B5
:1019600000487047586000080923002804D0012867
:101970000FD002281BD01EE0212902D022291AD123
:1019800002E0138011487047412010800F48E8386A
:101990007047212902D022290DD103E00B48138082
:1019A00019307047732010800848A73870472129E4
:1019B00003D0222905D0002070470448138032301C
:1019C000704722201080014834387047C4620008F4
:1019D000032806D28200044883581B780B80805865
:1019E0007047002070470000500200200349024861
:1019F000886001207047000015020020CC050020FF
:101A00000349024888600120704700001602002048
:101A1000CC0500200E480179012905D1C1780129A2
:101A200002D1C188082903D00179002902D007E03A
:101A3000084909E0C178012902D1C188082901D0EB
:101A40000020704703490831816001207047000081
:101A5000CC050020170200200248C07802494870D7
:101A600001207047CC050020140200200248807835
:101A70000249887001207047CC0500201402002024
:101A800010B50B490A79002A05D1CA78022A02D179
:101A9000CA88012A01D0002010BD064A002804D0BF
:101AA000107801F0E1FE012010BD8A60FBE7000024
:101AB000CC0500201402002010488268012109058D
:101AC0000A43826002690A43026102698A43026131
:101AD0000A49012040390863C86209490020C872D8
:101AE000C871487207490868FF22120490430860D1
:101AF0000120054980050860704700004010024041
:101B00000080002014E400E000E100E010B5094985
:101B100001204870C87100204872074908600749D1
:101B20000860074908600749086002F0C9F802F038
:101B3000EBF910BD00800020040200200802002004
:101B40000C0200201002002001490120087070479B
:101B50004C0200207047000030B5012801D0002061
:101B600030BD18480121817300228274082101745C
:101B70004023437441744174C57902242543C571DF
:101B8000847382740174437441744174C47904256C
:101B90002C43C471032484738274017443744174AC
:101BA0004174C3790B43C37184734275C17480223D
:101BB0000275102202750275427A0A4342720120B0
:101BC00030BD0000008000200149012048707047AE
:101BD0004C020020F8B501200005FEF7E3FD114C92
:101BE000114D20780126114F002802D0012804D081
:101BF0000CE0686900070CD52670686940070FD5AE
:101C000002202070132000F02DF93E70207800286B
:101C100006D16869C00703D0132000F023F93E7095
:101C2000F8BD000097020020800002404C02002016
:101C300008B5FFF743FBFF20F53003F0FFFAFFF78D
:101C400037FDFFF70BFB394C394D01270026F643D2
:101C5000314633466A46002003F04EFF0098C00725
:101C6000F4D03146334E306803F036FD6068000230
:101C7000020E60680004010E6068C0B2FEF71AFF31
:101C800001202D49800508602C48016800291CD0DE
:101C900072B62A480068002816D00320FFF796FC89
:101CA00002460020208021490320FFF7B3FC62B6E2
:101CB0001E4900204880891C881E03F0E7F972B68F
:101CC0002868002805D00BE062B6286800280ED0EE
:101CD00024E016490222891C8320FFF7C9FC2F60EB
:101CE0001649002008600320FFF7A4FCECE7144825
:101CF00000681449884211D1642000F063FB134945
:101D0000114848620E4900200860BFF34F8F114907
:101D10000F48C860BFF34F8F00BFFDE700231A468E
:101D20001946306803F0DDFB90E7000068020020F0
:101D30000C0200207001002000E100E010020020F1
:101D400028020020A5A5A55AEB9C374A4010024066
:101D50000400FA0500ED00E01CB512480179827814
:101D6000090412028079114301430F4841600120A8
:101D70000E4980050860BFF34F8FBFF36F8F0020BF
:101D8000019001A800900A48012200231146006832
:101D900003F0E8FD0198002803D001200549000761
:101DA00048601CBD008000206802002080E100E047
:101DB0007C01002000ED00E010B5024900F092FC2B
:101DC00010BD0000C91D000810B5044605484900B3
:101DD000806D405C801AC0B202F036FF214602F0EE
:101DE0007EFE10BD7004002010B5024900F07AFCA0
:101DF00010BD0000F91D000810B504460648836DAB
:101E00004800401C185C801AC0B202F01DFF214639
:101E100002F065FE10BD0000700400202021020CBD
:101E200001D010211046020A01D0104608390209DB
:101E300001D01046091F820801D01046891E4208B1
:101E400001D0881E7047081A704730B47446641E6B
:101E50002578641CAB4200D21D46635D5B00E3182D
:101E600030BC1847002809DBC106C90E0120884094
:101E700003490860BFF34F8FBFF36F8F70470000B7
:101E800080E100E0002805DBC106C90E0120884082
:101E9000014908607047000000E100E08307FF226D
:101EA000DB0E9A408907090E9940002808DB830859
:101EB00009489B001B181868904308431860704736
:101EC0000007000F0838830804489B001B18D869D6
:101ED00090430843D861704700E400E000ED00E063
:101EE00002E008C8121F08C1002AFAD170477047E3
:101EF000002001E001C1121F002AFBD17047000041
:101F0000F0B500231D469C461C460126A6400E4205
:101F100011D067000326BE403343082C04D2A7002B
:101F20000F26BE40354306E0A7000F26203FBE40E7
:101F300067463E43B446641C102CE6D38468D60240
:101F4000F6178C430E40344384604468D601F6177C
:101F50008C430E4034434460016894000F4EA40F3C
:101F6000744399431C4021430160C1689403A40F4A
:101F7000744399431C402143C1601107084A090F6B
:101F80005143026A0B46AA432B401A430262426A3B
:101F900063469A4319400A434262F0BD5555555570
:101FA00011111111002801DA404240B2704710B5FA
:101FB00004000DD0002C00DC604200B200290DDBD3
:101FC0000A18081A40011146FEF7D6F820210CE045
:101FD000002901DB002010BD802010BD421A081826
:101FE00040011146FEF7C8F86021081A40B2002CE3
:101FF00000DA4042C0B210BD704701207047704700
:10200000003035000000000000000000000000006B
:102010002D340EE5555342206B6579626F61726411
:10202000000000000000000000004E554F424944EF
:10203000410000000000000000000000000000005F
:1020400037B569460C880D79201FA02808D8294685
:10205000009801F0CBFF2A4621461CA0FFF7CFFFD6
:102060002046E038072808D82946009802F052F8A0
:102070002A46214621A0FFF7C2FF2046A5380228A4
:1020800008D82946009802F0F3F82A46214627A0EE
:10209000FFF7B5FF2046A8381B2808D82946009826
:1020A00001F086FF2A4621462CA0FFF7A8FF204614
:1020B000ED38122808D82946009802F047F82A4639
:1020C000214626A0FFF79BFF3EBD00005B70726FAC
:1020D000636573735F6B65795D206B6579636F64AE
:1020E00065203D20307825583A20707265737365FD
:1020F00064203D2025640D0A000000005B70726FB3
:10210000636573735F6D6F645D206B6579636F6486
:1021100065203D20307825583A20707265737365CC
:1021200064203D2025640D0A000000005B70726F82
:10213000636573735F73797374656D5D206B657927
:10214000636F6465203D20307825583A20707265B1
:1021500073736564203D2025640D0A005B70726F07
:10216000636573735F637573746F6D65725D206B08
:102170006579636F6465203D20307825583A20707A
:10218000726573736564203D2025640D0A000000AC
:1021900070B51320FFF766FE1B4A032010620C2067
:1021A00050621A4900238B610C68012004430C60C3
:1021B000164C403CE0630C69A407A40F012CFAD133
:1021C00013498C6801252D052C438C60104940393A
:1021D0000863136253620F4A1060CB6002224A61A7
:1021E00088618A69002AFCD14B6208620922CA61AF
:1021F00048620A49084808600948FEF7CBFF02F028
:1022000040FE01F081FE70BD007000408000024081
:102210004010024000200240006CDC0264020020FA
:1022200080BB0000FEB502F025FE224C0320206298
:102230000C2060622048816A0127394381620020B6
:10224000FF21F531401C8842FCD3002525626562E0
:102250001A4EF5607561B7611A49194808607D200A
:102260000001FEF797FF032020620C2060623563B7
:1022700012484030816801263605B14381600E4A1C
:102280000D2180329161256265628168741021435D
:102290008160684600960571082141718771FEF7DB
:1022A00087FA094805703046FEF77CFA0748046053
:1022B000FEBD00000070004000000240001002401F
:1022C00080841E00640200209702002000E100E0EC
:1022D00000B54030C0B202F0B7FC00BD70B5064694
:1022E0000D480D464468002C15D00C48017E407EF8
:1022F000FDF72CFF08494978484308492039C98827
:1023000071434919CA0812194C07835C640F0121F3
:10231000A1404B40835470BDB001002090040020C8
:10232000FFB5164C81B00025A57020781E461746D3
:10233000002812D002F0B2FD21890125411A89B28C
:10234000A060FF2901D9FF2101E0002905D0CBB20F
:102350003A460299019802F00DFE6078064309D0D2
:10236000002D02D102F09AFDA0603A460299019830
:1023700002F09EFDA07805B0F0BD000080010020B5
:10238000F8B50E4C0546E088684301F013FC0C4993
:102390000023486019460EE0002207E0C61837788F
:1023A000521CFF07FF0F3770D2B25B1CE6889642C3
:1023B000F4D8491CC9B2A942EED3F8BD700400207C
:1023C0008001002070B5054603F032FB044601E0B1
:1023D000FEF7C0FB204602F05BFDA842F8D370BDBB
:1023E0000149002008707047C00000200148416981
:1023F000014808473C610008007C000810B51948F6
:10240000032101620C224262174882680123DB0427
:102410001A438260154842690E239A434261416122
:10242000134801684022090A090211430160114959
:1024300001200860104900048860C860086000F04E
:1024400091F80E48006800F03BF80D48006800F075
:1024500025F800F03FF80446FFF7C8FF204600F0DB
:102460006DF810BD007000404010024000000240B6
:1024700000E400E000E100E0000401406001002011
:10248000A801002010B50348816803488847C0436D
:1024900010BD00003C610008087C000802490A6980
:1024A000C1430248104700003C610008087C000856
:1024B00001488168014808473C610008047C000825
:1024C00002490A6901460248104700003C610008C1
:1024D000047C000810B50348816803488847C0435E
:1024E00010BD00003C6100080C7C000870B5064679
:1024F000FFF7C8FF0446FFF7EDFF0546FFF776FF3D
:102500003046FFF7DDFF2046FFF7C8FF284600F002
:1025100069F870BD01210A4607490648CB799B003E
:102520001A4302700A7A4270497A8170FF21C170A1
:1025300070470000600100209004002070B506463E
:10254000FFF7B6FF0446FFF79DFF0546FFF74EFF76
:102550002046FFF7B5FF2846FFF7A0FF304600F002
:1025600041F870BD10B50AA0FFF749FDFFF7A0FFC5
:102570000D49086001460DA0FFF741FDFFF782FFFE
:1025800011490860014611A0FFF739FD10BD000098
:102590005B6565636F6E6669675F757365725F67BC
:1025A00065745D200D0A0000600100206C65645FA9
:1025B0006D61747269785F6565636F6E66696720C7
:1025C0003D2025640D0A0000A80100206B65796D8F
:1025D00061705F636F6E666967203D2025640D0A38
:1025E0000000000002490A69C14302481047000088
:1025F0003C6100080C7C0008F3B51748174E0579BC
:10260000B0780F46410830460C38008A81B000246B
:1026100080B202F061FAC0B2009017E00E48019A51
:102620002038C16D5278095D11420DD0826D600075
:10263000115C401C125C70397078203A009BB847DE
:102640000146204601F026F8641CE4B2AC42E5D312
:10265000284600F0A5FEFEBD900400206001002089
:10266000F3B51E481E4F0679B87883B04108384646
:102670000C38008A002480B202F02EFAC0B2029018
:1026800024E01648039A2038C16D5278095D114242
:102690001AD0826D6100505C491C70380190555C05
:1026A0004043203D29466943401880B202F00EFBAA
:1026B000034602982A460090049D78780199A8471D
:1026C0000146204600F0E6FF641CE4B2B442D8D3D1
:1026D000304600F065FE05B0F0BD0000900400201B
:1026E00060010020F3B51448144E0579B07881B02C
:1026F000810830460C38008A002480B202F0ECF9E0
:102700000D4FC0B2203F009010E0F86D0199005DC0
:102710004978084208D0029B70782146009A984771
:102720000146204600F0B6FF641CE4B2AC42ECD394
:10273000284600F035FEFEBD900400206001002018
:10274000F3B51E481E4E077981B00024B1781D48AC
:10275000FDF7FCFC05462AE0184801992038C06DB9
:102760004978005D084220D017492A4608780CE0D5
:102770000B185B7CA34208D143005B185B8B934230
:1027800003D240004018428B03E0401E40B20028B4
:10279000EEDAB178104602F09FF90146029A70789D
:1027A00090470146204600F075FF641CE4B2BC422D
:1027B000D2D3384600F0F4FDFEBD000090040020A6
:1027C00060010020FFFF000046040020F7B52B4801
:1027D0008AB0007905902A4800240078039045E0EB
:1027E00026480B992038C06D4978005D08423BD0DF
:1027F000002002900A9D2BE0204821492038826D5C
:102800006000135C49194E78401C105C497A9F1B8C
:10281000461A3846314678437143401880B202F078
:1028200055FA089017480121807801F0A5FFC1B240
:1028300013486A001018408B02F04EF9324600909F
:102840000C9E3946089B0298B0476D1CEDB2029071
:1028500003988542D0D30B484178029802F03FF9A3
:102860000146204600F016FF641CE4B2059884423D
:10287000B6D300F095FD0DB0F0BD0000900400202F
:102880004604002060010020F3B51C481C4F067967
:10289000B87883B0810838460C38008A002480B2AA
:1028A00002F01AF90546C0B2FFF712FD803840B2B7
:1028B0000290E8B202F0C8F9803840B2EDB201905F
:1028C00015E00E4803992038C06D4978005D084234
:1028D0000BD00B480095049F40782346019A02993B
:1028E000B8470146204600F0D5FE641CE4B2B4426D
:1028F000E7D3304600F054FD05B0F0BD9004002051
:102900006001002010B504460029024609D0FD21CF
:10291000012002F057FA012002F090FC2246FD212E
:1029200008E0FC21012002F04DFA012002F086FCB3
:102930002246FC21002002F045FA10BDF8B5174CE4
:10294000207C002828D0002501273F040CE0E06906
:10295000AE008059394601F070FA206A3946805934
:1029600001F06BFA6D1CEDB2207CA842EFD8002577
:102970000FE0E069AF00C05901F048FA0646206A4E
:10298000C05901F043FA40000643054846556D1C06
:10299000EDB2207CA842ECD8F8BD00007004002005
:1029A00095020020F8B516480025017C002924D0A6
:1029B00000241EE01248A600C069805901F026FAE2
:1029C00007460F48006A805901F020FA400007438B
:1029D0000C48FAB2015D8B079B0F934207D0890622
:1029E000090E11430155204600F00EF80543641C02
:1029F000E4B20348017CA142DCD82846F8BD0000BF
:102A0000700400209502002070B5144C0A07144B86
:102A10000546120F605D9A5C0026801840B2605532
:102A2000042807DA021D05DD0E4A8907127E890F88
:102A3000914210D1012804DB012631462846FFF7D8
:102A400061FF6057002804DA012600212846FFF7BD
:102A500059FF00206055304670BD000096020020EE
:102A60000D6300087004002000A070476C696220AC
:102A700076657273696F6E3A2076302E302E313360
:102A8000000000000B490020086048600A48006B05
:102A9000401C0ED109480168072211430160084912
:102AA0000868FF2212029043086001200549400691
:102AB000086070478C020020C0FAFF1F006C0040C5
:102AC00018E400E000E100E010B51248006B401C83
:102AD0001FD11148016800291BD0EFF3108472B692
:102AE00000210160FDF788FF0C48FDF79FFE0C48B0
:102AF00000688003800DC143090401430948FDF7C4
:102B0000FDFE08480849001DFDF7F8FE002C00D125
:102B100062B610BDC0FAFF1F8C02002000F6FF1F36
:102B2000006C004000F7FF1F69E5B5A310B500F089
:102B300095F8FFF762FA01F0A9FF10BD00220349E2
:102B40003E288A7000D10A7070470000C000002043
:102B500010B500F005F8002800D0012010BD0000DD
:102B600010B5FFF7B7FC03490860401C00D10860AE
:102B7000002010BDC800002070B50C46054600F0CE
:102B800045F8002807D0002C04D00348C54201D1E5
:102B900000F08CF9012070BDFD83FFFFF7B5012126
:102BA00082B0194D002400914422535D296C26E027
:102BB00022460C26724308328A5A82421DD1684648
:102BC000007B002806D002F06EF90C22296C5443D9
:102BD000085116E00C20444326460A36885D00273B
:102BE000002807D0B01E085A0021FFF7C5FF00904B
:102BF000286C8755286C075103E0641CE4B2A3429B
:102C0000D6D8009805B0F0BD7004002070B501253D
:102C1000114C292818D035281CD100291AD021465A
:102C2000002008310860FFF789FC25706570FF20DF
:102C300000F000FBBE2000F083FDBE2000F050FD40
:102C4000012000F0F1FC01E0002903D025700220F2
:102C500000F0F0FA012070BDC0000020F8B5144F5C
:102C600000253E4640361EE02C460C203A6C44437C
:102C70001059002815D021460A310091515C0029D5
:102C80000FD102F005F9396C221D8A58904208D301
:102C9000009A01208854386C0834005B0121FFF74A
:102CA0006BFF6D1CEDB23079A842DDD8F8BD000095
:102CB0007004002010B50120C046002800D001207B
:102CC00010BD000037B50446029A019900F01EF8C5
:102CD000002815D001A9204601F0AEFA00280FD037
:102CE0000848201805D07F21C900401A00D00120D3
:102CF0003EBD684601790448002900D001210170D9
:102D000000203EBDF587FFFF94020020F7B5634B1E
:102D10006946097901241A78E7287AD010DC1A2844
:102D200040D006DC042847D0072857D016286FD19A
:102D30004CE035281ED065286BD0E32868D168E0C8
:102D4000574D461BA84271D007DC564A801873D0F5
:102D5000012862D005285BD17FE0534835184F48E1
:102D6000FD2600783040002D40D0012D4CD0032DA1
:102D70004ED10EE0002906D1484808384178002994
:102D800002D00021417085E0352001F027FE35207A
:102D90000FE000297ED050084000D107C9178C43AE
:102DA000204333E0D00777D0002901D0522008E03B
:102DB000522002F0D3F86DE0D0076DD0002903D087
:102DC000502001F00BFE65E05020F2E7D00763D001
:102DD000002901D05120F4E75120EAE7D0075BD069
:102DE000002901D04F20ECE74F20E2E7002951D025
:102DF0009107C9174900891C8907890F0143197078
:102E00001868FFF79BFB45E0002943D01870F7E7EF
:102E100042E0510820468843FEBD00293AD000F028
:102E200047FB4130FF2803D9FF2011E022E003E0F7
:102E300000F03EFB41300AE000292BD000F038FBC7
:102E4000412801D2002003E000F032FB4138C0B23B
:102E500000F076FC00F02CFB1CE000291AD000F0FA
:102E600021FB4130FF2801D9FF200FE000F01AFBC1
:102E700041300AE000290DD000F014FB412801D8B0
:102E8000412003E000F00EFB4138C0B200F028FC06
:102E900000F008FB0020FEBD0120FEBDC8000020A0
:102EA00009780000FD87FFFF06FAFFFF10B5FFF766
:102EB000A5FAFFF757FB00F079FB0120C04610BDD3
:102EC00010B51348816840221143816011480168A0
:102ED0008022114301601048FDF754FE0320FDF7E6
:102EE00045FE0120FDF72CFE0028FAD13220FDF727
:102EF00043FE0220FDF724FE0028FAD10220FDF750
:102F00001FFE0028FAD1FDF725FEFDF711FE10BDCA
:102F100040100240005801405555000070B5842112
:102F20001D48FDF756F91C4E00200C3EB060306085
:102F30001A4840688005800D7060C046C046184938
:102F40000020401C8842FCD301F03EFE15488168F9
:102F5000021511438160154C1348E0620125A562FA
:102F60006561E81E2061E0682843E06000210D20D3
:102F7000FEF794FF0D20FEF785FF206828432060B0
:102F80000B48032101620C214162B0680028FCD08B
:102F900001F0D4FD70BD0000B80C0020800002409C
:102FA0001027000040100240FFFF0000001000400A
:102FB0000070004070B52B48416A2B484268002AD7
:102FC00023D0816081684268294B891A8AB22749D7
:102FD000511899421AD881684160264C6168491C91
:102FE00061600378014600260C31002B19D003786C
:102FF0009B005B18803BDB6F9342037807D89B00F4
:103000005B18803BDB6FD31A06E0416070BD9B000C
:103010005B18803BDB6F9B1A0A256B43934200D9F8
:10302000067003789D006D185B1C03702A6002789F
:10303000104D0C3D022A0FD30670A868002200280C
:103040000AD18300CB58401C9A18C0B20228F8D38A
:103050005008286001F05EFE60680A28D6D9012079
:10306000A86070BD001000407002002070CCFFFF0F
:1030700060540000B80C002010B50948416A094AA4
:1030800091420BD1002141620749012008600748A5
:10309000016881F3088840688047FEE710BD0000A2
:1030A00040100240EB9C374A0000014000E0FF1F47
:1030B00010B53049E0284A78097821D012DC35284B
:1030C00044D008DC292844D02A284CD0312816D1F5
:1030D00048064CD449E0392801D082280FD1CB07CB
:1030E0001FD108E00446E23C2300FEF7AEFE0611C5
:1030F000141C08222508890713D4110731D410BDE8
:10310000C8072CD1D0070CD0C80610D4E32010BDBE
:103110004807F9D401E0480701D5E22010BDD007E7
:10312000F2D0E02010BD90070CD5C8060CD50020C9
:1031300010BD0807F9D401E0080701D5E62010BD4D
:103140009007F2D5E42010BDE72010BD880608D412
:1031500001E0880601D5352010BD100701D53920C2
:1031600010BD292010BD480601D5312010BD2A20F0
:1031700010BD0000A80100200FB410B5842202A9E0
:103180000348FDF70DF810BC08BC04B01847000058
:103190007004002030B5084B9D888D420AD9DC8828
:1031A000944207D945436818604380181968400065
:1031B000085A30BD002030BD7004002001220349B0
:1031C000824008789043087070470000AC010020EE
:1031D00001218140024802781143017070470000CC
:1031E000AC010020F3B50E480F4606780D48007A72
:1031F000401E44B201250EE02846A040304208D0CF
:10320000E0B23A460099FFF7C5FF012801D0E0B2CD
:10321000FCBD641E64B2002CEEDA0020FCBD000090
:10322000AC010020700400200148007870470000C5
:103230005001002030B5144900224C24645C8B6C92
:103240001DE01C25554310355D5D854215D11C20C0
:103250004243104608301C58002C12D09D5865433C
:103260006D00141D6D1C1D51896C0858FF2802D17A
:103270008858401C0851012030BD521CD2B29442E3
:10328000DFD8002030BD000070040020FEB500250E
:10329000414F7BE040482C4640381C225443816C0F
:1032A000261D8A59002A68D020460C300190085803
:1032B000002807D001F0ECFD37494039896C0959E5
:1032C000884228D33448224640381132816C00921B
:1032D0008A5C002A13D0002200980A5401F0E3FD12
:1032E0002D4940398A6C019950502B484038806CE8
:1032F00081590259914204D3891A81510BE001226C
:10330000EAE70021244A8151403A936C009819540D
:10331000926C0198115020494039886C8259002ADA
:1033200013D00E46001900F039F800282CD02046A2
:10333000B16C1130085C002813D020461030085CB6
:10334000FF280BD01834095D10E021461431415894
:10335000002919D01034005D884715E01834085D45
:1033600008E01034085DFF2803D0002100F092F936
:103370000AE0002000F0A2F906E023460022113303
:10338000CA54806C0C3402516D1CEDB2387BA842DB
:1033900080D80120FEBD0000B0040020012070474D
:1033A00003490979814201D9012070470020704703
:1033B0009004002010B5012000F002F810BD0000BC
:1033C00010B50446044881790448807801F0DAF9A0
:1033D000214600F08BF910BD900400206001002010
:1033E00010B5012000F002F810BD000010B5044631
:1033F000044841790448407801F0C4F9214600F0BE
:10340000A5F910BD900400206001002010B500F067
:1034100001F810BD10B5084801788A0703D00022D2
:1034200003460C3BDA708908890001708907890F0F
:1034300002A0FEF7E4FD10BD600100205B6C656436
:103440005F6D61747269785F656E61626C655D2045
:1034500025640D0A0000000010B500F001F810BD51
:1034600010B5084801788A0702D103460C3BDA7090
:1034700089088900491C01708907890F02A0FEF79D
:10348000BEFD10BD600100205B6C65645F6D617402
:103490007269785F656E61626C655D2025640D0AF6
:1034A00000000000014880787047000060010020A3
:1034B00001484078704700006001002010B50120ED
:1034C00000F002F810BD000010B5044605488179EF
:1034D0000548807801F050F9C0B2214600F006F9A5
:1034E00010BD0000900400206001002010B50120F4
:1034F00000F002F810BD000010B5044605484179FF
:103500000548407801F038F9C0B2214600F01EF9B4
:1035100010BD0000900400206001002070B50C4632
:103520000546FFF7B3FE2146284600F005F80028BF
:1035300000D0012070BD000038B51B4CA0780028D9
:1035400016D1FFF771FE009068460078800703D51A
:10355000FF211C2000F09EF82078002808D1124896
:1035600008300078800703D5FF21372000F092F85B
:10357000E0783E2816D200250021284600F08AF87F
:103580006D1CEDB23E2DF7D3606801F081FC32284E
:1035900005D901F088FC6060E078401CE070E078BC
:1035A00000F0AAFA012038BDC000002010B5FDF7D8
:1035B00075FB00230E4A0F49137018464400A418E7
:1035C000401CC0B261830828F8D3094A2A3A137014
:1035D000002043009B18401CC0B259830828F8D330
:1035E00005480068401C01D1FEF794FF10BD0000A3
:1035F00046040020FFFF00006001002070B5144663
:103600000D46064600F00EF805494A6DC98871431B
:103610005118695CFF2902D02154401CC0B270BD12
:10362000700400200020704710B5012100F002F85E
:1036300010BD000010B5104C217889071AD0214622
:1036400009788907890F002803D0132803D348314C
:1036500003E0091D01E08000014321700806810E8E
:1036600006A0FEF7CCFC044900200C39C870206885
:10367000FEF73CFF10BD0000600100205B6C65643C
:103680005F6D61747269785F6D6F64655D2025643C
:103690000D0A000030B5084A127982420BD9064A59
:1036A0004000203A136D441C1C5DD588185C6C43A7
:1036B000126F2018115430BD9004002070B50646DA
:1036C0000024064D05E031462046FFF7E3FF641C69
:1036D000E4B22879A042F6D870BD00009004002022
:1036E00010B5012100F002F810BD000010B5054C26
:1036F0000146A07004A0FEF782FC2068FEF7F6FEEB
:1037000010BD0000600100205B6C65645F6D61743A
:103710007269785F73706565645D2025640D0A00C9
:1037200070B5064D04462978884305D0002000F086
:10373000C1F8002000F09EF82C7070BD54010020EC
:1037400010B5012100F002F810BD000010B5064CC4
:103750002178890707D06070014604A0FEF74FFC6E
:103760002068FEF7C3FE10BD600100205B6C65643D
:103770005F6D61747269785F76616C5D2025640DA0
:103780000A00000010B5012000F002F810BD000092
:10379000014610B5044800788008401C122800D368
:1037A0000120FFF747FF10BD6001002010B5012088
:1037B00000F002F810BD0000014610B50548007881
:1037C0008008401E0006000E00D11120FFF732FFD6
:1037D00010BD00006001002010B500F007F9154C85
:1037E0002078002811D120460C30007881070CD0B9
:1037F0008008E2780021002A09D0012A14D0022A88
:1038000015D0032A00D1E17010BD0020F1E709486E
:103810002A22401D0170A068074920618818FCF722
:10382000BFFC0120E07010BD00F044F810BD00F0B6
:1038300021F810BD540100201C04002010B5012007
:1038400000F002F810BD000010B506480122017812
:1038500051400170024600210C3AD1700068FEF719
:1038600045FE10BD6001002001490870704700004E
:103870005001002010B50D4C2146A0700C31097884
:103880008907890F6170002804D009480179002058
:10389000FFF744FE064820388288C1884A43016FFA
:1038A000406FFCF77DFC0320E07010BD5401002048
:1038B0009004002010B54C4CA178884207D12146D5
:1038C0000C31097862788907890F914201D0012172
:1038D00000E00021444A521D91700A2851D008DCB2
:1038E0000300FEF7B2FA0A1B21262B30353A3F447B
:1038F000497F0F285ED008DC0B2847D00C284AD01F
:103900000D284DD00E286DD14FE0102857D011282A
:103910005AD012285DD0FF2864D110BD002961D093
:103920000020FFF7CBFE5DE02F48401DFDF76EFB4A
:1039300053E02D48401DFCF73BFE4EE02A48401D59
:10394000FCF7C4FD49E02848401DFCF7C7FD44E0F2
:103950002548401DFCF7DAFD3FE02348401DFCF7F9
:10396000ABFE3AE02048401DFCF7D0FE35E01E4893
:10397000401DFCF7B7FE30E01B48401DFCF7DEFEA3
:103980002BE01948401DFDF703F926E01648401DBD
:10399000FDF75EFB21E01448401DFDF7BFFB1CE076
:1039A0001148401DFDF75CFB17E00F48401DFDF777
:1039B0008DFB12E00C48401DFDF740FB0DE00A486E
:1039C000401DFEF7F9F908E00748401DFEF70CFA24
:1039D00003E00548401DFDF715FA002802D000203D
:1039E000E07010BD0220FBE75401002070B50F4DC0
:1039F000A86801F04DFA044601F055FAA8600C4998
:103A00000C4800220B78001B0CE055006D186E8BE3
:103A1000B04203D20D786D1E0D7001E036196E8331
:103A2000521CD2B29A42F0D370BD00005401002063
:103A30001C040020FFFF0000F3B583B00446FF2004
:103A4000694608700871FFF733FD294988703EE028
:103A500001A8029027482346406DEE46844625483B
:103A600000218688C2883DE0154600204D43674608
:103A70007F1933E0C55DFF2D2ED09D422CD17246BB
:103A80001170029908701A484568002D1DD0194818
:103A90002030017E407EFCF759FB024614486B46FD
:103AA00041781B784A431349C98859436B461B79AF
:103AB000C918CB085B19D25C4907490FCA40D10726
:103AC00013D000212046FFF7E5FD641CE4B2049802
:103AD0008442BDD305B0F0BD401CC0B28242C9D8FB
:103AE000491CC9B28E42BFD8EFE78178EAE70000EF
:103AF000B00100207004002070B50446451D04E0AC
:103B0000A0B2FF21FFF7C6FD641CAC42F8DB70BD1C
:103B10001CB5FFF7B1FA00F06FFEFEF7B3FFFFF739
:103B2000CFF9FEF769FA002205211E2001F084FC7E
:103B300014490860012001F06DFC13490860FEF78C
:103B400093FF12490120019100900023602210A1EF
:103B5000114801F087FE11490320019100900023D4
:103B600040220FA10F4801F07DFE0F490420019172
:103B70000090002320220DA10D4801F073FE01F0FA
:103B8000CDFBFEE76C0100207001002074010020D5
:103B90004D61747269780000210E000878010020E0
:103BA00041505000ED0300087C01002055534200B5
:103BB000311C0008F0B50B30C108C900144F0026B5
:103BC000144A0FE003688B420BD38B4205D95C1A71
:103BD0004318456830C3083B00E04368136002C0E7
:103BE00004E0021D10680028ECD13046002803D103
:103BF0003868002801D00020F0BD064A0648106051
:103C0000064A121AD208D20044C001203860D7E711
:103C1000600200205C020020440D0020400D0020C6
:103C2000F8B5144881684215114381600024124E92
:103C300087050DE0F06AA1004558681C06D039469A
:103C4000284600F0FAF8284600F0D4F8641CE4B2E4
:103C5000B088A042EED80004810BF06EFCF7B9FAF0
:103C6000B0888100B06EFCF7B4FA3079FEF788FBBB
:103C7000F8BD00004010024070040020F3B500259C
:103C800081B001272C460D4E0DE0306BA10040584D
:103C9000411C03D000F0BAF801280CD00020641CAD
:103CA0000543E4B27F00F088A042EED8029881007C
:103CB00001984550FEBD3846F1E700007004002031
:103CC00010B50B4CA0888100A06EFCF782FAA0888A
:103CD0008100E06EFCF77DFAA0888100606EFCF741
:103CE00078FA04480021006801F0C5FB10BD00000F
:103CF000700400206C01002070B50C4CA088216E6F
:103D00008200A06EFCF770FA002807D0A088012579
:103D10008200216EA06EFCF743FA00E000252279B4
:103D20002B46E16EA06EFEF7FBFA70BD700400201A
:103D3000F0B585B0FFF7E0FF2C48002421468588C8
:103D4000476EC66E0AE08B00FA58F3585A40224379
:103D500001D0012400E00024491CC9B28D4202D9DF
:103D6000002CF0D001E0002C01D0002536E001F05D
:103D700095F81F490A88821A1204120C32D0088062
:103D800030E0A900C26E039152580092426E515821
:103D9000009A514002911FD00127002613E002989B
:103DA00038420DD00098384000D0012032462946D4
:103DB000019001F007F831462846019A00F05CF9BD
:103DC000761CF6B27F000948C088B042E7D80749A0
:103DD00000984A6E039950506D1CEDB203488188DB
:103DE000A942CED8204605B0F0BD000070040020E6
:103DF000680100200207120F0121914000090922E9
:103E000009048002D20680188161704701090922E5
:103E10008902D206891809690007000FC140C80746
:103E2000C00F70470207120F0121914000090922BB
:103E30008002D2068018816170470207120F0123A9
:103E40009340000909228002D206801800B50A4674
:103E50001946FEF755F800BD002801DB642801D99A
:103E600000207047014980000858704754610008DD
:103E7000010909228902D206891852428A180107CB
:103E8000090F002A09D0012080028242044803D190
:103E90000B2901D803484056704702481038FAE70A
:103EA000FFFFFFFFC861000807B5694609790029CF
:103EB00027D00F21C902401A0300FDF7C6FF0A06EA
:103EC00009180C0F1B1E22121522FFF7C5FA16E067
:103ED000FFF79CFA13E0FFF783FA10E0FFF706FB09
:103EE0000DE0FFF7EBFA0AE0FFF764FA07E0FFF7EF
:103EF000A5FC04E0FFF746FC01E0FFF757FC0020BB
:103F00000EBD01200EBD0000F8B500202649012499
:103F10000246254B0A331D5C002D03D01A540B7842
:103F200023430B70401CC0B20828F2D301200225A5
:103F30001E4B1E5C002E03D01A540B782B430B70C3
:103F4000401CC0B21028F3D301200426164B1B1DC1
:103F50001F5C002F03D01A540B7833430B70401CA6
:103F6000C0B20328F2D301200F4BDB1D1F5C002FD2
:103F700004D01A540B7808273B430B70401CC0B286
:103F80000328F1D3084808211230FCF722F906482B
:103F90000549123004700548C91D067003200870D9
:103FA000C81E0570F8BD00008C010020F40400203C
:103FB00073B502200C4C002920700AD068460578A1
:103FC0002846FCF713FE60702846FCF70FFE000A37
:103FD00001E000206070A07003480422001F0178F7
:103FE000114301707CBD000090010020F3B5204812
:103FF0006B461C7805780122630715435B0F1D4F44
:104000009A40E308DB19002916D00221184E0A361F
:10401000765CA6422BD0002E09D0491C0829F5DB7E
:10402000082924D104213970997811431AE0104EDF
:104030000A3674540570F3E702210D4E0A36765C99
:10404000A64205D10A4C00260A346654057002E0E7
:10405000491C0829F1DB9978114208D004213970F4
:104060009978914399700178022211430170FCBD47
:104070008C010020F4040020FEB50025002A03D0A6
:104080006A46FFF7BBFA0546204C207840190828FD
:104090001ED90820461B6719791C3246601CFCF7A4
:1040A0007FF839462046324609310930FCF778F866
:1040B00068000119204672001A301A31FCF770F8B6
:1040C00039462046324611311130FCF769F8267026
:1040D000002017E00E4922788F6D69460B5CA1180D
:1040E0009C465B00FE5C4E705B1CFB5C4B72634647
:1040F0004B7452000021121951832178491C401C35
:104100002170C0B2A842E5D3FEBD00001C0400200F
:104110007004002033B5684605780B4A01231C461D
:10412000E03DAC401078002903D0072D05D820438E
:1041300002E0072D01D8A043107003480A38017827
:10414000194301703CBD00009601002003B50E48E4
:1041500001210170014612390A7810231A430A70AE
:1041600069460B8800210A22ED2B09D0EE2B04D0E2
:104170005242EF2B04D0F02B01D1418082800CBD44
:10418000428081800CBD00009E01002070B50C466D
:1041900015460646FEF702FD002807D02A462146AE
:1041A0003046FEF78FFD002800D0012070BD70B5AD
:1041B0000C461546064600F015F800280ED02A4693
:1041C00021463046FFF7E2FF002808D02A46214664
:1041D0003046FFF769FE002801D0012070BD0020A5
:1041E00070BD000007B55122694612020979824369
:1041F0000ED00F4AD04218D1002914D00D49EF2318
:1042000008780246184010239343184308700CE0C6
:104210006846007A002902D0FEF7DAFF01E0FEF7D7
:10422000CDFF00200EBD00F099FE01200EBD000064
:10423000F687FFFFA801002010B50C4A1278012A6A
:1042400011D151221202824308780AD0002806D0E8
:1042500048784206520E88781146FEF73FF8002053
:1042600010BD0028F4D0012010BD0000B0010020D6
:1042700013B568460078A52814D0A62814D0A7281E
:1042800014D000200A4B5A8890420AD05880032448
:10429000DA1D14705070000A9070187808210843D5
:1042A00018701CBD8120EDE78220EBE78320E9E751
:1042B0008C010020F8B5134C0F46E66805462068CF
:1042C000001D00F02DFF681C07D1002F05D02168CC
:1042D0000D48091D00F05DFFF8BD206875194560A7
:1042E0002168B54204D2A06B091D00F03AFFF8BD69
:1042F000606B091D00F035FFA06A8542F7D2A56208
:10430000F8BD0000C8010020B8050020F8B505463A
:1043100000F04CFF294CA068401CA0602068284F8A
:10432000002803D06069002827D02CE02560A06811
:10433000012828D1002614207043C01900F003FF83
:10434000761C052EF7D31E48643000F0FCFE1C4896
:10435000783000F0F8FE1A488C3000F0F4FE18486F
:10436000A03000F0F0FE1648B43000F0ECFE144827
:10437000643060631430A06305E02068E96AC06AB5
:10438000884200D82560606A401C6062E86A216942
:10439000884200D9206114214843C019291D00F02A
:1043A000F8FE00F00FFF6069002806D02068E96A77
:1043B000C06A884201D200F035FFF8BDC801002074
:1043C0000405002010B5026C0C46002A0CD0C16810
:1043D0008B18C36081688B4201D2194601E00168E5
:1043E000C1602046FBF7DCFE10BDF8B5856B1746B3
:1043F00004460026026C002A11D0002F19D0E06874
:10440000FBF7CEFEE168206C091AE1602268914258
:1044100002D2A168081AE060022F17D019E02068C4
:10442000002816D1A06801F0A5FB06460020A06078
:104430000FE06068FBF7B4FE216C606840186060B4
:10444000A168884205D32068606002E0002D00D09A
:104450006D1E6D1CA5633046F8BD10B50446006B9B
:1044600000F0BEFE204600F0BBFE10BD0F480E4916
:10447000420705D0C01DC0080C4AC000821A891A24
:104480000B4A0023411809C20839C908C900183A63
:1044900011604B600B600B1A0AC093600120C007CB
:1044A0005360D06070470000CC060000E00500209B
:1044B000400200200F4E104C3746A03F11E000F0A4
:1044C00075FEF068C568281D00F02AFEA068401E31
:1044D000A0606068401E606000F074FE2846FFF730
:1044E000BCFF60680028EAD138680128F9D900F0DB
:1044F00099FEF6E7A4050020C8010020FFB581B0B1
:104500000C9C9000236B001F1818C6080A9DF6002B
:10451000700701D072B6FEE72246203200290DD086
:10452000002027180B5C20373B750B5C002B02D05A
:10453000401C0A28F5D30020507701E000201075B8
:10454000052D00D30425E56200276764201D25643E
:1045500000F004FE2046183000F000FE2461052023
:10456000401B6462A061A7644C2007553046049A42
:10457000019900F0F1F820600B98002800D0046049
:1045800005B0F0BD30B5114900E011460A6882421D
:10459000FBD34B685C18844203D14068181848600C
:1045A000084643681C18944209D1084C103C246802
:1045B000A24209D052689A1842600A6812680260E2
:1045C000814200D0086030BD0460F9E7400200205D
:1045D00010B5044600F0EAFDA06B002804D00024CA
:1045E00000F0F0FD204610BD0124F9E70648416BBC
:1045F0000968002905D0416BC968C96849688162AA
:1046000070470021C943FAE7C80100200348006849
:10461000401C72B600D0FEE7FEE700004802002012
:10462000F8B5044600F0C2FD254640350526AE57D4
:10463000274624370BE0606A00280AD0384601F08C
:1046400009FB002801D000F019FE761E76B2002E7C
:10465000F1DC0027FF436F7100F0B4FD00F0A6FD10
:104660000426AE572046103000900BE02069002849
:104670000AD0009801F0EEFA002801D000F0FEFD0B
:10468000761E76B2002EF1DC2F7100F09BFDF8BD96
:10469000F8B50546002700F067FE284E3068002870
:1046A00001D1FFF7E3FEF06805423FD1002D3DD078
:1046B0000835680708D06807400F0821081A45190F
:1046C000680701D072B6FEE7002D2FD070688542D2
:1046D0002CD81A48103001460C6801E020460C46E0
:1046E0006168A94202D221680029F7D131688C4261
:1046F0001CD007682168016060680837411B1029D9
:1047000008D96019420701D072B6FEE741606560C2
:10471000FFF738FF61687068401A7060B2689042B5
:1047200000D2B060F0680143002003C401F0C4FA75
:10473000780701D072B6FEE73846F8BD3002002097
:1047400004490868002803D00868426C521C42647F
:1047500008687047C801002010B50124031F240613
:104760001C601B1F1960191F024B0B601439403865
:104770000A6010BD0D4600084018FF2800D9FF2030
:1047800040B27047401A00D50020C0B27047000008
:104790000549064A08885043054A80180880010ADE
:1047A000491C4140C8B27047C40100200508000000
:1047B0001936000070B5040013D0FF2001302146E7
:1047C000FBF7C4FC60430546FFF7E2FF2146FBF719
:1047D000BDFC08468542F7D92146FBF7B7FC0846E1
:1047E00070BD002070BD10B50446081BC0B2FFF7B5
:1047F000E1FF0019C0B210BDF8B54D480024C460F7
:1048000044610125856181690029FCD14A49494AF1
:104810000A604A4903220A620C224A624849CA686D
:10482000484B1205484E9A4203D1C9680904090F42
:104830002BD145494039CC6332699207FCD5434AB4
:1048400002235B1C9342FCD3CD633369DB07FCD0AE
:1048500002235B1C9342FCD33B4B4327803BDF632B
:104860005B150B6010234B6016234B61CD60FF235B
:1048700056330B610323F36002235B1C9342FCD38A
:10488000F460314A803AD463CC6031490D60C46031
:1048900002214161856181690029FCD14462056280
:1048A0000921C161456224482A49016026488038AF
:1048B000816A4908490081622148C030006B1C4F61
:1048C0004037401C11D124484168244A914207D105
:1048D00001884288D24392B2914201D1008870602F
:1048E000386A000701D5FEF719FB144804624462D8
:1048F000F8692843F861B86802210843B86018488D
:104900000168184A11407268120211430160164989
:10491000416016490A6A2A430A620168602211430B
:104920000160B868012149020843B860F8BD000081
:104930000010024080841E006402002000700040CD
:1049400000FAFF1F0000509B80000240102700006B
:1049500000200240006CDC0200F7FF1F69E5B5A3F0
:10496000006C0040FF00FCFF7FBB7820000001408E
:1049700000B50E4A9388834207D9D3888B4204D965
:104980004343581880B2D16F0CE0127C002A03D048
:10499000FD2803D0FC2801D0002000BD08460349B3
:1049A0008031096800F004F800BD000070040020A8
:1049B00010B5C3084407640F9B0000205B18012159
:1049C0000246A1409C5C0C4000D00124944004436A
:1049D000521CD2B2E0B2042AF4D310BD0EB569461F
:1049E0000880012008716B4607CBFDF729FB00F01A
:1049F00001F80EBD10B5234C2078C1070BD021461D
:104A000008220A31812000F06DF8012810D12078A9
:104A1000400840000BE081070BD510221A49822084
:104A200000F060F8012803D12078FD2127E02070F4
:104A300010BD41070AD513490322091D822000F049
:104A400051F80128F4D12078FB2118E001070AD59C
:104A50000C490322C91D822000F044F80128E7D147
:104A60002078F7210BE0C006E2D506490822123172
:104A7000822000F037F80128DAD12078EF210840B1
:104A8000D5E700008C010020F40400207CB50F481D
:104A90000078002819D0012069460D4D8870002447
:104AA000A007800F6946ED30088000231A46286869
:104AB00000F017FD641CE4B2082CF1D30548012274
:104AC00000231146006800F0F5FE7CBD9402002032
:104AD0006C010020780100204843000A70474843D9
:104AE000000A704770B5812802D0822802D00CE0FD
:104AF0000F4C00E00F4C002C07D00F4B9D7C032D7A
:104B000006D09B7C022B06D008E00020C04370BD7D
:104B10000120C04370BD2368002B01D0002070BD70
:104B200072B692B2FCF7A4FD0120206062B670BD9F
:104B30000402002008020020CC05002010B502204D
:104B4000FBF72AFE0120FDF79DF91948C2680221F2
:104B50008A43C26082688A43826042688A434260B4
:104B600002688A430260002206211248FBF750FFC8
:104B70001148026901150A43026102698A43026110
:104B800082688A43826001210C48C9430161C1687F
:104B900049084900C1600A4940140860BFF34F8FBB
:104BA000BFF36F8F0748C16982009143C16110BD97
:104BB00000040140000C004840100240001000407A
:104BC00080E100E00000014010B518488168184AF3
:104BD00011438160174A06211748FBF719FF02208D
:104BE000FBF7DAFD00210120FDF758F90120FDF760
:104BF00049F91248FBF712FE10480221016000211A
:104C000001710821417101218171FBF7D1FD0C482F
:104C1000F02142688A43426041683022114341607A
:104C2000C169084A1143C16110BD00004010024033
:104C30000002080001000020000C0048840200204F
:104C4000000001400000A4890146420601D5FF2270
:104C5000111A8906890E0A07120F430600D5521C45
:104C60000909084B490059180B784978514309093B
:104C7000C91849B2000601D5484241B28031C8B2D4
:104C800070470000D3610008F8B50D48C1690D4AAE
:104C90001143C161002511270B4C3F060CE0606BEE
:104CA000AE008059411C06D03946FFF7C6F8606B4C
:104CB0008059FFF7B7F86D1CA088A842EFDCF8BD5B
:104CC00000000140AA0AA0897004002010B5012844
:104CD00001D8C0B210BDF72101224901884201D993
:104CE000FF2302E041090831CBB2D11849080C4634
:104CF0004C43844202D9491ECBB203E0FF2906D0BF
:104D0000491CCAB29342F0D2521ED0B210BDFF204D
:104D100010BD0000F8B5254E756825480068254A85
:104D200044000020244F2549944208D2081B422108
:104D3000FBF70CFA2918B94237D2716024E01F4AF8
:104D40001F4B52429C4207D9A0184221FBF7FEF9A3
:104D500085422AD9291AF0E78C4208D2081B422141
:104D6000FBF7F4F92918B9421FD2716009E08C42AF
:104D700007D9A0184221FBF7E9F9854215D9291A6C
:104D8000F3E70B4901228A6009490C310A68920055
:104D90005218D4600A689200521855630A6892004B
:104DA0005218D0650868401C0860F8BD80000240B9
:104DB000AC0C0020E0B50000FF03000080BB000049
:104DC00020C10000FEB50C460700154611462046DE
:104DD00008D0FEF707FA064602462946204600F0AC
:104DE0001DF902E0FFF7C4FD0646684687710472AC
:104DF000C5711C482346017C002903D0FD2C26D018
:104E0000FC2C24D08188C288714309195143491967
:104E100000682A464900405A694688805006400E7C
:104E2000009068468288F907C90F0F48FDF7E7F838
:104E30000E4800231A4601A9006800F052FB0C48F6
:104E4000012200231146006800F034FDFEBD7143CD
:104E50004919490009194900FF3940692A46F939B9
:104E6000D9E7000070040020206300086C010020D6
:104E70007801002010B5C046C0460120FEF750FC66
:104E800010BD10B5C046C0460020FEF749FC10BD5D
:104E900010B5044600F0CCFD001B10BD10B500F0AD
:104EA000C7FD80B210BD10B500F0C2FD10BD0000FE
:104EB000F7B5284996468A7882B0002394460F7841
:104EC00048683FE09900029A00915558039A51585A
:104ED0004D40002130E001248C40254221D0027851
:104EE0000192520825D1009F029AD7592742019F6B
:104EF00002D00122174301E07F087F000770FA0704
:104F0000767AD20F7600164306700127F60710D086
:104F1000009E039A96596640009C165101229446C1
:104F200007E00478620804D0E20702D1E207D20F5A
:104F30000270491CC9B2401C074EF4888C42CAD882
:104F40005B1CDBB27345BDD30248614681700770BC
:104F500005B0F0BD80010020700400200EB5694648
:104F60000880002008716B4607CBFDF769F8FFF752
:104F700041FD0EBDFFB52749002082B04C68087086
:104F800048709446054601463CE0002334E0012287
:104F90009A402678964677082BD0059A770897424C
:104FA00020D8F207D20F2270D20701D0012120E0D1
:104FB000AF00039E0197F659724600969643029AF7
:104FC000D759724617403E43009A124FB646724078
:104FD000BE78324300D00122BA70019F039A764610
:104FE000D65106E0F007C00FBA1A520010432070E5
:104FF00001205B1CDBB2641C074AD2889A42C6D8E7
:105000006D1CEDB26545C0D3024A1070517006B0F8
:10501000F0BD0000800100207004002010B50D4B91
:1050200014469A88824207D9DA888A4204D94243D0
:10503000501881B2DA6F09E01A7C002A09D0FD28E5
:1050400001D0FC2805D1034880300268204600F0DA
:1050500003F810BD7004002070B5CD084E07012381
:10506000760F1C46B4400021AD00AD181A468A40A8
:10507000024000D001226E5C5242724022407240D7
:105080006A54491CC9B20429F0D370BD02780A7071
:1050900000780B2802D0FF2008707047012048706C
:1050A0000249014808607047A5A5A55A28020020BA
:1050B00010B50A4C207800280ED00948817C0329BD
:1050C00008D172B6807C032803D1FDF761F8FCF7A4
:1050D000DBF862B60020207010BD00004C020020FA
:1050E000CC05002010B505480178002905D0002125
:1050F000017072B6FDF796F862B610BD4D02002041
:1051000000B59DB0742205496846FBF749F803488D
:1051100010380FC8FEF730F81DB000BDDC000020CD
:105120004368826801699A60836842685A604A6885
:10513000824201D182684A60002202610868401EF2
:105140000860086870470146083100224160D24378
:10515000C16082600161002101607047002101612E
:10516000704730B50B685A1C02D00246083202E084
:10517000026904E02246546825689D42FAD95368C2
:105180004B6099608A60516008610168491C016048
:1051900030BD42684A6093688B6093685960916043
:1051A00008610168491C01607047000072B604483C
:1051B0000168491C0160BFF34F8FBFF36F8F7047C9
:1051C0004802002005490868002804D0401E0860F5
:1051D00000D162B6704772B6FEE7000048020020B8
:1051E00070B500281AD004460D4D083C6068E96887
:1051F000084201D172B6FEE72268002A01D072B6D9
:10520000FEE78843606000F0AFF8606869684018A6
:1052100068602046FFF7B6F900F04EFD70BD000053
:10522000300200200120044900074860BFF34F8F7F
:10523000BFF36F8F7047000000ED00E010B5020073
:105240000FD00948006B002801D072B6FEE700F0CD
:105250008BF800211046FFF72DF800F02DFD0028F7
:1052600001D1FFF7DFFF10BDC801002002490A6A23
:105270000260C96841607047C801002001490120EF
:10528000C8617047C801002010B50C46002809D03D
:10529000054909681831FFF764FF01212046FFF72F
:1052A00009F810BD72B6FEE7C801002070B5040011
:1052B0002FD0626C002A0ED0206C884200D30146A9
:1052C000E06A884225D0012A23D1124D2A689442EF
:1052D00003D172B6FEE772B6FEE7E162A269002A68
:1052E00002DB0522511AA16114220B4E5043616961
:1052F000801981420DD1201DFFF712FFE06A296954
:10530000884200D92861142148438019211DFFF7E4
:1053100040FF70BDC8010020040500201CB50E48E8
:1053200000240190234640220CA100940D4800F077
:1053300099FA012803D0401C0CD172B6FEE772B670
:1053400000210548C9432C38816201214161C460B4
:1053500000F03EF81CBD0000F401002049444C451B
:1053600000000000B54400080248016B491C0163BD
:1053700070470000C801002010B51348016B0029D8
:1053800002D00121C16110BD0021C16101690F4A34
:1053900002E0002915D0491E14234B43D358002B9B
:1053A000F7D014234B439A18536814465B680834AB
:1053B0005360A34201D15B685360DA680260016107
:1053C00010BD72B6FEE70000C801002004050020F1
:1053D00010B50C48016AFF22120411430162016AF0
:1053E0001202114301620848002101618161074AEC
:1053F00042610722026106480160FAF76BFE002055
:1054000010BD000000ED00E000E000E07FBB000008
:105410004802002010B502460021012000F00CF8DF
:10542000041E07D00021816001600B460A46C1605E
:1054300000F057F8204610BD70B50E46050014D098
:10544000002E14D070434830FFF722F904000AD030
:10545000214648312046002E0BD001600664012110
:10546000C56300F008F8204670BD72B6FEE7002064
:10547000E9E70060F2E770B50D46040025D0FFF7BC
:1054800095FE216CE06B484321684118A160002122
:10549000A16321686160E06B216C401E4843216874
:1054A0004118E1600021C94320464030017141713B
:1054B0003038002D0BD0FFF746FE20462430FFF792
:1054C00042FEFFF77FFE012070BD72B6FEE7216944
:1054D0000029F6D000F0BEFB0028F2D0FFF7A2FEB4
:1054E000EFE7FFB5002683B01D46040003D0049803
:1054F000002802D006E072B6FEE7206C002801D03A
:1055000072B6FEE70027022D04D1E06B012801D01E
:1055100072B6FEE7FFF74AFEA16BE06B814207D34C
:10552000022D05D00598002817D0002E18D01BE0BA
:105530002A4620460499FEF758FF616A002903D0E5
:105540002046243000F086FB002801D0FFF76AFED9
:10555000FFF738FE012007B0F0BDFFF733FE22E071
:105560006846FFF783FE0126FFF72CFEFFF7FCFEDF
:10557000FFF71CFE2046403004214156491C00D153
:10558000077105214156491C00D14771FFF71AFEEA
:1055900005A9684600F038F9002806D02046FFF734
:1055A0003FF800F089FB0020D5E7FFF7FFFDA06B77
:1055B000E16B884210D1FFF705FE204610300599B7
:1055C000FFF762FE2046FFF72BF800F075FB00287E
:1055D000A0D1FFF727FE9DE7FFF7F4FD2046FFF778
:1055E0001FF800F069FB95E7F7B5002582B00400CD
:1055F00004D003980026002802D006E072B6FEE729
:10560000206C002801D072B6FEE7FFF7CFFDA76B34
:10561000002F15D020460399FEF7D4FE7F1EA76306
:105620002069002807D02046103000F013FB002826
:1056300001D0FFF7F7FDFFF7C5FD012005B0F0BD74
:105640000498002802D0002D03D006E0FFF7BAFD31
:1056500027E06846FFF70AFE0125FFF7B3FDFFF7D5
:1056600083FEFFF7A3FD2046403004214156491C2C
:1056700000D1067105214156491C00D14671FFF742
:10568000A1FD04A9684600F0BFF8002820460AD012
:10569000FEF7C6FF00F010FB2046FEF799FF00283A
:1056A000B3D00020CAE7FEF793FF00280ED02046B3
:1056B00024300499FFF7E8FD2046FEF7B1FF00F023
:1056C000FBFA0028A1D1FFF7ADFD9EE72046FEF7CB
:1056D000A7FF00F0F1FA98E7F3B5002683B0041EA7
:1056E000354605D0206C0027002803D072B6FEE7AF
:1056F00072B6FEE7FFF75AFDA06B002817D0401ED8
:10570000A0632068002802D1FFF71AF8A060206982
:10571000002807D02046103000F09CFA002801D065
:10572000FFF780FDFFF74EFD012005B0F0BD0498A6
:10573000002802D0002E07D00AE0002D01D072B65A
:10574000FEE7FFF73FFD5CE06846FFF78FFD0126AF
:10575000FFF738FDFFF708FEFFF728FD2046403031
:1057600004214156491C00D1077105214156491CAD
:1057700000D14771FFF726FD04A9684600F044F800
:105780000028204614D0FEF74BFF00F095FA204683
:10579000FEF71EFF0028ADD0002D32D0FFF706FD2A
:1057A000606A002828D0206B05210068091A24E0CF
:1057B000FEF70EFF002819D02068002807D1FFF758
:1057C000F5FCA06800F00AFA0546FFF7FBFC20464E
:1057D00024300499FFF758FD2046FEF721FF00F022
:1057E0006BFA002886D1FFF71DFD83E72046FEF700
:1057F00017FF00F061FA7DE70021A068FFF756FD72
:105800009FE7002091E70000F8B50C46050012D094
:10581000002C12D0FFF7CAFC114BDA686E682068C2
:10582000911B471C0BD02F681B6A9F420CD09642DD
:105830000AD8012404E072B6FEE772B6FEE700243F
:10584000FFF7C0FC2046F8BD884205D9401A206009
:105850002846FFF70BFDF2E700202060E9E7000093
:10586000C8010020FFB585B0164690000F9FFEF7D7
:105870000FFF05001AD05020FEF70AFF040012D0D7
:10588000256300210E9803910197009002943246FF
:10589000089B06990598FEF731FE2046FEF736FD77
:1058A000012009B0F0BD2846FFF79AFC0020C04354
:1058B000F7E70000FFB5012681B01F460D4600281E
:1058C00014D00446FFF772FC002F01D0A06C3860A2
:1058D000204640300146007B02220A7303990B00E8
:1058E000FCF7B3FA051806090F0D130072B6FEE7B0
:1058F000A16C294301E0A16C491CA1640AE00228C3
:1059000001D0A56406E0002622E0A16C491C01D06C
:1059100072B6FEE701281BD1201DFFF701FC0F4DD9
:10592000E06A2969884200D92861142148430C495A
:105930004018211DFFF72DFCA06A002801D072B687
:10594000FEE7E06A2968C96A884201D9FFF76AFC64
:10595000FFF738FC304605B0F0BD0000C80100205C
:1059600004050020FFB5012681B01F460D46002822
:1059700015D00446FAF7C2FB0090002F01D0A06CAE
:105980003860204640300146007B02220A730399AA
:105990000B00FCF75AFA051806090F0D130072B632
:1059A000FEE7A16C294301E0A16C491CA1640AE057
:1059B000022801D0A56406E000262EE0A16C491C57
:1059C00001D072B6FEE7012827D1A06A002801D0D5
:1059D00072B6FEE7144D286B002803D0214618311B
:1059E00012480DE0201DFFF79BFBE06A2969884201
:1059F00000D92861142148430C498C394018211DD5
:105A0000FFF7C7FBE06A2968C96A884205D90A9985
:105A10000120002900D00860E8610098FAF772FBC5
:105A2000304605B0F0BD0000C80100209005002000
:105A30000148C06870470000C8010020F8B52C4C30
:105A40000027206B002808D0A069401CA061E069F5
:105A5000002800D001273846F8BDE668761CE660CD
:105A60000ED1606B0068002801D072B6FEE7606B53
:105A7000A16B6163A063206A401C2062FEF7B6FD43
:105A8000A06A86420AD3606B0068002810D0606B61
:105A9000C068C568686886420DD2A062206814217B
:105AA000C06A4843134908580128D0D90127CEE7D6
:105AB0000020C043F1E7281DFFF732FBA86A002849
:105AC00003D028461830FFF72BFBE86A216988428B
